{"abi":[{"inputs":[{"internalType":"uint256","name":"_minimumContribution","type":"uint256"}],"name":"deployCampaign","outputs":[],"stateMutability":"nonpayable","type":"function"},{"inputs":[{"internalType":"uint256","name":"","type":"uint256"}],"name":"deployedCampaigns","outputs":[{"internalType":"address","name":"","type":"address"}],"stateMutability":"view","type":"function"},{"inputs":[],"name":"getDeployedCampaigns","outputs":[{"internalType":"address[]","name":"","type":"address[]"}],"stateMutability":"view","type":"function"}],"devdoc":{"kind":"dev","methods":{},"version":1},"evm":{"assembly":"    /* \"DecenAngels.sol\":72:475  contract ContractFactory {... */\n  mstore(0x40, 0x80)\n  callvalue\n  dup1\n  iszero\n  tag_1\n  jumpi\n  0x00\n  dup1\n  revert\ntag_1:\n  pop\n  dataSize(sub_0)\n  dup1\n  dataOffset(sub_0)\n  0x00\n  codecopy\n  0x00\n  return\nstop\n\nsub_0: assembly {\n        /* \"DecenAngels.sol\":72:475  contract ContractFactory {... */\n      mstore(0x40, 0x80)\n      callvalue\n      dup1\n      iszero\n      tag_1\n      jumpi\n      0x00\n      dup1\n      revert\n    tag_1:\n      pop\n      jumpi(tag_2, lt(calldatasize, 0x04))\n      shr(0xe0, calldataload(0x00))\n      dup1\n      0x339d50a5\n      eq\n      tag_3\n      jumpi\n      dup1\n      0x37ec992a\n      eq\n      tag_4\n      jumpi\n      dup1\n      0x4acb9d4f\n      eq\n      tag_5\n      jumpi\n    tag_2:\n      0x00\n      dup1\n      revert\n        /* \"DecenAngels.sol\":104:138  address[] public deployedCampaigns */\n    tag_3:\n      tag_6\n      0x04\n      dup1\n      calldatasize\n      sub\n      dup2\n      add\n      swap1\n      tag_7\n      swap2\n      swap1\n      tag_8\n      jump\t// in\n    tag_7:\n      tag_9\n      jump\t// in\n    tag_6:\n      mload(0x40)\n      tag_10\n      swap2\n      swap1\n      tag_11\n      jump\t// in\n    tag_10:\n      mload(0x40)\n      dup1\n      swap2\n      sub\n      swap1\n      return\n        /* \"DecenAngels.sol\":147:350  function deployCampaign(uint _minimumContribution) public {... */\n    tag_4:\n      tag_12\n      0x04\n      dup1\n      calldatasize\n      sub\n      dup2\n      add\n      swap1\n      tag_13\n      swap2\n      swap1\n      tag_8\n      jump\t// in\n    tag_13:\n      tag_14\n      jump\t// in\n    tag_12:\n      stop\n        /* \"DecenAngels.sol\":358:472  function getDeployedCampaigns() public view returns (address[] memory) {... */\n    tag_5:\n      tag_15\n      tag_16\n      jump\t// in\n    tag_15:\n      mload(0x40)\n      tag_17\n      swap2\n      swap1\n      tag_18\n      jump\t// in\n    tag_17:\n      mload(0x40)\n      dup1\n      swap2\n      sub\n      swap1\n      return\n        /* \"DecenAngels.sol\":104:138  address[] public deployedCampaigns */\n    tag_9:\n      0x00\n      dup2\n      dup2\n      sload\n      dup2\n      lt\n      tag_19\n      jumpi\n      0x00\n      dup1\n      revert\n    tag_19:\n      swap1\n      0x00\n      mstore\n      keccak256(0x00, 0x20)\n      add\n      0x00\n      swap2\n      pop\n      sload\n      swap1\n      0x0100\n      exp\n      swap1\n      div\n      0xffffffffffffffffffffffffffffffffffffffff\n      and\n      dup2\n      jump\t// out\n        /* \"DecenAngels.sol\":147:350  function deployCampaign(uint _minimumContribution) public {... */\n    tag_14:\n        /* \"DecenAngels.sol\":216:235  address newCampaign */\n      0x00\n        /* \"DecenAngels.sol\":262:282  _minimumContribution */\n      dup2\n        /* \"DecenAngels.sol\":284:294  msg.sender */\n      caller\n        /* \"DecenAngels.sol\":246:295  new DecenAngels(_minimumContribution, msg.sender) */\n      mload(0x40)\n      tag_22\n      swap1\n      tag_23\n      jump\t// in\n    tag_22:\n      tag_24\n      swap3\n      swap2\n      swap1\n      tag_25\n      jump\t// in\n    tag_24:\n      mload(0x40)\n      dup1\n      swap2\n      sub\n      swap1\n      0x00\n      create\n      dup1\n      iszero\n      dup1\n      iszero\n      tag_26\n      jumpi\n      returndatasize\n      0x00\n      dup1\n      returndatacopy\n      revert(0x00, returndatasize)\n    tag_26:\n      pop\n        /* \"DecenAngels.sol\":216:296  address newCampaign = address(new DecenAngels(_minimumContribution, msg.sender)) */\n      swap1\n      pop\n        /* \"DecenAngels.sol\":307:324  deployedCampaigns */\n      0x00\n        /* \"DecenAngels.sol\":330:341  newCampaign */\n      dup2\n        /* \"DecenAngels.sol\":307:342  deployedCampaigns.push(newCampaign) */\n      swap1\n      dup1\n      0x01\n      dup2\n      sload\n      add\n      dup1\n      dup3\n      sstore\n      dup1\n      swap2\n      pop\n      pop\n      0x01\n      swap1\n      sub\n      swap1\n      0x00\n      mstore\n      keccak256(0x00, 0x20)\n      add\n      0x00\n      swap1\n      swap2\n      swap1\n      swap2\n      swap1\n      swap2\n      0x0100\n      exp\n      dup2\n      sload\n      dup2\n      0xffffffffffffffffffffffffffffffffffffffff\n      mul\n      not\n      and\n      swap1\n      dup4\n      0xffffffffffffffffffffffffffffffffffffffff\n      and\n      mul\n      or\n      swap1\n      sstore\n      pop\n        /* \"DecenAngels.sol\":205:350  {... */\n      pop\n        /* \"DecenAngels.sol\":147:350  function deployCampaign(uint _minimumContribution) public {... */\n      pop\n      jump\t// out\n        /* \"DecenAngels.sol\":358:472  function getDeployedCampaigns() public view returns (address[] memory) {... */\n    tag_16:\n        /* \"DecenAngels.sol\":411:427  address[] memory */\n      0x60\n        /* \"DecenAngels.sol\":447:464  deployedCampaigns */\n      0x00\n        /* \"DecenAngels.sol\":440:464  return deployedCampaigns */\n      dup1\n      sload\n      dup1\n      0x20\n      mul\n      0x20\n      add\n      mload(0x40)\n      swap1\n      dup2\n      add\n      0x40\n      mstore\n      dup1\n      swap3\n      swap2\n      swap1\n      dup2\n      dup2\n      mstore\n      0x20\n      add\n      dup3\n      dup1\n      sload\n      dup1\n      iszero\n      tag_29\n      jumpi\n      0x20\n      mul\n      dup3\n      add\n      swap2\n      swap1\n      0x00\n      mstore\n      keccak256(0x00, 0x20)\n      swap1\n    tag_30:\n      dup2\n      0x00\n      swap1\n      sload\n      swap1\n      0x0100\n      exp\n      swap1\n      div\n      0xffffffffffffffffffffffffffffffffffffffff\n      and\n      0xffffffffffffffffffffffffffffffffffffffff\n      and\n      dup2\n      mstore\n      0x20\n      add\n      swap1\n      0x01\n      add\n      swap1\n      dup1\n      dup4\n      gt\n      tag_30\n      jumpi\n    tag_29:\n      pop\n      pop\n      pop\n      pop\n      pop\n      swap1\n      pop\n        /* \"DecenAngels.sol\":358:472  function getDeployedCampaigns() public view returns (address[] memory) {... */\n      swap1\n      jump\t// out\n    tag_23:\n      dataSize(sub_0)\n      dup1\n      dataOffset(sub_0)\n      dup4\n      codecopy\n      add\n      swap1\n      jump\t// out\n        /* \"#utility.yul\":88:205   */\n    tag_32:\n        /* \"#utility.yul\":197:198   */\n      0x00\n        /* \"#utility.yul\":194:195   */\n      dup1\n        /* \"#utility.yul\":187:199   */\n      revert\n        /* \"#utility.yul\":334:411   */\n    tag_34:\n        /* \"#utility.yul\":371:378   */\n      0x00\n        /* \"#utility.yul\":400:405   */\n      dup2\n        /* \"#utility.yul\":389:405   */\n      swap1\n      pop\n        /* \"#utility.yul\":334:411   */\n      swap2\n      swap1\n      pop\n      jump\t// out\n        /* \"#utility.yul\":417:539   */\n    tag_35:\n        /* \"#utility.yul\":490:514   */\n      tag_54\n        /* \"#utility.yul\":508:513   */\n      dup2\n        /* \"#utility.yul\":490:514   */\n      tag_34\n      jump\t// in\n    tag_54:\n        /* \"#utility.yul\":483:488   */\n      dup2\n        /* \"#utility.yul\":480:515   */\n      eq\n        /* \"#utility.yul\":470:533   */\n      tag_55\n      jumpi\n        /* \"#utility.yul\":529:530   */\n      0x00\n        /* \"#utility.yul\":526:527   */\n      dup1\n        /* \"#utility.yul\":519:531   */\n      revert\n        /* \"#utility.yul\":470:533   */\n    tag_55:\n        /* \"#utility.yul\":417:539   */\n      pop\n      jump\t// out\n        /* \"#utility.yul\":545:684   */\n    tag_36:\n        /* \"#utility.yul\":591:596   */\n      0x00\n        /* \"#utility.yul\":629:635   */\n      dup2\n        /* \"#utility.yul\":616:636   */\n      calldataload\n        /* \"#utility.yul\":607:636   */\n      swap1\n      pop\n        /* \"#utility.yul\":645:678   */\n      tag_57\n        /* \"#utility.yul\":672:677   */\n      dup2\n        /* \"#utility.yul\":645:678   */\n      tag_35\n      jump\t// in\n    tag_57:\n        /* \"#utility.yul\":545:684   */\n      swap3\n      swap2\n      pop\n      pop\n      jump\t// out\n        /* \"#utility.yul\":690:1019   */\n    tag_8:\n        /* \"#utility.yul\":749:755   */\n      0x00\n        /* \"#utility.yul\":798:800   */\n      0x20\n        /* \"#utility.yul\":786:795   */\n      dup3\n        /* \"#utility.yul\":777:784   */\n      dup5\n        /* \"#utility.yul\":773:796   */\n      sub\n        /* \"#utility.yul\":769:801   */\n      slt\n        /* \"#utility.yul\":766:885   */\n      iszero\n      tag_59\n      jumpi\n        /* \"#utility.yul\":804:883   */\n      tag_60\n      tag_32\n      jump\t// in\n    tag_60:\n        /* \"#utility.yul\":766:885   */\n    tag_59:\n        /* \"#utility.yul\":924:925   */\n      0x00\n        /* \"#utility.yul\":949:1002   */\n      tag_61\n        /* \"#utility.yul\":994:1001   */\n      dup5\n        /* \"#utility.yul\":985:991   */\n      dup3\n        /* \"#utility.yul\":974:983   */\n      dup6\n        /* \"#utility.yul\":970:992   */\n      add\n        /* \"#utility.yul\":949:1002   */\n      tag_36\n      jump\t// in\n    tag_61:\n        /* \"#utility.yul\":939:1002   */\n      swap2\n      pop\n        /* \"#utility.yul\":895:1012   */\n      pop\n        /* \"#utility.yul\":690:1019   */\n      swap3\n      swap2\n      pop\n      pop\n      jump\t// out\n        /* \"#utility.yul\":1025:1151   */\n    tag_37:\n        /* \"#utility.yul\":1062:1069   */\n      0x00\n        /* \"#utility.yul\":1102:1144   */\n      0xffffffffffffffffffffffffffffffffffffffff\n        /* \"#utility.yul\":1095:1100   */\n      dup3\n        /* \"#utility.yul\":1091:1145   */\n      and\n        /* \"#utility.yul\":1080:1145   */\n      swap1\n      pop\n        /* \"#utility.yul\":1025:1151   */\n      swap2\n      swap1\n      pop\n      jump\t// out\n        /* \"#utility.yul\":1157:1253   */\n    tag_38:\n        /* \"#utility.yul\":1194:1201   */\n      0x00\n        /* \"#utility.yul\":1223:1247   */\n      tag_64\n        /* \"#utility.yul\":1241:1246   */\n      dup3\n        /* \"#utility.yul\":1223:1247   */\n      tag_37\n      jump\t// in\n    tag_64:\n        /* \"#utility.yul\":1212:1247   */\n      swap1\n      pop\n        /* \"#utility.yul\":1157:1253   */\n      swap2\n      swap1\n      pop\n      jump\t// out\n        /* \"#utility.yul\":1259:1377   */\n    tag_39:\n        /* \"#utility.yul\":1346:1370   */\n      tag_66\n        /* \"#utility.yul\":1364:1369   */\n      dup2\n        /* \"#utility.yul\":1346:1370   */\n      tag_38\n      jump\t// in\n    tag_66:\n        /* \"#utility.yul\":1341:1344   */\n      dup3\n        /* \"#utility.yul\":1334:1371   */\n      mstore\n        /* \"#utility.yul\":1259:1377   */\n      pop\n      pop\n      jump\t// out\n        /* \"#utility.yul\":1383:1605   */\n    tag_11:\n        /* \"#utility.yul\":1476:1480   */\n      0x00\n        /* \"#utility.yul\":1514:1516   */\n      0x20\n        /* \"#utility.yul\":1503:1512   */\n      dup3\n        /* \"#utility.yul\":1499:1517   */\n      add\n        /* \"#utility.yul\":1491:1517   */\n      swap1\n      pop\n        /* \"#utility.yul\":1527:1598   */\n      tag_68\n        /* \"#utility.yul\":1595:1596   */\n      0x00\n        /* \"#utility.yul\":1584:1593   */\n      dup4\n        /* \"#utility.yul\":1580:1597   */\n      add\n        /* \"#utility.yul\":1571:1577   */\n      dup5\n        /* \"#utility.yul\":1527:1598   */\n      tag_39\n      jump\t// in\n    tag_68:\n        /* \"#utility.yul\":1383:1605   */\n      swap3\n      swap2\n      pop\n      pop\n      jump\t// out\n        /* \"#utility.yul\":1611:1725   */\n    tag_40:\n        /* \"#utility.yul\":1678:1684   */\n      0x00\n        /* \"#utility.yul\":1712:1717   */\n      dup2\n        /* \"#utility.yul\":1706:1718   */\n      mload\n        /* \"#utility.yul\":1696:1718   */\n      swap1\n      pop\n        /* \"#utility.yul\":1611:1725   */\n      swap2\n      swap1\n      pop\n      jump\t// out\n        /* \"#utility.yul\":1731:1915   */\n    tag_41:\n        /* \"#utility.yul\":1830:1841   */\n      0x00\n        /* \"#utility.yul\":1864:1870   */\n      dup3\n        /* \"#utility.yul\":1859:1862   */\n      dup3\n        /* \"#utility.yul\":1852:1871   */\n      mstore\n        /* \"#utility.yul\":1904:1908   */\n      0x20\n        /* \"#utility.yul\":1899:1902   */\n      dup3\n        /* \"#utility.yul\":1895:1909   */\n      add\n        /* \"#utility.yul\":1880:1909   */\n      swap1\n      pop\n        /* \"#utility.yul\":1731:1915   */\n      swap3\n      swap2\n      pop\n      pop\n      jump\t// out\n        /* \"#utility.yul\":1921:2053   */\n    tag_42:\n        /* \"#utility.yul\":1988:1992   */\n      0x00\n        /* \"#utility.yul\":2011:2014   */\n      dup2\n        /* \"#utility.yul\":2003:2014   */\n      swap1\n      pop\n        /* \"#utility.yul\":2041:2045   */\n      0x20\n        /* \"#utility.yul\":2036:2039   */\n      dup3\n        /* \"#utility.yul\":2032:2046   */\n      add\n        /* \"#utility.yul\":2024:2046   */\n      swap1\n      pop\n        /* \"#utility.yul\":1921:2053   */\n      swap2\n      swap1\n      pop\n      jump\t// out\n        /* \"#utility.yul\":2059:2167   */\n    tag_43:\n        /* \"#utility.yul\":2136:2160   */\n      tag_73\n        /* \"#utility.yul\":2154:2159   */\n      dup2\n        /* \"#utility.yul\":2136:2160   */\n      tag_38\n      jump\t// in\n    tag_73:\n        /* \"#utility.yul\":2131:2134   */\n      dup3\n        /* \"#utility.yul\":2124:2161   */\n      mstore\n        /* \"#utility.yul\":2059:2167   */\n      pop\n      pop\n      jump\t// out\n        /* \"#utility.yul\":2173:2352   */\n    tag_44:\n        /* \"#utility.yul\":2242:2252   */\n      0x00\n        /* \"#utility.yul\":2263:2309   */\n      tag_75\n        /* \"#utility.yul\":2305:2308   */\n      dup4\n        /* \"#utility.yul\":2297:2303   */\n      dup4\n        /* \"#utility.yul\":2263:2309   */\n      tag_43\n      jump\t// in\n    tag_75:\n        /* \"#utility.yul\":2341:2345   */\n      0x20\n        /* \"#utility.yul\":2336:2339   */\n      dup4\n        /* \"#utility.yul\":2332:2346   */\n      add\n        /* \"#utility.yul\":2318:2346   */\n      swap1\n      pop\n        /* \"#utility.yul\":2173:2352   */\n      swap3\n      swap2\n      pop\n      pop\n      jump\t// out\n        /* \"#utility.yul\":2358:2471   */\n    tag_45:\n        /* \"#utility.yul\":2428:2432   */\n      0x00\n        /* \"#utility.yul\":2460:2464   */\n      0x20\n        /* \"#utility.yul\":2455:2458   */\n      dup3\n        /* \"#utility.yul\":2451:2465   */\n      add\n        /* \"#utility.yul\":2443:2465   */\n      swap1\n      pop\n        /* \"#utility.yul\":2358:2471   */\n      swap2\n      swap1\n      pop\n      jump\t// out\n        /* \"#utility.yul\":2507:3239   */\n    tag_46:\n        /* \"#utility.yul\":2626:2629   */\n      0x00\n        /* \"#utility.yul\":2655:2709   */\n      tag_78\n        /* \"#utility.yul\":2703:2708   */\n      dup3\n        /* \"#utility.yul\":2655:2709   */\n      tag_40\n      jump\t// in\n    tag_78:\n        /* \"#utility.yul\":2725:2811   */\n      tag_79\n        /* \"#utility.yul\":2804:2810   */\n      dup2\n        /* \"#utility.yul\":2799:2802   */\n      dup6\n        /* \"#utility.yul\":2725:2811   */\n      tag_41\n      jump\t// in\n    tag_79:\n        /* \"#utility.yul\":2718:2811   */\n      swap4\n      pop\n        /* \"#utility.yul\":2835:2891   */\n      tag_80\n        /* \"#utility.yul\":2885:2890   */\n      dup4\n        /* \"#utility.yul\":2835:2891   */\n      tag_42\n      jump\t// in\n    tag_80:\n        /* \"#utility.yul\":2914:2921   */\n      dup1\n        /* \"#utility.yul\":2945:2946   */\n      0x00\n        /* \"#utility.yul\":2930:3214   */\n    tag_81:\n        /* \"#utility.yul\":2955:2961   */\n      dup4\n        /* \"#utility.yul\":2952:2953   */\n      dup2\n        /* \"#utility.yul\":2949:2962   */\n      lt\n        /* \"#utility.yul\":2930:3214   */\n      iszero\n      tag_83\n      jumpi\n        /* \"#utility.yul\":3031:3037   */\n      dup2\n        /* \"#utility.yul\":3025:3038   */\n      mload\n        /* \"#utility.yul\":3058:3121   */\n      tag_84\n        /* \"#utility.yul\":3117:3120   */\n      dup9\n        /* \"#utility.yul\":3102:3115   */\n      dup3\n        /* \"#utility.yul\":3058:3121   */\n      tag_44\n      jump\t// in\n    tag_84:\n        /* \"#utility.yul\":3051:3121   */\n      swap8\n      pop\n        /* \"#utility.yul\":3144:3204   */\n      tag_85\n        /* \"#utility.yul\":3197:3203   */\n      dup4\n        /* \"#utility.yul\":3144:3204   */\n      tag_45\n      jump\t// in\n    tag_85:\n        /* \"#utility.yul\":3134:3204   */\n      swap3\n      pop\n        /* \"#utility.yul\":2990:3214   */\n      pop\n        /* \"#utility.yul\":2977:2978   */\n      0x01\n        /* \"#utility.yul\":2974:2975   */\n      dup2\n        /* \"#utility.yul\":2970:2979   */\n      add\n        /* \"#utility.yul\":2965:2979   */\n      swap1\n      pop\n        /* \"#utility.yul\":2930:3214   */\n      jump(tag_81)\n    tag_83:\n        /* \"#utility.yul\":2934:2948   */\n      pop\n        /* \"#utility.yul\":3230:3233   */\n      dup6\n        /* \"#utility.yul\":3223:3233   */\n      swap4\n      pop\n        /* \"#utility.yul\":2631:3239   */\n      pop\n      pop\n      pop\n        /* \"#utility.yul\":2507:3239   */\n      swap3\n      swap2\n      pop\n      pop\n      jump\t// out\n        /* \"#utility.yul\":3245:3618   */\n    tag_18:\n        /* \"#utility.yul\":3388:3392   */\n      0x00\n        /* \"#utility.yul\":3426:3428   */\n      0x20\n        /* \"#utility.yul\":3415:3424   */\n      dup3\n        /* \"#utility.yul\":3411:3429   */\n      add\n        /* \"#utility.yul\":3403:3429   */\n      swap1\n      pop\n        /* \"#utility.yul\":3475:3484   */\n      dup2\n        /* \"#utility.yul\":3469:3473   */\n      dup2\n        /* \"#utility.yul\":3465:3485   */\n      sub\n        /* \"#utility.yul\":3461:3462   */\n      0x00\n        /* \"#utility.yul\":3450:3459   */\n      dup4\n        /* \"#utility.yul\":3446:3463   */\n      add\n        /* \"#utility.yul\":3439:3486   */\n      mstore\n        /* \"#utility.yul\":3503:3611   */\n      tag_87\n        /* \"#utility.yul\":3606:3610   */\n      dup2\n        /* \"#utility.yul\":3597:3603   */\n      dup5\n        /* \"#utility.yul\":3503:3611   */\n      tag_46\n      jump\t// in\n    tag_87:\n        /* \"#utility.yul\":3495:3611   */\n      swap1\n      pop\n        /* \"#utility.yul\":3245:3618   */\n      swap3\n      swap2\n      pop\n      pop\n      jump\t// out\n        /* \"#utility.yul\":3624:3742   */\n    tag_47:\n        /* \"#utility.yul\":3711:3735   */\n      tag_89\n        /* \"#utility.yul\":3729:3734   */\n      dup2\n        /* \"#utility.yul\":3711:3735   */\n      tag_34\n      jump\t// in\n    tag_89:\n        /* \"#utility.yul\":3706:3709   */\n      dup3\n        /* \"#utility.yul\":3699:3736   */\n      mstore\n        /* \"#utility.yul\":3624:3742   */\n      pop\n      pop\n      jump\t// out\n        /* \"#utility.yul\":3748:4080   */\n    tag_25:\n        /* \"#utility.yul\":3869:3873   */\n      0x00\n        /* \"#utility.yul\":3907:3909   */\n      0x40\n        /* \"#utility.yul\":3896:3905   */\n      dup3\n        /* \"#utility.yul\":3892:3910   */\n      add\n        /* \"#utility.yul\":3884:3910   */\n      swap1\n      pop\n        /* \"#utility.yul\":3920:3991   */\n      tag_91\n        /* \"#utility.yul\":3988:3989   */\n      0x00\n        /* \"#utility.yul\":3977:3986   */\n      dup4\n        /* \"#utility.yul\":3973:3990   */\n      add\n        /* \"#utility.yul\":3964:3970   */\n      dup6\n        /* \"#utility.yul\":3920:3991   */\n      tag_47\n      jump\t// in\n    tag_91:\n        /* \"#utility.yul\":4001:4073   */\n      tag_92\n        /* \"#utility.yul\":4069:4071   */\n      0x20\n        /* \"#utility.yul\":4058:4067   */\n      dup4\n        /* \"#utility.yul\":4054:4072   */\n      add\n        /* \"#utility.yul\":4045:4051   */\n      dup5\n        /* \"#utility.yul\":4001:4073   */\n      tag_39\n      jump\t// in\n    tag_92:\n        /* \"#utility.yul\":3748:4080   */\n      swap4\n      swap3\n      pop\n      pop\n      pop\n      jump\t// out\n    stop\n\n    sub_0: assembly {\n            /* \"DecenAngels.sol\":479:2415  contract DecenAngels {... */\n          mstore(0x40, 0x80)\n            /* \"DecenAngels.sol\":1058:1205  constructor(uint _minimumContribution, address _creator) {... */\n          callvalue\n          dup1\n          iszero\n          tag_1\n          jumpi\n          0x00\n          dup1\n          revert\n        tag_1:\n          pop\n          mload(0x40)\n          sub(codesize, bytecodeSize)\n          dup1\n          bytecodeSize\n          dup4\n          codecopy\n          dup2\n          dup2\n          add\n          0x40\n          mstore\n          dup2\n          add\n          swap1\n          tag_2\n          swap2\n          swap1\n          tag_3\n          jump\t// in\n        tag_2:\n            /* \"DecenAngels.sol\":1136:1144  _creator */\n          dup1\n            /* \"DecenAngels.sol\":1126:1133  manager */\n          0x02\n          0x00\n            /* \"DecenAngels.sol\":1126:1144  manager = _creator */\n          0x0100\n          exp\n          dup2\n          sload\n          dup2\n          0xffffffffffffffffffffffffffffffffffffffff\n          mul\n          not\n          and\n          swap1\n          dup4\n          0xffffffffffffffffffffffffffffffffffffffff\n          and\n          mul\n          or\n          swap1\n          sstore\n          pop\n            /* \"DecenAngels.sol\":1177:1197  _minimumContribution */\n          dup2\n            /* \"DecenAngels.sol\":1155:1174  minimumContribution */\n          0x03\n            /* \"DecenAngels.sol\":1155:1197  minimumContribution = _minimumContribution */\n          dup2\n          swap1\n          sstore\n          pop\n            /* \"DecenAngels.sol\":1058:1205  constructor(uint _minimumContribution, address _creator) {... */\n          pop\n          pop\n            /* \"DecenAngels.sol\":479:2415  contract DecenAngels {... */\n          jump(tag_6)\n            /* \"#utility.yul\":88:205   */\n        tag_8:\n            /* \"#utility.yul\":197:198   */\n          0x00\n            /* \"#utility.yul\":194:195   */\n          dup1\n            /* \"#utility.yul\":187:199   */\n          revert\n            /* \"#utility.yul\":334:411   */\n        tag_10:\n            /* \"#utility.yul\":371:378   */\n          0x00\n            /* \"#utility.yul\":400:405   */\n          dup2\n            /* \"#utility.yul\":389:405   */\n          swap1\n          pop\n            /* \"#utility.yul\":334:411   */\n          swap2\n          swap1\n          pop\n          jump\t// out\n            /* \"#utility.yul\":417:539   */\n        tag_11:\n            /* \"#utility.yul\":490:514   */\n          tag_23\n            /* \"#utility.yul\":508:513   */\n          dup2\n            /* \"#utility.yul\":490:514   */\n          tag_10\n          jump\t// in\n        tag_23:\n            /* \"#utility.yul\":483:488   */\n          dup2\n            /* \"#utility.yul\":480:515   */\n          eq\n            /* \"#utility.yul\":470:533   */\n          tag_24\n          jumpi\n            /* \"#utility.yul\":529:530   */\n          0x00\n            /* \"#utility.yul\":526:527   */\n          dup1\n            /* \"#utility.yul\":519:531   */\n          revert\n            /* \"#utility.yul\":470:533   */\n        tag_24:\n            /* \"#utility.yul\":417:539   */\n          pop\n          jump\t// out\n            /* \"#utility.yul\":545:688   */\n        tag_12:\n            /* \"#utility.yul\":602:607   */\n          0x00\n            /* \"#utility.yul\":633:639   */\n          dup2\n            /* \"#utility.yul\":627:640   */\n          mload\n            /* \"#utility.yul\":618:640   */\n          swap1\n          pop\n            /* \"#utility.yul\":649:682   */\n          tag_26\n            /* \"#utility.yul\":676:681   */\n          dup2\n            /* \"#utility.yul\":649:682   */\n          tag_11\n          jump\t// in\n        tag_26:\n            /* \"#utility.yul\":545:688   */\n          swap3\n          swap2\n          pop\n          pop\n          jump\t// out\n            /* \"#utility.yul\":694:820   */\n        tag_13:\n            /* \"#utility.yul\":731:738   */\n          0x00\n            /* \"#utility.yul\":771:813   */\n          0xffffffffffffffffffffffffffffffffffffffff\n            /* \"#utility.yul\":764:769   */\n          dup3\n            /* \"#utility.yul\":760:814   */\n          and\n            /* \"#utility.yul\":749:814   */\n          swap1\n          pop\n            /* \"#utility.yul\":694:820   */\n          swap2\n          swap1\n          pop\n          jump\t// out\n            /* \"#utility.yul\":826:922   */\n        tag_14:\n            /* \"#utility.yul\":863:870   */\n          0x00\n            /* \"#utility.yul\":892:916   */\n          tag_29\n            /* \"#utility.yul\":910:915   */\n          dup3\n            /* \"#utility.yul\":892:916   */\n          tag_13\n          jump\t// in\n        tag_29:\n            /* \"#utility.yul\":881:916   */\n          swap1\n          pop\n            /* \"#utility.yul\":826:922   */\n          swap2\n          swap1\n          pop\n          jump\t// out\n            /* \"#utility.yul\":928:1050   */\n        tag_15:\n            /* \"#utility.yul\":1001:1025   */\n          tag_31\n            /* \"#utility.yul\":1019:1024   */\n          dup2\n            /* \"#utility.yul\":1001:1025   */\n          tag_14\n          jump\t// in\n        tag_31:\n            /* \"#utility.yul\":994:999   */\n          dup2\n            /* \"#utility.yul\":991:1026   */\n          eq\n            /* \"#utility.yul\":981:1044   */\n          tag_32\n          jumpi\n            /* \"#utility.yul\":1040:1041   */\n          0x00\n            /* \"#utility.yul\":1037:1038   */\n          dup1\n            /* \"#utility.yul\":1030:1042   */\n          revert\n            /* \"#utility.yul\":981:1044   */\n        tag_32:\n            /* \"#utility.yul\":928:1050   */\n          pop\n          jump\t// out\n            /* \"#utility.yul\":1056:1199   */\n        tag_16:\n            /* \"#utility.yul\":1113:1118   */\n          0x00\n            /* \"#utility.yul\":1144:1150   */\n          dup2\n            /* \"#utility.yul\":1138:1151   */\n          mload\n            /* \"#utility.yul\":1129:1151   */\n          swap1\n          pop\n            /* \"#utility.yul\":1160:1193   */\n          tag_34\n            /* \"#utility.yul\":1187:1192   */\n          dup2\n            /* \"#utility.yul\":1160:1193   */\n          tag_15\n          jump\t// in\n        tag_34:\n            /* \"#utility.yul\":1056:1199   */\n          swap3\n          swap2\n          pop\n          pop\n          jump\t// out\n            /* \"#utility.yul\":1205:1712   */\n        tag_3:\n            /* \"#utility.yul\":1284:1290   */\n          0x00\n            /* \"#utility.yul\":1292:1298   */\n          dup1\n            /* \"#utility.yul\":1341:1343   */\n          0x40\n            /* \"#utility.yul\":1329:1338   */\n          dup4\n            /* \"#utility.yul\":1320:1327   */\n          dup6\n            /* \"#utility.yul\":1316:1339   */\n          sub\n            /* \"#utility.yul\":1312:1344   */\n          slt\n            /* \"#utility.yul\":1309:1428   */\n          iszero\n          tag_36\n          jumpi\n            /* \"#utility.yul\":1347:1426   */\n          tag_37\n          tag_8\n          jump\t// in\n        tag_37:\n            /* \"#utility.yul\":1309:1428   */\n        tag_36:\n            /* \"#utility.yul\":1467:1468   */\n          0x00\n            /* \"#utility.yul\":1492:1556   */\n          tag_38\n            /* \"#utility.yul\":1548:1555   */\n          dup6\n            /* \"#utility.yul\":1539:1545   */\n          dup3\n            /* \"#utility.yul\":1528:1537   */\n          dup7\n            /* \"#utility.yul\":1524:1546   */\n          add\n            /* \"#utility.yul\":1492:1556   */\n          tag_12\n          jump\t// in\n        tag_38:\n            /* \"#utility.yul\":1482:1556   */\n          swap3\n          pop\n            /* \"#utility.yul\":1438:1566   */\n          pop\n            /* \"#utility.yul\":1605:1607   */\n          0x20\n            /* \"#utility.yul\":1631:1695   */\n          tag_39\n            /* \"#utility.yul\":1687:1694   */\n          dup6\n            /* \"#utility.yul\":1678:1684   */\n          dup3\n            /* \"#utility.yul\":1667:1676   */\n          dup7\n            /* \"#utility.yul\":1663:1685   */\n          add\n            /* \"#utility.yul\":1631:1695   */\n          tag_16\n          jump\t// in\n        tag_39:\n            /* \"#utility.yul\":1621:1695   */\n          swap2\n          pop\n            /* \"#utility.yul\":1576:1705   */\n          pop\n            /* \"#utility.yul\":1205:1712   */\n          swap3\n          pop\n          swap3\n          swap1\n          pop\n          jump\t// out\n            /* \"DecenAngels.sol\":479:2415  contract DecenAngels {... */\n        tag_6:\n          dataSize(sub_0)\n          dup1\n          dataOffset(sub_0)\n          0x00\n          codecopy\n          0x00\n          return\n        stop\n\n        sub_0: assembly {\n                /* \"DecenAngels.sol\":479:2415  contract DecenAngels {... */\n              mstore(0x40, 0x80)\n              jumpi(tag_1, lt(calldatasize, 0x04))\n              shr(0xe0, calldataload(0x00))\n              dup1\n              0x82fde093\n              gt\n              tag_11\n              jumpi\n              dup1\n              0x82fde093\n              eq\n              tag_6\n              jumpi\n              dup1\n              0x8a9cfd55\n              eq\n              tag_7\n              jumpi\n              dup1\n              0x937e09b1\n              eq\n              tag_8\n              jumpi\n              dup1\n              0xd7bb99ba\n              eq\n              tag_9\n              jumpi\n              dup1\n              0xd7d1bbdb\n              eq\n              tag_10\n              jumpi\n              jump(tag_1)\n            tag_11:\n              dup1\n              0x03441006\n              eq\n              tag_2\n              jumpi\n              dup1\n              0x0a144391\n              eq\n              tag_3\n              jumpi\n              dup1\n              0x481c6a75\n              eq\n              tag_4\n              jumpi\n              dup1\n              0x81d12c58\n              eq\n              tag_5\n              jumpi\n            tag_1:\n              0x00\n              dup1\n              revert\n                /* \"DecenAngels.sol\":2127:2406  function finalizeRequest(uint _index) public payable managerOnly {... */\n            tag_2:\n              tag_12\n              0x04\n              dup1\n              calldatasize\n              sub\n              dup2\n              add\n              swap1\n              tag_13\n              swap2\n              swap1\n              tag_14\n              jump\t// in\n            tag_13:\n              tag_15\n              jump\t// in\n            tag_12:\n              stop\n                /* \"DecenAngels.sol\":859:900  mapping(address => bool) public approvers */\n            tag_3:\n              callvalue\n              dup1\n              iszero\n              tag_16\n              jumpi\n              0x00\n              dup1\n              revert\n            tag_16:\n              pop\n              tag_17\n              0x04\n              dup1\n              calldatasize\n              sub\n              dup2\n              add\n              swap1\n              tag_18\n              swap2\n              swap1\n              tag_19\n              jump\t// in\n            tag_18:\n              tag_20\n              jump\t// in\n            tag_17:\n              mload(0x40)\n              tag_21\n              swap2\n              swap1\n              tag_22\n              jump\t// in\n            tag_21:\n              mload(0x40)\n              dup1\n              swap2\n              sub\n              swap1\n              return\n                /* \"DecenAngels.sol\":792:814  address public manager */\n            tag_4:\n              callvalue\n              dup1\n              iszero\n              tag_23\n              jumpi\n              0x00\n              dup1\n              revert\n            tag_23:\n              pop\n              tag_24\n              tag_25\n              jump\t// in\n            tag_24:\n              mload(0x40)\n              tag_26\n              swap2\n              swap1\n              tag_27\n              jump\t// in\n            tag_26:\n              mload(0x40)\n              dup1\n              swap2\n              sub\n              swap1\n              return\n                /* \"DecenAngels.sol\":745:785  mapping(uint => Request) public requests */\n            tag_5:\n              callvalue\n              dup1\n              iszero\n              tag_28\n              jumpi\n              0x00\n              dup1\n              revert\n            tag_28:\n              pop\n              tag_29\n              0x04\n              dup1\n              calldatasize\n              sub\n              dup2\n              add\n              swap1\n              tag_30\n              swap2\n              swap1\n              tag_14\n              jump\t// in\n            tag_30:\n              tag_31\n              jump\t// in\n            tag_29:\n              mload(0x40)\n              tag_32\n              swap6\n              swap5\n              swap4\n              swap3\n              swap2\n              swap1\n              tag_33\n              jump\t// in\n            tag_32:\n              mload(0x40)\n              dup1\n              swap2\n              sub\n              swap1\n              return\n                /* \"DecenAngels.sol\":907:933  uint public approversCount */\n            tag_6:\n              callvalue\n              dup1\n              iszero\n              tag_34\n              jumpi\n              0x00\n              dup1\n              revert\n            tag_34:\n              pop\n              tag_35\n              tag_36\n              jump\t// in\n            tag_35:\n              mload(0x40)\n              tag_37\n              swap2\n              swap1\n              tag_38\n              jump\t// in\n            tag_37:\n              mload(0x40)\n              dup1\n              swap2\n              sub\n              swap1\n              return\n                /* \"DecenAngels.sol\":1410:1784  function createRequest(string memory _description, uint _value, address payable _recipient) public managerOnly {... */\n            tag_7:\n              callvalue\n              dup1\n              iszero\n              tag_39\n              jumpi\n              0x00\n              dup1\n              revert\n            tag_39:\n              pop\n              tag_40\n              0x04\n              dup1\n              calldatasize\n              sub\n              dup2\n              add\n              swap1\n              tag_41\n              swap2\n              swap1\n              tag_42\n              jump\t// in\n            tag_41:\n              tag_43\n              jump\t// in\n            tag_40:\n              stop\n                /* \"DecenAngels.sol\":821:852  uint public minimumContribution */\n            tag_8:\n              callvalue\n              dup1\n              iszero\n              tag_44\n              jumpi\n              0x00\n              dup1\n              revert\n            tag_44:\n              pop\n              tag_45\n              tag_46\n              jump\t// in\n            tag_45:\n              mload(0x40)\n              tag_47\n              swap2\n              swap1\n              tag_38\n              jump\t// in\n            tag_47:\n              mload(0x40)\n              dup1\n              swap2\n              sub\n              swap1\n              return\n                /* \"DecenAngels.sol\":1213:1402  function contribute() public payable {... */\n            tag_9:\n              tag_48\n              tag_49\n              jump\t// in\n            tag_48:\n              stop\n                /* \"DecenAngels.sol\":1792:2119  function approveRequest(uint _index) public {... */\n            tag_10:\n              callvalue\n              dup1\n              iszero\n              tag_50\n              jumpi\n              0x00\n              dup1\n              revert\n            tag_50:\n              pop\n              tag_51\n              0x04\n              dup1\n              calldatasize\n              sub\n              dup2\n              add\n              swap1\n              tag_52\n              swap2\n              swap1\n              tag_14\n              jump\t// in\n            tag_52:\n              tag_53\n              jump\t// in\n            tag_51:\n              stop\n                /* \"DecenAngels.sol\":2127:2406  function finalizeRequest(uint _index) public payable managerOnly {... */\n            tag_15:\n                /* \"DecenAngels.sol\":996:1003  manager */\n              0x02\n              0x00\n              swap1\n              sload\n              swap1\n              0x0100\n              exp\n              swap1\n              div\n              0xffffffffffffffffffffffffffffffffffffffff\n              and\n                /* \"DecenAngels.sol\":982:1003  msg.sender == manager */\n              0xffffffffffffffffffffffffffffffffffffffff\n              and\n                /* \"DecenAngels.sol\":982:992  msg.sender */\n              caller\n                /* \"DecenAngels.sol\":982:1003  msg.sender == manager */\n              0xffffffffffffffffffffffffffffffffffffffff\n              and\n              eq\n                /* \"DecenAngels.sol\":974:1030  require(msg.sender == manager, \"You are not authorized\") */\n              tag_55\n              jumpi\n              mload(0x40)\n              0x08c379a000000000000000000000000000000000000000000000000000000000\n              dup2\n              mstore\n              0x04\n              add\n              tag_56\n              swap1\n              tag_57\n              jump\t// in\n            tag_56:\n              mload(0x40)\n              dup1\n              swap2\n              sub\n              swap1\n              revert\n            tag_55:\n                /* \"DecenAngels.sol\":2203:2220  Request storage r */\n              0x00\n                /* \"DecenAngels.sol\":2223:2231  requests */\n              0x01\n                /* \"DecenAngels.sol\":2223:2239  requests[_index] */\n              0x00\n                /* \"DecenAngels.sol\":2232:2238  _index */\n              dup4\n                /* \"DecenAngels.sol\":2223:2239  requests[_index] */\n              dup2\n              mstore\n              0x20\n              add\n              swap1\n              dup2\n              mstore\n              0x20\n              add\n              0x00\n              keccak256\n                /* \"DecenAngels.sol\":2203:2239  Request storage r = requests[_index] */\n              swap1\n              pop\n                /* \"DecenAngels.sol\":2259:2260  r */\n              dup1\n                /* \"DecenAngels.sol\":2259:2269  r.complete */\n              0x02\n              add\n              0x14\n              swap1\n              sload\n              swap1\n              0x0100\n              exp\n              swap1\n              div\n              0xff\n              and\n                /* \"DecenAngels.sol\":2258:2269  !r.complete */\n              iszero\n                /* \"DecenAngels.sol\":2250:2270  require(!r.complete) */\n              tag_59\n              jumpi\n              0x00\n              dup1\n              revert\n            tag_59:\n                /* \"DecenAngels.sol\":2325:2326  2 */\n              0x02\n                /* \"DecenAngels.sol\":2308:2322  approversCount */\n              sload(0x05)\n                /* \"DecenAngels.sol\":2308:2326  approversCount / 2 */\n              tag_60\n              swap2\n              swap1\n              tag_61\n              jump\t// in\n            tag_60:\n                /* \"DecenAngels.sol\":2289:2290  r */\n              dup2\n                /* \"DecenAngels.sol\":2289:2304  r.approvalCount */\n              0x03\n              add\n              sload\n                /* \"DecenAngels.sol\":2289:2327  r.approvalCount > (approversCount / 2) */\n              gt\n                /* \"DecenAngels.sol\":2281:2328  require(r.approvalCount > (approversCount / 2)) */\n              tag_62\n              jumpi\n              0x00\n              dup1\n              revert\n            tag_62:\n                /* \"DecenAngels.sol\":2341:2342  r */\n              dup1\n                /* \"DecenAngels.sol\":2341:2352  r.recipient */\n              0x02\n              add\n              0x00\n              swap1\n              sload\n              swap1\n              0x0100\n              exp\n              swap1\n              div\n              0xffffffffffffffffffffffffffffffffffffffff\n              and\n                /* \"DecenAngels.sol\":2341:2361  r.recipient.transfer */\n              0xffffffffffffffffffffffffffffffffffffffff\n              and\n                /* \"DecenAngels.sol\":2341:2370  r.recipient.transfer(r.value) */\n              0x08fc\n                /* \"DecenAngels.sol\":2362:2363  r */\n              dup3\n                /* \"DecenAngels.sol\":2362:2369  r.value */\n              0x01\n              add\n              sload\n                /* \"DecenAngels.sol\":2341:2370  r.recipient.transfer(r.value) */\n              swap1\n              dup2\n              iszero\n              mul\n              swap1\n              mload(0x40)\n              0x00\n              mload(0x40)\n              dup1\n              dup4\n              sub\n              dup2\n              dup6\n              dup9\n              dup9\n              call\n              swap4\n              pop\n              pop\n              pop\n              pop\n              iszero\n              dup1\n              iszero\n              tag_64\n              jumpi\n              returndatasize\n              0x00\n              dup1\n              returndatacopy\n              revert(0x00, returndatasize)\n            tag_64:\n              pop\n                /* \"DecenAngels.sol\":2394:2398  true */\n              0x01\n                /* \"DecenAngels.sol\":2381:2382  r */\n              dup2\n                /* \"DecenAngels.sol\":2381:2391  r.complete */\n              0x02\n              add\n              0x14\n                /* \"DecenAngels.sol\":2381:2398  r.complete = true */\n              0x0100\n              exp\n              dup2\n              sload\n              dup2\n              0xff\n              mul\n              not\n              and\n              swap1\n              dup4\n              iszero\n              iszero\n              mul\n              or\n              swap1\n              sstore\n              pop\n                /* \"DecenAngels.sol\":2192:2406  {... */\n              pop\n                /* \"DecenAngels.sol\":2127:2406  function finalizeRequest(uint _index) public payable managerOnly {... */\n              pop\n              jump\t// out\n                /* \"DecenAngels.sol\":859:900  mapping(address => bool) public approvers */\n            tag_20:\n              mstore(0x20, 0x04)\n              dup1\n              0x00\n              mstore\n              keccak256(0x00, 0x40)\n              0x00\n              swap2\n              pop\n              sload\n              swap1\n              0x0100\n              exp\n              swap1\n              div\n              0xff\n              and\n              dup2\n              jump\t// out\n                /* \"DecenAngels.sol\":792:814  address public manager */\n            tag_25:\n              0x02\n              0x00\n              swap1\n              sload\n              swap1\n              0x0100\n              exp\n              swap1\n              div\n              0xffffffffffffffffffffffffffffffffffffffff\n              and\n              dup2\n              jump\t// out\n                /* \"DecenAngels.sol\":745:785  mapping(uint => Request) public requests */\n            tag_31:\n              mstore(0x20, 0x01)\n              dup1\n              0x00\n              mstore\n              keccak256(0x00, 0x40)\n              0x00\n              swap2\n              pop\n              swap1\n              pop\n              dup1\n              0x00\n              add\n              dup1\n              sload\n              tag_65\n              swap1\n              tag_66\n              jump\t// in\n            tag_65:\n              dup1\n              0x1f\n              add\n              0x20\n              dup1\n              swap2\n              div\n              mul\n              0x20\n              add\n              mload(0x40)\n              swap1\n              dup2\n              add\n              0x40\n              mstore\n              dup1\n              swap3\n              swap2\n              swap1\n              dup2\n              dup2\n              mstore\n              0x20\n              add\n              dup3\n              dup1\n              sload\n              tag_67\n              swap1\n              tag_66\n              jump\t// in\n            tag_67:\n              dup1\n              iszero\n              tag_68\n              jumpi\n              dup1\n              0x1f\n              lt\n              tag_69\n              jumpi\n              0x0100\n              dup1\n              dup4\n              sload\n              div\n              mul\n              dup4\n              mstore\n              swap2\n              0x20\n              add\n              swap2\n              jump(tag_68)\n            tag_69:\n              dup3\n              add\n              swap2\n              swap1\n              0x00\n              mstore\n              keccak256(0x00, 0x20)\n              swap1\n            tag_70:\n              dup2\n              sload\n              dup2\n              mstore\n              swap1\n              0x01\n              add\n              swap1\n              0x20\n              add\n              dup1\n              dup4\n              gt\n              tag_70\n              jumpi\n              dup3\n              swap1\n              sub\n              0x1f\n              and\n              dup3\n              add\n              swap2\n            tag_68:\n              pop\n              pop\n              pop\n              pop\n              pop\n              swap1\n              dup1\n              0x01\n              add\n              sload\n              swap1\n              dup1\n              0x02\n              add\n              0x00\n              swap1\n              sload\n              swap1\n              0x0100\n              exp\n              swap1\n              div\n              0xffffffffffffffffffffffffffffffffffffffff\n              and\n              swap1\n              dup1\n              0x02\n              add\n              0x14\n              swap1\n              sload\n              swap1\n              0x0100\n              exp\n              swap1\n              div\n              0xff\n              and\n              swap1\n              dup1\n              0x03\n              add\n              sload\n              swap1\n              pop\n              dup6\n              jump\t// out\n                /* \"DecenAngels.sol\":907:933  uint public approversCount */\n            tag_36:\n              sload(0x05)\n              dup2\n              jump\t// out\n                /* \"DecenAngels.sol\":1410:1784  function createRequest(string memory _description, uint _value, address payable _recipient) public managerOnly {... */\n            tag_43:\n                /* \"DecenAngels.sol\":996:1003  manager */\n              0x02\n              0x00\n              swap1\n              sload\n              swap1\n              0x0100\n              exp\n              swap1\n              div\n              0xffffffffffffffffffffffffffffffffffffffff\n              and\n                /* \"DecenAngels.sol\":982:1003  msg.sender == manager */\n              0xffffffffffffffffffffffffffffffffffffffff\n              and\n                /* \"DecenAngels.sol\":982:992  msg.sender */\n              caller\n                /* \"DecenAngels.sol\":982:1003  msg.sender == manager */\n              0xffffffffffffffffffffffffffffffffffffffff\n              and\n              eq\n                /* \"DecenAngels.sol\":974:1030  require(msg.sender == manager, \"You are not authorized\") */\n              tag_72\n              jumpi\n              mload(0x40)\n              0x08c379a000000000000000000000000000000000000000000000000000000000\n              dup2\n              mstore\n              0x04\n              add\n              tag_73\n              swap1\n              tag_57\n              jump\t// in\n            tag_73:\n              mload(0x40)\n              dup1\n              swap2\n              sub\n              swap1\n              revert\n            tag_72:\n                /* \"DecenAngels.sol\":1540:1549  approvers */\n              0x04\n                /* \"DecenAngels.sol\":1540:1561  approvers[msg.sender] */\n              0x00\n                /* \"DecenAngels.sol\":1550:1560  msg.sender */\n              caller\n                /* \"DecenAngels.sol\":1540:1561  approvers[msg.sender] */\n              0xffffffffffffffffffffffffffffffffffffffff\n              and\n              0xffffffffffffffffffffffffffffffffffffffff\n              and\n              dup2\n              mstore\n              0x20\n              add\n              swap1\n              dup2\n              mstore\n              0x20\n              add\n              0x00\n              keccak256\n              0x00\n              swap1\n              sload\n              swap1\n              0x0100\n              exp\n              swap1\n              div\n              0xff\n              and\n                /* \"DecenAngels.sol\":1532:1562  require(approvers[msg.sender]) */\n              tag_75\n              jumpi\n              0x00\n              dup1\n              revert\n            tag_75:\n                /* \"DecenAngels.sol\":1573:1590  Request storage r */\n              0x00\n                /* \"DecenAngels.sol\":1593:1601  requests */\n              0x01\n                /* \"DecenAngels.sol\":1593:1616  requests[numRequests++] */\n              0x00\n                /* \"DecenAngels.sol\":1602:1613  numRequests */\n              dup1\n              0x00\n                /* \"DecenAngels.sol\":1602:1615  numRequests++ */\n              dup2\n              sload\n              dup1\n              swap3\n              swap2\n              swap1\n              tag_76\n              swap1\n              tag_77\n              jump\t// in\n            tag_76:\n              swap2\n              swap1\n              pop\n              sstore\n                /* \"DecenAngels.sol\":1593:1616  requests[numRequests++] */\n              dup2\n              mstore\n              0x20\n              add\n              swap1\n              dup2\n              mstore\n              0x20\n              add\n              0x00\n              keccak256\n                /* \"DecenAngels.sol\":1573:1616  Request storage r = requests[numRequests++] */\n              swap1\n              pop\n                /* \"DecenAngels.sol\":1643:1655  _description */\n              dup4\n                /* \"DecenAngels.sol\":1627:1628  r */\n              dup2\n                /* \"DecenAngels.sol\":1627:1640  r.description */\n              0x00\n              add\n                /* \"DecenAngels.sol\":1627:1655  r.description = _description */\n              swap1\n              dup2\n              tag_78\n              swap2\n              swap1\n              tag_79\n              jump\t// in\n            tag_78:\n              pop\n                /* \"DecenAngels.sol\":1676:1682  _value */\n              dup3\n                /* \"DecenAngels.sol\":1666:1667  r */\n              dup2\n                /* \"DecenAngels.sol\":1666:1673  r.value */\n              0x01\n              add\n                /* \"DecenAngels.sol\":1666:1682  r.value = _value */\n              dup2\n              swap1\n              sstore\n              pop\n                /* \"DecenAngels.sol\":1707:1717  _recipient */\n              dup2\n                /* \"DecenAngels.sol\":1693:1694  r */\n              dup2\n                /* \"DecenAngels.sol\":1693:1704  r.recipient */\n              0x02\n              add\n              0x00\n                /* \"DecenAngels.sol\":1693:1717  r.recipient = _recipient */\n              0x0100\n              exp\n              dup2\n              sload\n              dup2\n              0xffffffffffffffffffffffffffffffffffffffff\n              mul\n              not\n              and\n              swap1\n              dup4\n              0xffffffffffffffffffffffffffffffffffffffff\n              and\n              mul\n              or\n              swap1\n              sstore\n              pop\n                /* \"DecenAngels.sol\":1741:1746  false */\n              0x00\n                /* \"DecenAngels.sol\":1728:1729  r */\n              dup2\n                /* \"DecenAngels.sol\":1728:1738  r.complete */\n              0x02\n              add\n              0x14\n                /* \"DecenAngels.sol\":1728:1746  r.complete = false */\n              0x0100\n              exp\n              dup2\n              sload\n              dup2\n              0xff\n              mul\n              not\n              and\n              swap1\n              dup4\n              iszero\n              iszero\n              mul\n              or\n              swap1\n              sstore\n              pop\n                /* \"DecenAngels.sol\":1775:1776  0 */\n              0x00\n                /* \"DecenAngels.sol\":1757:1758  r */\n              dup2\n                /* \"DecenAngels.sol\":1757:1772  r.approvalCount */\n              0x03\n              add\n                /* \"DecenAngels.sol\":1757:1776  r.approvalCount = 0 */\n              dup2\n              swap1\n              sstore\n              pop\n                /* \"DecenAngels.sol\":1521:1784  {... */\n              pop\n                /* \"DecenAngels.sol\":1410:1784  function createRequest(string memory _description, uint _value, address payable _recipient) public managerOnly {... */\n              pop\n              pop\n              pop\n              jump\t// out\n                /* \"DecenAngels.sol\":821:852  uint public minimumContribution */\n            tag_46:\n              sload(0x03)\n              dup2\n              jump\t// out\n                /* \"DecenAngels.sol\":1213:1402  function contribute() public payable {... */\n            tag_49:\n                /* \"DecenAngels.sol\":1282:1301  minimumContribution */\n              sload(0x03)\n                /* \"DecenAngels.sol\":1269:1278  msg.value */\n              callvalue\n                /* \"DecenAngels.sol\":1269:1301  msg.value >= minimumContribution */\n              lt\n              iszero\n                /* \"DecenAngels.sol\":1261:1328  require(msg.value >= minimumContribution, \"Sorry, please put more\") */\n              tag_81\n              jumpi\n              mload(0x40)\n              0x08c379a000000000000000000000000000000000000000000000000000000000\n              dup2\n              mstore\n              0x04\n              add\n              tag_82\n              swap1\n              tag_83\n              jump\t// in\n            tag_82:\n              mload(0x40)\n              dup1\n              swap2\n              sub\n              swap1\n              revert\n            tag_81:\n                /* \"DecenAngels.sol\":1363:1367  true */\n              0x01\n                /* \"DecenAngels.sol\":1339:1348  approvers */\n              0x04\n                /* \"DecenAngels.sol\":1339:1360  approvers[msg.sender] */\n              0x00\n                /* \"DecenAngels.sol\":1349:1359  msg.sender */\n              caller\n                /* \"DecenAngels.sol\":1339:1360  approvers[msg.sender] */\n              0xffffffffffffffffffffffffffffffffffffffff\n              and\n              0xffffffffffffffffffffffffffffffffffffffff\n              and\n              dup2\n              mstore\n              0x20\n              add\n              swap1\n              dup2\n              mstore\n              0x20\n              add\n              0x00\n              keccak256\n              0x00\n                /* \"DecenAngels.sol\":1339:1367  approvers[msg.sender] = true */\n              0x0100\n              exp\n              dup2\n              sload\n              dup2\n              0xff\n              mul\n              not\n              and\n              swap1\n              dup4\n              iszero\n              iszero\n              mul\n              or\n              swap1\n              sstore\n              pop\n                /* \"DecenAngels.sol\":1378:1392  approversCount */\n              0x05\n              0x00\n                /* \"DecenAngels.sol\":1378:1394  approversCount++ */\n              dup2\n              sload\n              dup1\n              swap3\n              swap2\n              swap1\n              tag_84\n              swap1\n              tag_77\n              jump\t// in\n            tag_84:\n              swap2\n              swap1\n              pop\n              sstore\n              pop\n                /* \"DecenAngels.sol\":1213:1402  function contribute() public payable {... */\n              jump\t// out\n                /* \"DecenAngels.sol\":1792:2119  function approveRequest(uint _index) public {... */\n            tag_53:\n                /* \"DecenAngels.sol\":1847:1864  Request storage r */\n              0x00\n                /* \"DecenAngels.sol\":1867:1875  requests */\n              0x01\n                /* \"DecenAngels.sol\":1867:1883  requests[_index] */\n              0x00\n                /* \"DecenAngels.sol\":1876:1882  _index */\n              dup4\n                /* \"DecenAngels.sol\":1867:1883  requests[_index] */\n              dup2\n              mstore\n              0x20\n              add\n              swap1\n              dup2\n              mstore\n              0x20\n              add\n              0x00\n              keccak256\n                /* \"DecenAngels.sol\":1847:1883  Request storage r = requests[_index] */\n              swap1\n              pop\n                /* \"DecenAngels.sol\":1904:1913  approvers */\n              0x04\n                /* \"DecenAngels.sol\":1904:1925  approvers[msg.sender] */\n              0x00\n                /* \"DecenAngels.sol\":1914:1924  msg.sender */\n              caller\n                /* \"DecenAngels.sol\":1904:1925  approvers[msg.sender] */\n              0xffffffffffffffffffffffffffffffffffffffff\n              and\n              0xffffffffffffffffffffffffffffffffffffffff\n              and\n              dup2\n              mstore\n              0x20\n              add\n              swap1\n              dup2\n              mstore\n              0x20\n              add\n              0x00\n              keccak256\n              0x00\n              swap1\n              sload\n              swap1\n              0x0100\n              exp\n              swap1\n              div\n              0xff\n              and\n                /* \"DecenAngels.sol\":1896:1962  require(approvers[msg.sender], \"Sorry, you are not a contributor\") */\n              tag_86\n              jumpi\n              mload(0x40)\n              0x08c379a000000000000000000000000000000000000000000000000000000000\n              dup2\n              mstore\n              0x04\n              add\n              tag_87\n              swap1\n              tag_88\n              jump\t// in\n            tag_87:\n              mload(0x40)\n              dup1\n              swap2\n              sub\n              swap1\n              revert\n            tag_86:\n                /* \"DecenAngels.sol\":1982:1983  r */\n              dup1\n                /* \"DecenAngels.sol\":1982:1993  r.approvals */\n              0x04\n              add\n                /* \"DecenAngels.sol\":1982:2005  r.approvals[msg.sender] */\n              0x00\n                /* \"DecenAngels.sol\":1994:2004  msg.sender */\n              caller\n                /* \"DecenAngels.sol\":1982:2005  r.approvals[msg.sender] */\n              0xffffffffffffffffffffffffffffffffffffffff\n              and\n              0xffffffffffffffffffffffffffffffffffffffff\n              and\n              dup2\n              mstore\n              0x20\n              add\n              swap1\n              dup2\n              mstore\n              0x20\n              add\n              0x00\n              keccak256\n              0x00\n              swap1\n              sload\n              swap1\n              0x0100\n              exp\n              swap1\n              div\n              0xff\n              and\n                /* \"DecenAngels.sol\":1981:2005  !r.approvals[msg.sender] */\n              iszero\n                /* \"DecenAngels.sol\":1973:2040  require(!r.approvals[msg.sender], \"Sorry, you can only vote once.\") */\n              tag_89\n              jumpi\n              mload(0x40)\n              0x08c379a000000000000000000000000000000000000000000000000000000000\n              dup2\n              mstore\n              0x04\n              add\n              tag_90\n              swap1\n              tag_91\n              jump\t// in\n            tag_90:\n              mload(0x40)\n              dup1\n              swap2\n              sub\n              swap1\n              revert\n            tag_89:\n                /* \"DecenAngels.sol\":2079:2083  true */\n              0x01\n                /* \"DecenAngels.sol\":2053:2054  r */\n              dup2\n                /* \"DecenAngels.sol\":2053:2064  r.approvals */\n              0x04\n              add\n                /* \"DecenAngels.sol\":2053:2076  r.approvals[msg.sender] */\n              0x00\n                /* \"DecenAngels.sol\":2065:2075  msg.sender */\n              caller\n                /* \"DecenAngels.sol\":2053:2076  r.approvals[msg.sender] */\n              0xffffffffffffffffffffffffffffffffffffffff\n              and\n              0xffffffffffffffffffffffffffffffffffffffff\n              and\n              dup2\n              mstore\n              0x20\n              add\n              swap1\n              dup2\n              mstore\n              0x20\n              add\n              0x00\n              keccak256\n              0x00\n                /* \"DecenAngels.sol\":2053:2083  r.approvals[msg.sender] = true */\n              0x0100\n              exp\n              dup2\n              sload\n              dup2\n              0xff\n              mul\n              not\n              and\n              swap1\n              dup4\n              iszero\n              iszero\n              mul\n              or\n              swap1\n              sstore\n              pop\n                /* \"DecenAngels.sol\":2094:2095  r */\n              dup1\n                /* \"DecenAngels.sol\":2094:2109  r.approvalCount */\n              0x03\n              add\n              0x00\n                /* \"DecenAngels.sol\":2094:2111  r.approvalCount++ */\n              dup2\n              sload\n              dup1\n              swap3\n              swap2\n              swap1\n              tag_92\n              swap1\n              tag_77\n              jump\t// in\n            tag_92:\n              swap2\n              swap1\n              pop\n              sstore\n              pop\n                /* \"DecenAngels.sol\":1836:2119  {... */\n              pop\n                /* \"DecenAngels.sol\":1792:2119  function approveRequest(uint _index) public {... */\n              pop\n              jump\t// out\n                /* \"#utility.yul\":7:82   */\n            tag_93:\n                /* \"#utility.yul\":40:46   */\n              0x00\n                /* \"#utility.yul\":73:75   */\n              0x40\n                /* \"#utility.yul\":67:76   */\n              mload\n                /* \"#utility.yul\":57:76   */\n              swap1\n              pop\n                /* \"#utility.yul\":7:82   */\n              swap1\n              jump\t// out\n                /* \"#utility.yul\":88:205   */\n            tag_94:\n                /* \"#utility.yul\":197:198   */\n              0x00\n                /* \"#utility.yul\":194:195   */\n              dup1\n                /* \"#utility.yul\":187:199   */\n              revert\n                /* \"#utility.yul\":211:328   */\n            tag_95:\n                /* \"#utility.yul\":320:321   */\n              0x00\n                /* \"#utility.yul\":317:318   */\n              dup1\n                /* \"#utility.yul\":310:322   */\n              revert\n                /* \"#utility.yul\":334:411   */\n            tag_96:\n                /* \"#utility.yul\":371:378   */\n              0x00\n                /* \"#utility.yul\":400:405   */\n              dup2\n                /* \"#utility.yul\":389:405   */\n              swap1\n              pop\n                /* \"#utility.yul\":334:411   */\n              swap2\n              swap1\n              pop\n              jump\t// out\n                /* \"#utility.yul\":417:539   */\n            tag_97:\n                /* \"#utility.yul\":490:514   */\n              tag_157\n                /* \"#utility.yul\":508:513   */\n              dup2\n                /* \"#utility.yul\":490:514   */\n              tag_96\n              jump\t// in\n            tag_157:\n                /* \"#utility.yul\":483:488   */\n              dup2\n                /* \"#utility.yul\":480:515   */\n              eq\n                /* \"#utility.yul\":470:533   */\n              tag_158\n              jumpi\n                /* \"#utility.yul\":529:530   */\n              0x00\n                /* \"#utility.yul\":526:527   */\n              dup1\n                /* \"#utility.yul\":519:531   */\n              revert\n                /* \"#utility.yul\":470:533   */\n            tag_158:\n                /* \"#utility.yul\":417:539   */\n              pop\n              jump\t// out\n                /* \"#utility.yul\":545:684   */\n            tag_98:\n                /* \"#utility.yul\":591:596   */\n              0x00\n                /* \"#utility.yul\":629:635   */\n              dup2\n                /* \"#utility.yul\":616:636   */\n              calldataload\n                /* \"#utility.yul\":607:636   */\n              swap1\n              pop\n                /* \"#utility.yul\":645:678   */\n              tag_160\n                /* \"#utility.yul\":672:677   */\n              dup2\n                /* \"#utility.yul\":645:678   */\n              tag_97\n              jump\t// in\n            tag_160:\n                /* \"#utility.yul\":545:684   */\n              swap3\n              swap2\n              pop\n              pop\n              jump\t// out\n                /* \"#utility.yul\":690:1019   */\n            tag_14:\n                /* \"#utility.yul\":749:755   */\n              0x00\n                /* \"#utility.yul\":798:800   */\n              0x20\n                /* \"#utility.yul\":786:795   */\n              dup3\n                /* \"#utility.yul\":777:784   */\n              dup5\n                /* \"#utility.yul\":773:796   */\n              sub\n                /* \"#utility.yul\":769:801   */\n              slt\n                /* \"#utility.yul\":766:885   */\n              iszero\n              tag_162\n              jumpi\n                /* \"#utility.yul\":804:883   */\n              tag_163\n              tag_94\n              jump\t// in\n            tag_163:\n                /* \"#utility.yul\":766:885   */\n            tag_162:\n                /* \"#utility.yul\":924:925   */\n              0x00\n                /* \"#utility.yul\":949:1002   */\n              tag_164\n                /* \"#utility.yul\":994:1001   */\n              dup5\n                /* \"#utility.yul\":985:991   */\n              dup3\n                /* \"#utility.yul\":974:983   */\n              dup6\n                /* \"#utility.yul\":970:992   */\n              add\n                /* \"#utility.yul\":949:1002   */\n              tag_98\n              jump\t// in\n            tag_164:\n                /* \"#utility.yul\":939:1002   */\n              swap2\n              pop\n                /* \"#utility.yul\":895:1012   */\n              pop\n                /* \"#utility.yul\":690:1019   */\n              swap3\n              swap2\n              pop\n              pop\n              jump\t// out\n                /* \"#utility.yul\":1025:1151   */\n            tag_99:\n                /* \"#utility.yul\":1062:1069   */\n              0x00\n                /* \"#utility.yul\":1102:1144   */\n              0xffffffffffffffffffffffffffffffffffffffff\n                /* \"#utility.yul\":1095:1100   */\n              dup3\n                /* \"#utility.yul\":1091:1145   */\n              and\n                /* \"#utility.yul\":1080:1145   */\n              swap1\n              pop\n                /* \"#utility.yul\":1025:1151   */\n              swap2\n              swap1\n              pop\n              jump\t// out\n                /* \"#utility.yul\":1157:1253   */\n            tag_100:\n                /* \"#utility.yul\":1194:1201   */\n              0x00\n                /* \"#utility.yul\":1223:1247   */\n              tag_167\n                /* \"#utility.yul\":1241:1246   */\n              dup3\n                /* \"#utility.yul\":1223:1247   */\n              tag_99\n              jump\t// in\n            tag_167:\n                /* \"#utility.yul\":1212:1247   */\n              swap1\n              pop\n                /* \"#utility.yul\":1157:1253   */\n              swap2\n              swap1\n              pop\n              jump\t// out\n                /* \"#utility.yul\":1259:1381   */\n            tag_101:\n                /* \"#utility.yul\":1332:1356   */\n              tag_169\n                /* \"#utility.yul\":1350:1355   */\n              dup2\n                /* \"#utility.yul\":1332:1356   */\n              tag_100\n              jump\t// in\n            tag_169:\n                /* \"#utility.yul\":1325:1330   */\n              dup2\n                /* \"#utility.yul\":1322:1357   */\n              eq\n                /* \"#utility.yul\":1312:1375   */\n              tag_170\n              jumpi\n                /* \"#utility.yul\":1371:1372   */\n              0x00\n                /* \"#utility.yul\":1368:1369   */\n              dup1\n                /* \"#utility.yul\":1361:1373   */\n              revert\n                /* \"#utility.yul\":1312:1375   */\n            tag_170:\n                /* \"#utility.yul\":1259:1381   */\n              pop\n              jump\t// out\n                /* \"#utility.yul\":1387:1526   */\n            tag_102:\n                /* \"#utility.yul\":1433:1438   */\n              0x00\n                /* \"#utility.yul\":1471:1477   */\n              dup2\n                /* \"#utility.yul\":1458:1478   */\n              calldataload\n                /* \"#utility.yul\":1449:1478   */\n              swap1\n              pop\n                /* \"#utility.yul\":1487:1520   */\n              tag_172\n                /* \"#utility.yul\":1514:1519   */\n              dup2\n                /* \"#utility.yul\":1487:1520   */\n              tag_101\n              jump\t// in\n            tag_172:\n                /* \"#utility.yul\":1387:1526   */\n              swap3\n              swap2\n              pop\n              pop\n              jump\t// out\n                /* \"#utility.yul\":1532:1861   */\n            tag_19:\n                /* \"#utility.yul\":1591:1597   */\n              0x00\n                /* \"#utility.yul\":1640:1642   */\n              0x20\n                /* \"#utility.yul\":1628:1637   */\n              dup3\n                /* \"#utility.yul\":1619:1626   */\n              dup5\n                /* \"#utility.yul\":1615:1638   */\n              sub\n                /* \"#utility.yul\":1611:1643   */\n              slt\n                /* \"#utility.yul\":1608:1727   */\n              iszero\n              tag_174\n              jumpi\n                /* \"#utility.yul\":1646:1725   */\n              tag_175\n              tag_94\n              jump\t// in\n            tag_175:\n                /* \"#utility.yul\":1608:1727   */\n            tag_174:\n                /* \"#utility.yul\":1766:1767   */\n              0x00\n                /* \"#utility.yul\":1791:1844   */\n              tag_176\n                /* \"#utility.yul\":1836:1843   */\n              dup5\n                /* \"#utility.yul\":1827:1833   */\n              dup3\n                /* \"#utility.yul\":1816:1825   */\n              dup6\n                /* \"#utility.yul\":1812:1834   */\n              add\n                /* \"#utility.yul\":1791:1844   */\n              tag_102\n              jump\t// in\n            tag_176:\n                /* \"#utility.yul\":1781:1844   */\n              swap2\n              pop\n                /* \"#utility.yul\":1737:1854   */\n              pop\n                /* \"#utility.yul\":1532:1861   */\n              swap3\n              swap2\n              pop\n              pop\n              jump\t// out\n                /* \"#utility.yul\":1867:1957   */\n            tag_103:\n                /* \"#utility.yul\":1901:1908   */\n              0x00\n                /* \"#utility.yul\":1944:1949   */\n              dup2\n                /* \"#utility.yul\":1937:1950   */\n              iszero\n                /* \"#utility.yul\":1930:1951   */\n              iszero\n                /* \"#utility.yul\":1919:1951   */\n              swap1\n              pop\n                /* \"#utility.yul\":1867:1957   */\n              swap2\n              swap1\n              pop\n              jump\t// out\n                /* \"#utility.yul\":1963:2072   */\n            tag_104:\n                /* \"#utility.yul\":2044:2065   */\n              tag_179\n                /* \"#utility.yul\":2059:2064   */\n              dup2\n                /* \"#utility.yul\":2044:2065   */\n              tag_103\n              jump\t// in\n            tag_179:\n                /* \"#utility.yul\":2039:2042   */\n              dup3\n                /* \"#utility.yul\":2032:2066   */\n              mstore\n                /* \"#utility.yul\":1963:2072   */\n              pop\n              pop\n              jump\t// out\n                /* \"#utility.yul\":2078:2288   */\n            tag_22:\n                /* \"#utility.yul\":2165:2169   */\n              0x00\n                /* \"#utility.yul\":2203:2205   */\n              0x20\n                /* \"#utility.yul\":2192:2201   */\n              dup3\n                /* \"#utility.yul\":2188:2206   */\n              add\n                /* \"#utility.yul\":2180:2206   */\n              swap1\n              pop\n                /* \"#utility.yul\":2216:2281   */\n              tag_181\n                /* \"#utility.yul\":2278:2279   */\n              0x00\n                /* \"#utility.yul\":2267:2276   */\n              dup4\n                /* \"#utility.yul\":2263:2280   */\n              add\n                /* \"#utility.yul\":2254:2260   */\n              dup5\n                /* \"#utility.yul\":2216:2281   */\n              tag_104\n              jump\t// in\n            tag_181:\n                /* \"#utility.yul\":2078:2288   */\n              swap3\n              swap2\n              pop\n              pop\n              jump\t// out\n                /* \"#utility.yul\":2294:2412   */\n            tag_105:\n                /* \"#utility.yul\":2381:2405   */\n              tag_183\n                /* \"#utility.yul\":2399:2404   */\n              dup2\n                /* \"#utility.yul\":2381:2405   */\n              tag_100\n              jump\t// in\n            tag_183:\n                /* \"#utility.yul\":2376:2379   */\n              dup3\n                /* \"#utility.yul\":2369:2406   */\n              mstore\n                /* \"#utility.yul\":2294:2412   */\n              pop\n              pop\n              jump\t// out\n                /* \"#utility.yul\":2418:2640   */\n            tag_27:\n                /* \"#utility.yul\":2511:2515   */\n              0x00\n                /* \"#utility.yul\":2549:2551   */\n              0x20\n                /* \"#utility.yul\":2538:2547   */\n              dup3\n                /* \"#utility.yul\":2534:2552   */\n              add\n                /* \"#utility.yul\":2526:2552   */\n              swap1\n              pop\n                /* \"#utility.yul\":2562:2633   */\n              tag_185\n                /* \"#utility.yul\":2630:2631   */\n              0x00\n                /* \"#utility.yul\":2619:2628   */\n              dup4\n                /* \"#utility.yul\":2615:2632   */\n              add\n                /* \"#utility.yul\":2606:2612   */\n              dup5\n                /* \"#utility.yul\":2562:2633   */\n              tag_105\n              jump\t// in\n            tag_185:\n                /* \"#utility.yul\":2418:2640   */\n              swap3\n              swap2\n              pop\n              pop\n              jump\t// out\n                /* \"#utility.yul\":2646:2745   */\n            tag_106:\n                /* \"#utility.yul\":2698:2704   */\n              0x00\n                /* \"#utility.yul\":2732:2737   */\n              dup2\n                /* \"#utility.yul\":2726:2738   */\n              mload\n                /* \"#utility.yul\":2716:2738   */\n              swap1\n              pop\n                /* \"#utility.yul\":2646:2745   */\n              swap2\n              swap1\n              pop\n              jump\t// out\n                /* \"#utility.yul\":2751:2920   */\n            tag_107:\n                /* \"#utility.yul\":2835:2846   */\n              0x00\n                /* \"#utility.yul\":2869:2875   */\n              dup3\n                /* \"#utility.yul\":2864:2867   */\n              dup3\n                /* \"#utility.yul\":2857:2876   */\n              mstore\n                /* \"#utility.yul\":2909:2913   */\n              0x20\n                /* \"#utility.yul\":2904:2907   */\n              dup3\n                /* \"#utility.yul\":2900:2914   */\n              add\n                /* \"#utility.yul\":2885:2914   */\n              swap1\n              pop\n                /* \"#utility.yul\":2751:2920   */\n              swap3\n              swap2\n              pop\n              pop\n              jump\t// out\n                /* \"#utility.yul\":2926:3172   */\n            tag_108:\n                /* \"#utility.yul\":3007:3008   */\n              0x00\n                /* \"#utility.yul\":3017:3130   */\n            tag_189:\n                /* \"#utility.yul\":3031:3037   */\n              dup4\n                /* \"#utility.yul\":3028:3029   */\n              dup2\n                /* \"#utility.yul\":3025:3038   */\n              lt\n                /* \"#utility.yul\":3017:3130   */\n              iszero\n              tag_191\n              jumpi\n                /* \"#utility.yul\":3116:3117   */\n              dup1\n                /* \"#utility.yul\":3111:3114   */\n              dup3\n                /* \"#utility.yul\":3107:3118   */\n              add\n                /* \"#utility.yul\":3101:3119   */\n              mload\n                /* \"#utility.yul\":3097:3098   */\n              dup2\n                /* \"#utility.yul\":3092:3095   */\n              dup5\n                /* \"#utility.yul\":3088:3099   */\n              add\n                /* \"#utility.yul\":3081:3120   */\n              mstore\n                /* \"#utility.yul\":3053:3055   */\n              0x20\n                /* \"#utility.yul\":3050:3051   */\n              dup2\n                /* \"#utility.yul\":3046:3056   */\n              add\n                /* \"#utility.yul\":3041:3056   */\n              swap1\n              pop\n                /* \"#utility.yul\":3017:3130   */\n              jump(tag_189)\n            tag_191:\n                /* \"#utility.yul\":3164:3165   */\n              0x00\n                /* \"#utility.yul\":3155:3161   */\n              dup5\n                /* \"#utility.yul\":3150:3153   */\n              dup5\n                /* \"#utility.yul\":3146:3162   */\n              add\n                /* \"#utility.yul\":3139:3166   */\n              mstore\n                /* \"#utility.yul\":2988:3172   */\n              pop\n                /* \"#utility.yul\":2926:3172   */\n              pop\n              pop\n              pop\n              jump\t// out\n                /* \"#utility.yul\":3178:3280   */\n            tag_109:\n                /* \"#utility.yul\":3219:3225   */\n              0x00\n                /* \"#utility.yul\":3270:3272   */\n              0x1f\n                /* \"#utility.yul\":3266:3273   */\n              not\n                /* \"#utility.yul\":3261:3263   */\n              0x1f\n                /* \"#utility.yul\":3254:3259   */\n              dup4\n                /* \"#utility.yul\":3250:3264   */\n              add\n                /* \"#utility.yul\":3246:3274   */\n              and\n                /* \"#utility.yul\":3236:3274   */\n              swap1\n              pop\n                /* \"#utility.yul\":3178:3280   */\n              swap2\n              swap1\n              pop\n              jump\t// out\n                /* \"#utility.yul\":3286:3663   */\n            tag_110:\n                /* \"#utility.yul\":3374:3377   */\n              0x00\n                /* \"#utility.yul\":3402:3441   */\n              tag_194\n                /* \"#utility.yul\":3435:3440   */\n              dup3\n                /* \"#utility.yul\":3402:3441   */\n              tag_106\n              jump\t// in\n            tag_194:\n                /* \"#utility.yul\":3457:3528   */\n              tag_195\n                /* \"#utility.yul\":3521:3527   */\n              dup2\n                /* \"#utility.yul\":3516:3519   */\n              dup6\n                /* \"#utility.yul\":3457:3528   */\n              tag_107\n              jump\t// in\n            tag_195:\n                /* \"#utility.yul\":3450:3528   */\n              swap4\n              pop\n                /* \"#utility.yul\":3537:3602   */\n              tag_196\n                /* \"#utility.yul\":3595:3601   */\n              dup2\n                /* \"#utility.yul\":3590:3593   */\n              dup6\n                /* \"#utility.yul\":3583:3587   */\n              0x20\n                /* \"#utility.yul\":3576:3581   */\n              dup7\n                /* \"#utility.yul\":3572:3588   */\n              add\n                /* \"#utility.yul\":3537:3602   */\n              tag_108\n              jump\t// in\n            tag_196:\n                /* \"#utility.yul\":3627:3656   */\n              tag_197\n                /* \"#utility.yul\":3649:3655   */\n              dup2\n                /* \"#utility.yul\":3627:3656   */\n              tag_109\n              jump\t// in\n            tag_197:\n                /* \"#utility.yul\":3622:3625   */\n              dup5\n                /* \"#utility.yul\":3618:3657   */\n              add\n                /* \"#utility.yul\":3611:3657   */\n              swap2\n              pop\n                /* \"#utility.yul\":3378:3663   */\n              pop\n                /* \"#utility.yul\":3286:3663   */\n              swap3\n              swap2\n              pop\n              pop\n              jump\t// out\n                /* \"#utility.yul\":3669:3787   */\n            tag_111:\n                /* \"#utility.yul\":3756:3780   */\n              tag_199\n                /* \"#utility.yul\":3774:3779   */\n              dup2\n                /* \"#utility.yul\":3756:3780   */\n              tag_96\n              jump\t// in\n            tag_199:\n                /* \"#utility.yul\":3751:3754   */\n              dup3\n                /* \"#utility.yul\":3744:3781   */\n              mstore\n                /* \"#utility.yul\":3669:3787   */\n              pop\n              pop\n              jump\t// out\n                /* \"#utility.yul\":3793:3897   */\n            tag_112:\n                /* \"#utility.yul\":3838:3845   */\n              0x00\n                /* \"#utility.yul\":3867:3891   */\n              tag_201\n                /* \"#utility.yul\":3885:3890   */\n              dup3\n                /* \"#utility.yul\":3867:3891   */\n              tag_99\n              jump\t// in\n            tag_201:\n                /* \"#utility.yul\":3856:3891   */\n              swap1\n              pop\n                /* \"#utility.yul\":3793:3897   */\n              swap2\n              swap1\n              pop\n              jump\t// out\n                /* \"#utility.yul\":3903:4045   */\n            tag_113:\n                /* \"#utility.yul\":4006:4038   */\n              tag_203\n                /* \"#utility.yul\":4032:4037   */\n              dup2\n                /* \"#utility.yul\":4006:4038   */\n              tag_112\n              jump\t// in\n            tag_203:\n                /* \"#utility.yul\":4001:4004   */\n              dup3\n                /* \"#utility.yul\":3994:4039   */\n              mstore\n                /* \"#utility.yul\":3903:4045   */\n              pop\n              pop\n              jump\t// out\n                /* \"#utility.yul\":4051:4826   */\n            tag_33:\n                /* \"#utility.yul\":4286:4290   */\n              0x00\n                /* \"#utility.yul\":4324:4327   */\n              0xa0\n                /* \"#utility.yul\":4313:4322   */\n              dup3\n                /* \"#utility.yul\":4309:4328   */\n              add\n                /* \"#utility.yul\":4301:4328   */\n              swap1\n              pop\n                /* \"#utility.yul\":4374:4383   */\n              dup2\n                /* \"#utility.yul\":4368:4372   */\n              dup2\n                /* \"#utility.yul\":4364:4384   */\n              sub\n                /* \"#utility.yul\":4360:4361   */\n              0x00\n                /* \"#utility.yul\":4349:4358   */\n              dup4\n                /* \"#utility.yul\":4345:4362   */\n              add\n                /* \"#utility.yul\":4338:4385   */\n              mstore\n                /* \"#utility.yul\":4402:4480   */\n              tag_205\n                /* \"#utility.yul\":4475:4479   */\n              dup2\n                /* \"#utility.yul\":4466:4472   */\n              dup9\n                /* \"#utility.yul\":4402:4480   */\n              tag_110\n              jump\t// in\n            tag_205:\n                /* \"#utility.yul\":4394:4480   */\n              swap1\n              pop\n                /* \"#utility.yul\":4490:4562   */\n              tag_206\n                /* \"#utility.yul\":4558:4560   */\n              0x20\n                /* \"#utility.yul\":4547:4556   */\n              dup4\n                /* \"#utility.yul\":4543:4561   */\n              add\n                /* \"#utility.yul\":4534:4540   */\n              dup8\n                /* \"#utility.yul\":4490:4562   */\n              tag_111\n              jump\t// in\n            tag_206:\n                /* \"#utility.yul\":4572:4660   */\n              tag_207\n                /* \"#utility.yul\":4656:4658   */\n              0x40\n                /* \"#utility.yul\":4645:4654   */\n              dup4\n                /* \"#utility.yul\":4641:4659   */\n              add\n                /* \"#utility.yul\":4632:4638   */\n              dup7\n                /* \"#utility.yul\":4572:4660   */\n              tag_113\n              jump\t// in\n            tag_207:\n                /* \"#utility.yul\":4670:4736   */\n              tag_208\n                /* \"#utility.yul\":4732:4734   */\n              0x60\n                /* \"#utility.yul\":4721:4730   */\n              dup4\n                /* \"#utility.yul\":4717:4735   */\n              add\n                /* \"#utility.yul\":4708:4714   */\n              dup6\n                /* \"#utility.yul\":4670:4736   */\n              tag_104\n              jump\t// in\n            tag_208:\n                /* \"#utility.yul\":4746:4819   */\n              tag_209\n                /* \"#utility.yul\":4814:4817   */\n              0x80\n                /* \"#utility.yul\":4803:4812   */\n              dup4\n                /* \"#utility.yul\":4799:4818   */\n              add\n                /* \"#utility.yul\":4790:4796   */\n              dup5\n                /* \"#utility.yul\":4746:4819   */\n              tag_111\n              jump\t// in\n            tag_209:\n                /* \"#utility.yul\":4051:4826   */\n              swap7\n              swap6\n              pop\n              pop\n              pop\n              pop\n              pop\n              pop\n              jump\t// out\n                /* \"#utility.yul\":4832:5054   */\n            tag_38:\n                /* \"#utility.yul\":4925:4929   */\n              0x00\n                /* \"#utility.yul\":4963:4965   */\n              0x20\n                /* \"#utility.yul\":4952:4961   */\n              dup3\n                /* \"#utility.yul\":4948:4966   */\n              add\n                /* \"#utility.yul\":4940:4966   */\n              swap1\n              pop\n                /* \"#utility.yul\":4976:5047   */\n              tag_211\n                /* \"#utility.yul\":5044:5045   */\n              0x00\n                /* \"#utility.yul\":5033:5042   */\n              dup4\n                /* \"#utility.yul\":5029:5046   */\n              add\n                /* \"#utility.yul\":5020:5026   */\n              dup5\n                /* \"#utility.yul\":4976:5047   */\n              tag_111\n              jump\t// in\n            tag_211:\n                /* \"#utility.yul\":4832:5054   */\n              swap3\n              swap2\n              pop\n              pop\n              jump\t// out\n                /* \"#utility.yul\":5060:5177   */\n            tag_114:\n                /* \"#utility.yul\":5169:5170   */\n              0x00\n                /* \"#utility.yul\":5166:5167   */\n              dup1\n                /* \"#utility.yul\":5159:5171   */\n              revert\n                /* \"#utility.yul\":5183:5300   */\n            tag_115:\n                /* \"#utility.yul\":5292:5293   */\n              0x00\n                /* \"#utility.yul\":5289:5290   */\n              dup1\n                /* \"#utility.yul\":5282:5294   */\n              revert\n                /* \"#utility.yul\":5306:5486   */\n            tag_116:\n                /* \"#utility.yul\":5354:5431   */\n              0x4e487b7100000000000000000000000000000000000000000000000000000000\n                /* \"#utility.yul\":5351:5352   */\n              0x00\n                /* \"#utility.yul\":5344:5432   */\n              mstore\n                /* \"#utility.yul\":5451:5455   */\n              0x41\n                /* \"#utility.yul\":5448:5449   */\n              0x04\n                /* \"#utility.yul\":5441:5456   */\n              mstore\n                /* \"#utility.yul\":5475:5479   */\n              0x24\n                /* \"#utility.yul\":5472:5473   */\n              0x00\n                /* \"#utility.yul\":5465:5480   */\n              revert\n                /* \"#utility.yul\":5492:5773   */\n            tag_117:\n                /* \"#utility.yul\":5575:5602   */\n              tag_216\n                /* \"#utility.yul\":5597:5601   */\n              dup3\n                /* \"#utility.yul\":5575:5602   */\n              tag_109\n              jump\t// in\n            tag_216:\n                /* \"#utility.yul\":5567:5573   */\n              dup2\n                /* \"#utility.yul\":5563:5603   */\n              add\n                /* \"#utility.yul\":5705:5711   */\n              dup2\n                /* \"#utility.yul\":5693:5703   */\n              dup2\n                /* \"#utility.yul\":5690:5712   */\n              lt\n                /* \"#utility.yul\":5669:5687   */\n              0xffffffffffffffff\n                /* \"#utility.yul\":5657:5667   */\n              dup3\n                /* \"#utility.yul\":5654:5688   */\n              gt\n                /* \"#utility.yul\":5651:5713   */\n              or\n                /* \"#utility.yul\":5648:5736   */\n              iszero\n              tag_217\n              jumpi\n                /* \"#utility.yul\":5716:5734   */\n              tag_218\n              tag_116\n              jump\t// in\n            tag_218:\n                /* \"#utility.yul\":5648:5736   */\n            tag_217:\n                /* \"#utility.yul\":5756:5766   */\n              dup1\n                /* \"#utility.yul\":5752:5754   */\n              0x40\n                /* \"#utility.yul\":5745:5767   */\n              mstore\n                /* \"#utility.yul\":5535:5773   */\n              pop\n                /* \"#utility.yul\":5492:5773   */\n              pop\n              pop\n              jump\t// out\n                /* \"#utility.yul\":5779:5908   */\n            tag_118:\n                /* \"#utility.yul\":5813:5819   */\n              0x00\n                /* \"#utility.yul\":5840:5860   */\n              tag_220\n              tag_93\n              jump\t// in\n            tag_220:\n                /* \"#utility.yul\":5830:5860   */\n              swap1\n              pop\n                /* \"#utility.yul\":5869:5902   */\n              tag_221\n                /* \"#utility.yul\":5897:5901   */\n              dup3\n                /* \"#utility.yul\":5889:5895   */\n              dup3\n                /* \"#utility.yul\":5869:5902   */\n              tag_117\n              jump\t// in\n            tag_221:\n                /* \"#utility.yul\":5779:5908   */\n              swap2\n              swap1\n              pop\n              jump\t// out\n                /* \"#utility.yul\":5914:6222   */\n            tag_119:\n                /* \"#utility.yul\":5976:5980   */\n              0x00\n                /* \"#utility.yul\":6066:6084   */\n              0xffffffffffffffff\n                /* \"#utility.yul\":6058:6064   */\n              dup3\n                /* \"#utility.yul\":6055:6085   */\n              gt\n                /* \"#utility.yul\":6052:6108   */\n              iszero\n              tag_223\n              jumpi\n                /* \"#utility.yul\":6088:6106   */\n              tag_224\n              tag_116\n              jump\t// in\n            tag_224:\n                /* \"#utility.yul\":6052:6108   */\n            tag_223:\n                /* \"#utility.yul\":6126:6155   */\n              tag_225\n                /* \"#utility.yul\":6148:6154   */\n              dup3\n                /* \"#utility.yul\":6126:6155   */\n              tag_109\n              jump\t// in\n            tag_225:\n                /* \"#utility.yul\":6118:6155   */\n              swap1\n              pop\n                /* \"#utility.yul\":6210:6214   */\n              0x20\n                /* \"#utility.yul\":6204:6208   */\n              dup2\n                /* \"#utility.yul\":6200:6215   */\n              add\n                /* \"#utility.yul\":6192:6215   */\n              swap1\n              pop\n                /* \"#utility.yul\":5914:6222   */\n              swap2\n              swap1\n              pop\n              jump\t// out\n                /* \"#utility.yul\":6228:6374   */\n            tag_120:\n                /* \"#utility.yul\":6325:6331   */\n              dup3\n                /* \"#utility.yul\":6320:6323   */\n              dup2\n                /* \"#utility.yul\":6315:6318   */\n              dup4\n                /* \"#utility.yul\":6302:6332   */\n              calldatacopy\n                /* \"#utility.yul\":6366:6367   */\n              0x00\n                /* \"#utility.yul\":6357:6363   */\n              dup4\n                /* \"#utility.yul\":6352:6355   */\n              dup4\n                /* \"#utility.yul\":6348:6364   */\n              add\n                /* \"#utility.yul\":6341:6368   */\n              mstore\n                /* \"#utility.yul\":6228:6374   */\n              pop\n              pop\n              pop\n              jump\t// out\n                /* \"#utility.yul\":6380:6805   */\n            tag_121:\n                /* \"#utility.yul\":6458:6463   */\n              0x00\n                /* \"#utility.yul\":6483:6549   */\n              tag_228\n                /* \"#utility.yul\":6499:6548   */\n              tag_229\n                /* \"#utility.yul\":6541:6547   */\n              dup5\n                /* \"#utility.yul\":6499:6548   */\n              tag_119\n              jump\t// in\n            tag_229:\n                /* \"#utility.yul\":6483:6549   */\n              tag_118\n              jump\t// in\n            tag_228:\n                /* \"#utility.yul\":6474:6549   */\n              swap1\n              pop\n                /* \"#utility.yul\":6572:6578   */\n              dup3\n                /* \"#utility.yul\":6565:6570   */\n              dup2\n                /* \"#utility.yul\":6558:6579   */\n              mstore\n                /* \"#utility.yul\":6610:6614   */\n              0x20\n                /* \"#utility.yul\":6603:6608   */\n              dup2\n                /* \"#utility.yul\":6599:6615   */\n              add\n                /* \"#utility.yul\":6648:6651   */\n              dup5\n                /* \"#utility.yul\":6639:6645   */\n              dup5\n                /* \"#utility.yul\":6634:6637   */\n              dup5\n                /* \"#utility.yul\":6630:6646   */\n              add\n                /* \"#utility.yul\":6627:6652   */\n              gt\n                /* \"#utility.yul\":6624:6736   */\n              iszero\n              tag_230\n              jumpi\n                /* \"#utility.yul\":6655:6734   */\n              tag_231\n              tag_115\n              jump\t// in\n            tag_231:\n                /* \"#utility.yul\":6624:6736   */\n            tag_230:\n                /* \"#utility.yul\":6745:6799   */\n              tag_232\n                /* \"#utility.yul\":6792:6798   */\n              dup5\n                /* \"#utility.yul\":6787:6790   */\n              dup3\n                /* \"#utility.yul\":6782:6785   */\n              dup6\n                /* \"#utility.yul\":6745:6799   */\n              tag_120\n              jump\t// in\n            tag_232:\n                /* \"#utility.yul\":6464:6805   */\n              pop\n                /* \"#utility.yul\":6380:6805   */\n              swap4\n              swap3\n              pop\n              pop\n              pop\n              jump\t// out\n                /* \"#utility.yul\":6825:7165   */\n            tag_122:\n                /* \"#utility.yul\":6881:6886   */\n              0x00\n                /* \"#utility.yul\":6930:6933   */\n              dup3\n                /* \"#utility.yul\":6923:6927   */\n              0x1f\n                /* \"#utility.yul\":6915:6921   */\n              dup4\n                /* \"#utility.yul\":6911:6928   */\n              add\n                /* \"#utility.yul\":6907:6934   */\n              slt\n                /* \"#utility.yul\":6897:7019   */\n              tag_234\n              jumpi\n                /* \"#utility.yul\":6938:7017   */\n              tag_235\n              tag_114\n              jump\t// in\n            tag_235:\n                /* \"#utility.yul\":6897:7019   */\n            tag_234:\n                /* \"#utility.yul\":7055:7061   */\n              dup2\n                /* \"#utility.yul\":7042:7062   */\n              calldataload\n                /* \"#utility.yul\":7080:7159   */\n              tag_236\n                /* \"#utility.yul\":7155:7158   */\n              dup5\n                /* \"#utility.yul\":7147:7153   */\n              dup3\n                /* \"#utility.yul\":7140:7144   */\n              0x20\n                /* \"#utility.yul\":7132:7138   */\n              dup7\n                /* \"#utility.yul\":7128:7145   */\n              add\n                /* \"#utility.yul\":7080:7159   */\n              tag_121\n              jump\t// in\n            tag_236:\n                /* \"#utility.yul\":7071:7159   */\n              swap2\n              pop\n                /* \"#utility.yul\":6887:7165   */\n              pop\n                /* \"#utility.yul\":6825:7165   */\n              swap3\n              swap2\n              pop\n              pop\n              jump\t// out\n                /* \"#utility.yul\":7171:7309   */\n            tag_123:\n                /* \"#utility.yul\":7252:7284   */\n              tag_238\n                /* \"#utility.yul\":7278:7283   */\n              dup2\n                /* \"#utility.yul\":7252:7284   */\n              tag_112\n              jump\t// in\n            tag_238:\n                /* \"#utility.yul\":7245:7250   */\n              dup2\n                /* \"#utility.yul\":7242:7285   */\n              eq\n                /* \"#utility.yul\":7232:7303   */\n              tag_239\n              jumpi\n                /* \"#utility.yul\":7299:7300   */\n              0x00\n                /* \"#utility.yul\":7296:7297   */\n              dup1\n                /* \"#utility.yul\":7289:7301   */\n              revert\n                /* \"#utility.yul\":7232:7303   */\n            tag_239:\n                /* \"#utility.yul\":7171:7309   */\n              pop\n              jump\t// out\n                /* \"#utility.yul\":7315:7470   */\n            tag_124:\n                /* \"#utility.yul\":7369:7374   */\n              0x00\n                /* \"#utility.yul\":7407:7413   */\n              dup2\n                /* \"#utility.yul\":7394:7414   */\n              calldataload\n                /* \"#utility.yul\":7385:7414   */\n              swap1\n              pop\n                /* \"#utility.yul\":7423:7464   */\n              tag_241\n                /* \"#utility.yul\":7458:7463   */\n              dup2\n                /* \"#utility.yul\":7423:7464   */\n              tag_123\n              jump\t// in\n            tag_241:\n                /* \"#utility.yul\":7315:7470   */\n              swap3\n              swap2\n              pop\n              pop\n              jump\t// out\n                /* \"#utility.yul\":7476:8291   */\n            tag_42:\n                /* \"#utility.yul\":7571:7577   */\n              0x00\n                /* \"#utility.yul\":7579:7585   */\n              dup1\n                /* \"#utility.yul\":7587:7593   */\n              0x00\n                /* \"#utility.yul\":7636:7638   */\n              0x60\n                /* \"#utility.yul\":7624:7633   */\n              dup5\n                /* \"#utility.yul\":7615:7622   */\n              dup7\n                /* \"#utility.yul\":7611:7634   */\n              sub\n                /* \"#utility.yul\":7607:7639   */\n              slt\n                /* \"#utility.yul\":7604:7723   */\n              iszero\n              tag_243\n              jumpi\n                /* \"#utility.yul\":7642:7721   */\n              tag_244\n              tag_94\n              jump\t// in\n            tag_244:\n                /* \"#utility.yul\":7604:7723   */\n            tag_243:\n                /* \"#utility.yul\":7790:7791   */\n              0x00\n                /* \"#utility.yul\":7779:7788   */\n              dup5\n                /* \"#utility.yul\":7775:7792   */\n              add\n                /* \"#utility.yul\":7762:7793   */\n              calldataload\n                /* \"#utility.yul\":7820:7838   */\n              0xffffffffffffffff\n                /* \"#utility.yul\":7812:7818   */\n              dup2\n                /* \"#utility.yul\":7809:7839   */\n              gt\n                /* \"#utility.yul\":7806:7923   */\n              iszero\n              tag_245\n              jumpi\n                /* \"#utility.yul\":7842:7921   */\n              tag_246\n              tag_95\n              jump\t// in\n            tag_246:\n                /* \"#utility.yul\":7806:7923   */\n            tag_245:\n                /* \"#utility.yul\":7947:8010   */\n              tag_247\n                /* \"#utility.yul\":8002:8009   */\n              dup7\n                /* \"#utility.yul\":7993:7999   */\n              dup3\n                /* \"#utility.yul\":7982:7991   */\n              dup8\n                /* \"#utility.yul\":7978:8000   */\n              add\n                /* \"#utility.yul\":7947:8010   */\n              tag_122\n              jump\t// in\n            tag_247:\n                /* \"#utility.yul\":7937:8010   */\n              swap4\n              pop\n                /* \"#utility.yul\":7733:8020   */\n              pop\n                /* \"#utility.yul\":8059:8061   */\n              0x20\n                /* \"#utility.yul\":8085:8138   */\n              tag_248\n                /* \"#utility.yul\":8130:8137   */\n              dup7\n                /* \"#utility.yul\":8121:8127   */\n              dup3\n                /* \"#utility.yul\":8110:8119   */\n              dup8\n                /* \"#utility.yul\":8106:8128   */\n              add\n                /* \"#utility.yul\":8085:8138   */\n              tag_98\n              jump\t// in\n            tag_248:\n                /* \"#utility.yul\":8075:8138   */\n              swap3\n              pop\n                /* \"#utility.yul\":8030:8148   */\n              pop\n                /* \"#utility.yul\":8187:8189   */\n              0x40\n                /* \"#utility.yul\":8213:8274   */\n              tag_249\n                /* \"#utility.yul\":8266:8273   */\n              dup7\n                /* \"#utility.yul\":8257:8263   */\n              dup3\n                /* \"#utility.yul\":8246:8255   */\n              dup8\n                /* \"#utility.yul\":8242:8264   */\n              add\n                /* \"#utility.yul\":8213:8274   */\n              tag_124\n              jump\t// in\n            tag_249:\n                /* \"#utility.yul\":8203:8274   */\n              swap2\n              pop\n                /* \"#utility.yul\":8158:8284   */\n              pop\n                /* \"#utility.yul\":7476:8291   */\n              swap3\n              pop\n              swap3\n              pop\n              swap3\n              jump\t// out\n                /* \"#utility.yul\":8297:8469   */\n            tag_125:\n                /* \"#utility.yul\":8437:8461   */\n              0x596f7520617265206e6f7420617574686f72697a656400000000000000000000\n                /* \"#utility.yul\":8433:8434   */\n              0x00\n                /* \"#utility.yul\":8425:8431   */\n              dup3\n                /* \"#utility.yul\":8421:8435   */\n              add\n                /* \"#utility.yul\":8414:8462   */\n              mstore\n                /* \"#utility.yul\":8297:8469   */\n              pop\n              jump\t// out\n                /* \"#utility.yul\":8475:8841   */\n            tag_126:\n                /* \"#utility.yul\":8617:8620   */\n              0x00\n                /* \"#utility.yul\":8638:8705   */\n              tag_252\n                /* \"#utility.yul\":8702:8704   */\n              0x16\n                /* \"#utility.yul\":8697:8700   */\n              dup4\n                /* \"#utility.yul\":8638:8705   */\n              tag_107\n              jump\t// in\n            tag_252:\n                /* \"#utility.yul\":8631:8705   */\n              swap2\n              pop\n                /* \"#utility.yul\":8714:8807   */\n              tag_253\n                /* \"#utility.yul\":8803:8806   */\n              dup3\n                /* \"#utility.yul\":8714:8807   */\n              tag_125\n              jump\t// in\n            tag_253:\n                /* \"#utility.yul\":8832:8834   */\n              0x20\n                /* \"#utility.yul\":8827:8830   */\n              dup3\n                /* \"#utility.yul\":8823:8835   */\n              add\n                /* \"#utility.yul\":8816:8835   */\n              swap1\n              pop\n                /* \"#utility.yul\":8475:8841   */\n              swap2\n              swap1\n              pop\n              jump\t// out\n                /* \"#utility.yul\":8847:9266   */\n            tag_57:\n                /* \"#utility.yul\":9013:9017   */\n              0x00\n                /* \"#utility.yul\":9051:9053   */\n              0x20\n                /* \"#utility.yul\":9040:9049   */\n              dup3\n                /* \"#utility.yul\":9036:9054   */\n              add\n                /* \"#utility.yul\":9028:9054   */\n              swap1\n              pop\n                /* \"#utility.yul\":9100:9109   */\n              dup2\n                /* \"#utility.yul\":9094:9098   */\n              dup2\n                /* \"#utility.yul\":9090:9110   */\n              sub\n                /* \"#utility.yul\":9086:9087   */\n              0x00\n                /* \"#utility.yul\":9075:9084   */\n              dup4\n                /* \"#utility.yul\":9071:9088   */\n              add\n                /* \"#utility.yul\":9064:9111   */\n              mstore\n                /* \"#utility.yul\":9128:9259   */\n              tag_255\n                /* \"#utility.yul\":9254:9258   */\n              dup2\n                /* \"#utility.yul\":9128:9259   */\n              tag_126\n              jump\t// in\n            tag_255:\n                /* \"#utility.yul\":9120:9259   */\n              swap1\n              pop\n                /* \"#utility.yul\":8847:9266   */\n              swap2\n              swap1\n              pop\n              jump\t// out\n                /* \"#utility.yul\":9272:9452   */\n            tag_127:\n                /* \"#utility.yul\":9320:9397   */\n              0x4e487b7100000000000000000000000000000000000000000000000000000000\n                /* \"#utility.yul\":9317:9318   */\n              0x00\n                /* \"#utility.yul\":9310:9398   */\n              mstore\n                /* \"#utility.yul\":9417:9421   */\n              0x12\n                /* \"#utility.yul\":9414:9415   */\n              0x04\n                /* \"#utility.yul\":9407:9422   */\n              mstore\n                /* \"#utility.yul\":9441:9445   */\n              0x24\n                /* \"#utility.yul\":9438:9439   */\n              0x00\n                /* \"#utility.yul\":9431:9446   */\n              revert\n                /* \"#utility.yul\":9458:9638   */\n            tag_128:\n                /* \"#utility.yul\":9506:9583   */\n              0x4e487b7100000000000000000000000000000000000000000000000000000000\n                /* \"#utility.yul\":9503:9504   */\n              0x00\n                /* \"#utility.yul\":9496:9584   */\n              mstore\n                /* \"#utility.yul\":9603:9607   */\n              0x11\n                /* \"#utility.yul\":9600:9601   */\n              0x04\n                /* \"#utility.yul\":9593:9608   */\n              mstore\n                /* \"#utility.yul\":9627:9631   */\n              0x24\n                /* \"#utility.yul\":9624:9625   */\n              0x00\n                /* \"#utility.yul\":9617:9632   */\n              revert\n                /* \"#utility.yul\":9644:9829   */\n            tag_61:\n                /* \"#utility.yul\":9684:9685   */\n              0x00\n                /* \"#utility.yul\":9701:9721   */\n              tag_259\n                /* \"#utility.yul\":9719:9720   */\n              dup3\n                /* \"#utility.yul\":9701:9721   */\n              tag_96\n              jump\t// in\n            tag_259:\n                /* \"#utility.yul\":9696:9721   */\n              swap2\n              pop\n                /* \"#utility.yul\":9735:9755   */\n              tag_260\n                /* \"#utility.yul\":9753:9754   */\n              dup4\n                /* \"#utility.yul\":9735:9755   */\n              tag_96\n              jump\t// in\n            tag_260:\n                /* \"#utility.yul\":9730:9755   */\n              swap3\n              pop\n                /* \"#utility.yul\":9774:9775   */\n              dup3\n                /* \"#utility.yul\":9764:9799   */\n              tag_261\n              jumpi\n                /* \"#utility.yul\":9779:9797   */\n              tag_262\n              tag_127\n              jump\t// in\n            tag_262:\n                /* \"#utility.yul\":9764:9799   */\n            tag_261:\n                /* \"#utility.yul\":9821:9822   */\n              dup3\n                /* \"#utility.yul\":9818:9819   */\n              dup3\n                /* \"#utility.yul\":9814:9823   */\n              div\n                /* \"#utility.yul\":9809:9823   */\n              swap1\n              pop\n                /* \"#utility.yul\":9644:9829   */\n              swap3\n              swap2\n              pop\n              pop\n              jump\t// out\n                /* \"#utility.yul\":9835:10015   */\n            tag_129:\n                /* \"#utility.yul\":9883:9960   */\n              0x4e487b7100000000000000000000000000000000000000000000000000000000\n                /* \"#utility.yul\":9880:9881   */\n              0x00\n                /* \"#utility.yul\":9873:9961   */\n              mstore\n                /* \"#utility.yul\":9980:9984   */\n              0x22\n                /* \"#utility.yul\":9977:9978   */\n              0x04\n                /* \"#utility.yul\":9970:9985   */\n              mstore\n                /* \"#utility.yul\":10004:10008   */\n              0x24\n                /* \"#utility.yul\":10001:10002   */\n              0x00\n                /* \"#utility.yul\":9994:10009   */\n              revert\n                /* \"#utility.yul\":10021:10341   */\n            tag_66:\n                /* \"#utility.yul\":10065:10071   */\n              0x00\n                /* \"#utility.yul\":10102:10103   */\n              0x02\n                /* \"#utility.yul\":10096:10100   */\n              dup3\n                /* \"#utility.yul\":10092:10104   */\n              div\n                /* \"#utility.yul\":10082:10104   */\n              swap1\n              pop\n                /* \"#utility.yul\":10149:10150   */\n              0x01\n                /* \"#utility.yul\":10143:10147   */\n              dup3\n                /* \"#utility.yul\":10139:10151   */\n              and\n                /* \"#utility.yul\":10170:10188   */\n              dup1\n                /* \"#utility.yul\":10160:10241   */\n              tag_265\n              jumpi\n                /* \"#utility.yul\":10226:10230   */\n              0x7f\n                /* \"#utility.yul\":10218:10224   */\n              dup3\n                /* \"#utility.yul\":10214:10231   */\n              and\n                /* \"#utility.yul\":10204:10231   */\n              swap2\n              pop\n                /* \"#utility.yul\":10160:10241   */\n            tag_265:\n                /* \"#utility.yul\":10288:10290   */\n              0x20\n                /* \"#utility.yul\":10280:10286   */\n              dup3\n                /* \"#utility.yul\":10277:10291   */\n              lt\n                /* \"#utility.yul\":10257:10275   */\n              dup2\n                /* \"#utility.yul\":10254:10292   */\n              sub\n                /* \"#utility.yul\":10251:10335   */\n              tag_266\n              jumpi\n                /* \"#utility.yul\":10307:10325   */\n              tag_267\n              tag_129\n              jump\t// in\n            tag_267:\n                /* \"#utility.yul\":10251:10335   */\n            tag_266:\n                /* \"#utility.yul\":10072:10341   */\n              pop\n                /* \"#utility.yul\":10021:10341   */\n              swap2\n              swap1\n              pop\n              jump\t// out\n                /* \"#utility.yul\":10347:10580   */\n            tag_77:\n                /* \"#utility.yul\":10386:10389   */\n              0x00\n                /* \"#utility.yul\":10409:10433   */\n              tag_269\n                /* \"#utility.yul\":10427:10432   */\n              dup3\n                /* \"#utility.yul\":10409:10433   */\n              tag_96\n              jump\t// in\n            tag_269:\n                /* \"#utility.yul\":10400:10433   */\n              swap2\n              pop\n                /* \"#utility.yul\":10455:10521   */\n              0xffffffffffffffffffffffffffffffffffffffffffffffffffffffffffffffff\n                /* \"#utility.yul\":10448:10453   */\n              dup3\n                /* \"#utility.yul\":10445:10522   */\n              sub\n                /* \"#utility.yul\":10442:10545   */\n              tag_270\n              jumpi\n                /* \"#utility.yul\":10525:10543   */\n              tag_271\n              tag_128\n              jump\t// in\n            tag_271:\n                /* \"#utility.yul\":10442:10545   */\n            tag_270:\n                /* \"#utility.yul\":10572:10573   */\n              0x01\n                /* \"#utility.yul\":10565:10570   */\n              dup3\n                /* \"#utility.yul\":10561:10574   */\n              add\n                /* \"#utility.yul\":10554:10574   */\n              swap1\n              pop\n                /* \"#utility.yul\":10347:10580   */\n              swap2\n              swap1\n              pop\n              jump\t// out\n                /* \"#utility.yul\":10586:10727   */\n            tag_130:\n                /* \"#utility.yul\":10635:10639   */\n              0x00\n                /* \"#utility.yul\":10658:10661   */\n              dup2\n                /* \"#utility.yul\":10650:10661   */\n              swap1\n              pop\n                /* \"#utility.yul\":10681:10684   */\n              dup2\n                /* \"#utility.yul\":10678:10679   */\n              0x00\n                /* \"#utility.yul\":10671:10685   */\n              mstore\n                /* \"#utility.yul\":10715:10719   */\n              0x20\n                /* \"#utility.yul\":10712:10713   */\n              0x00\n                /* \"#utility.yul\":10702:10720   */\n              keccak256\n                /* \"#utility.yul\":10694:10720   */\n              swap1\n              pop\n                /* \"#utility.yul\":10586:10727   */\n              swap2\n              swap1\n              pop\n              jump\t// out\n                /* \"#utility.yul\":10733:10826   */\n            tag_131:\n                /* \"#utility.yul\":10770:10776   */\n              0x00\n                /* \"#utility.yul\":10817:10819   */\n              0x20\n                /* \"#utility.yul\":10812:10814   */\n              0x1f\n                /* \"#utility.yul\":10805:10810   */\n              dup4\n                /* \"#utility.yul\":10801:10815   */\n              add\n                /* \"#utility.yul\":10797:10820   */\n              div\n                /* \"#utility.yul\":10787:10820   */\n              swap1\n              pop\n                /* \"#utility.yul\":10733:10826   */\n              swap2\n              swap1\n              pop\n              jump\t// out\n                /* \"#utility.yul\":10832:10939   */\n            tag_132:\n                /* \"#utility.yul\":10876:10884   */\n              0x00\n                /* \"#utility.yul\":10926:10931   */\n              dup3\n                /* \"#utility.yul\":10920:10924   */\n              dup3\n                /* \"#utility.yul\":10916:10932   */\n              shl\n                /* \"#utility.yul\":10895:10932   */\n              swap1\n              pop\n                /* \"#utility.yul\":10832:10939   */\n              swap3\n              swap2\n              pop\n              pop\n              jump\t// out\n                /* \"#utility.yul\":10945:11338   */\n            tag_133:\n                /* \"#utility.yul\":11014:11020   */\n              0x00\n                /* \"#utility.yul\":11064:11065   */\n              0x08\n                /* \"#utility.yul\":11052:11062   */\n              dup4\n                /* \"#utility.yul\":11048:11066   */\n              mul\n                /* \"#utility.yul\":11087:11184   */\n              tag_276\n                /* \"#utility.yul\":11117:11183   */\n              0xffffffffffffffffffffffffffffffffffffffffffffffffffffffffffffffff\n                /* \"#utility.yul\":11106:11115   */\n              dup3\n                /* \"#utility.yul\":11087:11184   */\n              tag_132\n              jump\t// in\n            tag_276:\n                /* \"#utility.yul\":11205:11244   */\n              tag_277\n                /* \"#utility.yul\":11235:11243   */\n              dup7\n                /* \"#utility.yul\":11224:11233   */\n              dup4\n                /* \"#utility.yul\":11205:11244   */\n              tag_132\n              jump\t// in\n            tag_277:\n                /* \"#utility.yul\":11193:11244   */\n              swap6\n              pop\n                /* \"#utility.yul\":11277:11281   */\n              dup1\n                /* \"#utility.yul\":11273:11282   */\n              not\n                /* \"#utility.yul\":11266:11271   */\n              dup5\n                /* \"#utility.yul\":11262:11283   */\n              and\n                /* \"#utility.yul\":11253:11283   */\n              swap4\n              pop\n                /* \"#utility.yul\":11326:11330   */\n              dup1\n                /* \"#utility.yul\":11316:11324   */\n              dup7\n                /* \"#utility.yul\":11312:11331   */\n              and\n                /* \"#utility.yul\":11305:11310   */\n              dup5\n                /* \"#utility.yul\":11302:11332   */\n              or\n                /* \"#utility.yul\":11292:11332   */\n              swap3\n              pop\n                /* \"#utility.yul\":11021:11338   */\n              pop\n              pop\n                /* \"#utility.yul\":10945:11338   */\n              swap4\n              swap3\n              pop\n              pop\n              pop\n              jump\t// out\n                /* \"#utility.yul\":11344:11404   */\n            tag_134:\n                /* \"#utility.yul\":11372:11375   */\n              0x00\n                /* \"#utility.yul\":11393:11398   */\n              dup2\n                /* \"#utility.yul\":11386:11398   */\n              swap1\n              pop\n                /* \"#utility.yul\":11344:11404   */\n              swap2\n              swap1\n              pop\n              jump\t// out\n                /* \"#utility.yul\":11410:11552   */\n            tag_135:\n                /* \"#utility.yul\":11460:11469   */\n              0x00\n                /* \"#utility.yul\":11493:11546   */\n              tag_280\n                /* \"#utility.yul\":11511:11545   */\n              tag_281\n                /* \"#utility.yul\":11520:11544   */\n              tag_282\n                /* \"#utility.yul\":11538:11543   */\n              dup5\n                /* \"#utility.yul\":11520:11544   */\n              tag_96\n              jump\t// in\n            tag_282:\n                /* \"#utility.yul\":11511:11545   */\n              tag_134\n              jump\t// in\n            tag_281:\n                /* \"#utility.yul\":11493:11546   */\n              tag_96\n              jump\t// in\n            tag_280:\n                /* \"#utility.yul\":11480:11546   */\n              swap1\n              pop\n                /* \"#utility.yul\":11410:11552   */\n              swap2\n              swap1\n              pop\n              jump\t// out\n                /* \"#utility.yul\":11558:11633   */\n            tag_136:\n                /* \"#utility.yul\":11601:11604   */\n              0x00\n                /* \"#utility.yul\":11622:11627   */\n              dup2\n                /* \"#utility.yul\":11615:11627   */\n              swap1\n              pop\n                /* \"#utility.yul\":11558:11633   */\n              swap2\n              swap1\n              pop\n              jump\t// out\n                /* \"#utility.yul\":11639:11908   */\n            tag_137:\n                /* \"#utility.yul\":11749:11788   */\n              tag_285\n                /* \"#utility.yul\":11780:11787   */\n              dup4\n                /* \"#utility.yul\":11749:11788   */\n              tag_135\n              jump\t// in\n            tag_285:\n                /* \"#utility.yul\":11810:11901   */\n              tag_286\n                /* \"#utility.yul\":11859:11900   */\n              tag_287\n                /* \"#utility.yul\":11883:11899   */\n              dup3\n                /* \"#utility.yul\":11859:11900   */\n              tag_136\n              jump\t// in\n            tag_287:\n                /* \"#utility.yul\":11851:11857   */\n              dup5\n                /* \"#utility.yul\":11844:11848   */\n              dup5\n                /* \"#utility.yul\":11838:11849   */\n              sload\n                /* \"#utility.yul\":11810:11901   */\n              tag_133\n              jump\t// in\n            tag_286:\n                /* \"#utility.yul\":11804:11808   */\n              dup3\n                /* \"#utility.yul\":11797:11902   */\n              sstore\n                /* \"#utility.yul\":11715:11908   */\n              pop\n                /* \"#utility.yul\":11639:11908   */\n              pop\n              pop\n              pop\n              jump\t// out\n                /* \"#utility.yul\":11914:11987   */\n            tag_138:\n                /* \"#utility.yul\":11959:11962   */\n              0x00\n                /* \"#utility.yul\":11914:11987   */\n              swap1\n              jump\t// out\n                /* \"#utility.yul\":11993:12182   */\n            tag_139:\n                /* \"#utility.yul\":12070:12102   */\n              tag_290\n              tag_138\n              jump\t// in\n            tag_290:\n                /* \"#utility.yul\":12111:12176   */\n              tag_291\n                /* \"#utility.yul\":12169:12175   */\n              dup2\n                /* \"#utility.yul\":12161:12167   */\n              dup5\n                /* \"#utility.yul\":12155:12159   */\n              dup5\n                /* \"#utility.yul\":12111:12176   */\n              tag_137\n              jump\t// in\n            tag_291:\n                /* \"#utility.yul\":12046:12182   */\n              pop\n                /* \"#utility.yul\":11993:12182   */\n              pop\n              pop\n              jump\t// out\n                /* \"#utility.yul\":12188:12374   */\n            tag_140:\n                /* \"#utility.yul\":12248:12368   */\n            tag_293:\n                /* \"#utility.yul\":12265:12268   */\n              dup2\n                /* \"#utility.yul\":12258:12263   */\n              dup2\n                /* \"#utility.yul\":12255:12269   */\n              lt\n                /* \"#utility.yul\":12248:12368   */\n              iszero\n              tag_295\n              jumpi\n                /* \"#utility.yul\":12319:12358   */\n              tag_296\n                /* \"#utility.yul\":12356:12357   */\n              0x00\n                /* \"#utility.yul\":12349:12354   */\n              dup3\n                /* \"#utility.yul\":12319:12358   */\n              tag_139\n              jump\t// in\n            tag_296:\n                /* \"#utility.yul\":12292:12293   */\n              0x01\n                /* \"#utility.yul\":12285:12290   */\n              dup2\n                /* \"#utility.yul\":12281:12294   */\n              add\n                /* \"#utility.yul\":12272:12294   */\n              swap1\n              pop\n                /* \"#utility.yul\":12248:12368   */\n              jump(tag_293)\n            tag_295:\n                /* \"#utility.yul\":12188:12374   */\n              pop\n              pop\n              jump\t// out\n                /* \"#utility.yul\":12380:12923   */\n            tag_141:\n                /* \"#utility.yul\":12481:12483   */\n              0x1f\n                /* \"#utility.yul\":12476:12479   */\n              dup3\n                /* \"#utility.yul\":12473:12484   */\n              gt\n                /* \"#utility.yul\":12470:12916   */\n              iszero\n              tag_298\n              jumpi\n                /* \"#utility.yul\":12515:12553   */\n              tag_299\n                /* \"#utility.yul\":12547:12552   */\n              dup2\n                /* \"#utility.yul\":12515:12553   */\n              tag_130\n              jump\t// in\n            tag_299:\n                /* \"#utility.yul\":12599:12628   */\n              tag_300\n                /* \"#utility.yul\":12617:12627   */\n              dup5\n                /* \"#utility.yul\":12599:12628   */\n              tag_131\n              jump\t// in\n            tag_300:\n                /* \"#utility.yul\":12589:12597   */\n              dup2\n                /* \"#utility.yul\":12585:12629   */\n              add\n                /* \"#utility.yul\":12782:12784   */\n              0x20\n                /* \"#utility.yul\":12770:12780   */\n              dup6\n                /* \"#utility.yul\":12767:12785   */\n              lt\n                /* \"#utility.yul\":12764:12813   */\n              iszero\n              tag_301\n              jumpi\n                /* \"#utility.yul\":12803:12811   */\n              dup2\n                /* \"#utility.yul\":12788:12811   */\n              swap1\n              pop\n                /* \"#utility.yul\":12764:12813   */\n            tag_301:\n                /* \"#utility.yul\":12826:12906   */\n              tag_302\n                /* \"#utility.yul\":12882:12904   */\n              tag_303\n                /* \"#utility.yul\":12900:12903   */\n              dup6\n                /* \"#utility.yul\":12882:12904   */\n              tag_131\n              jump\t// in\n            tag_303:\n                /* \"#utility.yul\":12872:12880   */\n              dup4\n                /* \"#utility.yul\":12868:12905   */\n              add\n                /* \"#utility.yul\":12855:12866   */\n              dup3\n                /* \"#utility.yul\":12826:12906   */\n              tag_140\n              jump\t// in\n            tag_302:\n                /* \"#utility.yul\":12485:12916   */\n              pop\n              pop\n                /* \"#utility.yul\":12470:12916   */\n            tag_298:\n                /* \"#utility.yul\":12380:12923   */\n              pop\n              pop\n              pop\n              jump\t// out\n                /* \"#utility.yul\":12929:13046   */\n            tag_142:\n                /* \"#utility.yul\":12983:12991   */\n              0x00\n                /* \"#utility.yul\":13033:13038   */\n              dup3\n                /* \"#utility.yul\":13027:13031   */\n              dup3\n                /* \"#utility.yul\":13023:13039   */\n              shr\n                /* \"#utility.yul\":13002:13039   */\n              swap1\n              pop\n                /* \"#utility.yul\":12929:13046   */\n              swap3\n              swap2\n              pop\n              pop\n              jump\t// out\n                /* \"#utility.yul\":13052:13221   */\n            tag_143:\n                /* \"#utility.yul\":13096:13102   */\n              0x00\n                /* \"#utility.yul\":13129:13180   */\n              tag_306\n                /* \"#utility.yul\":13177:13178   */\n              0x00\n                /* \"#utility.yul\":13173:13179   */\n              not\n                /* \"#utility.yul\":13165:13170   */\n              dup5\n                /* \"#utility.yul\":13162:13163   */\n              0x08\n                /* \"#utility.yul\":13158:13171   */\n              mul\n                /* \"#utility.yul\":13129:13180   */\n              tag_142\n              jump\t// in\n            tag_306:\n                /* \"#utility.yul\":13125:13181   */\n              not\n                /* \"#utility.yul\":13210:13214   */\n              dup1\n                /* \"#utility.yul\":13204:13208   */\n              dup4\n                /* \"#utility.yul\":13200:13215   */\n              and\n                /* \"#utility.yul\":13190:13215   */\n              swap2\n              pop\n                /* \"#utility.yul\":13103:13221   */\n              pop\n                /* \"#utility.yul\":13052:13221   */\n              swap3\n              swap2\n              pop\n              pop\n              jump\t// out\n                /* \"#utility.yul\":13226:13521   */\n            tag_144:\n                /* \"#utility.yul\":13302:13306   */\n              0x00\n                /* \"#utility.yul\":13448:13477   */\n              tag_308\n                /* \"#utility.yul\":13473:13476   */\n              dup4\n                /* \"#utility.yul\":13467:13471   */\n              dup4\n                /* \"#utility.yul\":13448:13477   */\n              tag_143\n              jump\t// in\n            tag_308:\n                /* \"#utility.yul\":13440:13477   */\n              swap2\n              pop\n                /* \"#utility.yul\":13510:13513   */\n              dup3\n                /* \"#utility.yul\":13507:13508   */\n              0x02\n                /* \"#utility.yul\":13503:13514   */\n              mul\n                /* \"#utility.yul\":13497:13501   */\n              dup3\n                /* \"#utility.yul\":13494:13515   */\n              or\n                /* \"#utility.yul\":13486:13515   */\n              swap1\n              pop\n                /* \"#utility.yul\":13226:13521   */\n              swap3\n              swap2\n              pop\n              pop\n              jump\t// out\n                /* \"#utility.yul\":13526:14921   */\n            tag_79:\n                /* \"#utility.yul\":13643:13680   */\n              tag_310\n                /* \"#utility.yul\":13676:13679   */\n              dup3\n                /* \"#utility.yul\":13643:13680   */\n              tag_106\n              jump\t// in\n            tag_310:\n                /* \"#utility.yul\":13745:13763   */\n              0xffffffffffffffff\n                /* \"#utility.yul\":13737:13743   */\n              dup2\n                /* \"#utility.yul\":13734:13764   */\n              gt\n                /* \"#utility.yul\":13731:13787   */\n              iszero\n              tag_311\n              jumpi\n                /* \"#utility.yul\":13767:13785   */\n              tag_312\n              tag_116\n              jump\t// in\n            tag_312:\n                /* \"#utility.yul\":13731:13787   */\n            tag_311:\n                /* \"#utility.yul\":13811:13849   */\n              tag_313\n                /* \"#utility.yul\":13843:13847   */\n              dup3\n                /* \"#utility.yul\":13837:13848   */\n              sload\n                /* \"#utility.yul\":13811:13849   */\n              tag_66\n              jump\t// in\n            tag_313:\n                /* \"#utility.yul\":13896:13963   */\n              tag_314\n                /* \"#utility.yul\":13956:13962   */\n              dup3\n                /* \"#utility.yul\":13948:13954   */\n              dup3\n                /* \"#utility.yul\":13942:13946   */\n              dup6\n                /* \"#utility.yul\":13896:13963   */\n              tag_141\n              jump\t// in\n            tag_314:\n                /* \"#utility.yul\":13990:13991   */\n              0x00\n                /* \"#utility.yul\":14014:14018   */\n              0x20\n                /* \"#utility.yul\":14001:14018   */\n              swap1\n              pop\n                /* \"#utility.yul\":14046:14048   */\n              0x1f\n                /* \"#utility.yul\":14038:14044   */\n              dup4\n                /* \"#utility.yul\":14035:14049   */\n              gt\n                /* \"#utility.yul\":14063:14064   */\n              0x01\n                /* \"#utility.yul\":14058:14676   */\n              dup2\n              eq\n              tag_316\n              jumpi\n                /* \"#utility.yul\":14720:14721   */\n              0x00\n                /* \"#utility.yul\":14737:14743   */\n              dup5\n                /* \"#utility.yul\":14734:14811   */\n              iszero\n              tag_317\n              jumpi\n                /* \"#utility.yul\":14786:14795   */\n              dup3\n                /* \"#utility.yul\":14781:14784   */\n              dup8\n                /* \"#utility.yul\":14777:14796   */\n              add\n                /* \"#utility.yul\":14771:14797   */\n              mload\n                /* \"#utility.yul\":14762:14797   */\n              swap1\n              pop\n                /* \"#utility.yul\":14734:14811   */\n            tag_317:\n                /* \"#utility.yul\":14837:14904   */\n              tag_318\n                /* \"#utility.yul\":14897:14903   */\n              dup6\n                /* \"#utility.yul\":14890:14895   */\n              dup3\n                /* \"#utility.yul\":14837:14904   */\n              tag_144\n              jump\t// in\n            tag_318:\n                /* \"#utility.yul\":14831:14835   */\n              dup7\n                /* \"#utility.yul\":14824:14905   */\n              sstore\n                /* \"#utility.yul\":14693:14915   */\n              pop\n                /* \"#utility.yul\":14028:14915   */\n              jump(tag_315)\n                /* \"#utility.yul\":14058:14676   */\n            tag_316:\n                /* \"#utility.yul\":14110:14114   */\n              0x1f\n                /* \"#utility.yul\":14106:14115   */\n              not\n                /* \"#utility.yul\":14098:14104   */\n              dup5\n                /* \"#utility.yul\":14094:14116   */\n              and\n                /* \"#utility.yul\":14144:14181   */\n              tag_319\n                /* \"#utility.yul\":14176:14180   */\n              dup7\n                /* \"#utility.yul\":14144:14181   */\n              tag_130\n              jump\t// in\n            tag_319:\n                /* \"#utility.yul\":14203:14204   */\n              0x00\n                /* \"#utility.yul\":14217:14425   */\n            tag_320:\n                /* \"#utility.yul\":14231:14238   */\n              dup3\n                /* \"#utility.yul\":14228:14229   */\n              dup2\n                /* \"#utility.yul\":14225:14239   */\n              lt\n                /* \"#utility.yul\":14217:14425   */\n              iszero\n              tag_322\n              jumpi\n                /* \"#utility.yul\":14310:14319   */\n              dup5\n                /* \"#utility.yul\":14305:14308   */\n              dup10\n                /* \"#utility.yul\":14301:14320   */\n              add\n                /* \"#utility.yul\":14295:14321   */\n              mload\n                /* \"#utility.yul\":14287:14293   */\n              dup3\n                /* \"#utility.yul\":14280:14322   */\n              sstore\n                /* \"#utility.yul\":14361:14362   */\n              0x01\n                /* \"#utility.yul\":14353:14359   */\n              dup3\n                /* \"#utility.yul\":14349:14363   */\n              add\n                /* \"#utility.yul\":14339:14363   */\n              swap2\n              pop\n                /* \"#utility.yul\":14408:14410   */\n              0x20\n                /* \"#utility.yul\":14397:14406   */\n              dup6\n                /* \"#utility.yul\":14393:14411   */\n              add\n                /* \"#utility.yul\":14380:14411   */\n              swap5\n              pop\n                /* \"#utility.yul\":14254:14258   */\n              0x20\n                /* \"#utility.yul\":14251:14252   */\n              dup2\n                /* \"#utility.yul\":14247:14259   */\n              add\n                /* \"#utility.yul\":14242:14259   */\n              swap1\n              pop\n                /* \"#utility.yul\":14217:14425   */\n              jump(tag_320)\n            tag_322:\n                /* \"#utility.yul\":14453:14459   */\n              dup7\n                /* \"#utility.yul\":14444:14451   */\n              dup4\n                /* \"#utility.yul\":14441:14460   */\n              lt\n                /* \"#utility.yul\":14438:14617   */\n              iszero\n              tag_323\n              jumpi\n                /* \"#utility.yul\":14511:14520   */\n              dup5\n                /* \"#utility.yul\":14506:14509   */\n              dup10\n                /* \"#utility.yul\":14502:14521   */\n              add\n                /* \"#utility.yul\":14496:14522   */\n              mload\n                /* \"#utility.yul\":14554:14602   */\n              tag_324\n                /* \"#utility.yul\":14596:14600   */\n              0x1f\n                /* \"#utility.yul\":14588:14594   */\n              dup10\n                /* \"#utility.yul\":14584:14601   */\n              and\n                /* \"#utility.yul\":14573:14582   */\n              dup3\n                /* \"#utility.yul\":14554:14602   */\n              tag_143\n              jump\t// in\n            tag_324:\n                /* \"#utility.yul\":14546:14552   */\n              dup4\n                /* \"#utility.yul\":14539:14603   */\n              sstore\n                /* \"#utility.yul\":14461:14617   */\n              pop\n                /* \"#utility.yul\":14438:14617   */\n            tag_323:\n                /* \"#utility.yul\":14663:14664   */\n              0x01\n                /* \"#utility.yul\":14659:14660   */\n              0x02\n                /* \"#utility.yul\":14651:14657   */\n              dup9\n                /* \"#utility.yul\":14647:14661   */\n              mul\n                /* \"#utility.yul\":14643:14665   */\n              add\n                /* \"#utility.yul\":14637:14641   */\n              dup9\n                /* \"#utility.yul\":14630:14666   */\n              sstore\n                /* \"#utility.yul\":14065:14676   */\n              pop\n              pop\n              pop\n                /* \"#utility.yul\":14028:14915   */\n            tag_315:\n              pop\n                /* \"#utility.yul\":13618:14921   */\n              pop\n              pop\n              pop\n                /* \"#utility.yul\":13526:14921   */\n              pop\n              pop\n              jump\t// out\n                /* \"#utility.yul\":14927:15099   */\n            tag_145:\n                /* \"#utility.yul\":15067:15091   */\n              0x536f7272792c20706c6561736520707574206d6f726500000000000000000000\n                /* \"#utility.yul\":15063:15064   */\n              0x00\n                /* \"#utility.yul\":15055:15061   */\n              dup3\n                /* \"#utility.yul\":15051:15065   */\n              add\n                /* \"#utility.yul\":15044:15092   */\n              mstore\n                /* \"#utility.yul\":14927:15099   */\n              pop\n              jump\t// out\n                /* \"#utility.yul\":15105:15471   */\n            tag_146:\n                /* \"#utility.yul\":15247:15250   */\n              0x00\n                /* \"#utility.yul\":15268:15335   */\n              tag_327\n                /* \"#utility.yul\":15332:15334   */\n              0x16\n                /* \"#utility.yul\":15327:15330   */\n              dup4\n                /* \"#utility.yul\":15268:15335   */\n              tag_107\n              jump\t// in\n            tag_327:\n                /* \"#utility.yul\":15261:15335   */\n              swap2\n              pop\n                /* \"#utility.yul\":15344:15437   */\n              tag_328\n                /* \"#utility.yul\":15433:15436   */\n              dup3\n                /* \"#utility.yul\":15344:15437   */\n              tag_145\n              jump\t// in\n            tag_328:\n                /* \"#utility.yul\":15462:15464   */\n              0x20\n                /* \"#utility.yul\":15457:15460   */\n              dup3\n                /* \"#utility.yul\":15453:15465   */\n              add\n                /* \"#utility.yul\":15446:15465   */\n              swap1\n              pop\n                /* \"#utility.yul\":15105:15471   */\n              swap2\n              swap1\n              pop\n              jump\t// out\n                /* \"#utility.yul\":15477:15896   */\n            tag_83:\n                /* \"#utility.yul\":15643:15647   */\n              0x00\n                /* \"#utility.yul\":15681:15683   */\n              0x20\n                /* \"#utility.yul\":15670:15679   */\n              dup3\n                /* \"#utility.yul\":15666:15684   */\n              add\n                /* \"#utility.yul\":15658:15684   */\n              swap1\n              pop\n                /* \"#utility.yul\":15730:15739   */\n              dup2\n                /* \"#utility.yul\":15724:15728   */\n              dup2\n                /* \"#utility.yul\":15720:15740   */\n              sub\n                /* \"#utility.yul\":15716:15717   */\n              0x00\n                /* \"#utility.yul\":15705:15714   */\n              dup4\n                /* \"#utility.yul\":15701:15718   */\n              add\n                /* \"#utility.yul\":15694:15741   */\n              mstore\n                /* \"#utility.yul\":15758:15889   */\n              tag_330\n                /* \"#utility.yul\":15884:15888   */\n              dup2\n                /* \"#utility.yul\":15758:15889   */\n              tag_146\n              jump\t// in\n            tag_330:\n                /* \"#utility.yul\":15750:15889   */\n              swap1\n              pop\n                /* \"#utility.yul\":15477:15896   */\n              swap2\n              swap1\n              pop\n              jump\t// out\n                /* \"#utility.yul\":15902:16084   */\n            tag_147:\n                /* \"#utility.yul\":16042:16076   */\n              0x536f7272792c20796f7520617265206e6f74206120636f6e7472696275746f72\n                /* \"#utility.yul\":16038:16039   */\n              0x00\n                /* \"#utility.yul\":16030:16036   */\n              dup3\n                /* \"#utility.yul\":16026:16040   */\n              add\n                /* \"#utility.yul\":16019:16077   */\n              mstore\n                /* \"#utility.yul\":15902:16084   */\n              pop\n              jump\t// out\n                /* \"#utility.yul\":16090:16456   */\n            tag_148:\n                /* \"#utility.yul\":16232:16235   */\n              0x00\n                /* \"#utility.yul\":16253:16320   */\n              tag_333\n                /* \"#utility.yul\":16317:16319   */\n              0x20\n                /* \"#utility.yul\":16312:16315   */\n              dup4\n                /* \"#utility.yul\":16253:16320   */\n              tag_107\n              jump\t// in\n            tag_333:\n                /* \"#utility.yul\":16246:16320   */\n              swap2\n              pop\n                /* \"#utility.yul\":16329:16422   */\n              tag_334\n                /* \"#utility.yul\":16418:16421   */\n              dup3\n                /* \"#utility.yul\":16329:16422   */\n              tag_147\n              jump\t// in\n            tag_334:\n                /* \"#utility.yul\":16447:16449   */\n              0x20\n                /* \"#utility.yul\":16442:16445   */\n              dup3\n                /* \"#utility.yul\":16438:16450   */\n              add\n                /* \"#utility.yul\":16431:16450   */\n              swap1\n              pop\n                /* \"#utility.yul\":16090:16456   */\n              swap2\n              swap1\n              pop\n              jump\t// out\n                /* \"#utility.yul\":16462:16881   */\n            tag_88:\n                /* \"#utility.yul\":16628:16632   */\n              0x00\n                /* \"#utility.yul\":16666:16668   */\n              0x20\n                /* \"#utility.yul\":16655:16664   */\n              dup3\n                /* \"#utility.yul\":16651:16669   */\n              add\n                /* \"#utility.yul\":16643:16669   */\n              swap1\n              pop\n                /* \"#utility.yul\":16715:16724   */\n              dup2\n                /* \"#utility.yul\":16709:16713   */\n              dup2\n                /* \"#utility.yul\":16705:16725   */\n              sub\n                /* \"#utility.yul\":16701:16702   */\n              0x00\n                /* \"#utility.yul\":16690:16699   */\n              dup4\n                /* \"#utility.yul\":16686:16703   */\n              add\n                /* \"#utility.yul\":16679:16726   */\n              mstore\n                /* \"#utility.yul\":16743:16874   */\n              tag_336\n                /* \"#utility.yul\":16869:16873   */\n              dup2\n                /* \"#utility.yul\":16743:16874   */\n              tag_148\n              jump\t// in\n            tag_336:\n                /* \"#utility.yul\":16735:16874   */\n              swap1\n              pop\n                /* \"#utility.yul\":16462:16881   */\n              swap2\n              swap1\n              pop\n              jump\t// out\n                /* \"#utility.yul\":16887:17067   */\n            tag_149:\n                /* \"#utility.yul\":17027:17059   */\n              0x536f7272792c20796f752063616e206f6e6c7920766f7465206f6e63652e0000\n                /* \"#utility.yul\":17023:17024   */\n              0x00\n                /* \"#utility.yul\":17015:17021   */\n              dup3\n                /* \"#utility.yul\":17011:17025   */\n              add\n                /* \"#utility.yul\":17004:17060   */\n              mstore\n                /* \"#utility.yul\":16887:17067   */\n              pop\n              jump\t// out\n                /* \"#utility.yul\":17073:17439   */\n            tag_150:\n                /* \"#utility.yul\":17215:17218   */\n              0x00\n                /* \"#utility.yul\":17236:17303   */\n              tag_339\n                /* \"#utility.yul\":17300:17302   */\n              0x1e\n                /* \"#utility.yul\":17295:17298   */\n              dup4\n                /* \"#utility.yul\":17236:17303   */\n              tag_107\n              jump\t// in\n            tag_339:\n                /* \"#utility.yul\":17229:17303   */\n              swap2\n              pop\n                /* \"#utility.yul\":17312:17405   */\n              tag_340\n                /* \"#utility.yul\":17401:17404   */\n              dup3\n                /* \"#utility.yul\":17312:17405   */\n              tag_149\n              jump\t// in\n            tag_340:\n                /* \"#utility.yul\":17430:17432   */\n              0x20\n                /* \"#utility.yul\":17425:17428   */\n              dup3\n                /* \"#utility.yul\":17421:17433   */\n              add\n                /* \"#utility.yul\":17414:17433   */\n              swap1\n              pop\n                /* \"#utility.yul\":17073:17439   */\n              swap2\n              swap1\n              pop\n              jump\t// out\n                /* \"#utility.yul\":17445:17864   */\n            tag_91:\n                /* \"#utility.yul\":17611:17615   */\n              0x00\n                /* \"#utility.yul\":17649:17651   */\n              0x20\n                /* \"#utility.yul\":17638:17647   */\n              dup3\n                /* \"#utility.yul\":17634:17652   */\n              add\n                /* \"#utility.yul\":17626:17652   */\n              swap1\n              pop\n                /* \"#utility.yul\":17698:17707   */\n              dup2\n                /* \"#utility.yul\":17692:17696   */\n              dup2\n                /* \"#utility.yul\":17688:17708   */\n              sub\n                /* \"#utility.yul\":17684:17685   */\n              0x00\n                /* \"#utility.yul\":17673:17682   */\n              dup4\n                /* \"#utility.yul\":17669:17686   */\n              add\n                /* \"#utility.yul\":17662:17709   */\n              mstore\n                /* \"#utility.yul\":17726:17857   */\n              tag_342\n                /* \"#utility.yul\":17852:17856   */\n              dup2\n                /* \"#utility.yul\":17726:17857   */\n              tag_150\n              jump\t// in\n            tag_342:\n                /* \"#utility.yul\":17718:17857   */\n              swap1\n              pop\n                /* \"#utility.yul\":17445:17864   */\n              swap2\n              swap1\n              pop\n              jump\t// out\n\n            auxdata: 0xa2646970667358221220f0cca32369d8a6010e4d806f5743b661efd37185c69a66e9a267e17704f1d9fe64736f6c63430008130033\n        }\n    }\n\n    auxdata: 0xa264697066735822122010807b318c65fc01ac3ca0c86ae3a58717a5a436759312270ce86742e7e12b1a64736f6c63430008130033\n}\n","bytecode":{"linkReferences":{},"object":"608060405234801561001057600080fd5b50611870806100206000396000f3fe608060405234801561001057600080fd5b50600436106100415760003560e01c8063339d50a51461004657806337ec992a146100765780634acb9d4f14610092575b600080fd5b610060600480360381019061005b9190610266565b6100b0565b60405161006d91906102d4565b60405180910390f35b610090600480360381019061008b9190610266565b6100ef565b005b61009a610190565b6040516100a791906103ad565b60405180910390f35b600081815481106100c057600080fd5b906000526020600020016000915054906101000a900473ffffffffffffffffffffffffffffffffffffffff1681565b600081336040516100ff9061021e565b61010a9291906103de565b604051809103906000f080158015610126573d6000803e3d6000fd5b5090506000819080600181540180825580915050600190039060005260206000200160009091909190916101000a81548173ffffffffffffffffffffffffffffffffffffffff021916908373ffffffffffffffffffffffffffffffffffffffff1602179055505050565b6060600080548060200260200160405190810160405280929190818152602001828054801561021457602002820191906000526020600020905b8160009054906101000a900473ffffffffffffffffffffffffffffffffffffffff1673ffffffffffffffffffffffffffffffffffffffff16815260200190600101908083116101ca575b5050505050905090565b6114338061040883390190565b600080fd5b6000819050919050565b61024381610230565b811461024e57600080fd5b50565b6000813590506102608161023a565b92915050565b60006020828403121561027c5761027b61022b565b5b600061028a84828501610251565b91505092915050565b600073ffffffffffffffffffffffffffffffffffffffff82169050919050565b60006102be82610293565b9050919050565b6102ce816102b3565b82525050565b60006020820190506102e960008301846102c5565b92915050565b600081519050919050565b600082825260208201905092915050565b6000819050602082019050919050565b610324816102b3565b82525050565b6000610336838361031b565b60208301905092915050565b6000602082019050919050565b600061035a826102ef565b61036481856102fa565b935061036f8361030b565b8060005b838110156103a0578151610387888261032a565b975061039283610342565b925050600181019050610373565b5085935050505092915050565b600060208201905081810360008301526103c7818461034f565b905092915050565b6103d881610230565b82525050565b60006040820190506103f360008301856103cf565b61040060208301846102c5565b939250505056fe60806040523480156200001157600080fd5b50604051620014333803806200143383398181016040528101906200003791906200012c565b80600260006101000a81548173ffffffffffffffffffffffffffffffffffffffff021916908373ffffffffffffffffffffffffffffffffffffffff16021790555081600381905550505062000173565b600080fd5b6000819050919050565b620000a1816200008c565b8114620000ad57600080fd5b50565b600081519050620000c18162000096565b92915050565b600073ffffffffffffffffffffffffffffffffffffffff82169050919050565b6000620000f482620000c7565b9050919050565b6200010681620000e7565b81146200011257600080fd5b50565b6000815190506200012681620000fb565b92915050565b6000806040838503121562000146576200014562000087565b5b60006200015685828601620000b0565b9250506020620001698582860162000115565b9150509250929050565b6112b080620001836000396000f3fe6080604052600436106100865760003560e01c806382fde0931161005957806382fde093146101505780638a9cfd551461017b578063937e09b1146101a4578063d7bb99ba146101cf578063d7d1bbdb146101d957610086565b8063034410061461008b5780630a144391146100a7578063481c6a75146100e457806381d12c581461010f575b600080fd5b6100a560048036038101906100a091906108f8565b610202565b005b3480156100b357600080fd5b506100ce60048036038101906100c99190610983565b610373565b6040516100db91906109cb565b60405180910390f35b3480156100f057600080fd5b506100f9610393565b60405161010691906109f5565b60405180910390f35b34801561011b57600080fd5b50610136600480360381019061013191906108f8565b6103b9565b604051610147959493929190610ad0565b60405180910390f35b34801561015c57600080fd5b506101656104a4565b6040516101729190610b2a565b60405180910390f35b34801561018757600080fd5b506101a2600480360381019061019d9190610ca6565b6104aa565b005b3480156101b057600080fd5b506101b9610647565b6040516101c69190610b2a565b60405180910390f35b6101d761064d565b005b3480156101e557600080fd5b5061020060048036038101906101fb91906108f8565b610704565b005b600260009054906101000a900473ffffffffffffffffffffffffffffffffffffffff1673ffffffffffffffffffffffffffffffffffffffff163373ffffffffffffffffffffffffffffffffffffffff1614610292576040517f08c379a000000000000000000000000000000000000000000000000000000000815260040161028990610d61565b60405180910390fd5b60006001600083815260200190815260200160002090508060020160149054906101000a900460ff16156102c557600080fd5b60026005546102d49190610ddf565b8160030154116102e357600080fd5b8060020160009054906101000a900473ffffffffffffffffffffffffffffffffffffffff1673ffffffffffffffffffffffffffffffffffffffff166108fc82600101549081150290604051600060405180830381858888f19350505050158015610351573d6000803e3d6000fd5b5060018160020160146101000a81548160ff0219169083151502179055505050565b60046020528060005260406000206000915054906101000a900460ff1681565b600260009054906101000a900473ffffffffffffffffffffffffffffffffffffffff1681565b60016020528060005260406000206000915090508060000180546103dc90610e3f565b80601f016020809104026020016040519081016040528092919081815260200182805461040890610e3f565b80156104555780601f1061042a57610100808354040283529160200191610455565b820191906000526020600020905b81548152906001019060200180831161043857829003601f168201915b5050505050908060010154908060020160009054906101000a900473ffffffffffffffffffffffffffffffffffffffff16908060020160149054906101000a900460ff16908060030154905085565b60055481565b600260009054906101000a900473ffffffffffffffffffffffffffffffffffffffff1673ffffffffffffffffffffffffffffffffffffffff163373ffffffffffffffffffffffffffffffffffffffff161461053a576040517f08c379a000000000000000000000000000000000000000000000000000000000815260040161053190610d61565b60405180910390fd5b600460003373ffffffffffffffffffffffffffffffffffffffff1673ffffffffffffffffffffffffffffffffffffffff16815260200190815260200160002060009054906101000a900460ff1661059057600080fd5b6000600160008060008154809291906105a890610e70565b9190505581526020019081526020016000209050838160000190816105cd9190611064565b50828160010181905550818160020160006101000a81548173ffffffffffffffffffffffffffffffffffffffff021916908373ffffffffffffffffffffffffffffffffffffffff16021790555060008160020160146101000a81548160ff0219169083151502179055506000816003018190555050505050565b60035481565b600354341015610692576040517f08c379a000000000000000000000000000000000000000000000000000000000815260040161068990611182565b60405180910390fd5b6001600460003373ffffffffffffffffffffffffffffffffffffffff1673ffffffffffffffffffffffffffffffffffffffff16815260200190815260200160002060006101000a81548160ff021916908315150217905550600560008154809291906106fd90610e70565b9190505550565b6000600160008381526020019081526020016000209050600460003373ffffffffffffffffffffffffffffffffffffffff1673ffffffffffffffffffffffffffffffffffffffff16815260200190815260200160002060009054906101000a900460ff166107a7576040517f08c379a000000000000000000000000000000000000000000000000000000000815260040161079e906111ee565b60405180910390fd5b8060040160003373ffffffffffffffffffffffffffffffffffffffff1673ffffffffffffffffffffffffffffffffffffffff16815260200190815260200160002060009054906101000a900460ff1615610836576040517f08c379a000000000000000000000000000000000000000000000000000000000815260040161082d9061125a565b60405180910390fd5b60018160040160003373ffffffffffffffffffffffffffffffffffffffff1673ffffffffffffffffffffffffffffffffffffffff16815260200190815260200160002060006101000a81548160ff0219169083151502179055508060030160008154809291906108a590610e70565b91905055505050565b6000604051905090565b600080fd5b600080fd5b6000819050919050565b6108d5816108c2565b81146108e057600080fd5b50565b6000813590506108f2816108cc565b92915050565b60006020828403121561090e5761090d6108b8565b5b600061091c848285016108e3565b91505092915050565b600073ffffffffffffffffffffffffffffffffffffffff82169050919050565b600061095082610925565b9050919050565b61096081610945565b811461096b57600080fd5b50565b60008135905061097d81610957565b92915050565b600060208284031215610999576109986108b8565b5b60006109a78482850161096e565b91505092915050565b60008115159050919050565b6109c5816109b0565b82525050565b60006020820190506109e060008301846109bc565b92915050565b6109ef81610945565b82525050565b6000602082019050610a0a60008301846109e6565b92915050565b600081519050919050565b600082825260208201905092915050565b60005b83811015610a4a578082015181840152602081019050610a2f565b60008484015250505050565b6000601f19601f8301169050919050565b6000610a7282610a10565b610a7c8185610a1b565b9350610a8c818560208601610a2c565b610a9581610a56565b840191505092915050565b610aa9816108c2565b82525050565b6000610aba82610925565b9050919050565b610aca81610aaf565b82525050565b600060a0820190508181036000830152610aea8188610a67565b9050610af96020830187610aa0565b610b066040830186610ac1565b610b1360608301856109bc565b610b206080830184610aa0565b9695505050505050565b6000602082019050610b3f6000830184610aa0565b92915050565b600080fd5b600080fd5b7f4e487b7100000000000000000000000000000000000000000000000000000000600052604160045260246000fd5b610b8782610a56565b810181811067ffffffffffffffff82111715610ba657610ba5610b4f565b5b80604052505050565b6000610bb96108ae565b9050610bc58282610b7e565b919050565b600067ffffffffffffffff821115610be557610be4610b4f565b5b610bee82610a56565b9050602081019050919050565b82818337600083830152505050565b6000610c1d610c1884610bca565b610baf565b905082815260208101848484011115610c3957610c38610b4a565b5b610c44848285610bfb565b509392505050565b600082601f830112610c6157610c60610b45565b5b8135610c71848260208601610c0a565b91505092915050565b610c8381610aaf565b8114610c8e57600080fd5b50565b600081359050610ca081610c7a565b92915050565b600080600060608486031215610cbf57610cbe6108b8565b5b600084013567ffffffffffffffff811115610cdd57610cdc6108bd565b5b610ce986828701610c4c565b9350506020610cfa868287016108e3565b9250506040610d0b86828701610c91565b9150509250925092565b7f596f7520617265206e6f7420617574686f72697a656400000000000000000000600082015250565b6000610d4b601683610a1b565b9150610d5682610d15565b602082019050919050565b60006020820190508181036000830152610d7a81610d3e565b9050919050565b7f4e487b7100000000000000000000000000000000000000000000000000000000600052601260045260246000fd5b7f4e487b7100000000000000000000000000000000000000000000000000000000600052601160045260246000fd5b6000610dea826108c2565b9150610df5836108c2565b925082610e0557610e04610d81565b5b828204905092915050565b7f4e487b7100000000000000000000000000000000000000000000000000000000600052602260045260246000fd5b60006002820490506001821680610e5757607f821691505b602082108103610e6a57610e69610e10565b5b50919050565b6000610e7b826108c2565b91507fffffffffffffffffffffffffffffffffffffffffffffffffffffffffffffffff8203610ead57610eac610db0565b5b600182019050919050565b60008190508160005260206000209050919050565b60006020601f8301049050919050565b600082821b905092915050565b600060088302610f1a7fffffffffffffffffffffffffffffffffffffffffffffffffffffffffffffffff82610edd565b610f248683610edd565b95508019841693508086168417925050509392505050565b6000819050919050565b6000610f61610f5c610f57846108c2565b610f3c565b6108c2565b9050919050565b6000819050919050565b610f7b83610f46565b610f8f610f8782610f68565b848454610eea565b825550505050565b600090565b610fa4610f97565b610faf818484610f72565b505050565b5b81811015610fd357610fc8600082610f9c565b600181019050610fb5565b5050565b601f82111561101857610fe981610eb8565b610ff284610ecd565b81016020851015611001578190505b61101561100d85610ecd565b830182610fb4565b50505b505050565b600082821c905092915050565b600061103b6000198460080261101d565b1980831691505092915050565b6000611054838361102a565b9150826002028217905092915050565b61106d82610a10565b67ffffffffffffffff81111561108657611085610b4f565b5b6110908254610e3f565b61109b828285610fd7565b600060209050601f8311600181146110ce57600084156110bc578287015190505b6110c68582611048565b86555061112e565b601f1984166110dc86610eb8565b60005b82811015611104578489015182556001820191506020850194506020810190506110df565b86831015611121578489015161111d601f89168261102a565b8355505b6001600288020188555050505b505050505050565b7f536f7272792c20706c6561736520707574206d6f726500000000000000000000600082015250565b600061116c601683610a1b565b915061117782611136565b602082019050919050565b6000602082019050818103600083015261119b8161115f565b9050919050565b7f536f7272792c20796f7520617265206e6f74206120636f6e7472696275746f72600082015250565b60006111d8602083610a1b565b91506111e3826111a2565b602082019050919050565b60006020820190508181036000830152611207816111cb565b9050919050565b7f536f7272792c20796f752063616e206f6e6c7920766f7465206f6e63652e0000600082015250565b6000611244601e83610a1b565b915061124f8261120e565b602082019050919050565b6000602082019050818103600083015261127381611237565b905091905056fea2646970667358221220f0cca32369d8a6010e4d806f5743b661efd37185c69a66e9a267e17704f1d9fe64736f6c63430008130033a264697066735822122010807b318c65fc01ac3ca0c86ae3a58717a5a436759312270ce86742e7e12b1a64736f6c63430008130033","opcodes":"PUSH1 0x80 PUSH1 0x40 MSTORE CALLVALUE DUP1 ISZERO PUSH2 0x10 JUMPI PUSH1 0x0 DUP1 REVERT JUMPDEST POP PUSH2 0x1870 DUP1 PUSH2 0x20 PUSH1 0x0 CODECOPY PUSH1 0x0 RETURN INVALID PUSH1 0x80 PUSH1 0x40 MSTORE CALLVALUE DUP1 ISZERO PUSH2 0x10 JUMPI PUSH1 0x0 DUP1 REVERT JUMPDEST POP PUSH1 0x4 CALLDATASIZE LT PUSH2 0x41 JUMPI PUSH1 0x0 CALLDATALOAD PUSH1 0xE0 SHR DUP1 PUSH4 0x339D50A5 EQ PUSH2 0x46 JUMPI DUP1 PUSH4 0x37EC992A EQ PUSH2 0x76 JUMPI DUP1 PUSH4 0x4ACB9D4F EQ PUSH2 0x92 JUMPI JUMPDEST PUSH1 0x0 DUP1 REVERT JUMPDEST PUSH2 0x60 PUSH1 0x4 DUP1 CALLDATASIZE SUB DUP2 ADD SWAP1 PUSH2 0x5B SWAP2 SWAP1 PUSH2 0x266 JUMP JUMPDEST PUSH2 0xB0 JUMP JUMPDEST PUSH1 0x40 MLOAD PUSH2 0x6D SWAP2 SWAP1 PUSH2 0x2D4 JUMP JUMPDEST PUSH1 0x40 MLOAD DUP1 SWAP2 SUB SWAP1 RETURN JUMPDEST PUSH2 0x90 PUSH1 0x4 DUP1 CALLDATASIZE SUB DUP2 ADD SWAP1 PUSH2 0x8B SWAP2 SWAP1 PUSH2 0x266 JUMP JUMPDEST PUSH2 0xEF JUMP JUMPDEST STOP JUMPDEST PUSH2 0x9A PUSH2 0x190 JUMP JUMPDEST PUSH1 0x40 MLOAD PUSH2 0xA7 SWAP2 SWAP1 PUSH2 0x3AD JUMP JUMPDEST PUSH1 0x40 MLOAD DUP1 SWAP2 SUB SWAP1 RETURN JUMPDEST PUSH1 0x0 DUP2 DUP2 SLOAD DUP2 LT PUSH2 0xC0 JUMPI PUSH1 0x0 DUP1 REVERT JUMPDEST SWAP1 PUSH1 0x0 MSTORE PUSH1 0x20 PUSH1 0x0 KECCAK256 ADD PUSH1 0x0 SWAP2 POP SLOAD SWAP1 PUSH2 0x100 EXP SWAP1 DIV PUSH20 0xFFFFFFFFFFFFFFFFFFFFFFFFFFFFFFFFFFFFFFFF AND DUP2 JUMP JUMPDEST PUSH1 0x0 DUP2 CALLER PUSH1 0x40 MLOAD PUSH2 0xFF SWAP1 PUSH2 0x21E JUMP JUMPDEST PUSH2 0x10A SWAP3 SWAP2 SWAP1 PUSH2 0x3DE JUMP JUMPDEST PUSH1 0x40 MLOAD DUP1 SWAP2 SUB SWAP1 PUSH1 0x0 CREATE DUP1 ISZERO DUP1 ISZERO PUSH2 0x126 JUMPI RETURNDATASIZE PUSH1 0x0 DUP1 RETURNDATACOPY RETURNDATASIZE PUSH1 0x0 REVERT JUMPDEST POP SWAP1 POP PUSH1 0x0 DUP2 SWAP1 DUP1 PUSH1 0x1 DUP2 SLOAD ADD DUP1 DUP3 SSTORE DUP1 SWAP2 POP POP PUSH1 0x1 SWAP1 SUB SWAP1 PUSH1 0x0 MSTORE PUSH1 0x20 PUSH1 0x0 KECCAK256 ADD PUSH1 0x0 SWAP1 SWAP2 SWAP1 SWAP2 SWAP1 SWAP2 PUSH2 0x100 EXP DUP2 SLOAD DUP2 PUSH20 0xFFFFFFFFFFFFFFFFFFFFFFFFFFFFFFFFFFFFFFFF MUL NOT AND SWAP1 DUP4 PUSH20 0xFFFFFFFFFFFFFFFFFFFFFFFFFFFFFFFFFFFFFFFF AND MUL OR SWAP1 SSTORE POP POP POP JUMP JUMPDEST PUSH1 0x60 PUSH1 0x0 DUP1 SLOAD DUP1 PUSH1 0x20 MUL PUSH1 0x20 ADD PUSH1 0x40 MLOAD SWAP1 DUP2 ADD PUSH1 0x40 MSTORE DUP1 SWAP3 SWAP2 SWAP1 DUP2 DUP2 MSTORE PUSH1 0x20 ADD DUP3 DUP1 SLOAD DUP1 ISZERO PUSH2 0x214 JUMPI PUSH1 0x20 MUL DUP3 ADD SWAP2 SWAP1 PUSH1 0x0 MSTORE PUSH1 0x20 PUSH1 0x0 KECCAK256 SWAP1 JUMPDEST DUP2 PUSH1 0x0 SWAP1 SLOAD SWAP1 PUSH2 0x100 EXP SWAP1 DIV PUSH20 0xFFFFFFFFFFFFFFFFFFFFFFFFFFFFFFFFFFFFFFFF AND PUSH20 0xFFFFFFFFFFFFFFFFFFFFFFFFFFFFFFFFFFFFFFFF AND DUP2 MSTORE PUSH1 0x20 ADD SWAP1 PUSH1 0x1 ADD SWAP1 DUP1 DUP4 GT PUSH2 0x1CA JUMPI JUMPDEST POP POP POP POP POP SWAP1 POP SWAP1 JUMP JUMPDEST PUSH2 0x1433 DUP1 PUSH2 0x408 DUP4 CODECOPY ADD SWAP1 JUMP JUMPDEST PUSH1 0x0 DUP1 REVERT JUMPDEST PUSH1 0x0 DUP2 SWAP1 POP SWAP2 SWAP1 POP JUMP JUMPDEST PUSH2 0x243 DUP2 PUSH2 0x230 JUMP JUMPDEST DUP2 EQ PUSH2 0x24E JUMPI PUSH1 0x0 DUP1 REVERT JUMPDEST POP JUMP JUMPDEST PUSH1 0x0 DUP2 CALLDATALOAD SWAP1 POP PUSH2 0x260 DUP2 PUSH2 0x23A JUMP JUMPDEST SWAP3 SWAP2 POP POP JUMP JUMPDEST PUSH1 0x0 PUSH1 0x20 DUP3 DUP5 SUB SLT ISZERO PUSH2 0x27C JUMPI PUSH2 0x27B PUSH2 0x22B JUMP JUMPDEST JUMPDEST PUSH1 0x0 PUSH2 0x28A DUP5 DUP3 DUP6 ADD PUSH2 0x251 JUMP JUMPDEST SWAP2 POP POP SWAP3 SWAP2 POP POP JUMP JUMPDEST PUSH1 0x0 PUSH20 0xFFFFFFFFFFFFFFFFFFFFFFFFFFFFFFFFFFFFFFFF DUP3 AND SWAP1 POP SWAP2 SWAP1 POP JUMP JUMPDEST PUSH1 0x0 PUSH2 0x2BE DUP3 PUSH2 0x293 JUMP JUMPDEST SWAP1 POP SWAP2 SWAP1 POP JUMP JUMPDEST PUSH2 0x2CE DUP2 PUSH2 0x2B3 JUMP JUMPDEST DUP3 MSTORE POP POP JUMP JUMPDEST PUSH1 0x0 PUSH1 0x20 DUP3 ADD SWAP1 POP PUSH2 0x2E9 PUSH1 0x0 DUP4 ADD DUP5 PUSH2 0x2C5 JUMP JUMPDEST SWAP3 SWAP2 POP POP JUMP JUMPDEST PUSH1 0x0 DUP2 MLOAD SWAP1 POP SWAP2 SWAP1 POP JUMP JUMPDEST PUSH1 0x0 DUP3 DUP3 MSTORE PUSH1 0x20 DUP3 ADD SWAP1 POP SWAP3 SWAP2 POP POP JUMP JUMPDEST PUSH1 0x0 DUP2 SWAP1 POP PUSH1 0x20 DUP3 ADD SWAP1 POP SWAP2 SWAP1 POP JUMP JUMPDEST PUSH2 0x324 DUP2 PUSH2 0x2B3 JUMP JUMPDEST DUP3 MSTORE POP POP JUMP JUMPDEST PUSH1 0x0 PUSH2 0x336 DUP4 DUP4 PUSH2 0x31B JUMP JUMPDEST PUSH1 0x20 DUP4 ADD SWAP1 POP SWAP3 SWAP2 POP POP JUMP JUMPDEST PUSH1 0x0 PUSH1 0x20 DUP3 ADD SWAP1 POP SWAP2 SWAP1 POP JUMP JUMPDEST PUSH1 0x0 PUSH2 0x35A DUP3 PUSH2 0x2EF JUMP JUMPDEST PUSH2 0x364 DUP2 DUP6 PUSH2 0x2FA JUMP JUMPDEST SWAP4 POP PUSH2 0x36F DUP4 PUSH2 0x30B JUMP JUMPDEST DUP1 PUSH1 0x0 JUMPDEST DUP4 DUP2 LT ISZERO PUSH2 0x3A0 JUMPI DUP2 MLOAD PUSH2 0x387 DUP9 DUP3 PUSH2 0x32A JUMP JUMPDEST SWAP8 POP PUSH2 0x392 DUP4 PUSH2 0x342 JUMP JUMPDEST SWAP3 POP POP PUSH1 0x1 DUP2 ADD SWAP1 POP PUSH2 0x373 JUMP JUMPDEST POP DUP6 SWAP4 POP POP POP POP SWAP3 SWAP2 POP POP JUMP JUMPDEST PUSH1 0x0 PUSH1 0x20 DUP3 ADD SWAP1 POP DUP2 DUP2 SUB PUSH1 0x0 DUP4 ADD MSTORE PUSH2 0x3C7 DUP2 DUP5 PUSH2 0x34F JUMP JUMPDEST SWAP1 POP SWAP3 SWAP2 POP POP JUMP JUMPDEST PUSH2 0x3D8 DUP2 PUSH2 0x230 JUMP JUMPDEST DUP3 MSTORE POP POP JUMP JUMPDEST PUSH1 0x0 PUSH1 0x40 DUP3 ADD SWAP1 POP PUSH2 0x3F3 PUSH1 0x0 DUP4 ADD DUP6 PUSH2 0x3CF JUMP JUMPDEST PUSH2 0x400 PUSH1 0x20 DUP4 ADD DUP5 PUSH2 0x2C5 JUMP JUMPDEST SWAP4 SWAP3 POP POP POP JUMP INVALID PUSH1 0x80 PUSH1 0x40 MSTORE CALLVALUE DUP1 ISZERO PUSH3 0x11 JUMPI PUSH1 0x0 DUP1 REVERT JUMPDEST POP PUSH1 0x40 MLOAD PUSH3 0x1433 CODESIZE SUB DUP1 PUSH3 0x1433 DUP4 CODECOPY DUP2 DUP2 ADD PUSH1 0x40 MSTORE DUP2 ADD SWAP1 PUSH3 0x37 SWAP2 SWAP1 PUSH3 0x12C JUMP JUMPDEST DUP1 PUSH1 0x2 PUSH1 0x0 PUSH2 0x100 EXP DUP2 SLOAD DUP2 PUSH20 0xFFFFFFFFFFFFFFFFFFFFFFFFFFFFFFFFFFFFFFFF MUL NOT AND SWAP1 DUP4 PUSH20 0xFFFFFFFFFFFFFFFFFFFFFFFFFFFFFFFFFFFFFFFF AND MUL OR SWAP1 SSTORE POP DUP2 PUSH1 0x3 DUP2 SWAP1 SSTORE POP POP POP PUSH3 0x173 JUMP JUMPDEST PUSH1 0x0 DUP1 REVERT JUMPDEST PUSH1 0x0 DUP2 SWAP1 POP SWAP2 SWAP1 POP JUMP JUMPDEST PUSH3 0xA1 DUP2 PUSH3 0x8C JUMP JUMPDEST DUP2 EQ PUSH3 0xAD JUMPI PUSH1 0x0 DUP1 REVERT JUMPDEST POP JUMP JUMPDEST PUSH1 0x0 DUP2 MLOAD SWAP1 POP PUSH3 0xC1 DUP2 PUSH3 0x96 JUMP JUMPDEST SWAP3 SWAP2 POP POP JUMP JUMPDEST PUSH1 0x0 PUSH20 0xFFFFFFFFFFFFFFFFFFFFFFFFFFFFFFFFFFFFFFFF DUP3 AND SWAP1 POP SWAP2 SWAP1 POP JUMP JUMPDEST PUSH1 0x0 PUSH3 0xF4 DUP3 PUSH3 0xC7 JUMP JUMPDEST SWAP1 POP SWAP2 SWAP1 POP JUMP JUMPDEST PUSH3 0x106 DUP2 PUSH3 0xE7 JUMP JUMPDEST DUP2 EQ PUSH3 0x112 JUMPI PUSH1 0x0 DUP1 REVERT JUMPDEST POP JUMP JUMPDEST PUSH1 0x0 DUP2 MLOAD SWAP1 POP PUSH3 0x126 DUP2 PUSH3 0xFB JUMP JUMPDEST SWAP3 SWAP2 POP POP JUMP JUMPDEST PUSH1 0x0 DUP1 PUSH1 0x40 DUP4 DUP6 SUB SLT ISZERO PUSH3 0x146 JUMPI PUSH3 0x145 PUSH3 0x87 JUMP JUMPDEST JUMPDEST PUSH1 0x0 PUSH3 0x156 DUP6 DUP3 DUP7 ADD PUSH3 0xB0 JUMP JUMPDEST SWAP3 POP POP PUSH1 0x20 PUSH3 0x169 DUP6 DUP3 DUP7 ADD PUSH3 0x115 JUMP JUMPDEST SWAP2 POP POP SWAP3 POP SWAP3 SWAP1 POP JUMP JUMPDEST PUSH2 0x12B0 DUP1 PUSH3 0x183 PUSH1 0x0 CODECOPY PUSH1 0x0 RETURN INVALID PUSH1 0x80 PUSH1 0x40 MSTORE PUSH1 0x4 CALLDATASIZE LT PUSH2 0x86 JUMPI PUSH1 0x0 CALLDATALOAD PUSH1 0xE0 SHR DUP1 PUSH4 0x82FDE093 GT PUSH2 0x59 JUMPI DUP1 PUSH4 0x82FDE093 EQ PUSH2 0x150 JUMPI DUP1 PUSH4 0x8A9CFD55 EQ PUSH2 0x17B JUMPI DUP1 PUSH4 0x937E09B1 EQ PUSH2 0x1A4 JUMPI DUP1 PUSH4 0xD7BB99BA EQ PUSH2 0x1CF JUMPI DUP1 PUSH4 0xD7D1BBDB EQ PUSH2 0x1D9 JUMPI PUSH2 0x86 JUMP JUMPDEST DUP1 PUSH4 0x3441006 EQ PUSH2 0x8B JUMPI DUP1 PUSH4 0xA144391 EQ PUSH2 0xA7 JUMPI DUP1 PUSH4 0x481C6A75 EQ PUSH2 0xE4 JUMPI DUP1 PUSH4 0x81D12C58 EQ PUSH2 0x10F JUMPI JUMPDEST PUSH1 0x0 DUP1 REVERT JUMPDEST PUSH2 0xA5 PUSH1 0x4 DUP1 CALLDATASIZE SUB DUP2 ADD SWAP1 PUSH2 0xA0 SWAP2 SWAP1 PUSH2 0x8F8 JUMP JUMPDEST PUSH2 0x202 JUMP JUMPDEST STOP JUMPDEST CALLVALUE DUP1 ISZERO PUSH2 0xB3 JUMPI PUSH1 0x0 DUP1 REVERT JUMPDEST POP PUSH2 0xCE PUSH1 0x4 DUP1 CALLDATASIZE SUB DUP2 ADD SWAP1 PUSH2 0xC9 SWAP2 SWAP1 PUSH2 0x983 JUMP JUMPDEST PUSH2 0x373 JUMP JUMPDEST PUSH1 0x40 MLOAD PUSH2 0xDB SWAP2 SWAP1 PUSH2 0x9CB JUMP JUMPDEST PUSH1 0x40 MLOAD DUP1 SWAP2 SUB SWAP1 RETURN JUMPDEST CALLVALUE DUP1 ISZERO PUSH2 0xF0 JUMPI PUSH1 0x0 DUP1 REVERT JUMPDEST POP PUSH2 0xF9 PUSH2 0x393 JUMP JUMPDEST PUSH1 0x40 MLOAD PUSH2 0x106 SWAP2 SWAP1 PUSH2 0x9F5 JUMP JUMPDEST PUSH1 0x40 MLOAD DUP1 SWAP2 SUB SWAP1 RETURN JUMPDEST CALLVALUE DUP1 ISZERO PUSH2 0x11B JUMPI PUSH1 0x0 DUP1 REVERT JUMPDEST POP PUSH2 0x136 PUSH1 0x4 DUP1 CALLDATASIZE SUB DUP2 ADD SWAP1 PUSH2 0x131 SWAP2 SWAP1 PUSH2 0x8F8 JUMP JUMPDEST PUSH2 0x3B9 JUMP JUMPDEST PUSH1 0x40 MLOAD PUSH2 0x147 SWAP6 SWAP5 SWAP4 SWAP3 SWAP2 SWAP1 PUSH2 0xAD0 JUMP JUMPDEST PUSH1 0x40 MLOAD DUP1 SWAP2 SUB SWAP1 RETURN JUMPDEST CALLVALUE DUP1 ISZERO PUSH2 0x15C JUMPI PUSH1 0x0 DUP1 REVERT JUMPDEST POP PUSH2 0x165 PUSH2 0x4A4 JUMP JUMPDEST PUSH1 0x40 MLOAD PUSH2 0x172 SWAP2 SWAP1 PUSH2 0xB2A JUMP JUMPDEST PUSH1 0x40 MLOAD DUP1 SWAP2 SUB SWAP1 RETURN JUMPDEST CALLVALUE DUP1 ISZERO PUSH2 0x187 JUMPI PUSH1 0x0 DUP1 REVERT JUMPDEST POP PUSH2 0x1A2 PUSH1 0x4 DUP1 CALLDATASIZE SUB DUP2 ADD SWAP1 PUSH2 0x19D SWAP2 SWAP1 PUSH2 0xCA6 JUMP JUMPDEST PUSH2 0x4AA JUMP JUMPDEST STOP JUMPDEST CALLVALUE DUP1 ISZERO PUSH2 0x1B0 JUMPI PUSH1 0x0 DUP1 REVERT JUMPDEST POP PUSH2 0x1B9 PUSH2 0x647 JUMP JUMPDEST PUSH1 0x40 MLOAD PUSH2 0x1C6 SWAP2 SWAP1 PUSH2 0xB2A JUMP JUMPDEST PUSH1 0x40 MLOAD DUP1 SWAP2 SUB SWAP1 RETURN JUMPDEST PUSH2 0x1D7 PUSH2 0x64D JUMP JUMPDEST STOP JUMPDEST CALLVALUE DUP1 ISZERO PUSH2 0x1E5 JUMPI PUSH1 0x0 DUP1 REVERT JUMPDEST POP PUSH2 0x200 PUSH1 0x4 DUP1 CALLDATASIZE SUB DUP2 ADD SWAP1 PUSH2 0x1FB SWAP2 SWAP1 PUSH2 0x8F8 JUMP JUMPDEST PUSH2 0x704 JUMP JUMPDEST STOP JUMPDEST PUSH1 0x2 PUSH1 0x0 SWAP1 SLOAD SWAP1 PUSH2 0x100 EXP SWAP1 DIV PUSH20 0xFFFFFFFFFFFFFFFFFFFFFFFFFFFFFFFFFFFFFFFF AND PUSH20 0xFFFFFFFFFFFFFFFFFFFFFFFFFFFFFFFFFFFFFFFF AND CALLER PUSH20 0xFFFFFFFFFFFFFFFFFFFFFFFFFFFFFFFFFFFFFFFF AND EQ PUSH2 0x292 JUMPI PUSH1 0x40 MLOAD PUSH32 0x8C379A000000000000000000000000000000000000000000000000000000000 DUP2 MSTORE PUSH1 0x4 ADD PUSH2 0x289 SWAP1 PUSH2 0xD61 JUMP JUMPDEST PUSH1 0x40 MLOAD DUP1 SWAP2 SUB SWAP1 REVERT JUMPDEST PUSH1 0x0 PUSH1 0x1 PUSH1 0x0 DUP4 DUP2 MSTORE PUSH1 0x20 ADD SWAP1 DUP2 MSTORE PUSH1 0x20 ADD PUSH1 0x0 KECCAK256 SWAP1 POP DUP1 PUSH1 0x2 ADD PUSH1 0x14 SWAP1 SLOAD SWAP1 PUSH2 0x100 EXP SWAP1 DIV PUSH1 0xFF AND ISZERO PUSH2 0x2C5 JUMPI PUSH1 0x0 DUP1 REVERT JUMPDEST PUSH1 0x2 PUSH1 0x5 SLOAD PUSH2 0x2D4 SWAP2 SWAP1 PUSH2 0xDDF JUMP JUMPDEST DUP2 PUSH1 0x3 ADD SLOAD GT PUSH2 0x2E3 JUMPI PUSH1 0x0 DUP1 REVERT JUMPDEST DUP1 PUSH1 0x2 ADD PUSH1 0x0 SWAP1 SLOAD SWAP1 PUSH2 0x100 EXP SWAP1 DIV PUSH20 0xFFFFFFFFFFFFFFFFFFFFFFFFFFFFFFFFFFFFFFFF AND PUSH20 0xFFFFFFFFFFFFFFFFFFFFFFFFFFFFFFFFFFFFFFFF AND PUSH2 0x8FC DUP3 PUSH1 0x1 ADD SLOAD SWAP1 DUP2 ISZERO MUL SWAP1 PUSH1 0x40 MLOAD PUSH1 0x0 PUSH1 0x40 MLOAD DUP1 DUP4 SUB DUP2 DUP6 DUP9 DUP9 CALL SWAP4 POP POP POP POP ISZERO DUP1 ISZERO PUSH2 0x351 JUMPI RETURNDATASIZE PUSH1 0x0 DUP1 RETURNDATACOPY RETURNDATASIZE PUSH1 0x0 REVERT JUMPDEST POP PUSH1 0x1 DUP2 PUSH1 0x2 ADD PUSH1 0x14 PUSH2 0x100 EXP DUP2 SLOAD DUP2 PUSH1 0xFF MUL NOT AND SWAP1 DUP4 ISZERO ISZERO MUL OR SWAP1 SSTORE POP POP POP JUMP JUMPDEST PUSH1 0x4 PUSH1 0x20 MSTORE DUP1 PUSH1 0x0 MSTORE PUSH1 0x40 PUSH1 0x0 KECCAK256 PUSH1 0x0 SWAP2 POP SLOAD SWAP1 PUSH2 0x100 EXP SWAP1 DIV PUSH1 0xFF AND DUP2 JUMP JUMPDEST PUSH1 0x2 PUSH1 0x0 SWAP1 SLOAD SWAP1 PUSH2 0x100 EXP SWAP1 DIV PUSH20 0xFFFFFFFFFFFFFFFFFFFFFFFFFFFFFFFFFFFFFFFF AND DUP2 JUMP JUMPDEST PUSH1 0x1 PUSH1 0x20 MSTORE DUP1 PUSH1 0x0 MSTORE PUSH1 0x40 PUSH1 0x0 KECCAK256 PUSH1 0x0 SWAP2 POP SWAP1 POP DUP1 PUSH1 0x0 ADD DUP1 SLOAD PUSH2 0x3DC SWAP1 PUSH2 0xE3F JUMP JUMPDEST DUP1 PUSH1 0x1F ADD PUSH1 0x20 DUP1 SWAP2 DIV MUL PUSH1 0x20 ADD PUSH1 0x40 MLOAD SWAP1 DUP2 ADD PUSH1 0x40 MSTORE DUP1 SWAP3 SWAP2 SWAP1 DUP2 DUP2 MSTORE PUSH1 0x20 ADD DUP3 DUP1 SLOAD PUSH2 0x408 SWAP1 PUSH2 0xE3F JUMP JUMPDEST DUP1 ISZERO PUSH2 0x455 JUMPI DUP1 PUSH1 0x1F LT PUSH2 0x42A JUMPI PUSH2 0x100 DUP1 DUP4 SLOAD DIV MUL DUP4 MSTORE SWAP2 PUSH1 0x20 ADD SWAP2 PUSH2 0x455 JUMP JUMPDEST DUP3 ADD SWAP2 SWAP1 PUSH1 0x0 MSTORE PUSH1 0x20 PUSH1 0x0 KECCAK256 SWAP1 JUMPDEST DUP2 SLOAD DUP2 MSTORE SWAP1 PUSH1 0x1 ADD SWAP1 PUSH1 0x20 ADD DUP1 DUP4 GT PUSH2 0x438 JUMPI DUP3 SWAP1 SUB PUSH1 0x1F AND DUP3 ADD SWAP2 JUMPDEST POP POP POP POP POP SWAP1 DUP1 PUSH1 0x1 ADD SLOAD SWAP1 DUP1 PUSH1 0x2 ADD PUSH1 0x0 SWAP1 SLOAD SWAP1 PUSH2 0x100 EXP SWAP1 DIV PUSH20 0xFFFFFFFFFFFFFFFFFFFFFFFFFFFFFFFFFFFFFFFF AND SWAP1 DUP1 PUSH1 0x2 ADD PUSH1 0x14 SWAP1 SLOAD SWAP1 PUSH2 0x100 EXP SWAP1 DIV PUSH1 0xFF AND SWAP1 DUP1 PUSH1 0x3 ADD SLOAD SWAP1 POP DUP6 JUMP JUMPDEST PUSH1 0x5 SLOAD DUP2 JUMP JUMPDEST PUSH1 0x2 PUSH1 0x0 SWAP1 SLOAD SWAP1 PUSH2 0x100 EXP SWAP1 DIV PUSH20 0xFFFFFFFFFFFFFFFFFFFFFFFFFFFFFFFFFFFFFFFF AND PUSH20 0xFFFFFFFFFFFFFFFFFFFFFFFFFFFFFFFFFFFFFFFF AND CALLER PUSH20 0xFFFFFFFFFFFFFFFFFFFFFFFFFFFFFFFFFFFFFFFF AND EQ PUSH2 0x53A JUMPI PUSH1 0x40 MLOAD PUSH32 0x8C379A000000000000000000000000000000000000000000000000000000000 DUP2 MSTORE PUSH1 0x4 ADD PUSH2 0x531 SWAP1 PUSH2 0xD61 JUMP JUMPDEST PUSH1 0x40 MLOAD DUP1 SWAP2 SUB SWAP1 REVERT JUMPDEST PUSH1 0x4 PUSH1 0x0 CALLER PUSH20 0xFFFFFFFFFFFFFFFFFFFFFFFFFFFFFFFFFFFFFFFF AND PUSH20 0xFFFFFFFFFFFFFFFFFFFFFFFFFFFFFFFFFFFFFFFF AND DUP2 MSTORE PUSH1 0x20 ADD SWAP1 DUP2 MSTORE PUSH1 0x20 ADD PUSH1 0x0 KECCAK256 PUSH1 0x0 SWAP1 SLOAD SWAP1 PUSH2 0x100 EXP SWAP1 DIV PUSH1 0xFF AND PUSH2 0x590 JUMPI PUSH1 0x0 DUP1 REVERT JUMPDEST PUSH1 0x0 PUSH1 0x1 PUSH1 0x0 DUP1 PUSH1 0x0 DUP2 SLOAD DUP1 SWAP3 SWAP2 SWAP1 PUSH2 0x5A8 SWAP1 PUSH2 0xE70 JUMP JUMPDEST SWAP2 SWAP1 POP SSTORE DUP2 MSTORE PUSH1 0x20 ADD SWAP1 DUP2 MSTORE PUSH1 0x20 ADD PUSH1 0x0 KECCAK256 SWAP1 POP DUP4 DUP2 PUSH1 0x0 ADD SWAP1 DUP2 PUSH2 0x5CD SWAP2 SWAP1 PUSH2 0x1064 JUMP JUMPDEST POP DUP3 DUP2 PUSH1 0x1 ADD DUP2 SWAP1 SSTORE POP DUP2 DUP2 PUSH1 0x2 ADD PUSH1 0x0 PUSH2 0x100 EXP DUP2 SLOAD DUP2 PUSH20 0xFFFFFFFFFFFFFFFFFFFFFFFFFFFFFFFFFFFFFFFF MUL NOT AND SWAP1 DUP4 PUSH20 0xFFFFFFFFFFFFFFFFFFFFFFFFFFFFFFFFFFFFFFFF AND MUL OR SWAP1 SSTORE POP PUSH1 0x0 DUP2 PUSH1 0x2 ADD PUSH1 0x14 PUSH2 0x100 EXP DUP2 SLOAD DUP2 PUSH1 0xFF MUL NOT AND SWAP1 DUP4 ISZERO ISZERO MUL OR SWAP1 SSTORE POP PUSH1 0x0 DUP2 PUSH1 0x3 ADD DUP2 SWAP1 SSTORE POP POP POP POP POP JUMP JUMPDEST PUSH1 0x3 SLOAD DUP2 JUMP JUMPDEST PUSH1 0x3 SLOAD CALLVALUE LT ISZERO PUSH2 0x692 JUMPI PUSH1 0x40 MLOAD PUSH32 0x8C379A000000000000000000000000000000000000000000000000000000000 DUP2 MSTORE PUSH1 0x4 ADD PUSH2 0x689 SWAP1 PUSH2 0x1182 JUMP JUMPDEST PUSH1 0x40 MLOAD DUP1 SWAP2 SUB SWAP1 REVERT JUMPDEST PUSH1 0x1 PUSH1 0x4 PUSH1 0x0 CALLER PUSH20 0xFFFFFFFFFFFFFFFFFFFFFFFFFFFFFFFFFFFFFFFF AND PUSH20 0xFFFFFFFFFFFFFFFFFFFFFFFFFFFFFFFFFFFFFFFF AND DUP2 MSTORE PUSH1 0x20 ADD SWAP1 DUP2 MSTORE PUSH1 0x20 ADD PUSH1 0x0 KECCAK256 PUSH1 0x0 PUSH2 0x100 EXP DUP2 SLOAD DUP2 PUSH1 0xFF MUL NOT AND SWAP1 DUP4 ISZERO ISZERO MUL OR SWAP1 SSTORE POP PUSH1 0x5 PUSH1 0x0 DUP2 SLOAD DUP1 SWAP3 SWAP2 SWAP1 PUSH2 0x6FD SWAP1 PUSH2 0xE70 JUMP JUMPDEST SWAP2 SWAP1 POP SSTORE POP JUMP JUMPDEST PUSH1 0x0 PUSH1 0x1 PUSH1 0x0 DUP4 DUP2 MSTORE PUSH1 0x20 ADD SWAP1 DUP2 MSTORE PUSH1 0x20 ADD PUSH1 0x0 KECCAK256 SWAP1 POP PUSH1 0x4 PUSH1 0x0 CALLER PUSH20 0xFFFFFFFFFFFFFFFFFFFFFFFFFFFFFFFFFFFFFFFF AND PUSH20 0xFFFFFFFFFFFFFFFFFFFFFFFFFFFFFFFFFFFFFFFF AND DUP2 MSTORE PUSH1 0x20 ADD SWAP1 DUP2 MSTORE PUSH1 0x20 ADD PUSH1 0x0 KECCAK256 PUSH1 0x0 SWAP1 SLOAD SWAP1 PUSH2 0x100 EXP SWAP1 DIV PUSH1 0xFF AND PUSH2 0x7A7 JUMPI PUSH1 0x40 MLOAD PUSH32 0x8C379A000000000000000000000000000000000000000000000000000000000 DUP2 MSTORE PUSH1 0x4 ADD PUSH2 0x79E SWAP1 PUSH2 0x11EE JUMP JUMPDEST PUSH1 0x40 MLOAD DUP1 SWAP2 SUB SWAP1 REVERT JUMPDEST DUP1 PUSH1 0x4 ADD PUSH1 0x0 CALLER PUSH20 0xFFFFFFFFFFFFFFFFFFFFFFFFFFFFFFFFFFFFFFFF AND PUSH20 0xFFFFFFFFFFFFFFFFFFFFFFFFFFFFFFFFFFFFFFFF AND DUP2 MSTORE PUSH1 0x20 ADD SWAP1 DUP2 MSTORE PUSH1 0x20 ADD PUSH1 0x0 KECCAK256 PUSH1 0x0 SWAP1 SLOAD SWAP1 PUSH2 0x100 EXP SWAP1 DIV PUSH1 0xFF AND ISZERO PUSH2 0x836 JUMPI PUSH1 0x40 MLOAD PUSH32 0x8C379A000000000000000000000000000000000000000000000000000000000 DUP2 MSTORE PUSH1 0x4 ADD PUSH2 0x82D SWAP1 PUSH2 0x125A JUMP JUMPDEST PUSH1 0x40 MLOAD DUP1 SWAP2 SUB SWAP1 REVERT JUMPDEST PUSH1 0x1 DUP2 PUSH1 0x4 ADD PUSH1 0x0 CALLER PUSH20 0xFFFFFFFFFFFFFFFFFFFFFFFFFFFFFFFFFFFFFFFF AND PUSH20 0xFFFFFFFFFFFFFFFFFFFFFFFFFFFFFFFFFFFFFFFF AND DUP2 MSTORE PUSH1 0x20 ADD SWAP1 DUP2 MSTORE PUSH1 0x20 ADD PUSH1 0x0 KECCAK256 PUSH1 0x0 PUSH2 0x100 EXP DUP2 SLOAD DUP2 PUSH1 0xFF MUL NOT AND SWAP1 DUP4 ISZERO ISZERO MUL OR SWAP1 SSTORE POP DUP1 PUSH1 0x3 ADD PUSH1 0x0 DUP2 SLOAD DUP1 SWAP3 SWAP2 SWAP1 PUSH2 0x8A5 SWAP1 PUSH2 0xE70 JUMP JUMPDEST SWAP2 SWAP1 POP SSTORE POP POP POP JUMP JUMPDEST PUSH1 0x0 PUSH1 0x40 MLOAD SWAP1 POP SWAP1 JUMP JUMPDEST PUSH1 0x0 DUP1 REVERT JUMPDEST PUSH1 0x0 DUP1 REVERT JUMPDEST PUSH1 0x0 DUP2 SWAP1 POP SWAP2 SWAP1 POP JUMP JUMPDEST PUSH2 0x8D5 DUP2 PUSH2 0x8C2 JUMP JUMPDEST DUP2 EQ PUSH2 0x8E0 JUMPI PUSH1 0x0 DUP1 REVERT JUMPDEST POP JUMP JUMPDEST PUSH1 0x0 DUP2 CALLDATALOAD SWAP1 POP PUSH2 0x8F2 DUP2 PUSH2 0x8CC JUMP JUMPDEST SWAP3 SWAP2 POP POP JUMP JUMPDEST PUSH1 0x0 PUSH1 0x20 DUP3 DUP5 SUB SLT ISZERO PUSH2 0x90E JUMPI PUSH2 0x90D PUSH2 0x8B8 JUMP JUMPDEST JUMPDEST PUSH1 0x0 PUSH2 0x91C DUP5 DUP3 DUP6 ADD PUSH2 0x8E3 JUMP JUMPDEST SWAP2 POP POP SWAP3 SWAP2 POP POP JUMP JUMPDEST PUSH1 0x0 PUSH20 0xFFFFFFFFFFFFFFFFFFFFFFFFFFFFFFFFFFFFFFFF DUP3 AND SWAP1 POP SWAP2 SWAP1 POP JUMP JUMPDEST PUSH1 0x0 PUSH2 0x950 DUP3 PUSH2 0x925 JUMP JUMPDEST SWAP1 POP SWAP2 SWAP1 POP JUMP JUMPDEST PUSH2 0x960 DUP2 PUSH2 0x945 JUMP JUMPDEST DUP2 EQ PUSH2 0x96B JUMPI PUSH1 0x0 DUP1 REVERT JUMPDEST POP JUMP JUMPDEST PUSH1 0x0 DUP2 CALLDATALOAD SWAP1 POP PUSH2 0x97D DUP2 PUSH2 0x957 JUMP JUMPDEST SWAP3 SWAP2 POP POP JUMP JUMPDEST PUSH1 0x0 PUSH1 0x20 DUP3 DUP5 SUB SLT ISZERO PUSH2 0x999 JUMPI PUSH2 0x998 PUSH2 0x8B8 JUMP JUMPDEST JUMPDEST PUSH1 0x0 PUSH2 0x9A7 DUP5 DUP3 DUP6 ADD PUSH2 0x96E JUMP JUMPDEST SWAP2 POP POP SWAP3 SWAP2 POP POP JUMP JUMPDEST PUSH1 0x0 DUP2 ISZERO ISZERO SWAP1 POP SWAP2 SWAP1 POP JUMP JUMPDEST PUSH2 0x9C5 DUP2 PUSH2 0x9B0 JUMP JUMPDEST DUP3 MSTORE POP POP JUMP JUMPDEST PUSH1 0x0 PUSH1 0x20 DUP3 ADD SWAP1 POP PUSH2 0x9E0 PUSH1 0x0 DUP4 ADD DUP5 PUSH2 0x9BC JUMP JUMPDEST SWAP3 SWAP2 POP POP JUMP JUMPDEST PUSH2 0x9EF DUP2 PUSH2 0x945 JUMP JUMPDEST DUP3 MSTORE POP POP JUMP JUMPDEST PUSH1 0x0 PUSH1 0x20 DUP3 ADD SWAP1 POP PUSH2 0xA0A PUSH1 0x0 DUP4 ADD DUP5 PUSH2 0x9E6 JUMP JUMPDEST SWAP3 SWAP2 POP POP JUMP JUMPDEST PUSH1 0x0 DUP2 MLOAD SWAP1 POP SWAP2 SWAP1 POP JUMP JUMPDEST PUSH1 0x0 DUP3 DUP3 MSTORE PUSH1 0x20 DUP3 ADD SWAP1 POP SWAP3 SWAP2 POP POP JUMP JUMPDEST PUSH1 0x0 JUMPDEST DUP4 DUP2 LT ISZERO PUSH2 0xA4A JUMPI DUP1 DUP3 ADD MLOAD DUP2 DUP5 ADD MSTORE PUSH1 0x20 DUP2 ADD SWAP1 POP PUSH2 0xA2F JUMP JUMPDEST PUSH1 0x0 DUP5 DUP5 ADD MSTORE POP POP POP POP JUMP JUMPDEST PUSH1 0x0 PUSH1 0x1F NOT PUSH1 0x1F DUP4 ADD AND SWAP1 POP SWAP2 SWAP1 POP JUMP JUMPDEST PUSH1 0x0 PUSH2 0xA72 DUP3 PUSH2 0xA10 JUMP JUMPDEST PUSH2 0xA7C DUP2 DUP6 PUSH2 0xA1B JUMP JUMPDEST SWAP4 POP PUSH2 0xA8C DUP2 DUP6 PUSH1 0x20 DUP7 ADD PUSH2 0xA2C JUMP JUMPDEST PUSH2 0xA95 DUP2 PUSH2 0xA56 JUMP JUMPDEST DUP5 ADD SWAP2 POP POP SWAP3 SWAP2 POP POP JUMP JUMPDEST PUSH2 0xAA9 DUP2 PUSH2 0x8C2 JUMP JUMPDEST DUP3 MSTORE POP POP JUMP JUMPDEST PUSH1 0x0 PUSH2 0xABA DUP3 PUSH2 0x925 JUMP JUMPDEST SWAP1 POP SWAP2 SWAP1 POP JUMP JUMPDEST PUSH2 0xACA DUP2 PUSH2 0xAAF JUMP JUMPDEST DUP3 MSTORE POP POP JUMP JUMPDEST PUSH1 0x0 PUSH1 0xA0 DUP3 ADD SWAP1 POP DUP2 DUP2 SUB PUSH1 0x0 DUP4 ADD MSTORE PUSH2 0xAEA DUP2 DUP9 PUSH2 0xA67 JUMP JUMPDEST SWAP1 POP PUSH2 0xAF9 PUSH1 0x20 DUP4 ADD DUP8 PUSH2 0xAA0 JUMP JUMPDEST PUSH2 0xB06 PUSH1 0x40 DUP4 ADD DUP7 PUSH2 0xAC1 JUMP JUMPDEST PUSH2 0xB13 PUSH1 0x60 DUP4 ADD DUP6 PUSH2 0x9BC JUMP JUMPDEST PUSH2 0xB20 PUSH1 0x80 DUP4 ADD DUP5 PUSH2 0xAA0 JUMP JUMPDEST SWAP7 SWAP6 POP POP POP POP POP POP JUMP JUMPDEST PUSH1 0x0 PUSH1 0x20 DUP3 ADD SWAP1 POP PUSH2 0xB3F PUSH1 0x0 DUP4 ADD DUP5 PUSH2 0xAA0 JUMP JUMPDEST SWAP3 SWAP2 POP POP JUMP JUMPDEST PUSH1 0x0 DUP1 REVERT JUMPDEST PUSH1 0x0 DUP1 REVERT JUMPDEST PUSH32 0x4E487B7100000000000000000000000000000000000000000000000000000000 PUSH1 0x0 MSTORE PUSH1 0x41 PUSH1 0x4 MSTORE PUSH1 0x24 PUSH1 0x0 REVERT JUMPDEST PUSH2 0xB87 DUP3 PUSH2 0xA56 JUMP JUMPDEST DUP2 ADD DUP2 DUP2 LT PUSH8 0xFFFFFFFFFFFFFFFF DUP3 GT OR ISZERO PUSH2 0xBA6 JUMPI PUSH2 0xBA5 PUSH2 0xB4F JUMP JUMPDEST JUMPDEST DUP1 PUSH1 0x40 MSTORE POP POP POP JUMP JUMPDEST PUSH1 0x0 PUSH2 0xBB9 PUSH2 0x8AE JUMP JUMPDEST SWAP1 POP PUSH2 0xBC5 DUP3 DUP3 PUSH2 0xB7E JUMP JUMPDEST SWAP2 SWAP1 POP JUMP JUMPDEST PUSH1 0x0 PUSH8 0xFFFFFFFFFFFFFFFF DUP3 GT ISZERO PUSH2 0xBE5 JUMPI PUSH2 0xBE4 PUSH2 0xB4F JUMP JUMPDEST JUMPDEST PUSH2 0xBEE DUP3 PUSH2 0xA56 JUMP JUMPDEST SWAP1 POP PUSH1 0x20 DUP2 ADD SWAP1 POP SWAP2 SWAP1 POP JUMP JUMPDEST DUP3 DUP2 DUP4 CALLDATACOPY PUSH1 0x0 DUP4 DUP4 ADD MSTORE POP POP POP JUMP JUMPDEST PUSH1 0x0 PUSH2 0xC1D PUSH2 0xC18 DUP5 PUSH2 0xBCA JUMP JUMPDEST PUSH2 0xBAF JUMP JUMPDEST SWAP1 POP DUP3 DUP2 MSTORE PUSH1 0x20 DUP2 ADD DUP5 DUP5 DUP5 ADD GT ISZERO PUSH2 0xC39 JUMPI PUSH2 0xC38 PUSH2 0xB4A JUMP JUMPDEST JUMPDEST PUSH2 0xC44 DUP5 DUP3 DUP6 PUSH2 0xBFB JUMP JUMPDEST POP SWAP4 SWAP3 POP POP POP JUMP JUMPDEST PUSH1 0x0 DUP3 PUSH1 0x1F DUP4 ADD SLT PUSH2 0xC61 JUMPI PUSH2 0xC60 PUSH2 0xB45 JUMP JUMPDEST JUMPDEST DUP2 CALLDATALOAD PUSH2 0xC71 DUP5 DUP3 PUSH1 0x20 DUP7 ADD PUSH2 0xC0A JUMP JUMPDEST SWAP2 POP POP SWAP3 SWAP2 POP POP JUMP JUMPDEST PUSH2 0xC83 DUP2 PUSH2 0xAAF JUMP JUMPDEST DUP2 EQ PUSH2 0xC8E JUMPI PUSH1 0x0 DUP1 REVERT JUMPDEST POP JUMP JUMPDEST PUSH1 0x0 DUP2 CALLDATALOAD SWAP1 POP PUSH2 0xCA0 DUP2 PUSH2 0xC7A JUMP JUMPDEST SWAP3 SWAP2 POP POP JUMP JUMPDEST PUSH1 0x0 DUP1 PUSH1 0x0 PUSH1 0x60 DUP5 DUP7 SUB SLT ISZERO PUSH2 0xCBF JUMPI PUSH2 0xCBE PUSH2 0x8B8 JUMP JUMPDEST JUMPDEST PUSH1 0x0 DUP5 ADD CALLDATALOAD PUSH8 0xFFFFFFFFFFFFFFFF DUP2 GT ISZERO PUSH2 0xCDD JUMPI PUSH2 0xCDC PUSH2 0x8BD JUMP JUMPDEST JUMPDEST PUSH2 0xCE9 DUP7 DUP3 DUP8 ADD PUSH2 0xC4C JUMP JUMPDEST SWAP4 POP POP PUSH1 0x20 PUSH2 0xCFA DUP7 DUP3 DUP8 ADD PUSH2 0x8E3 JUMP JUMPDEST SWAP3 POP POP PUSH1 0x40 PUSH2 0xD0B DUP7 DUP3 DUP8 ADD PUSH2 0xC91 JUMP JUMPDEST SWAP2 POP POP SWAP3 POP SWAP3 POP SWAP3 JUMP JUMPDEST PUSH32 0x596F7520617265206E6F7420617574686F72697A656400000000000000000000 PUSH1 0x0 DUP3 ADD MSTORE POP JUMP JUMPDEST PUSH1 0x0 PUSH2 0xD4B PUSH1 0x16 DUP4 PUSH2 0xA1B JUMP JUMPDEST SWAP2 POP PUSH2 0xD56 DUP3 PUSH2 0xD15 JUMP JUMPDEST PUSH1 0x20 DUP3 ADD SWAP1 POP SWAP2 SWAP1 POP JUMP JUMPDEST PUSH1 0x0 PUSH1 0x20 DUP3 ADD SWAP1 POP DUP2 DUP2 SUB PUSH1 0x0 DUP4 ADD MSTORE PUSH2 0xD7A DUP2 PUSH2 0xD3E JUMP JUMPDEST SWAP1 POP SWAP2 SWAP1 POP JUMP JUMPDEST PUSH32 0x4E487B7100000000000000000000000000000000000000000000000000000000 PUSH1 0x0 MSTORE PUSH1 0x12 PUSH1 0x4 MSTORE PUSH1 0x24 PUSH1 0x0 REVERT JUMPDEST PUSH32 0x4E487B7100000000000000000000000000000000000000000000000000000000 PUSH1 0x0 MSTORE PUSH1 0x11 PUSH1 0x4 MSTORE PUSH1 0x24 PUSH1 0x0 REVERT JUMPDEST PUSH1 0x0 PUSH2 0xDEA DUP3 PUSH2 0x8C2 JUMP JUMPDEST SWAP2 POP PUSH2 0xDF5 DUP4 PUSH2 0x8C2 JUMP JUMPDEST SWAP3 POP DUP3 PUSH2 0xE05 JUMPI PUSH2 0xE04 PUSH2 0xD81 JUMP JUMPDEST JUMPDEST DUP3 DUP3 DIV SWAP1 POP SWAP3 SWAP2 POP POP JUMP JUMPDEST PUSH32 0x4E487B7100000000000000000000000000000000000000000000000000000000 PUSH1 0x0 MSTORE PUSH1 0x22 PUSH1 0x4 MSTORE PUSH1 0x24 PUSH1 0x0 REVERT JUMPDEST PUSH1 0x0 PUSH1 0x2 DUP3 DIV SWAP1 POP PUSH1 0x1 DUP3 AND DUP1 PUSH2 0xE57 JUMPI PUSH1 0x7F DUP3 AND SWAP2 POP JUMPDEST PUSH1 0x20 DUP3 LT DUP2 SUB PUSH2 0xE6A JUMPI PUSH2 0xE69 PUSH2 0xE10 JUMP JUMPDEST JUMPDEST POP SWAP2 SWAP1 POP JUMP JUMPDEST PUSH1 0x0 PUSH2 0xE7B DUP3 PUSH2 0x8C2 JUMP JUMPDEST SWAP2 POP PUSH32 0xFFFFFFFFFFFFFFFFFFFFFFFFFFFFFFFFFFFFFFFFFFFFFFFFFFFFFFFFFFFFFFFF DUP3 SUB PUSH2 0xEAD JUMPI PUSH2 0xEAC PUSH2 0xDB0 JUMP JUMPDEST JUMPDEST PUSH1 0x1 DUP3 ADD SWAP1 POP SWAP2 SWAP1 POP JUMP JUMPDEST PUSH1 0x0 DUP2 SWAP1 POP DUP2 PUSH1 0x0 MSTORE PUSH1 0x20 PUSH1 0x0 KECCAK256 SWAP1 POP SWAP2 SWAP1 POP JUMP JUMPDEST PUSH1 0x0 PUSH1 0x20 PUSH1 0x1F DUP4 ADD DIV SWAP1 POP SWAP2 SWAP1 POP JUMP JUMPDEST PUSH1 0x0 DUP3 DUP3 SHL SWAP1 POP SWAP3 SWAP2 POP POP JUMP JUMPDEST PUSH1 0x0 PUSH1 0x8 DUP4 MUL PUSH2 0xF1A PUSH32 0xFFFFFFFFFFFFFFFFFFFFFFFFFFFFFFFFFFFFFFFFFFFFFFFFFFFFFFFFFFFFFFFF DUP3 PUSH2 0xEDD JUMP JUMPDEST PUSH2 0xF24 DUP7 DUP4 PUSH2 0xEDD JUMP JUMPDEST SWAP6 POP DUP1 NOT DUP5 AND SWAP4 POP DUP1 DUP7 AND DUP5 OR SWAP3 POP POP POP SWAP4 SWAP3 POP POP POP JUMP JUMPDEST PUSH1 0x0 DUP2 SWAP1 POP SWAP2 SWAP1 POP JUMP JUMPDEST PUSH1 0x0 PUSH2 0xF61 PUSH2 0xF5C PUSH2 0xF57 DUP5 PUSH2 0x8C2 JUMP JUMPDEST PUSH2 0xF3C JUMP JUMPDEST PUSH2 0x8C2 JUMP JUMPDEST SWAP1 POP SWAP2 SWAP1 POP JUMP JUMPDEST PUSH1 0x0 DUP2 SWAP1 POP SWAP2 SWAP1 POP JUMP JUMPDEST PUSH2 0xF7B DUP4 PUSH2 0xF46 JUMP JUMPDEST PUSH2 0xF8F PUSH2 0xF87 DUP3 PUSH2 0xF68 JUMP JUMPDEST DUP5 DUP5 SLOAD PUSH2 0xEEA JUMP JUMPDEST DUP3 SSTORE POP POP POP POP JUMP JUMPDEST PUSH1 0x0 SWAP1 JUMP JUMPDEST PUSH2 0xFA4 PUSH2 0xF97 JUMP JUMPDEST PUSH2 0xFAF DUP2 DUP5 DUP5 PUSH2 0xF72 JUMP JUMPDEST POP POP POP JUMP JUMPDEST JUMPDEST DUP2 DUP2 LT ISZERO PUSH2 0xFD3 JUMPI PUSH2 0xFC8 PUSH1 0x0 DUP3 PUSH2 0xF9C JUMP JUMPDEST PUSH1 0x1 DUP2 ADD SWAP1 POP PUSH2 0xFB5 JUMP JUMPDEST POP POP JUMP JUMPDEST PUSH1 0x1F DUP3 GT ISZERO PUSH2 0x1018 JUMPI PUSH2 0xFE9 DUP2 PUSH2 0xEB8 JUMP JUMPDEST PUSH2 0xFF2 DUP5 PUSH2 0xECD JUMP JUMPDEST DUP2 ADD PUSH1 0x20 DUP6 LT ISZERO PUSH2 0x1001 JUMPI DUP2 SWAP1 POP JUMPDEST PUSH2 0x1015 PUSH2 0x100D DUP6 PUSH2 0xECD JUMP JUMPDEST DUP4 ADD DUP3 PUSH2 0xFB4 JUMP JUMPDEST POP POP JUMPDEST POP POP POP JUMP JUMPDEST PUSH1 0x0 DUP3 DUP3 SHR SWAP1 POP SWAP3 SWAP2 POP POP JUMP JUMPDEST PUSH1 0x0 PUSH2 0x103B PUSH1 0x0 NOT DUP5 PUSH1 0x8 MUL PUSH2 0x101D JUMP JUMPDEST NOT DUP1 DUP4 AND SWAP2 POP POP SWAP3 SWAP2 POP POP JUMP JUMPDEST PUSH1 0x0 PUSH2 0x1054 DUP4 DUP4 PUSH2 0x102A JUMP JUMPDEST SWAP2 POP DUP3 PUSH1 0x2 MUL DUP3 OR SWAP1 POP SWAP3 SWAP2 POP POP JUMP JUMPDEST PUSH2 0x106D DUP3 PUSH2 0xA10 JUMP JUMPDEST PUSH8 0xFFFFFFFFFFFFFFFF DUP2 GT ISZERO PUSH2 0x1086 JUMPI PUSH2 0x1085 PUSH2 0xB4F JUMP JUMPDEST JUMPDEST PUSH2 0x1090 DUP3 SLOAD PUSH2 0xE3F JUMP JUMPDEST PUSH2 0x109B DUP3 DUP3 DUP6 PUSH2 0xFD7 JUMP JUMPDEST PUSH1 0x0 PUSH1 0x20 SWAP1 POP PUSH1 0x1F DUP4 GT PUSH1 0x1 DUP2 EQ PUSH2 0x10CE JUMPI PUSH1 0x0 DUP5 ISZERO PUSH2 0x10BC JUMPI DUP3 DUP8 ADD MLOAD SWAP1 POP JUMPDEST PUSH2 0x10C6 DUP6 DUP3 PUSH2 0x1048 JUMP JUMPDEST DUP7 SSTORE POP PUSH2 0x112E JUMP JUMPDEST PUSH1 0x1F NOT DUP5 AND PUSH2 0x10DC DUP7 PUSH2 0xEB8 JUMP JUMPDEST PUSH1 0x0 JUMPDEST DUP3 DUP2 LT ISZERO PUSH2 0x1104 JUMPI DUP5 DUP10 ADD MLOAD DUP3 SSTORE PUSH1 0x1 DUP3 ADD SWAP2 POP PUSH1 0x20 DUP6 ADD SWAP5 POP PUSH1 0x20 DUP2 ADD SWAP1 POP PUSH2 0x10DF JUMP JUMPDEST DUP7 DUP4 LT ISZERO PUSH2 0x1121 JUMPI DUP5 DUP10 ADD MLOAD PUSH2 0x111D PUSH1 0x1F DUP10 AND DUP3 PUSH2 0x102A JUMP JUMPDEST DUP4 SSTORE POP JUMPDEST PUSH1 0x1 PUSH1 0x2 DUP9 MUL ADD DUP9 SSTORE POP POP POP JUMPDEST POP POP POP POP POP POP JUMP JUMPDEST PUSH32 0x536F7272792C20706C6561736520707574206D6F726500000000000000000000 PUSH1 0x0 DUP3 ADD MSTORE POP JUMP JUMPDEST PUSH1 0x0 PUSH2 0x116C PUSH1 0x16 DUP4 PUSH2 0xA1B JUMP JUMPDEST SWAP2 POP PUSH2 0x1177 DUP3 PUSH2 0x1136 JUMP JUMPDEST PUSH1 0x20 DUP3 ADD SWAP1 POP SWAP2 SWAP1 POP JUMP JUMPDEST PUSH1 0x0 PUSH1 0x20 DUP3 ADD SWAP1 POP DUP2 DUP2 SUB PUSH1 0x0 DUP4 ADD MSTORE PUSH2 0x119B DUP2 PUSH2 0x115F JUMP JUMPDEST SWAP1 POP SWAP2 SWAP1 POP JUMP JUMPDEST PUSH32 0x536F7272792C20796F7520617265206E6F74206120636F6E7472696275746F72 PUSH1 0x0 DUP3 ADD MSTORE POP JUMP JUMPDEST PUSH1 0x0 PUSH2 0x11D8 PUSH1 0x20 DUP4 PUSH2 0xA1B JUMP JUMPDEST SWAP2 POP PUSH2 0x11E3 DUP3 PUSH2 0x11A2 JUMP JUMPDEST PUSH1 0x20 DUP3 ADD SWAP1 POP SWAP2 SWAP1 POP JUMP JUMPDEST PUSH1 0x0 PUSH1 0x20 DUP3 ADD SWAP1 POP DUP2 DUP2 SUB PUSH1 0x0 DUP4 ADD MSTORE PUSH2 0x1207 DUP2 PUSH2 0x11CB JUMP JUMPDEST SWAP1 POP SWAP2 SWAP1 POP JUMP JUMPDEST PUSH32 0x536F7272792C20796F752063616E206F6E6C7920766F7465206F6E63652E0000 PUSH1 0x0 DUP3 ADD MSTORE POP JUMP JUMPDEST PUSH1 0x0 PUSH2 0x1244 PUSH1 0x1E DUP4 PUSH2 0xA1B JUMP JUMPDEST SWAP2 POP PUSH2 0x124F DUP3 PUSH2 0x120E JUMP JUMPDEST PUSH1 0x20 DUP3 ADD SWAP1 POP SWAP2 SWAP1 POP JUMP JUMPDEST PUSH1 0x0 PUSH1 0x20 DUP3 ADD SWAP1 POP DUP2 DUP2 SUB PUSH1 0x0 DUP4 ADD MSTORE PUSH2 0x1273 DUP2 PUSH2 0x1237 JUMP JUMPDEST SWAP1 POP SWAP2 SWAP1 POP JUMP INVALID LOG2 PUSH5 0x6970667358 0x22 SLT KECCAK256 CREATE 0xCC LOG3 0x23 PUSH10 0xD8A6010E4D806F5743B6 PUSH2 0xEFD3 PUSH18 0x85C69A66E9A267E17704F1D9FE64736F6C63 NUMBER STOP ADDMOD SGT STOP CALLER LOG2 PUSH5 0x6970667358 0x22 SLT KECCAK256 LT DUP1 PUSH28 0x318C65FC01AC3CA0C86AE3A58717A5A436759312270CE86742E7E12B BYTE PUSH5 0x736F6C6343 STOP ADDMOD SGT STOP CALLER "},"gasEstimates":{"creation":{"codeDepositCost":"1251200","executionCost":"1302","totalCost":"1252502"},"external":{"deployCampaign(uint256)":"infinite","deployedCampaigns(uint256)":"4934","getDeployedCampaigns()":"infinite"}},"methodIdentifiers":{"deployCampaign(uint256)":"37ec992a","deployedCampaigns(uint256)":"339d50a5","getDeployedCampaigns()":"4acb9d4f"}},"storageLayout":{"storage":[{"astId":4,"contract":"DecenAngels.sol:ContractFactory","label":"deployedCampaigns","offset":0,"slot":"0","type":"t_array(t_address)dyn_storage"}],"types":{"t_address":{"encoding":"inplace","label":"address","numberOfBytes":"20"},"t_array(t_address)dyn_storage":{"base":"t_address","encoding":"dynamic_array","label":"address[]","numberOfBytes":"32"}}},"userdoc":{"kind":"user","methods":{},"version":1}}