{"abi":[{"inputs":[{"internalType":"uint256","name":"_minimumContribution","type":"uint256"}],"name":"deployCampaign","outputs":[],"stateMutability":"nonpayable","type":"function"},{"inputs":[{"internalType":"uint256","name":"","type":"uint256"}],"name":"deployedCampaigns","outputs":[{"internalType":"address","name":"","type":"address"}],"stateMutability":"view","type":"function"},{"inputs":[],"name":"getDeployedCampaigns","outputs":[{"internalType":"address[]","name":"","type":"address[]"}],"stateMutability":"view","type":"function"}],"devdoc":{"kind":"dev","methods":{},"version":1},"evm":{"assembly":"    /* \"DecenAngels.sol\":72:484  contract ContractFactory {... */\n  mstore(0x40, 0x80)\n  callvalue\n  dup1\n  iszero\n  tag_1\n  jumpi\n  0x00\n  dup1\n  revert\ntag_1:\n  pop\n  dataSize(sub_0)\n  dup1\n  dataOffset(sub_0)\n  0x00\n  codecopy\n  0x00\n  return\nstop\n\nsub_0: assembly {\n        /* \"DecenAngels.sol\":72:484  contract ContractFactory {... */\n      mstore(0x40, 0x80)\n      callvalue\n      dup1\n      iszero\n      tag_1\n      jumpi\n      0x00\n      dup1\n      revert\n    tag_1:\n      pop\n      jumpi(tag_2, lt(calldatasize, 0x04))\n      shr(0xe0, calldataload(0x00))\n      dup1\n      0x339d50a5\n      eq\n      tag_3\n      jumpi\n      dup1\n      0x37ec992a\n      eq\n      tag_4\n      jumpi\n      dup1\n      0x4acb9d4f\n      eq\n      tag_5\n      jumpi\n    tag_2:\n      0x00\n      dup1\n      revert\n        /* \"DecenAngels.sol\":104:138  address[] public deployedCampaigns */\n    tag_3:\n      tag_6\n      0x04\n      dup1\n      calldatasize\n      sub\n      dup2\n      add\n      swap1\n      tag_7\n      swap2\n      swap1\n      tag_8\n      jump\t// in\n    tag_7:\n      tag_9\n      jump\t// in\n    tag_6:\n      mload(0x40)\n      tag_10\n      swap2\n      swap1\n      tag_11\n      jump\t// in\n    tag_10:\n      mload(0x40)\n      dup1\n      swap2\n      sub\n      swap1\n      return\n        /* \"DecenAngels.sol\":147:359  function deployCampaign(uint _minimumContribution) public {... */\n    tag_4:\n      tag_12\n      0x04\n      dup1\n      calldatasize\n      sub\n      dup2\n      add\n      swap1\n      tag_13\n      swap2\n      swap1\n      tag_8\n      jump\t// in\n    tag_13:\n      tag_14\n      jump\t// in\n    tag_12:\n      stop\n        /* \"DecenAngels.sol\":367:481  function getDeployedCampaigns() public view returns (address[] memory) {... */\n    tag_5:\n      tag_15\n      tag_16\n      jump\t// in\n    tag_15:\n      mload(0x40)\n      tag_17\n      swap2\n      swap1\n      tag_18\n      jump\t// in\n    tag_17:\n      mload(0x40)\n      dup1\n      swap2\n      sub\n      swap1\n      return\n        /* \"DecenAngels.sol\":104:138  address[] public deployedCampaigns */\n    tag_9:\n      0x00\n      dup2\n      dup2\n      sload\n      dup2\n      lt\n      tag_19\n      jumpi\n      0x00\n      dup1\n      revert\n    tag_19:\n      swap1\n      0x00\n      mstore\n      keccak256(0x00, 0x20)\n      add\n      0x00\n      swap2\n      pop\n      sload\n      swap1\n      0x0100\n      exp\n      swap1\n      div\n      0xffffffffffffffffffffffffffffffffffffffff\n      and\n      dup2\n      jump\t// out\n        /* \"DecenAngels.sol\":147:359  function deployCampaign(uint _minimumContribution) public {... */\n    tag_14:\n        /* \"DecenAngels.sol\":216:235  address newCampaign */\n      0x00\n        /* \"DecenAngels.sol\":262:282  _minimumContribution */\n      dup2\n        /* \"DecenAngels.sol\":284:294  msg.sender */\n      caller\n        /* \"DecenAngels.sol\":246:295  new DecenAngels(_minimumContribution, msg.sender) */\n      mload(0x40)\n      tag_22\n      swap1\n      tag_23\n      jump\t// in\n    tag_22:\n      tag_24\n      swap3\n      swap2\n      swap1\n      tag_25\n      jump\t// in\n    tag_24:\n      mload(0x40)\n      dup1\n      swap2\n      sub\n      swap1\n      0x00\n      create\n      dup1\n      iszero\n      dup1\n      iszero\n      tag_26\n      jumpi\n      returndatasize\n      0x00\n      dup1\n      returndatacopy\n      revert(0x00, returndatasize)\n    tag_26:\n      pop\n        /* \"DecenAngels.sol\":216:296  address newCampaign = address(new DecenAngels(_minimumContribution, msg.sender)) */\n      swap1\n      pop\n        /* \"DecenAngels.sol\":307:324  deployedCampaigns */\n      0x00\n        /* \"DecenAngels.sol\":338:349  newCampaign */\n      dup2\n        /* \"DecenAngels.sol\":307:351  deployedCampaigns.push(payable(newCampaign)) */\n      swap1\n      dup1\n      0x01\n      dup2\n      sload\n      add\n      dup1\n      dup3\n      sstore\n      dup1\n      swap2\n      pop\n      pop\n      0x01\n      swap1\n      sub\n      swap1\n      0x00\n      mstore\n      keccak256(0x00, 0x20)\n      add\n      0x00\n      swap1\n      swap2\n      swap1\n      swap2\n      swap1\n      swap2\n      0x0100\n      exp\n      dup2\n      sload\n      dup2\n      0xffffffffffffffffffffffffffffffffffffffff\n      mul\n      not\n      and\n      swap1\n      dup4\n      0xffffffffffffffffffffffffffffffffffffffff\n      and\n      mul\n      or\n      swap1\n      sstore\n      pop\n        /* \"DecenAngels.sol\":205:359  {... */\n      pop\n        /* \"DecenAngels.sol\":147:359  function deployCampaign(uint _minimumContribution) public {... */\n      pop\n      jump\t// out\n        /* \"DecenAngels.sol\":367:481  function getDeployedCampaigns() public view returns (address[] memory) {... */\n    tag_16:\n        /* \"DecenAngels.sol\":420:436  address[] memory */\n      0x60\n        /* \"DecenAngels.sol\":456:473  deployedCampaigns */\n      0x00\n        /* \"DecenAngels.sol\":449:473  return deployedCampaigns */\n      dup1\n      sload\n      dup1\n      0x20\n      mul\n      0x20\n      add\n      mload(0x40)\n      swap1\n      dup2\n      add\n      0x40\n      mstore\n      dup1\n      swap3\n      swap2\n      swap1\n      dup2\n      dup2\n      mstore\n      0x20\n      add\n      dup3\n      dup1\n      sload\n      dup1\n      iszero\n      tag_29\n      jumpi\n      0x20\n      mul\n      dup3\n      add\n      swap2\n      swap1\n      0x00\n      mstore\n      keccak256(0x00, 0x20)\n      swap1\n    tag_30:\n      dup2\n      0x00\n      swap1\n      sload\n      swap1\n      0x0100\n      exp\n      swap1\n      div\n      0xffffffffffffffffffffffffffffffffffffffff\n      and\n      0xffffffffffffffffffffffffffffffffffffffff\n      and\n      dup2\n      mstore\n      0x20\n      add\n      swap1\n      0x01\n      add\n      swap1\n      dup1\n      dup4\n      gt\n      tag_30\n      jumpi\n    tag_29:\n      pop\n      pop\n      pop\n      pop\n      pop\n      swap1\n      pop\n        /* \"DecenAngels.sol\":367:481  function getDeployedCampaigns() public view returns (address[] memory) {... */\n      swap1\n      jump\t// out\n    tag_23:\n      dataSize(sub_0)\n      dup1\n      dataOffset(sub_0)\n      dup4\n      codecopy\n      add\n      swap1\n      jump\t// out\n        /* \"#utility.yul\":88:205   */\n    tag_32:\n        /* \"#utility.yul\":197:198   */\n      0x00\n        /* \"#utility.yul\":194:195   */\n      dup1\n        /* \"#utility.yul\":187:199   */\n      revert\n        /* \"#utility.yul\":334:411   */\n    tag_34:\n        /* \"#utility.yul\":371:378   */\n      0x00\n        /* \"#utility.yul\":400:405   */\n      dup2\n        /* \"#utility.yul\":389:405   */\n      swap1\n      pop\n        /* \"#utility.yul\":334:411   */\n      swap2\n      swap1\n      pop\n      jump\t// out\n        /* \"#utility.yul\":417:539   */\n    tag_35:\n        /* \"#utility.yul\":490:514   */\n      tag_54\n        /* \"#utility.yul\":508:513   */\n      dup2\n        /* \"#utility.yul\":490:514   */\n      tag_34\n      jump\t// in\n    tag_54:\n        /* \"#utility.yul\":483:488   */\n      dup2\n        /* \"#utility.yul\":480:515   */\n      eq\n        /* \"#utility.yul\":470:533   */\n      tag_55\n      jumpi\n        /* \"#utility.yul\":529:530   */\n      0x00\n        /* \"#utility.yul\":526:527   */\n      dup1\n        /* \"#utility.yul\":519:531   */\n      revert\n        /* \"#utility.yul\":470:533   */\n    tag_55:\n        /* \"#utility.yul\":417:539   */\n      pop\n      jump\t// out\n        /* \"#utility.yul\":545:684   */\n    tag_36:\n        /* \"#utility.yul\":591:596   */\n      0x00\n        /* \"#utility.yul\":629:635   */\n      dup2\n        /* \"#utility.yul\":616:636   */\n      calldataload\n        /* \"#utility.yul\":607:636   */\n      swap1\n      pop\n        /* \"#utility.yul\":645:678   */\n      tag_57\n        /* \"#utility.yul\":672:677   */\n      dup2\n        /* \"#utility.yul\":645:678   */\n      tag_35\n      jump\t// in\n    tag_57:\n        /* \"#utility.yul\":545:684   */\n      swap3\n      swap2\n      pop\n      pop\n      jump\t// out\n        /* \"#utility.yul\":690:1019   */\n    tag_8:\n        /* \"#utility.yul\":749:755   */\n      0x00\n        /* \"#utility.yul\":798:800   */\n      0x20\n        /* \"#utility.yul\":786:795   */\n      dup3\n        /* \"#utility.yul\":777:784   */\n      dup5\n        /* \"#utility.yul\":773:796   */\n      sub\n        /* \"#utility.yul\":769:801   */\n      slt\n        /* \"#utility.yul\":766:885   */\n      iszero\n      tag_59\n      jumpi\n        /* \"#utility.yul\":804:883   */\n      tag_60\n      tag_32\n      jump\t// in\n    tag_60:\n        /* \"#utility.yul\":766:885   */\n    tag_59:\n        /* \"#utility.yul\":924:925   */\n      0x00\n        /* \"#utility.yul\":949:1002   */\n      tag_61\n        /* \"#utility.yul\":994:1001   */\n      dup5\n        /* \"#utility.yul\":985:991   */\n      dup3\n        /* \"#utility.yul\":974:983   */\n      dup6\n        /* \"#utility.yul\":970:992   */\n      add\n        /* \"#utility.yul\":949:1002   */\n      tag_36\n      jump\t// in\n    tag_61:\n        /* \"#utility.yul\":939:1002   */\n      swap2\n      pop\n        /* \"#utility.yul\":895:1012   */\n      pop\n        /* \"#utility.yul\":690:1019   */\n      swap3\n      swap2\n      pop\n      pop\n      jump\t// out\n        /* \"#utility.yul\":1025:1151   */\n    tag_37:\n        /* \"#utility.yul\":1062:1069   */\n      0x00\n        /* \"#utility.yul\":1102:1144   */\n      0xffffffffffffffffffffffffffffffffffffffff\n        /* \"#utility.yul\":1095:1100   */\n      dup3\n        /* \"#utility.yul\":1091:1145   */\n      and\n        /* \"#utility.yul\":1080:1145   */\n      swap1\n      pop\n        /* \"#utility.yul\":1025:1151   */\n      swap2\n      swap1\n      pop\n      jump\t// out\n        /* \"#utility.yul\":1157:1253   */\n    tag_38:\n        /* \"#utility.yul\":1194:1201   */\n      0x00\n        /* \"#utility.yul\":1223:1247   */\n      tag_64\n        /* \"#utility.yul\":1241:1246   */\n      dup3\n        /* \"#utility.yul\":1223:1247   */\n      tag_37\n      jump\t// in\n    tag_64:\n        /* \"#utility.yul\":1212:1247   */\n      swap1\n      pop\n        /* \"#utility.yul\":1157:1253   */\n      swap2\n      swap1\n      pop\n      jump\t// out\n        /* \"#utility.yul\":1259:1377   */\n    tag_39:\n        /* \"#utility.yul\":1346:1370   */\n      tag_66\n        /* \"#utility.yul\":1364:1369   */\n      dup2\n        /* \"#utility.yul\":1346:1370   */\n      tag_38\n      jump\t// in\n    tag_66:\n        /* \"#utility.yul\":1341:1344   */\n      dup3\n        /* \"#utility.yul\":1334:1371   */\n      mstore\n        /* \"#utility.yul\":1259:1377   */\n      pop\n      pop\n      jump\t// out\n        /* \"#utility.yul\":1383:1605   */\n    tag_11:\n        /* \"#utility.yul\":1476:1480   */\n      0x00\n        /* \"#utility.yul\":1514:1516   */\n      0x20\n        /* \"#utility.yul\":1503:1512   */\n      dup3\n        /* \"#utility.yul\":1499:1517   */\n      add\n        /* \"#utility.yul\":1491:1517   */\n      swap1\n      pop\n        /* \"#utility.yul\":1527:1598   */\n      tag_68\n        /* \"#utility.yul\":1595:1596   */\n      0x00\n        /* \"#utility.yul\":1584:1593   */\n      dup4\n        /* \"#utility.yul\":1580:1597   */\n      add\n        /* \"#utility.yul\":1571:1577   */\n      dup5\n        /* \"#utility.yul\":1527:1598   */\n      tag_39\n      jump\t// in\n    tag_68:\n        /* \"#utility.yul\":1383:1605   */\n      swap3\n      swap2\n      pop\n      pop\n      jump\t// out\n        /* \"#utility.yul\":1611:1725   */\n    tag_40:\n        /* \"#utility.yul\":1678:1684   */\n      0x00\n        /* \"#utility.yul\":1712:1717   */\n      dup2\n        /* \"#utility.yul\":1706:1718   */\n      mload\n        /* \"#utility.yul\":1696:1718   */\n      swap1\n      pop\n        /* \"#utility.yul\":1611:1725   */\n      swap2\n      swap1\n      pop\n      jump\t// out\n        /* \"#utility.yul\":1731:1915   */\n    tag_41:\n        /* \"#utility.yul\":1830:1841   */\n      0x00\n        /* \"#utility.yul\":1864:1870   */\n      dup3\n        /* \"#utility.yul\":1859:1862   */\n      dup3\n        /* \"#utility.yul\":1852:1871   */\n      mstore\n        /* \"#utility.yul\":1904:1908   */\n      0x20\n        /* \"#utility.yul\":1899:1902   */\n      dup3\n        /* \"#utility.yul\":1895:1909   */\n      add\n        /* \"#utility.yul\":1880:1909   */\n      swap1\n      pop\n        /* \"#utility.yul\":1731:1915   */\n      swap3\n      swap2\n      pop\n      pop\n      jump\t// out\n        /* \"#utility.yul\":1921:2053   */\n    tag_42:\n        /* \"#utility.yul\":1988:1992   */\n      0x00\n        /* \"#utility.yul\":2011:2014   */\n      dup2\n        /* \"#utility.yul\":2003:2014   */\n      swap1\n      pop\n        /* \"#utility.yul\":2041:2045   */\n      0x20\n        /* \"#utility.yul\":2036:2039   */\n      dup3\n        /* \"#utility.yul\":2032:2046   */\n      add\n        /* \"#utility.yul\":2024:2046   */\n      swap1\n      pop\n        /* \"#utility.yul\":1921:2053   */\n      swap2\n      swap1\n      pop\n      jump\t// out\n        /* \"#utility.yul\":2059:2167   */\n    tag_43:\n        /* \"#utility.yul\":2136:2160   */\n      tag_73\n        /* \"#utility.yul\":2154:2159   */\n      dup2\n        /* \"#utility.yul\":2136:2160   */\n      tag_38\n      jump\t// in\n    tag_73:\n        /* \"#utility.yul\":2131:2134   */\n      dup3\n        /* \"#utility.yul\":2124:2161   */\n      mstore\n        /* \"#utility.yul\":2059:2167   */\n      pop\n      pop\n      jump\t// out\n        /* \"#utility.yul\":2173:2352   */\n    tag_44:\n        /* \"#utility.yul\":2242:2252   */\n      0x00\n        /* \"#utility.yul\":2263:2309   */\n      tag_75\n        /* \"#utility.yul\":2305:2308   */\n      dup4\n        /* \"#utility.yul\":2297:2303   */\n      dup4\n        /* \"#utility.yul\":2263:2309   */\n      tag_43\n      jump\t// in\n    tag_75:\n        /* \"#utility.yul\":2341:2345   */\n      0x20\n        /* \"#utility.yul\":2336:2339   */\n      dup4\n        /* \"#utility.yul\":2332:2346   */\n      add\n        /* \"#utility.yul\":2318:2346   */\n      swap1\n      pop\n        /* \"#utility.yul\":2173:2352   */\n      swap3\n      swap2\n      pop\n      pop\n      jump\t// out\n        /* \"#utility.yul\":2358:2471   */\n    tag_45:\n        /* \"#utility.yul\":2428:2432   */\n      0x00\n        /* \"#utility.yul\":2460:2464   */\n      0x20\n        /* \"#utility.yul\":2455:2458   */\n      dup3\n        /* \"#utility.yul\":2451:2465   */\n      add\n        /* \"#utility.yul\":2443:2465   */\n      swap1\n      pop\n        /* \"#utility.yul\":2358:2471   */\n      swap2\n      swap1\n      pop\n      jump\t// out\n        /* \"#utility.yul\":2507:3239   */\n    tag_46:\n        /* \"#utility.yul\":2626:2629   */\n      0x00\n        /* \"#utility.yul\":2655:2709   */\n      tag_78\n        /* \"#utility.yul\":2703:2708   */\n      dup3\n        /* \"#utility.yul\":2655:2709   */\n      tag_40\n      jump\t// in\n    tag_78:\n        /* \"#utility.yul\":2725:2811   */\n      tag_79\n        /* \"#utility.yul\":2804:2810   */\n      dup2\n        /* \"#utility.yul\":2799:2802   */\n      dup6\n        /* \"#utility.yul\":2725:2811   */\n      tag_41\n      jump\t// in\n    tag_79:\n        /* \"#utility.yul\":2718:2811   */\n      swap4\n      pop\n        /* \"#utility.yul\":2835:2891   */\n      tag_80\n        /* \"#utility.yul\":2885:2890   */\n      dup4\n        /* \"#utility.yul\":2835:2891   */\n      tag_42\n      jump\t// in\n    tag_80:\n        /* \"#utility.yul\":2914:2921   */\n      dup1\n        /* \"#utility.yul\":2945:2946   */\n      0x00\n        /* \"#utility.yul\":2930:3214   */\n    tag_81:\n        /* \"#utility.yul\":2955:2961   */\n      dup4\n        /* \"#utility.yul\":2952:2953   */\n      dup2\n        /* \"#utility.yul\":2949:2962   */\n      lt\n        /* \"#utility.yul\":2930:3214   */\n      iszero\n      tag_83\n      jumpi\n        /* \"#utility.yul\":3031:3037   */\n      dup2\n        /* \"#utility.yul\":3025:3038   */\n      mload\n        /* \"#utility.yul\":3058:3121   */\n      tag_84\n        /* \"#utility.yul\":3117:3120   */\n      dup9\n        /* \"#utility.yul\":3102:3115   */\n      dup3\n        /* \"#utility.yul\":3058:3121   */\n      tag_44\n      jump\t// in\n    tag_84:\n        /* \"#utility.yul\":3051:3121   */\n      swap8\n      pop\n        /* \"#utility.yul\":3144:3204   */\n      tag_85\n        /* \"#utility.yul\":3197:3203   */\n      dup4\n        /* \"#utility.yul\":3144:3204   */\n      tag_45\n      jump\t// in\n    tag_85:\n        /* \"#utility.yul\":3134:3204   */\n      swap3\n      pop\n        /* \"#utility.yul\":2990:3214   */\n      pop\n        /* \"#utility.yul\":2977:2978   */\n      0x01\n        /* \"#utility.yul\":2974:2975   */\n      dup2\n        /* \"#utility.yul\":2970:2979   */\n      add\n        /* \"#utility.yul\":2965:2979   */\n      swap1\n      pop\n        /* \"#utility.yul\":2930:3214   */\n      jump(tag_81)\n    tag_83:\n        /* \"#utility.yul\":2934:2948   */\n      pop\n        /* \"#utility.yul\":3230:3233   */\n      dup6\n        /* \"#utility.yul\":3223:3233   */\n      swap4\n      pop\n        /* \"#utility.yul\":2631:3239   */\n      pop\n      pop\n      pop\n        /* \"#utility.yul\":2507:3239   */\n      swap3\n      swap2\n      pop\n      pop\n      jump\t// out\n        /* \"#utility.yul\":3245:3618   */\n    tag_18:\n        /* \"#utility.yul\":3388:3392   */\n      0x00\n        /* \"#utility.yul\":3426:3428   */\n      0x20\n        /* \"#utility.yul\":3415:3424   */\n      dup3\n        /* \"#utility.yul\":3411:3429   */\n      add\n        /* \"#utility.yul\":3403:3429   */\n      swap1\n      pop\n        /* \"#utility.yul\":3475:3484   */\n      dup2\n        /* \"#utility.yul\":3469:3473   */\n      dup2\n        /* \"#utility.yul\":3465:3485   */\n      sub\n        /* \"#utility.yul\":3461:3462   */\n      0x00\n        /* \"#utility.yul\":3450:3459   */\n      dup4\n        /* \"#utility.yul\":3446:3463   */\n      add\n        /* \"#utility.yul\":3439:3486   */\n      mstore\n        /* \"#utility.yul\":3503:3611   */\n      tag_87\n        /* \"#utility.yul\":3606:3610   */\n      dup2\n        /* \"#utility.yul\":3597:3603   */\n      dup5\n        /* \"#utility.yul\":3503:3611   */\n      tag_46\n      jump\t// in\n    tag_87:\n        /* \"#utility.yul\":3495:3611   */\n      swap1\n      pop\n        /* \"#utility.yul\":3245:3618   */\n      swap3\n      swap2\n      pop\n      pop\n      jump\t// out\n        /* \"#utility.yul\":3624:3742   */\n    tag_47:\n        /* \"#utility.yul\":3711:3735   */\n      tag_89\n        /* \"#utility.yul\":3729:3734   */\n      dup2\n        /* \"#utility.yul\":3711:3735   */\n      tag_34\n      jump\t// in\n    tag_89:\n        /* \"#utility.yul\":3706:3709   */\n      dup3\n        /* \"#utility.yul\":3699:3736   */\n      mstore\n        /* \"#utility.yul\":3624:3742   */\n      pop\n      pop\n      jump\t// out\n        /* \"#utility.yul\":3748:4080   */\n    tag_25:\n        /* \"#utility.yul\":3869:3873   */\n      0x00\n        /* \"#utility.yul\":3907:3909   */\n      0x40\n        /* \"#utility.yul\":3896:3905   */\n      dup3\n        /* \"#utility.yul\":3892:3910   */\n      add\n        /* \"#utility.yul\":3884:3910   */\n      swap1\n      pop\n        /* \"#utility.yul\":3920:3991   */\n      tag_91\n        /* \"#utility.yul\":3988:3989   */\n      0x00\n        /* \"#utility.yul\":3977:3986   */\n      dup4\n        /* \"#utility.yul\":3973:3990   */\n      add\n        /* \"#utility.yul\":3964:3970   */\n      dup6\n        /* \"#utility.yul\":3920:3991   */\n      tag_47\n      jump\t// in\n    tag_91:\n        /* \"#utility.yul\":4001:4073   */\n      tag_92\n        /* \"#utility.yul\":4069:4071   */\n      0x20\n        /* \"#utility.yul\":4058:4067   */\n      dup4\n        /* \"#utility.yul\":4054:4072   */\n      add\n        /* \"#utility.yul\":4045:4051   */\n      dup5\n        /* \"#utility.yul\":4001:4073   */\n      tag_39\n      jump\t// in\n    tag_92:\n        /* \"#utility.yul\":3748:4080   */\n      swap4\n      swap3\n      pop\n      pop\n      pop\n      jump\t// out\n    stop\n\n    sub_0: assembly {\n            /* \"DecenAngels.sol\":488:2337  contract DecenAngels {... */\n          mstore(0x40, 0x80)\n            /* \"DecenAngels.sol\":1029:1176  constructor(uint _minimumContribution, address _creator) {... */\n          callvalue\n          dup1\n          iszero\n          tag_1\n          jumpi\n          0x00\n          dup1\n          revert\n        tag_1:\n          pop\n          mload(0x40)\n          sub(codesize, bytecodeSize)\n          dup1\n          bytecodeSize\n          dup4\n          codecopy\n          dup2\n          dup2\n          add\n          0x40\n          mstore\n          dup2\n          add\n          swap1\n          tag_2\n          swap2\n          swap1\n          tag_3\n          jump\t// in\n        tag_2:\n            /* \"DecenAngels.sol\":1107:1115  _creator */\n          dup1\n            /* \"DecenAngels.sol\":1097:1104  manager */\n          0x01\n          0x00\n            /* \"DecenAngels.sol\":1097:1115  manager = _creator */\n          0x0100\n          exp\n          dup2\n          sload\n          dup2\n          0xffffffffffffffffffffffffffffffffffffffff\n          mul\n          not\n          and\n          swap1\n          dup4\n          0xffffffffffffffffffffffffffffffffffffffff\n          and\n          mul\n          or\n          swap1\n          sstore\n          pop\n            /* \"DecenAngels.sol\":1148:1168  _minimumContribution */\n          dup2\n            /* \"DecenAngels.sol\":1126:1145  minimumContribution */\n          0x02\n            /* \"DecenAngels.sol\":1126:1168  minimumContribution = _minimumContribution */\n          dup2\n          swap1\n          sstore\n          pop\n            /* \"DecenAngels.sol\":1029:1176  constructor(uint _minimumContribution, address _creator) {... */\n          pop\n          pop\n            /* \"DecenAngels.sol\":488:2337  contract DecenAngels {... */\n          jump(tag_6)\n            /* \"#utility.yul\":88:205   */\n        tag_8:\n            /* \"#utility.yul\":197:198   */\n          0x00\n            /* \"#utility.yul\":194:195   */\n          dup1\n            /* \"#utility.yul\":187:199   */\n          revert\n            /* \"#utility.yul\":334:411   */\n        tag_10:\n            /* \"#utility.yul\":371:378   */\n          0x00\n            /* \"#utility.yul\":400:405   */\n          dup2\n            /* \"#utility.yul\":389:405   */\n          swap1\n          pop\n            /* \"#utility.yul\":334:411   */\n          swap2\n          swap1\n          pop\n          jump\t// out\n            /* \"#utility.yul\":417:539   */\n        tag_11:\n            /* \"#utility.yul\":490:514   */\n          tag_23\n            /* \"#utility.yul\":508:513   */\n          dup2\n            /* \"#utility.yul\":490:514   */\n          tag_10\n          jump\t// in\n        tag_23:\n            /* \"#utility.yul\":483:488   */\n          dup2\n            /* \"#utility.yul\":480:515   */\n          eq\n            /* \"#utility.yul\":470:533   */\n          tag_24\n          jumpi\n            /* \"#utility.yul\":529:530   */\n          0x00\n            /* \"#utility.yul\":526:527   */\n          dup1\n            /* \"#utility.yul\":519:531   */\n          revert\n            /* \"#utility.yul\":470:533   */\n        tag_24:\n            /* \"#utility.yul\":417:539   */\n          pop\n          jump\t// out\n            /* \"#utility.yul\":545:688   */\n        tag_12:\n            /* \"#utility.yul\":602:607   */\n          0x00\n            /* \"#utility.yul\":633:639   */\n          dup2\n            /* \"#utility.yul\":627:640   */\n          mload\n            /* \"#utility.yul\":618:640   */\n          swap1\n          pop\n            /* \"#utility.yul\":649:682   */\n          tag_26\n            /* \"#utility.yul\":676:681   */\n          dup2\n            /* \"#utility.yul\":649:682   */\n          tag_11\n          jump\t// in\n        tag_26:\n            /* \"#utility.yul\":545:688   */\n          swap3\n          swap2\n          pop\n          pop\n          jump\t// out\n            /* \"#utility.yul\":694:820   */\n        tag_13:\n            /* \"#utility.yul\":731:738   */\n          0x00\n            /* \"#utility.yul\":771:813   */\n          0xffffffffffffffffffffffffffffffffffffffff\n            /* \"#utility.yul\":764:769   */\n          dup3\n            /* \"#utility.yul\":760:814   */\n          and\n            /* \"#utility.yul\":749:814   */\n          swap1\n          pop\n            /* \"#utility.yul\":694:820   */\n          swap2\n          swap1\n          pop\n          jump\t// out\n            /* \"#utility.yul\":826:922   */\n        tag_14:\n            /* \"#utility.yul\":863:870   */\n          0x00\n            /* \"#utility.yul\":892:916   */\n          tag_29\n            /* \"#utility.yul\":910:915   */\n          dup3\n            /* \"#utility.yul\":892:916   */\n          tag_13\n          jump\t// in\n        tag_29:\n            /* \"#utility.yul\":881:916   */\n          swap1\n          pop\n            /* \"#utility.yul\":826:922   */\n          swap2\n          swap1\n          pop\n          jump\t// out\n            /* \"#utility.yul\":928:1050   */\n        tag_15:\n            /* \"#utility.yul\":1001:1025   */\n          tag_31\n            /* \"#utility.yul\":1019:1024   */\n          dup2\n            /* \"#utility.yul\":1001:1025   */\n          tag_14\n          jump\t// in\n        tag_31:\n            /* \"#utility.yul\":994:999   */\n          dup2\n            /* \"#utility.yul\":991:1026   */\n          eq\n            /* \"#utility.yul\":981:1044   */\n          tag_32\n          jumpi\n            /* \"#utility.yul\":1040:1041   */\n          0x00\n            /* \"#utility.yul\":1037:1038   */\n          dup1\n            /* \"#utility.yul\":1030:1042   */\n          revert\n            /* \"#utility.yul\":981:1044   */\n        tag_32:\n            /* \"#utility.yul\":928:1050   */\n          pop\n          jump\t// out\n            /* \"#utility.yul\":1056:1199   */\n        tag_16:\n            /* \"#utility.yul\":1113:1118   */\n          0x00\n            /* \"#utility.yul\":1144:1150   */\n          dup2\n            /* \"#utility.yul\":1138:1151   */\n          mload\n            /* \"#utility.yul\":1129:1151   */\n          swap1\n          pop\n            /* \"#utility.yul\":1160:1193   */\n          tag_34\n            /* \"#utility.yul\":1187:1192   */\n          dup2\n            /* \"#utility.yul\":1160:1193   */\n          tag_15\n          jump\t// in\n        tag_34:\n            /* \"#utility.yul\":1056:1199   */\n          swap3\n          swap2\n          pop\n          pop\n          jump\t// out\n            /* \"#utility.yul\":1205:1712   */\n        tag_3:\n            /* \"#utility.yul\":1284:1290   */\n          0x00\n            /* \"#utility.yul\":1292:1298   */\n          dup1\n            /* \"#utility.yul\":1341:1343   */\n          0x40\n            /* \"#utility.yul\":1329:1338   */\n          dup4\n            /* \"#utility.yul\":1320:1327   */\n          dup6\n            /* \"#utility.yul\":1316:1339   */\n          sub\n            /* \"#utility.yul\":1312:1344   */\n          slt\n            /* \"#utility.yul\":1309:1428   */\n          iszero\n          tag_36\n          jumpi\n            /* \"#utility.yul\":1347:1426   */\n          tag_37\n          tag_8\n          jump\t// in\n        tag_37:\n            /* \"#utility.yul\":1309:1428   */\n        tag_36:\n            /* \"#utility.yul\":1467:1468   */\n          0x00\n            /* \"#utility.yul\":1492:1556   */\n          tag_38\n            /* \"#utility.yul\":1548:1555   */\n          dup6\n            /* \"#utility.yul\":1539:1545   */\n          dup3\n            /* \"#utility.yul\":1528:1537   */\n          dup7\n            /* \"#utility.yul\":1524:1546   */\n          add\n            /* \"#utility.yul\":1492:1556   */\n          tag_12\n          jump\t// in\n        tag_38:\n            /* \"#utility.yul\":1482:1556   */\n          swap3\n          pop\n            /* \"#utility.yul\":1438:1566   */\n          pop\n            /* \"#utility.yul\":1605:1607   */\n          0x20\n            /* \"#utility.yul\":1631:1695   */\n          tag_39\n            /* \"#utility.yul\":1687:1694   */\n          dup6\n            /* \"#utility.yul\":1678:1684   */\n          dup3\n            /* \"#utility.yul\":1667:1676   */\n          dup7\n            /* \"#utility.yul\":1663:1685   */\n          add\n            /* \"#utility.yul\":1631:1695   */\n          tag_16\n          jump\t// in\n        tag_39:\n            /* \"#utility.yul\":1621:1695   */\n          swap2\n          pop\n            /* \"#utility.yul\":1576:1705   */\n          pop\n            /* \"#utility.yul\":1205:1712   */\n          swap3\n          pop\n          swap3\n          swap1\n          pop\n          jump\t// out\n            /* \"DecenAngels.sol\":488:2337  contract DecenAngels {... */\n        tag_6:\n          dataSize(sub_0)\n          dup1\n          dataOffset(sub_0)\n          0x00\n          codecopy\n          0x00\n          return\n        stop\n\n        sub_0: assembly {\n                /* \"DecenAngels.sol\":488:2337  contract DecenAngels {... */\n              mstore(0x40, 0x80)\n              jumpi(tag_1, lt(calldatasize, 0x04))\n              shr(0xe0, calldataload(0x00))\n              dup1\n              0x82fde093\n              gt\n              tag_11\n              jumpi\n              dup1\n              0x82fde093\n              eq\n              tag_6\n              jumpi\n              dup1\n              0x8a9cfd55\n              eq\n              tag_7\n              jumpi\n              dup1\n              0x937e09b1\n              eq\n              tag_8\n              jumpi\n              dup1\n              0xd7bb99ba\n              eq\n              tag_9\n              jumpi\n              dup1\n              0xd7d1bbdb\n              eq\n              tag_10\n              jumpi\n              jump(tag_1)\n            tag_11:\n              dup1\n              0x03441006\n              eq\n              tag_2\n              jumpi\n              dup1\n              0x0a144391\n              eq\n              tag_3\n              jumpi\n              dup1\n              0x481c6a75\n              eq\n              tag_4\n              jumpi\n              dup1\n              0x81d12c58\n              eq\n              tag_5\n              jumpi\n            tag_1:\n              0x00\n              dup1\n              revert\n                /* \"DecenAngels.sol\":2049:2328  function finalizeRequest(uint _index) public payable managerOnly {... */\n            tag_2:\n              tag_12\n              0x04\n              dup1\n              calldatasize\n              sub\n              dup2\n              add\n              swap1\n              tag_13\n              swap2\n              swap1\n              tag_14\n              jump\t// in\n            tag_13:\n              tag_15\n              jump\t// in\n            tag_12:\n              stop\n                /* \"DecenAngels.sol\":830:871  mapping(address => bool) public approvers */\n            tag_3:\n              callvalue\n              dup1\n              iszero\n              tag_16\n              jumpi\n              0x00\n              dup1\n              revert\n            tag_16:\n              pop\n              tag_17\n              0x04\n              dup1\n              calldatasize\n              sub\n              dup2\n              add\n              swap1\n              tag_18\n              swap2\n              swap1\n              tag_19\n              jump\t// in\n            tag_18:\n              tag_20\n              jump\t// in\n            tag_17:\n              mload(0x40)\n              tag_21\n              swap2\n              swap1\n              tag_22\n              jump\t// in\n            tag_21:\n              mload(0x40)\n              dup1\n              swap2\n              sub\n              swap1\n              return\n                /* \"DecenAngels.sol\":763:785  address public manager */\n            tag_4:\n              callvalue\n              dup1\n              iszero\n              tag_23\n              jumpi\n              0x00\n              dup1\n              revert\n            tag_23:\n              pop\n              tag_24\n              tag_25\n              jump\t// in\n            tag_24:\n              mload(0x40)\n              tag_26\n              swap2\n              swap1\n              tag_27\n              jump\t// in\n            tag_26:\n              mload(0x40)\n              dup1\n              swap2\n              sub\n              swap1\n              return\n                /* \"DecenAngels.sol\":731:756  Request[] public requests */\n            tag_5:\n              callvalue\n              dup1\n              iszero\n              tag_28\n              jumpi\n              0x00\n              dup1\n              revert\n            tag_28:\n              pop\n              tag_29\n              0x04\n              dup1\n              calldatasize\n              sub\n              dup2\n              add\n              swap1\n              tag_30\n              swap2\n              swap1\n              tag_14\n              jump\t// in\n            tag_30:\n              tag_31\n              jump\t// in\n            tag_29:\n              mload(0x40)\n              tag_32\n              swap6\n              swap5\n              swap4\n              swap3\n              swap2\n              swap1\n              tag_33\n              jump\t// in\n            tag_32:\n              mload(0x40)\n              dup1\n              swap2\n              sub\n              swap1\n              return\n                /* \"DecenAngels.sol\":878:904  uint public approversCount */\n            tag_6:\n              callvalue\n              dup1\n              iszero\n              tag_34\n              jumpi\n              0x00\n              dup1\n              revert\n            tag_34:\n              pop\n              tag_35\n              tag_36\n              jump\t// in\n            tag_35:\n              mload(0x40)\n              tag_37\n              swap2\n              swap1\n              tag_38\n              jump\t// in\n            tag_37:\n              mload(0x40)\n              dup1\n              swap2\n              sub\n              swap1\n              return\n                /* \"DecenAngels.sol\":1381:1706  function createRequest(string memory _description, uint _value, address payable _recipient) public managerOnly {... */\n            tag_7:\n              callvalue\n              dup1\n              iszero\n              tag_39\n              jumpi\n              0x00\n              dup1\n              revert\n            tag_39:\n              pop\n              tag_40\n              0x04\n              dup1\n              calldatasize\n              sub\n              dup2\n              add\n              swap1\n              tag_41\n              swap2\n              swap1\n              tag_42\n              jump\t// in\n            tag_41:\n              tag_43\n              jump\t// in\n            tag_40:\n              stop\n                /* \"DecenAngels.sol\":792:823  uint public minimumContribution */\n            tag_8:\n              callvalue\n              dup1\n              iszero\n              tag_44\n              jumpi\n              0x00\n              dup1\n              revert\n            tag_44:\n              pop\n              tag_45\n              tag_46\n              jump\t// in\n            tag_45:\n              mload(0x40)\n              tag_47\n              swap2\n              swap1\n              tag_38\n              jump\t// in\n            tag_47:\n              mload(0x40)\n              dup1\n              swap2\n              sub\n              swap1\n              return\n                /* \"DecenAngels.sol\":1184:1373  function contribute() public payable {... */\n            tag_9:\n              tag_48\n              tag_49\n              jump\t// in\n            tag_48:\n              stop\n                /* \"DecenAngels.sol\":1714:2041  function approveRequest(uint _index) public {... */\n            tag_10:\n              callvalue\n              dup1\n              iszero\n              tag_50\n              jumpi\n              0x00\n              dup1\n              revert\n            tag_50:\n              pop\n              tag_51\n              0x04\n              dup1\n              calldatasize\n              sub\n              dup2\n              add\n              swap1\n              tag_52\n              swap2\n              swap1\n              tag_14\n              jump\t// in\n            tag_52:\n              tag_53\n              jump\t// in\n            tag_51:\n              stop\n                /* \"DecenAngels.sol\":2049:2328  function finalizeRequest(uint _index) public payable managerOnly {... */\n            tag_15:\n                /* \"DecenAngels.sol\":967:974  manager */\n              0x01\n              0x00\n              swap1\n              sload\n              swap1\n              0x0100\n              exp\n              swap1\n              div\n              0xffffffffffffffffffffffffffffffffffffffff\n              and\n                /* \"DecenAngels.sol\":953:974  msg.sender == manager */\n              0xffffffffffffffffffffffffffffffffffffffff\n              and\n                /* \"DecenAngels.sol\":953:963  msg.sender */\n              caller\n                /* \"DecenAngels.sol\":953:974  msg.sender == manager */\n              0xffffffffffffffffffffffffffffffffffffffff\n              and\n              eq\n                /* \"DecenAngels.sol\":945:1001  require(msg.sender == manager, \"You are not authorized\") */\n              tag_55\n              jumpi\n              mload(0x40)\n              0x08c379a000000000000000000000000000000000000000000000000000000000\n              dup2\n              mstore\n              0x04\n              add\n              tag_56\n              swap1\n              tag_57\n              jump\t// in\n            tag_56:\n              mload(0x40)\n              dup1\n              swap2\n              sub\n              swap1\n              revert\n            tag_55:\n                /* \"DecenAngels.sol\":2125:2142  Request storage r */\n              0x00\n                /* \"DecenAngels.sol\":2145:2153  requests */\n              dup1\n                /* \"DecenAngels.sol\":2154:2160  _index */\n              dup3\n                /* \"DecenAngels.sol\":2145:2161  requests[_index] */\n              dup2\n              sload\n              dup2\n              lt\n              tag_59\n              jumpi\n              tag_60\n              tag_61\n              jump\t// in\n            tag_60:\n            tag_59:\n              swap1\n              0x00\n              mstore\n              keccak256(0x00, 0x20)\n              swap1\n              0x05\n              mul\n              add\n                /* \"DecenAngels.sol\":2125:2161  Request storage r = requests[_index] */\n              swap1\n              pop\n                /* \"DecenAngels.sol\":2181:2182  r */\n              dup1\n                /* \"DecenAngels.sol\":2181:2191  r.complete */\n              0x02\n              add\n              0x14\n              swap1\n              sload\n              swap1\n              0x0100\n              exp\n              swap1\n              div\n              0xff\n              and\n                /* \"DecenAngels.sol\":2180:2191  !r.complete */\n              iszero\n                /* \"DecenAngels.sol\":2172:2192  require(!r.complete) */\n              tag_63\n              jumpi\n              0x00\n              dup1\n              revert\n            tag_63:\n                /* \"DecenAngels.sol\":2247:2248  2 */\n              0x02\n                /* \"DecenAngels.sol\":2230:2244  approversCount */\n              sload(0x04)\n                /* \"DecenAngels.sol\":2230:2248  approversCount / 2 */\n              tag_64\n              swap2\n              swap1\n              tag_65\n              jump\t// in\n            tag_64:\n                /* \"DecenAngels.sol\":2211:2212  r */\n              dup2\n                /* \"DecenAngels.sol\":2211:2226  r.approvalCount */\n              0x03\n              add\n              sload\n                /* \"DecenAngels.sol\":2211:2249  r.approvalCount > (approversCount / 2) */\n              gt\n                /* \"DecenAngels.sol\":2203:2250  require(r.approvalCount > (approversCount / 2)) */\n              tag_66\n              jumpi\n              0x00\n              dup1\n              revert\n            tag_66:\n                /* \"DecenAngels.sol\":2263:2264  r */\n              dup1\n                /* \"DecenAngels.sol\":2263:2274  r.recipient */\n              0x02\n              add\n              0x00\n              swap1\n              sload\n              swap1\n              0x0100\n              exp\n              swap1\n              div\n              0xffffffffffffffffffffffffffffffffffffffff\n              and\n                /* \"DecenAngels.sol\":2263:2283  r.recipient.transfer */\n              0xffffffffffffffffffffffffffffffffffffffff\n              and\n                /* \"DecenAngels.sol\":2263:2292  r.recipient.transfer(r.value) */\n              0x08fc\n                /* \"DecenAngels.sol\":2284:2285  r */\n              dup3\n                /* \"DecenAngels.sol\":2284:2291  r.value */\n              0x01\n              add\n              sload\n                /* \"DecenAngels.sol\":2263:2292  r.recipient.transfer(r.value) */\n              swap1\n              dup2\n              iszero\n              mul\n              swap1\n              mload(0x40)\n              0x00\n              mload(0x40)\n              dup1\n              dup4\n              sub\n              dup2\n              dup6\n              dup9\n              dup9\n              call\n              swap4\n              pop\n              pop\n              pop\n              pop\n              iszero\n              dup1\n              iszero\n              tag_68\n              jumpi\n              returndatasize\n              0x00\n              dup1\n              returndatacopy\n              revert(0x00, returndatasize)\n            tag_68:\n              pop\n                /* \"DecenAngels.sol\":2316:2320  true */\n              0x01\n                /* \"DecenAngels.sol\":2303:2304  r */\n              dup2\n                /* \"DecenAngels.sol\":2303:2313  r.complete */\n              0x02\n              add\n              0x14\n                /* \"DecenAngels.sol\":2303:2320  r.complete = true */\n              0x0100\n              exp\n              dup2\n              sload\n              dup2\n              0xff\n              mul\n              not\n              and\n              swap1\n              dup4\n              iszero\n              iszero\n              mul\n              or\n              swap1\n              sstore\n              pop\n                /* \"DecenAngels.sol\":2114:2328  {... */\n              pop\n                /* \"DecenAngels.sol\":2049:2328  function finalizeRequest(uint _index) public payable managerOnly {... */\n              pop\n              jump\t// out\n                /* \"DecenAngels.sol\":830:871  mapping(address => bool) public approvers */\n            tag_20:\n              mstore(0x20, 0x03)\n              dup1\n              0x00\n              mstore\n              keccak256(0x00, 0x40)\n              0x00\n              swap2\n              pop\n              sload\n              swap1\n              0x0100\n              exp\n              swap1\n              div\n              0xff\n              and\n              dup2\n              jump\t// out\n                /* \"DecenAngels.sol\":763:785  address public manager */\n            tag_25:\n              0x01\n              0x00\n              swap1\n              sload\n              swap1\n              0x0100\n              exp\n              swap1\n              div\n              0xffffffffffffffffffffffffffffffffffffffff\n              and\n              dup2\n              jump\t// out\n                /* \"DecenAngels.sol\":731:756  Request[] public requests */\n            tag_31:\n              0x00\n              dup2\n              dup2\n              sload\n              dup2\n              lt\n              tag_69\n              jumpi\n              0x00\n              dup1\n              revert\n            tag_69:\n              swap1\n              0x00\n              mstore\n              keccak256(0x00, 0x20)\n              swap1\n              0x05\n              mul\n              add\n              0x00\n              swap2\n              pop\n              swap1\n              pop\n              dup1\n              0x00\n              add\n              dup1\n              sload\n              tag_71\n              swap1\n              tag_72\n              jump\t// in\n            tag_71:\n              dup1\n              0x1f\n              add\n              0x20\n              dup1\n              swap2\n              div\n              mul\n              0x20\n              add\n              mload(0x40)\n              swap1\n              dup2\n              add\n              0x40\n              mstore\n              dup1\n              swap3\n              swap2\n              swap1\n              dup2\n              dup2\n              mstore\n              0x20\n              add\n              dup3\n              dup1\n              sload\n              tag_73\n              swap1\n              tag_72\n              jump\t// in\n            tag_73:\n              dup1\n              iszero\n              tag_74\n              jumpi\n              dup1\n              0x1f\n              lt\n              tag_75\n              jumpi\n              0x0100\n              dup1\n              dup4\n              sload\n              div\n              mul\n              dup4\n              mstore\n              swap2\n              0x20\n              add\n              swap2\n              jump(tag_74)\n            tag_75:\n              dup3\n              add\n              swap2\n              swap1\n              0x00\n              mstore\n              keccak256(0x00, 0x20)\n              swap1\n            tag_76:\n              dup2\n              sload\n              dup2\n              mstore\n              swap1\n              0x01\n              add\n              swap1\n              0x20\n              add\n              dup1\n              dup4\n              gt\n              tag_76\n              jumpi\n              dup3\n              swap1\n              sub\n              0x1f\n              and\n              dup3\n              add\n              swap2\n            tag_74:\n              pop\n              pop\n              pop\n              pop\n              pop\n              swap1\n              dup1\n              0x01\n              add\n              sload\n              swap1\n              dup1\n              0x02\n              add\n              0x00\n              swap1\n              sload\n              swap1\n              0x0100\n              exp\n              swap1\n              div\n              0xffffffffffffffffffffffffffffffffffffffff\n              and\n              swap1\n              dup1\n              0x02\n              add\n              0x14\n              swap1\n              sload\n              swap1\n              0x0100\n              exp\n              swap1\n              div\n              0xff\n              and\n              swap1\n              dup1\n              0x03\n              add\n              sload\n              swap1\n              pop\n              dup6\n              jump\t// out\n                /* \"DecenAngels.sol\":878:904  uint public approversCount */\n            tag_36:\n              sload(0x04)\n              dup2\n              jump\t// out\n                /* \"DecenAngels.sol\":1381:1706  function createRequest(string memory _description, uint _value, address payable _recipient) public managerOnly {... */\n            tag_43:\n                /* \"DecenAngels.sol\":967:974  manager */\n              0x01\n              0x00\n              swap1\n              sload\n              swap1\n              0x0100\n              exp\n              swap1\n              div\n              0xffffffffffffffffffffffffffffffffffffffff\n              and\n                /* \"DecenAngels.sol\":953:974  msg.sender == manager */\n              0xffffffffffffffffffffffffffffffffffffffff\n              and\n                /* \"DecenAngels.sol\":953:963  msg.sender */\n              caller\n                /* \"DecenAngels.sol\":953:974  msg.sender == manager */\n              0xffffffffffffffffffffffffffffffffffffffff\n              and\n              eq\n                /* \"DecenAngels.sol\":945:1001  require(msg.sender == manager, \"You are not authorized\") */\n              tag_78\n              jumpi\n              mload(0x40)\n              0x08c379a000000000000000000000000000000000000000000000000000000000\n              dup2\n              mstore\n              0x04\n              add\n              tag_79\n              swap1\n              tag_57\n              jump\t// in\n            tag_79:\n              mload(0x40)\n              dup1\n              swap2\n              sub\n              swap1\n              revert\n            tag_78:\n                /* \"DecenAngels.sol\":1503:1520  Request storage r */\n              0x00\n                /* \"DecenAngels.sol\":1523:1531  requests */\n              dup1\n                /* \"DecenAngels.sol\":1523:1538  requests.push() */\n              0x01\n              dup2\n              0x01\n              dup2\n              sload\n              add\n              dup1\n              dup3\n              sstore\n              dup1\n              swap2\n              pop\n              pop\n              sub\n              swap1\n              0x00\n              mstore\n              keccak256(0x00, 0x20)\n              swap1\n              0x05\n              mul\n              add\n                /* \"DecenAngels.sol\":1503:1538  Request storage r = requests.push() */\n              swap1\n              pop\n                /* \"DecenAngels.sol\":1565:1577  _description */\n              dup4\n                /* \"DecenAngels.sol\":1549:1550  r */\n              dup2\n                /* \"DecenAngels.sol\":1549:1562  r.description */\n              0x00\n              add\n                /* \"DecenAngels.sol\":1549:1577  r.description = _description */\n              swap1\n              dup2\n              tag_82\n              swap2\n              swap1\n              tag_83\n              jump\t// in\n            tag_82:\n              pop\n                /* \"DecenAngels.sol\":1598:1604  _value */\n              dup3\n                /* \"DecenAngels.sol\":1588:1589  r */\n              dup2\n                /* \"DecenAngels.sol\":1588:1595  r.value */\n              0x01\n              add\n                /* \"DecenAngels.sol\":1588:1604  r.value = _value */\n              dup2\n              swap1\n              sstore\n              pop\n                /* \"DecenAngels.sol\":1629:1639  _recipient */\n              dup2\n                /* \"DecenAngels.sol\":1615:1616  r */\n              dup2\n                /* \"DecenAngels.sol\":1615:1626  r.recipient */\n              0x02\n              add\n              0x00\n                /* \"DecenAngels.sol\":1615:1639  r.recipient = _recipient */\n              0x0100\n              exp\n              dup2\n              sload\n              dup2\n              0xffffffffffffffffffffffffffffffffffffffff\n              mul\n              not\n              and\n              swap1\n              dup4\n              0xffffffffffffffffffffffffffffffffffffffff\n              and\n              mul\n              or\n              swap1\n              sstore\n              pop\n                /* \"DecenAngels.sol\":1663:1668  false */\n              0x00\n                /* \"DecenAngels.sol\":1650:1651  r */\n              dup2\n                /* \"DecenAngels.sol\":1650:1660  r.complete */\n              0x02\n              add\n              0x14\n                /* \"DecenAngels.sol\":1650:1668  r.complete = false */\n              0x0100\n              exp\n              dup2\n              sload\n              dup2\n              0xff\n              mul\n              not\n              and\n              swap1\n              dup4\n              iszero\n              iszero\n              mul\n              or\n              swap1\n              sstore\n              pop\n                /* \"DecenAngels.sol\":1697:1698  0 */\n              0x00\n                /* \"DecenAngels.sol\":1679:1680  r */\n              dup2\n                /* \"DecenAngels.sol\":1679:1694  r.approvalCount */\n              0x03\n              add\n                /* \"DecenAngels.sol\":1679:1698  r.approvalCount = 0 */\n              dup2\n              swap1\n              sstore\n              pop\n                /* \"DecenAngels.sol\":1492:1706  {... */\n              pop\n                /* \"DecenAngels.sol\":1381:1706  function createRequest(string memory _description, uint _value, address payable _recipient) public managerOnly {... */\n              pop\n              pop\n              pop\n              jump\t// out\n                /* \"DecenAngels.sol\":792:823  uint public minimumContribution */\n            tag_46:\n              sload(0x02)\n              dup2\n              jump\t// out\n                /* \"DecenAngels.sol\":1184:1373  function contribute() public payable {... */\n            tag_49:\n                /* \"DecenAngels.sol\":1253:1272  minimumContribution */\n              sload(0x02)\n                /* \"DecenAngels.sol\":1240:1249  msg.value */\n              callvalue\n                /* \"DecenAngels.sol\":1240:1272  msg.value >= minimumContribution */\n              lt\n              iszero\n                /* \"DecenAngels.sol\":1232:1299  require(msg.value >= minimumContribution, \"Sorry, please put more\") */\n              tag_85\n              jumpi\n              mload(0x40)\n              0x08c379a000000000000000000000000000000000000000000000000000000000\n              dup2\n              mstore\n              0x04\n              add\n              tag_86\n              swap1\n              tag_87\n              jump\t// in\n            tag_86:\n              mload(0x40)\n              dup1\n              swap2\n              sub\n              swap1\n              revert\n            tag_85:\n                /* \"DecenAngels.sol\":1334:1338  true */\n              0x01\n                /* \"DecenAngels.sol\":1310:1319  approvers */\n              0x03\n                /* \"DecenAngels.sol\":1310:1331  approvers[msg.sender] */\n              0x00\n                /* \"DecenAngels.sol\":1320:1330  msg.sender */\n              caller\n                /* \"DecenAngels.sol\":1310:1331  approvers[msg.sender] */\n              0xffffffffffffffffffffffffffffffffffffffff\n              and\n              0xffffffffffffffffffffffffffffffffffffffff\n              and\n              dup2\n              mstore\n              0x20\n              add\n              swap1\n              dup2\n              mstore\n              0x20\n              add\n              0x00\n              keccak256\n              0x00\n                /* \"DecenAngels.sol\":1310:1338  approvers[msg.sender] = true */\n              0x0100\n              exp\n              dup2\n              sload\n              dup2\n              0xff\n              mul\n              not\n              and\n              swap1\n              dup4\n              iszero\n              iszero\n              mul\n              or\n              swap1\n              sstore\n              pop\n                /* \"DecenAngels.sol\":1349:1363  approversCount */\n              0x04\n              0x00\n                /* \"DecenAngels.sol\":1349:1365  approversCount++ */\n              dup2\n              sload\n              dup1\n              swap3\n              swap2\n              swap1\n              tag_88\n              swap1\n              tag_89\n              jump\t// in\n            tag_88:\n              swap2\n              swap1\n              pop\n              sstore\n              pop\n                /* \"DecenAngels.sol\":1184:1373  function contribute() public payable {... */\n              jump\t// out\n                /* \"DecenAngels.sol\":1714:2041  function approveRequest(uint _index) public {... */\n            tag_53:\n                /* \"DecenAngels.sol\":1769:1786  Request storage r */\n              0x00\n                /* \"DecenAngels.sol\":1789:1797  requests */\n              dup1\n                /* \"DecenAngels.sol\":1798:1804  _index */\n              dup3\n                /* \"DecenAngels.sol\":1789:1805  requests[_index] */\n              dup2\n              sload\n              dup2\n              lt\n              tag_91\n              jumpi\n              tag_92\n              tag_61\n              jump\t// in\n            tag_92:\n            tag_91:\n              swap1\n              0x00\n              mstore\n              keccak256(0x00, 0x20)\n              swap1\n              0x05\n              mul\n              add\n                /* \"DecenAngels.sol\":1769:1805  Request storage r = requests[_index] */\n              swap1\n              pop\n                /* \"DecenAngels.sol\":1826:1835  approvers */\n              0x03\n                /* \"DecenAngels.sol\":1826:1847  approvers[msg.sender] */\n              0x00\n                /* \"DecenAngels.sol\":1836:1846  msg.sender */\n              caller\n                /* \"DecenAngels.sol\":1826:1847  approvers[msg.sender] */\n              0xffffffffffffffffffffffffffffffffffffffff\n              and\n              0xffffffffffffffffffffffffffffffffffffffff\n              and\n              dup2\n              mstore\n              0x20\n              add\n              swap1\n              dup2\n              mstore\n              0x20\n              add\n              0x00\n              keccak256\n              0x00\n              swap1\n              sload\n              swap1\n              0x0100\n              exp\n              swap1\n              div\n              0xff\n              and\n                /* \"DecenAngels.sol\":1818:1884  require(approvers[msg.sender], \"Sorry, you are not a contributor\") */\n              tag_94\n              jumpi\n              mload(0x40)\n              0x08c379a000000000000000000000000000000000000000000000000000000000\n              dup2\n              mstore\n              0x04\n              add\n              tag_95\n              swap1\n              tag_96\n              jump\t// in\n            tag_95:\n              mload(0x40)\n              dup1\n              swap2\n              sub\n              swap1\n              revert\n            tag_94:\n                /* \"DecenAngels.sol\":1904:1905  r */\n              dup1\n                /* \"DecenAngels.sol\":1904:1915  r.approvals */\n              0x04\n              add\n                /* \"DecenAngels.sol\":1904:1927  r.approvals[msg.sender] */\n              0x00\n                /* \"DecenAngels.sol\":1916:1926  msg.sender */\n              caller\n                /* \"DecenAngels.sol\":1904:1927  r.approvals[msg.sender] */\n              0xffffffffffffffffffffffffffffffffffffffff\n              and\n              0xffffffffffffffffffffffffffffffffffffffff\n              and\n              dup2\n              mstore\n              0x20\n              add\n              swap1\n              dup2\n              mstore\n              0x20\n              add\n              0x00\n              keccak256\n              0x00\n              swap1\n              sload\n              swap1\n              0x0100\n              exp\n              swap1\n              div\n              0xff\n              and\n                /* \"DecenAngels.sol\":1903:1927  !r.approvals[msg.sender] */\n              iszero\n                /* \"DecenAngels.sol\":1895:1962  require(!r.approvals[msg.sender], \"Sorry, you can only vote once.\") */\n              tag_97\n              jumpi\n              mload(0x40)\n              0x08c379a000000000000000000000000000000000000000000000000000000000\n              dup2\n              mstore\n              0x04\n              add\n              tag_98\n              swap1\n              tag_99\n              jump\t// in\n            tag_98:\n              mload(0x40)\n              dup1\n              swap2\n              sub\n              swap1\n              revert\n            tag_97:\n                /* \"DecenAngels.sol\":2001:2005  true */\n              0x01\n                /* \"DecenAngels.sol\":1975:1976  r */\n              dup2\n                /* \"DecenAngels.sol\":1975:1986  r.approvals */\n              0x04\n              add\n                /* \"DecenAngels.sol\":1975:1998  r.approvals[msg.sender] */\n              0x00\n                /* \"DecenAngels.sol\":1987:1997  msg.sender */\n              caller\n                /* \"DecenAngels.sol\":1975:1998  r.approvals[msg.sender] */\n              0xffffffffffffffffffffffffffffffffffffffff\n              and\n              0xffffffffffffffffffffffffffffffffffffffff\n              and\n              dup2\n              mstore\n              0x20\n              add\n              swap1\n              dup2\n              mstore\n              0x20\n              add\n              0x00\n              keccak256\n              0x00\n                /* \"DecenAngels.sol\":1975:2005  r.approvals[msg.sender] = true */\n              0x0100\n              exp\n              dup2\n              sload\n              dup2\n              0xff\n              mul\n              not\n              and\n              swap1\n              dup4\n              iszero\n              iszero\n              mul\n              or\n              swap1\n              sstore\n              pop\n                /* \"DecenAngels.sol\":2016:2017  r */\n              dup1\n                /* \"DecenAngels.sol\":2016:2031  r.approvalCount */\n              0x03\n              add\n              0x00\n                /* \"DecenAngels.sol\":2016:2033  r.approvalCount++ */\n              dup2\n              sload\n              dup1\n              swap3\n              swap2\n              swap1\n              tag_100\n              swap1\n              tag_89\n              jump\t// in\n            tag_100:\n              swap2\n              swap1\n              pop\n              sstore\n              pop\n                /* \"DecenAngels.sol\":1758:2041  {... */\n              pop\n                /* \"DecenAngels.sol\":1714:2041  function approveRequest(uint _index) public {... */\n              pop\n              jump\t// out\n                /* \"#utility.yul\":7:82   */\n            tag_101:\n                /* \"#utility.yul\":40:46   */\n              0x00\n                /* \"#utility.yul\":73:75   */\n              0x40\n                /* \"#utility.yul\":67:76   */\n              mload\n                /* \"#utility.yul\":57:76   */\n              swap1\n              pop\n                /* \"#utility.yul\":7:82   */\n              swap1\n              jump\t// out\n                /* \"#utility.yul\":88:205   */\n            tag_102:\n                /* \"#utility.yul\":197:198   */\n              0x00\n                /* \"#utility.yul\":194:195   */\n              dup1\n                /* \"#utility.yul\":187:199   */\n              revert\n                /* \"#utility.yul\":211:328   */\n            tag_103:\n                /* \"#utility.yul\":320:321   */\n              0x00\n                /* \"#utility.yul\":317:318   */\n              dup1\n                /* \"#utility.yul\":310:322   */\n              revert\n                /* \"#utility.yul\":334:411   */\n            tag_104:\n                /* \"#utility.yul\":371:378   */\n              0x00\n                /* \"#utility.yul\":400:405   */\n              dup2\n                /* \"#utility.yul\":389:405   */\n              swap1\n              pop\n                /* \"#utility.yul\":334:411   */\n              swap2\n              swap1\n              pop\n              jump\t// out\n                /* \"#utility.yul\":417:539   */\n            tag_105:\n                /* \"#utility.yul\":490:514   */\n              tag_165\n                /* \"#utility.yul\":508:513   */\n              dup2\n                /* \"#utility.yul\":490:514   */\n              tag_104\n              jump\t// in\n            tag_165:\n                /* \"#utility.yul\":483:488   */\n              dup2\n                /* \"#utility.yul\":480:515   */\n              eq\n                /* \"#utility.yul\":470:533   */\n              tag_166\n              jumpi\n                /* \"#utility.yul\":529:530   */\n              0x00\n                /* \"#utility.yul\":526:527   */\n              dup1\n                /* \"#utility.yul\":519:531   */\n              revert\n                /* \"#utility.yul\":470:533   */\n            tag_166:\n                /* \"#utility.yul\":417:539   */\n              pop\n              jump\t// out\n                /* \"#utility.yul\":545:684   */\n            tag_106:\n                /* \"#utility.yul\":591:596   */\n              0x00\n                /* \"#utility.yul\":629:635   */\n              dup2\n                /* \"#utility.yul\":616:636   */\n              calldataload\n                /* \"#utility.yul\":607:636   */\n              swap1\n              pop\n                /* \"#utility.yul\":645:678   */\n              tag_168\n                /* \"#utility.yul\":672:677   */\n              dup2\n                /* \"#utility.yul\":645:678   */\n              tag_105\n              jump\t// in\n            tag_168:\n                /* \"#utility.yul\":545:684   */\n              swap3\n              swap2\n              pop\n              pop\n              jump\t// out\n                /* \"#utility.yul\":690:1019   */\n            tag_14:\n                /* \"#utility.yul\":749:755   */\n              0x00\n                /* \"#utility.yul\":798:800   */\n              0x20\n                /* \"#utility.yul\":786:795   */\n              dup3\n                /* \"#utility.yul\":777:784   */\n              dup5\n                /* \"#utility.yul\":773:796   */\n              sub\n                /* \"#utility.yul\":769:801   */\n              slt\n                /* \"#utility.yul\":766:885   */\n              iszero\n              tag_170\n              jumpi\n                /* \"#utility.yul\":804:883   */\n              tag_171\n              tag_102\n              jump\t// in\n            tag_171:\n                /* \"#utility.yul\":766:885   */\n            tag_170:\n                /* \"#utility.yul\":924:925   */\n              0x00\n                /* \"#utility.yul\":949:1002   */\n              tag_172\n                /* \"#utility.yul\":994:1001   */\n              dup5\n                /* \"#utility.yul\":985:991   */\n              dup3\n                /* \"#utility.yul\":974:983   */\n              dup6\n                /* \"#utility.yul\":970:992   */\n              add\n                /* \"#utility.yul\":949:1002   */\n              tag_106\n              jump\t// in\n            tag_172:\n                /* \"#utility.yul\":939:1002   */\n              swap2\n              pop\n                /* \"#utility.yul\":895:1012   */\n              pop\n                /* \"#utility.yul\":690:1019   */\n              swap3\n              swap2\n              pop\n              pop\n              jump\t// out\n                /* \"#utility.yul\":1025:1151   */\n            tag_107:\n                /* \"#utility.yul\":1062:1069   */\n              0x00\n                /* \"#utility.yul\":1102:1144   */\n              0xffffffffffffffffffffffffffffffffffffffff\n                /* \"#utility.yul\":1095:1100   */\n              dup3\n                /* \"#utility.yul\":1091:1145   */\n              and\n                /* \"#utility.yul\":1080:1145   */\n              swap1\n              pop\n                /* \"#utility.yul\":1025:1151   */\n              swap2\n              swap1\n              pop\n              jump\t// out\n                /* \"#utility.yul\":1157:1253   */\n            tag_108:\n                /* \"#utility.yul\":1194:1201   */\n              0x00\n                /* \"#utility.yul\":1223:1247   */\n              tag_175\n                /* \"#utility.yul\":1241:1246   */\n              dup3\n                /* \"#utility.yul\":1223:1247   */\n              tag_107\n              jump\t// in\n            tag_175:\n                /* \"#utility.yul\":1212:1247   */\n              swap1\n              pop\n                /* \"#utility.yul\":1157:1253   */\n              swap2\n              swap1\n              pop\n              jump\t// out\n                /* \"#utility.yul\":1259:1381   */\n            tag_109:\n                /* \"#utility.yul\":1332:1356   */\n              tag_177\n                /* \"#utility.yul\":1350:1355   */\n              dup2\n                /* \"#utility.yul\":1332:1356   */\n              tag_108\n              jump\t// in\n            tag_177:\n                /* \"#utility.yul\":1325:1330   */\n              dup2\n                /* \"#utility.yul\":1322:1357   */\n              eq\n                /* \"#utility.yul\":1312:1375   */\n              tag_178\n              jumpi\n                /* \"#utility.yul\":1371:1372   */\n              0x00\n                /* \"#utility.yul\":1368:1369   */\n              dup1\n                /* \"#utility.yul\":1361:1373   */\n              revert\n                /* \"#utility.yul\":1312:1375   */\n            tag_178:\n                /* \"#utility.yul\":1259:1381   */\n              pop\n              jump\t// out\n                /* \"#utility.yul\":1387:1526   */\n            tag_110:\n                /* \"#utility.yul\":1433:1438   */\n              0x00\n                /* \"#utility.yul\":1471:1477   */\n              dup2\n                /* \"#utility.yul\":1458:1478   */\n              calldataload\n                /* \"#utility.yul\":1449:1478   */\n              swap1\n              pop\n                /* \"#utility.yul\":1487:1520   */\n              tag_180\n                /* \"#utility.yul\":1514:1519   */\n              dup2\n                /* \"#utility.yul\":1487:1520   */\n              tag_109\n              jump\t// in\n            tag_180:\n                /* \"#utility.yul\":1387:1526   */\n              swap3\n              swap2\n              pop\n              pop\n              jump\t// out\n                /* \"#utility.yul\":1532:1861   */\n            tag_19:\n                /* \"#utility.yul\":1591:1597   */\n              0x00\n                /* \"#utility.yul\":1640:1642   */\n              0x20\n                /* \"#utility.yul\":1628:1637   */\n              dup3\n                /* \"#utility.yul\":1619:1626   */\n              dup5\n                /* \"#utility.yul\":1615:1638   */\n              sub\n                /* \"#utility.yul\":1611:1643   */\n              slt\n                /* \"#utility.yul\":1608:1727   */\n              iszero\n              tag_182\n              jumpi\n                /* \"#utility.yul\":1646:1725   */\n              tag_183\n              tag_102\n              jump\t// in\n            tag_183:\n                /* \"#utility.yul\":1608:1727   */\n            tag_182:\n                /* \"#utility.yul\":1766:1767   */\n              0x00\n                /* \"#utility.yul\":1791:1844   */\n              tag_184\n                /* \"#utility.yul\":1836:1843   */\n              dup5\n                /* \"#utility.yul\":1827:1833   */\n              dup3\n                /* \"#utility.yul\":1816:1825   */\n              dup6\n                /* \"#utility.yul\":1812:1834   */\n              add\n                /* \"#utility.yul\":1791:1844   */\n              tag_110\n              jump\t// in\n            tag_184:\n                /* \"#utility.yul\":1781:1844   */\n              swap2\n              pop\n                /* \"#utility.yul\":1737:1854   */\n              pop\n                /* \"#utility.yul\":1532:1861   */\n              swap3\n              swap2\n              pop\n              pop\n              jump\t// out\n                /* \"#utility.yul\":1867:1957   */\n            tag_111:\n                /* \"#utility.yul\":1901:1908   */\n              0x00\n                /* \"#utility.yul\":1944:1949   */\n              dup2\n                /* \"#utility.yul\":1937:1950   */\n              iszero\n                /* \"#utility.yul\":1930:1951   */\n              iszero\n                /* \"#utility.yul\":1919:1951   */\n              swap1\n              pop\n                /* \"#utility.yul\":1867:1957   */\n              swap2\n              swap1\n              pop\n              jump\t// out\n                /* \"#utility.yul\":1963:2072   */\n            tag_112:\n                /* \"#utility.yul\":2044:2065   */\n              tag_187\n                /* \"#utility.yul\":2059:2064   */\n              dup2\n                /* \"#utility.yul\":2044:2065   */\n              tag_111\n              jump\t// in\n            tag_187:\n                /* \"#utility.yul\":2039:2042   */\n              dup3\n                /* \"#utility.yul\":2032:2066   */\n              mstore\n                /* \"#utility.yul\":1963:2072   */\n              pop\n              pop\n              jump\t// out\n                /* \"#utility.yul\":2078:2288   */\n            tag_22:\n                /* \"#utility.yul\":2165:2169   */\n              0x00\n                /* \"#utility.yul\":2203:2205   */\n              0x20\n                /* \"#utility.yul\":2192:2201   */\n              dup3\n                /* \"#utility.yul\":2188:2206   */\n              add\n                /* \"#utility.yul\":2180:2206   */\n              swap1\n              pop\n                /* \"#utility.yul\":2216:2281   */\n              tag_189\n                /* \"#utility.yul\":2278:2279   */\n              0x00\n                /* \"#utility.yul\":2267:2276   */\n              dup4\n                /* \"#utility.yul\":2263:2280   */\n              add\n                /* \"#utility.yul\":2254:2260   */\n              dup5\n                /* \"#utility.yul\":2216:2281   */\n              tag_112\n              jump\t// in\n            tag_189:\n                /* \"#utility.yul\":2078:2288   */\n              swap3\n              swap2\n              pop\n              pop\n              jump\t// out\n                /* \"#utility.yul\":2294:2412   */\n            tag_113:\n                /* \"#utility.yul\":2381:2405   */\n              tag_191\n                /* \"#utility.yul\":2399:2404   */\n              dup2\n                /* \"#utility.yul\":2381:2405   */\n              tag_108\n              jump\t// in\n            tag_191:\n                /* \"#utility.yul\":2376:2379   */\n              dup3\n                /* \"#utility.yul\":2369:2406   */\n              mstore\n                /* \"#utility.yul\":2294:2412   */\n              pop\n              pop\n              jump\t// out\n                /* \"#utility.yul\":2418:2640   */\n            tag_27:\n                /* \"#utility.yul\":2511:2515   */\n              0x00\n                /* \"#utility.yul\":2549:2551   */\n              0x20\n                /* \"#utility.yul\":2538:2547   */\n              dup3\n                /* \"#utility.yul\":2534:2552   */\n              add\n                /* \"#utility.yul\":2526:2552   */\n              swap1\n              pop\n                /* \"#utility.yul\":2562:2633   */\n              tag_193\n                /* \"#utility.yul\":2630:2631   */\n              0x00\n                /* \"#utility.yul\":2619:2628   */\n              dup4\n                /* \"#utility.yul\":2615:2632   */\n              add\n                /* \"#utility.yul\":2606:2612   */\n              dup5\n                /* \"#utility.yul\":2562:2633   */\n              tag_113\n              jump\t// in\n            tag_193:\n                /* \"#utility.yul\":2418:2640   */\n              swap3\n              swap2\n              pop\n              pop\n              jump\t// out\n                /* \"#utility.yul\":2646:2745   */\n            tag_114:\n                /* \"#utility.yul\":2698:2704   */\n              0x00\n                /* \"#utility.yul\":2732:2737   */\n              dup2\n                /* \"#utility.yul\":2726:2738   */\n              mload\n                /* \"#utility.yul\":2716:2738   */\n              swap1\n              pop\n                /* \"#utility.yul\":2646:2745   */\n              swap2\n              swap1\n              pop\n              jump\t// out\n                /* \"#utility.yul\":2751:2920   */\n            tag_115:\n                /* \"#utility.yul\":2835:2846   */\n              0x00\n                /* \"#utility.yul\":2869:2875   */\n              dup3\n                /* \"#utility.yul\":2864:2867   */\n              dup3\n                /* \"#utility.yul\":2857:2876   */\n              mstore\n                /* \"#utility.yul\":2909:2913   */\n              0x20\n                /* \"#utility.yul\":2904:2907   */\n              dup3\n                /* \"#utility.yul\":2900:2914   */\n              add\n                /* \"#utility.yul\":2885:2914   */\n              swap1\n              pop\n                /* \"#utility.yul\":2751:2920   */\n              swap3\n              swap2\n              pop\n              pop\n              jump\t// out\n                /* \"#utility.yul\":2926:3172   */\n            tag_116:\n                /* \"#utility.yul\":3007:3008   */\n              0x00\n                /* \"#utility.yul\":3017:3130   */\n            tag_197:\n                /* \"#utility.yul\":3031:3037   */\n              dup4\n                /* \"#utility.yul\":3028:3029   */\n              dup2\n                /* \"#utility.yul\":3025:3038   */\n              lt\n                /* \"#utility.yul\":3017:3130   */\n              iszero\n              tag_199\n              jumpi\n                /* \"#utility.yul\":3116:3117   */\n              dup1\n                /* \"#utility.yul\":3111:3114   */\n              dup3\n                /* \"#utility.yul\":3107:3118   */\n              add\n                /* \"#utility.yul\":3101:3119   */\n              mload\n                /* \"#utility.yul\":3097:3098   */\n              dup2\n                /* \"#utility.yul\":3092:3095   */\n              dup5\n                /* \"#utility.yul\":3088:3099   */\n              add\n                /* \"#utility.yul\":3081:3120   */\n              mstore\n                /* \"#utility.yul\":3053:3055   */\n              0x20\n                /* \"#utility.yul\":3050:3051   */\n              dup2\n                /* \"#utility.yul\":3046:3056   */\n              add\n                /* \"#utility.yul\":3041:3056   */\n              swap1\n              pop\n                /* \"#utility.yul\":3017:3130   */\n              jump(tag_197)\n            tag_199:\n                /* \"#utility.yul\":3164:3165   */\n              0x00\n                /* \"#utility.yul\":3155:3161   */\n              dup5\n                /* \"#utility.yul\":3150:3153   */\n              dup5\n                /* \"#utility.yul\":3146:3162   */\n              add\n                /* \"#utility.yul\":3139:3166   */\n              mstore\n                /* \"#utility.yul\":2988:3172   */\n              pop\n                /* \"#utility.yul\":2926:3172   */\n              pop\n              pop\n              pop\n              jump\t// out\n                /* \"#utility.yul\":3178:3280   */\n            tag_117:\n                /* \"#utility.yul\":3219:3225   */\n              0x00\n                /* \"#utility.yul\":3270:3272   */\n              0x1f\n                /* \"#utility.yul\":3266:3273   */\n              not\n                /* \"#utility.yul\":3261:3263   */\n              0x1f\n                /* \"#utility.yul\":3254:3259   */\n              dup4\n                /* \"#utility.yul\":3250:3264   */\n              add\n                /* \"#utility.yul\":3246:3274   */\n              and\n                /* \"#utility.yul\":3236:3274   */\n              swap1\n              pop\n                /* \"#utility.yul\":3178:3280   */\n              swap2\n              swap1\n              pop\n              jump\t// out\n                /* \"#utility.yul\":3286:3663   */\n            tag_118:\n                /* \"#utility.yul\":3374:3377   */\n              0x00\n                /* \"#utility.yul\":3402:3441   */\n              tag_202\n                /* \"#utility.yul\":3435:3440   */\n              dup3\n                /* \"#utility.yul\":3402:3441   */\n              tag_114\n              jump\t// in\n            tag_202:\n                /* \"#utility.yul\":3457:3528   */\n              tag_203\n                /* \"#utility.yul\":3521:3527   */\n              dup2\n                /* \"#utility.yul\":3516:3519   */\n              dup6\n                /* \"#utility.yul\":3457:3528   */\n              tag_115\n              jump\t// in\n            tag_203:\n                /* \"#utility.yul\":3450:3528   */\n              swap4\n              pop\n                /* \"#utility.yul\":3537:3602   */\n              tag_204\n                /* \"#utility.yul\":3595:3601   */\n              dup2\n                /* \"#utility.yul\":3590:3593   */\n              dup6\n                /* \"#utility.yul\":3583:3587   */\n              0x20\n                /* \"#utility.yul\":3576:3581   */\n              dup7\n                /* \"#utility.yul\":3572:3588   */\n              add\n                /* \"#utility.yul\":3537:3602   */\n              tag_116\n              jump\t// in\n            tag_204:\n                /* \"#utility.yul\":3627:3656   */\n              tag_205\n                /* \"#utility.yul\":3649:3655   */\n              dup2\n                /* \"#utility.yul\":3627:3656   */\n              tag_117\n              jump\t// in\n            tag_205:\n                /* \"#utility.yul\":3622:3625   */\n              dup5\n                /* \"#utility.yul\":3618:3657   */\n              add\n                /* \"#utility.yul\":3611:3657   */\n              swap2\n              pop\n                /* \"#utility.yul\":3378:3663   */\n              pop\n                /* \"#utility.yul\":3286:3663   */\n              swap3\n              swap2\n              pop\n              pop\n              jump\t// out\n                /* \"#utility.yul\":3669:3787   */\n            tag_119:\n                /* \"#utility.yul\":3756:3780   */\n              tag_207\n                /* \"#utility.yul\":3774:3779   */\n              dup2\n                /* \"#utility.yul\":3756:3780   */\n              tag_104\n              jump\t// in\n            tag_207:\n                /* \"#utility.yul\":3751:3754   */\n              dup3\n                /* \"#utility.yul\":3744:3781   */\n              mstore\n                /* \"#utility.yul\":3669:3787   */\n              pop\n              pop\n              jump\t// out\n                /* \"#utility.yul\":3793:3897   */\n            tag_120:\n                /* \"#utility.yul\":3838:3845   */\n              0x00\n                /* \"#utility.yul\":3867:3891   */\n              tag_209\n                /* \"#utility.yul\":3885:3890   */\n              dup3\n                /* \"#utility.yul\":3867:3891   */\n              tag_107\n              jump\t// in\n            tag_209:\n                /* \"#utility.yul\":3856:3891   */\n              swap1\n              pop\n                /* \"#utility.yul\":3793:3897   */\n              swap2\n              swap1\n              pop\n              jump\t// out\n                /* \"#utility.yul\":3903:4045   */\n            tag_121:\n                /* \"#utility.yul\":4006:4038   */\n              tag_211\n                /* \"#utility.yul\":4032:4037   */\n              dup2\n                /* \"#utility.yul\":4006:4038   */\n              tag_120\n              jump\t// in\n            tag_211:\n                /* \"#utility.yul\":4001:4004   */\n              dup3\n                /* \"#utility.yul\":3994:4039   */\n              mstore\n                /* \"#utility.yul\":3903:4045   */\n              pop\n              pop\n              jump\t// out\n                /* \"#utility.yul\":4051:4826   */\n            tag_33:\n                /* \"#utility.yul\":4286:4290   */\n              0x00\n                /* \"#utility.yul\":4324:4327   */\n              0xa0\n                /* \"#utility.yul\":4313:4322   */\n              dup3\n                /* \"#utility.yul\":4309:4328   */\n              add\n                /* \"#utility.yul\":4301:4328   */\n              swap1\n              pop\n                /* \"#utility.yul\":4374:4383   */\n              dup2\n                /* \"#utility.yul\":4368:4372   */\n              dup2\n                /* \"#utility.yul\":4364:4384   */\n              sub\n                /* \"#utility.yul\":4360:4361   */\n              0x00\n                /* \"#utility.yul\":4349:4358   */\n              dup4\n                /* \"#utility.yul\":4345:4362   */\n              add\n                /* \"#utility.yul\":4338:4385   */\n              mstore\n                /* \"#utility.yul\":4402:4480   */\n              tag_213\n                /* \"#utility.yul\":4475:4479   */\n              dup2\n                /* \"#utility.yul\":4466:4472   */\n              dup9\n                /* \"#utility.yul\":4402:4480   */\n              tag_118\n              jump\t// in\n            tag_213:\n                /* \"#utility.yul\":4394:4480   */\n              swap1\n              pop\n                /* \"#utility.yul\":4490:4562   */\n              tag_214\n                /* \"#utility.yul\":4558:4560   */\n              0x20\n                /* \"#utility.yul\":4547:4556   */\n              dup4\n                /* \"#utility.yul\":4543:4561   */\n              add\n                /* \"#utility.yul\":4534:4540   */\n              dup8\n                /* \"#utility.yul\":4490:4562   */\n              tag_119\n              jump\t// in\n            tag_214:\n                /* \"#utility.yul\":4572:4660   */\n              tag_215\n                /* \"#utility.yul\":4656:4658   */\n              0x40\n                /* \"#utility.yul\":4645:4654   */\n              dup4\n                /* \"#utility.yul\":4641:4659   */\n              add\n                /* \"#utility.yul\":4632:4638   */\n              dup7\n                /* \"#utility.yul\":4572:4660   */\n              tag_121\n              jump\t// in\n            tag_215:\n                /* \"#utility.yul\":4670:4736   */\n              tag_216\n                /* \"#utility.yul\":4732:4734   */\n              0x60\n                /* \"#utility.yul\":4721:4730   */\n              dup4\n                /* \"#utility.yul\":4717:4735   */\n              add\n                /* \"#utility.yul\":4708:4714   */\n              dup6\n                /* \"#utility.yul\":4670:4736   */\n              tag_112\n              jump\t// in\n            tag_216:\n                /* \"#utility.yul\":4746:4819   */\n              tag_217\n                /* \"#utility.yul\":4814:4817   */\n              0x80\n                /* \"#utility.yul\":4803:4812   */\n              dup4\n                /* \"#utility.yul\":4799:4818   */\n              add\n                /* \"#utility.yul\":4790:4796   */\n              dup5\n                /* \"#utility.yul\":4746:4819   */\n              tag_119\n              jump\t// in\n            tag_217:\n                /* \"#utility.yul\":4051:4826   */\n              swap7\n              swap6\n              pop\n              pop\n              pop\n              pop\n              pop\n              pop\n              jump\t// out\n                /* \"#utility.yul\":4832:5054   */\n            tag_38:\n                /* \"#utility.yul\":4925:4929   */\n              0x00\n                /* \"#utility.yul\":4963:4965   */\n              0x20\n                /* \"#utility.yul\":4952:4961   */\n              dup3\n                /* \"#utility.yul\":4948:4966   */\n              add\n                /* \"#utility.yul\":4940:4966   */\n              swap1\n              pop\n                /* \"#utility.yul\":4976:5047   */\n              tag_219\n                /* \"#utility.yul\":5044:5045   */\n              0x00\n                /* \"#utility.yul\":5033:5042   */\n              dup4\n                /* \"#utility.yul\":5029:5046   */\n              add\n                /* \"#utility.yul\":5020:5026   */\n              dup5\n                /* \"#utility.yul\":4976:5047   */\n              tag_119\n              jump\t// in\n            tag_219:\n                /* \"#utility.yul\":4832:5054   */\n              swap3\n              swap2\n              pop\n              pop\n              jump\t// out\n                /* \"#utility.yul\":5060:5177   */\n            tag_122:\n                /* \"#utility.yul\":5169:5170   */\n              0x00\n                /* \"#utility.yul\":5166:5167   */\n              dup1\n                /* \"#utility.yul\":5159:5171   */\n              revert\n                /* \"#utility.yul\":5183:5300   */\n            tag_123:\n                /* \"#utility.yul\":5292:5293   */\n              0x00\n                /* \"#utility.yul\":5289:5290   */\n              dup1\n                /* \"#utility.yul\":5282:5294   */\n              revert\n                /* \"#utility.yul\":5306:5486   */\n            tag_124:\n                /* \"#utility.yul\":5354:5431   */\n              0x4e487b7100000000000000000000000000000000000000000000000000000000\n                /* \"#utility.yul\":5351:5352   */\n              0x00\n                /* \"#utility.yul\":5344:5432   */\n              mstore\n                /* \"#utility.yul\":5451:5455   */\n              0x41\n                /* \"#utility.yul\":5448:5449   */\n              0x04\n                /* \"#utility.yul\":5441:5456   */\n              mstore\n                /* \"#utility.yul\":5475:5479   */\n              0x24\n                /* \"#utility.yul\":5472:5473   */\n              0x00\n                /* \"#utility.yul\":5465:5480   */\n              revert\n                /* \"#utility.yul\":5492:5773   */\n            tag_125:\n                /* \"#utility.yul\":5575:5602   */\n              tag_224\n                /* \"#utility.yul\":5597:5601   */\n              dup3\n                /* \"#utility.yul\":5575:5602   */\n              tag_117\n              jump\t// in\n            tag_224:\n                /* \"#utility.yul\":5567:5573   */\n              dup2\n                /* \"#utility.yul\":5563:5603   */\n              add\n                /* \"#utility.yul\":5705:5711   */\n              dup2\n                /* \"#utility.yul\":5693:5703   */\n              dup2\n                /* \"#utility.yul\":5690:5712   */\n              lt\n                /* \"#utility.yul\":5669:5687   */\n              0xffffffffffffffff\n                /* \"#utility.yul\":5657:5667   */\n              dup3\n                /* \"#utility.yul\":5654:5688   */\n              gt\n                /* \"#utility.yul\":5651:5713   */\n              or\n                /* \"#utility.yul\":5648:5736   */\n              iszero\n              tag_225\n              jumpi\n                /* \"#utility.yul\":5716:5734   */\n              tag_226\n              tag_124\n              jump\t// in\n            tag_226:\n                /* \"#utility.yul\":5648:5736   */\n            tag_225:\n                /* \"#utility.yul\":5756:5766   */\n              dup1\n                /* \"#utility.yul\":5752:5754   */\n              0x40\n                /* \"#utility.yul\":5745:5767   */\n              mstore\n                /* \"#utility.yul\":5535:5773   */\n              pop\n                /* \"#utility.yul\":5492:5773   */\n              pop\n              pop\n              jump\t// out\n                /* \"#utility.yul\":5779:5908   */\n            tag_126:\n                /* \"#utility.yul\":5813:5819   */\n              0x00\n                /* \"#utility.yul\":5840:5860   */\n              tag_228\n              tag_101\n              jump\t// in\n            tag_228:\n                /* \"#utility.yul\":5830:5860   */\n              swap1\n              pop\n                /* \"#utility.yul\":5869:5902   */\n              tag_229\n                /* \"#utility.yul\":5897:5901   */\n              dup3\n                /* \"#utility.yul\":5889:5895   */\n              dup3\n                /* \"#utility.yul\":5869:5902   */\n              tag_125\n              jump\t// in\n            tag_229:\n                /* \"#utility.yul\":5779:5908   */\n              swap2\n              swap1\n              pop\n              jump\t// out\n                /* \"#utility.yul\":5914:6222   */\n            tag_127:\n                /* \"#utility.yul\":5976:5980   */\n              0x00\n                /* \"#utility.yul\":6066:6084   */\n              0xffffffffffffffff\n                /* \"#utility.yul\":6058:6064   */\n              dup3\n                /* \"#utility.yul\":6055:6085   */\n              gt\n                /* \"#utility.yul\":6052:6108   */\n              iszero\n              tag_231\n              jumpi\n                /* \"#utility.yul\":6088:6106   */\n              tag_232\n              tag_124\n              jump\t// in\n            tag_232:\n                /* \"#utility.yul\":6052:6108   */\n            tag_231:\n                /* \"#utility.yul\":6126:6155   */\n              tag_233\n                /* \"#utility.yul\":6148:6154   */\n              dup3\n                /* \"#utility.yul\":6126:6155   */\n              tag_117\n              jump\t// in\n            tag_233:\n                /* \"#utility.yul\":6118:6155   */\n              swap1\n              pop\n                /* \"#utility.yul\":6210:6214   */\n              0x20\n                /* \"#utility.yul\":6204:6208   */\n              dup2\n                /* \"#utility.yul\":6200:6215   */\n              add\n                /* \"#utility.yul\":6192:6215   */\n              swap1\n              pop\n                /* \"#utility.yul\":5914:6222   */\n              swap2\n              swap1\n              pop\n              jump\t// out\n                /* \"#utility.yul\":6228:6374   */\n            tag_128:\n                /* \"#utility.yul\":6325:6331   */\n              dup3\n                /* \"#utility.yul\":6320:6323   */\n              dup2\n                /* \"#utility.yul\":6315:6318   */\n              dup4\n                /* \"#utility.yul\":6302:6332   */\n              calldatacopy\n                /* \"#utility.yul\":6366:6367   */\n              0x00\n                /* \"#utility.yul\":6357:6363   */\n              dup4\n                /* \"#utility.yul\":6352:6355   */\n              dup4\n                /* \"#utility.yul\":6348:6364   */\n              add\n                /* \"#utility.yul\":6341:6368   */\n              mstore\n                /* \"#utility.yul\":6228:6374   */\n              pop\n              pop\n              pop\n              jump\t// out\n                /* \"#utility.yul\":6380:6805   */\n            tag_129:\n                /* \"#utility.yul\":6458:6463   */\n              0x00\n                /* \"#utility.yul\":6483:6549   */\n              tag_236\n                /* \"#utility.yul\":6499:6548   */\n              tag_237\n                /* \"#utility.yul\":6541:6547   */\n              dup5\n                /* \"#utility.yul\":6499:6548   */\n              tag_127\n              jump\t// in\n            tag_237:\n                /* \"#utility.yul\":6483:6549   */\n              tag_126\n              jump\t// in\n            tag_236:\n                /* \"#utility.yul\":6474:6549   */\n              swap1\n              pop\n                /* \"#utility.yul\":6572:6578   */\n              dup3\n                /* \"#utility.yul\":6565:6570   */\n              dup2\n                /* \"#utility.yul\":6558:6579   */\n              mstore\n                /* \"#utility.yul\":6610:6614   */\n              0x20\n                /* \"#utility.yul\":6603:6608   */\n              dup2\n                /* \"#utility.yul\":6599:6615   */\n              add\n                /* \"#utility.yul\":6648:6651   */\n              dup5\n                /* \"#utility.yul\":6639:6645   */\n              dup5\n                /* \"#utility.yul\":6634:6637   */\n              dup5\n                /* \"#utility.yul\":6630:6646   */\n              add\n                /* \"#utility.yul\":6627:6652   */\n              gt\n                /* \"#utility.yul\":6624:6736   */\n              iszero\n              tag_238\n              jumpi\n                /* \"#utility.yul\":6655:6734   */\n              tag_239\n              tag_123\n              jump\t// in\n            tag_239:\n                /* \"#utility.yul\":6624:6736   */\n            tag_238:\n                /* \"#utility.yul\":6745:6799   */\n              tag_240\n                /* \"#utility.yul\":6792:6798   */\n              dup5\n                /* \"#utility.yul\":6787:6790   */\n              dup3\n                /* \"#utility.yul\":6782:6785   */\n              dup6\n                /* \"#utility.yul\":6745:6799   */\n              tag_128\n              jump\t// in\n            tag_240:\n                /* \"#utility.yul\":6464:6805   */\n              pop\n                /* \"#utility.yul\":6380:6805   */\n              swap4\n              swap3\n              pop\n              pop\n              pop\n              jump\t// out\n                /* \"#utility.yul\":6825:7165   */\n            tag_130:\n                /* \"#utility.yul\":6881:6886   */\n              0x00\n                /* \"#utility.yul\":6930:6933   */\n              dup3\n                /* \"#utility.yul\":6923:6927   */\n              0x1f\n                /* \"#utility.yul\":6915:6921   */\n              dup4\n                /* \"#utility.yul\":6911:6928   */\n              add\n                /* \"#utility.yul\":6907:6934   */\n              slt\n                /* \"#utility.yul\":6897:7019   */\n              tag_242\n              jumpi\n                /* \"#utility.yul\":6938:7017   */\n              tag_243\n              tag_122\n              jump\t// in\n            tag_243:\n                /* \"#utility.yul\":6897:7019   */\n            tag_242:\n                /* \"#utility.yul\":7055:7061   */\n              dup2\n                /* \"#utility.yul\":7042:7062   */\n              calldataload\n                /* \"#utility.yul\":7080:7159   */\n              tag_244\n                /* \"#utility.yul\":7155:7158   */\n              dup5\n                /* \"#utility.yul\":7147:7153   */\n              dup3\n                /* \"#utility.yul\":7140:7144   */\n              0x20\n                /* \"#utility.yul\":7132:7138   */\n              dup7\n                /* \"#utility.yul\":7128:7145   */\n              add\n                /* \"#utility.yul\":7080:7159   */\n              tag_129\n              jump\t// in\n            tag_244:\n                /* \"#utility.yul\":7071:7159   */\n              swap2\n              pop\n                /* \"#utility.yul\":6887:7165   */\n              pop\n                /* \"#utility.yul\":6825:7165   */\n              swap3\n              swap2\n              pop\n              pop\n              jump\t// out\n                /* \"#utility.yul\":7171:7309   */\n            tag_131:\n                /* \"#utility.yul\":7252:7284   */\n              tag_246\n                /* \"#utility.yul\":7278:7283   */\n              dup2\n                /* \"#utility.yul\":7252:7284   */\n              tag_120\n              jump\t// in\n            tag_246:\n                /* \"#utility.yul\":7245:7250   */\n              dup2\n                /* \"#utility.yul\":7242:7285   */\n              eq\n                /* \"#utility.yul\":7232:7303   */\n              tag_247\n              jumpi\n                /* \"#utility.yul\":7299:7300   */\n              0x00\n                /* \"#utility.yul\":7296:7297   */\n              dup1\n                /* \"#utility.yul\":7289:7301   */\n              revert\n                /* \"#utility.yul\":7232:7303   */\n            tag_247:\n                /* \"#utility.yul\":7171:7309   */\n              pop\n              jump\t// out\n                /* \"#utility.yul\":7315:7470   */\n            tag_132:\n                /* \"#utility.yul\":7369:7374   */\n              0x00\n                /* \"#utility.yul\":7407:7413   */\n              dup2\n                /* \"#utility.yul\":7394:7414   */\n              calldataload\n                /* \"#utility.yul\":7385:7414   */\n              swap1\n              pop\n                /* \"#utility.yul\":7423:7464   */\n              tag_249\n                /* \"#utility.yul\":7458:7463   */\n              dup2\n                /* \"#utility.yul\":7423:7464   */\n              tag_131\n              jump\t// in\n            tag_249:\n                /* \"#utility.yul\":7315:7470   */\n              swap3\n              swap2\n              pop\n              pop\n              jump\t// out\n                /* \"#utility.yul\":7476:8291   */\n            tag_42:\n                /* \"#utility.yul\":7571:7577   */\n              0x00\n                /* \"#utility.yul\":7579:7585   */\n              dup1\n                /* \"#utility.yul\":7587:7593   */\n              0x00\n                /* \"#utility.yul\":7636:7638   */\n              0x60\n                /* \"#utility.yul\":7624:7633   */\n              dup5\n                /* \"#utility.yul\":7615:7622   */\n              dup7\n                /* \"#utility.yul\":7611:7634   */\n              sub\n                /* \"#utility.yul\":7607:7639   */\n              slt\n                /* \"#utility.yul\":7604:7723   */\n              iszero\n              tag_251\n              jumpi\n                /* \"#utility.yul\":7642:7721   */\n              tag_252\n              tag_102\n              jump\t// in\n            tag_252:\n                /* \"#utility.yul\":7604:7723   */\n            tag_251:\n                /* \"#utility.yul\":7790:7791   */\n              0x00\n                /* \"#utility.yul\":7779:7788   */\n              dup5\n                /* \"#utility.yul\":7775:7792   */\n              add\n                /* \"#utility.yul\":7762:7793   */\n              calldataload\n                /* \"#utility.yul\":7820:7838   */\n              0xffffffffffffffff\n                /* \"#utility.yul\":7812:7818   */\n              dup2\n                /* \"#utility.yul\":7809:7839   */\n              gt\n                /* \"#utility.yul\":7806:7923   */\n              iszero\n              tag_253\n              jumpi\n                /* \"#utility.yul\":7842:7921   */\n              tag_254\n              tag_103\n              jump\t// in\n            tag_254:\n                /* \"#utility.yul\":7806:7923   */\n            tag_253:\n                /* \"#utility.yul\":7947:8010   */\n              tag_255\n                /* \"#utility.yul\":8002:8009   */\n              dup7\n                /* \"#utility.yul\":7993:7999   */\n              dup3\n                /* \"#utility.yul\":7982:7991   */\n              dup8\n                /* \"#utility.yul\":7978:8000   */\n              add\n                /* \"#utility.yul\":7947:8010   */\n              tag_130\n              jump\t// in\n            tag_255:\n                /* \"#utility.yul\":7937:8010   */\n              swap4\n              pop\n                /* \"#utility.yul\":7733:8020   */\n              pop\n                /* \"#utility.yul\":8059:8061   */\n              0x20\n                /* \"#utility.yul\":8085:8138   */\n              tag_256\n                /* \"#utility.yul\":8130:8137   */\n              dup7\n                /* \"#utility.yul\":8121:8127   */\n              dup3\n                /* \"#utility.yul\":8110:8119   */\n              dup8\n                /* \"#utility.yul\":8106:8128   */\n              add\n                /* \"#utility.yul\":8085:8138   */\n              tag_106\n              jump\t// in\n            tag_256:\n                /* \"#utility.yul\":8075:8138   */\n              swap3\n              pop\n                /* \"#utility.yul\":8030:8148   */\n              pop\n                /* \"#utility.yul\":8187:8189   */\n              0x40\n                /* \"#utility.yul\":8213:8274   */\n              tag_257\n                /* \"#utility.yul\":8266:8273   */\n              dup7\n                /* \"#utility.yul\":8257:8263   */\n              dup3\n                /* \"#utility.yul\":8246:8255   */\n              dup8\n                /* \"#utility.yul\":8242:8264   */\n              add\n                /* \"#utility.yul\":8213:8274   */\n              tag_132\n              jump\t// in\n            tag_257:\n                /* \"#utility.yul\":8203:8274   */\n              swap2\n              pop\n                /* \"#utility.yul\":8158:8284   */\n              pop\n                /* \"#utility.yul\":7476:8291   */\n              swap3\n              pop\n              swap3\n              pop\n              swap3\n              jump\t// out\n                /* \"#utility.yul\":8297:8469   */\n            tag_133:\n                /* \"#utility.yul\":8437:8461   */\n              0x596f7520617265206e6f7420617574686f72697a656400000000000000000000\n                /* \"#utility.yul\":8433:8434   */\n              0x00\n                /* \"#utility.yul\":8425:8431   */\n              dup3\n                /* \"#utility.yul\":8421:8435   */\n              add\n                /* \"#utility.yul\":8414:8462   */\n              mstore\n                /* \"#utility.yul\":8297:8469   */\n              pop\n              jump\t// out\n                /* \"#utility.yul\":8475:8841   */\n            tag_134:\n                /* \"#utility.yul\":8617:8620   */\n              0x00\n                /* \"#utility.yul\":8638:8705   */\n              tag_260\n                /* \"#utility.yul\":8702:8704   */\n              0x16\n                /* \"#utility.yul\":8697:8700   */\n              dup4\n                /* \"#utility.yul\":8638:8705   */\n              tag_115\n              jump\t// in\n            tag_260:\n                /* \"#utility.yul\":8631:8705   */\n              swap2\n              pop\n                /* \"#utility.yul\":8714:8807   */\n              tag_261\n                /* \"#utility.yul\":8803:8806   */\n              dup3\n                /* \"#utility.yul\":8714:8807   */\n              tag_133\n              jump\t// in\n            tag_261:\n                /* \"#utility.yul\":8832:8834   */\n              0x20\n                /* \"#utility.yul\":8827:8830   */\n              dup3\n                /* \"#utility.yul\":8823:8835   */\n              add\n                /* \"#utility.yul\":8816:8835   */\n              swap1\n              pop\n                /* \"#utility.yul\":8475:8841   */\n              swap2\n              swap1\n              pop\n              jump\t// out\n                /* \"#utility.yul\":8847:9266   */\n            tag_57:\n                /* \"#utility.yul\":9013:9017   */\n              0x00\n                /* \"#utility.yul\":9051:9053   */\n              0x20\n                /* \"#utility.yul\":9040:9049   */\n              dup3\n                /* \"#utility.yul\":9036:9054   */\n              add\n                /* \"#utility.yul\":9028:9054   */\n              swap1\n              pop\n                /* \"#utility.yul\":9100:9109   */\n              dup2\n                /* \"#utility.yul\":9094:9098   */\n              dup2\n                /* \"#utility.yul\":9090:9110   */\n              sub\n                /* \"#utility.yul\":9086:9087   */\n              0x00\n                /* \"#utility.yul\":9075:9084   */\n              dup4\n                /* \"#utility.yul\":9071:9088   */\n              add\n                /* \"#utility.yul\":9064:9111   */\n              mstore\n                /* \"#utility.yul\":9128:9259   */\n              tag_263\n                /* \"#utility.yul\":9254:9258   */\n              dup2\n                /* \"#utility.yul\":9128:9259   */\n              tag_134\n              jump\t// in\n            tag_263:\n                /* \"#utility.yul\":9120:9259   */\n              swap1\n              pop\n                /* \"#utility.yul\":8847:9266   */\n              swap2\n              swap1\n              pop\n              jump\t// out\n                /* \"#utility.yul\":9272:9452   */\n            tag_61:\n                /* \"#utility.yul\":9320:9397   */\n              0x4e487b7100000000000000000000000000000000000000000000000000000000\n                /* \"#utility.yul\":9317:9318   */\n              0x00\n                /* \"#utility.yul\":9310:9398   */\n              mstore\n                /* \"#utility.yul\":9417:9421   */\n              0x32\n                /* \"#utility.yul\":9414:9415   */\n              0x04\n                /* \"#utility.yul\":9407:9422   */\n              mstore\n                /* \"#utility.yul\":9441:9445   */\n              0x24\n                /* \"#utility.yul\":9438:9439   */\n              0x00\n                /* \"#utility.yul\":9431:9446   */\n              revert\n                /* \"#utility.yul\":9458:9638   */\n            tag_135:\n                /* \"#utility.yul\":9506:9583   */\n              0x4e487b7100000000000000000000000000000000000000000000000000000000\n                /* \"#utility.yul\":9503:9504   */\n              0x00\n                /* \"#utility.yul\":9496:9584   */\n              mstore\n                /* \"#utility.yul\":9603:9607   */\n              0x12\n                /* \"#utility.yul\":9600:9601   */\n              0x04\n                /* \"#utility.yul\":9593:9608   */\n              mstore\n                /* \"#utility.yul\":9627:9631   */\n              0x24\n                /* \"#utility.yul\":9624:9625   */\n              0x00\n                /* \"#utility.yul\":9617:9632   */\n              revert\n                /* \"#utility.yul\":9644:9824   */\n            tag_136:\n                /* \"#utility.yul\":9692:9769   */\n              0x4e487b7100000000000000000000000000000000000000000000000000000000\n                /* \"#utility.yul\":9689:9690   */\n              0x00\n                /* \"#utility.yul\":9682:9770   */\n              mstore\n                /* \"#utility.yul\":9789:9793   */\n              0x11\n                /* \"#utility.yul\":9786:9787   */\n              0x04\n                /* \"#utility.yul\":9779:9794   */\n              mstore\n                /* \"#utility.yul\":9813:9817   */\n              0x24\n                /* \"#utility.yul\":9810:9811   */\n              0x00\n                /* \"#utility.yul\":9803:9818   */\n              revert\n                /* \"#utility.yul\":9830:10015   */\n            tag_65:\n                /* \"#utility.yul\":9870:9871   */\n              0x00\n                /* \"#utility.yul\":9887:9907   */\n              tag_268\n                /* \"#utility.yul\":9905:9906   */\n              dup3\n                /* \"#utility.yul\":9887:9907   */\n              tag_104\n              jump\t// in\n            tag_268:\n                /* \"#utility.yul\":9882:9907   */\n              swap2\n              pop\n                /* \"#utility.yul\":9921:9941   */\n              tag_269\n                /* \"#utility.yul\":9939:9940   */\n              dup4\n                /* \"#utility.yul\":9921:9941   */\n              tag_104\n              jump\t// in\n            tag_269:\n                /* \"#utility.yul\":9916:9941   */\n              swap3\n              pop\n                /* \"#utility.yul\":9960:9961   */\n              dup3\n                /* \"#utility.yul\":9950:9985   */\n              tag_270\n              jumpi\n                /* \"#utility.yul\":9965:9983   */\n              tag_271\n              tag_135\n              jump\t// in\n            tag_271:\n                /* \"#utility.yul\":9950:9985   */\n            tag_270:\n                /* \"#utility.yul\":10007:10008   */\n              dup3\n                /* \"#utility.yul\":10004:10005   */\n              dup3\n                /* \"#utility.yul\":10000:10009   */\n              div\n                /* \"#utility.yul\":9995:10009   */\n              swap1\n              pop\n                /* \"#utility.yul\":9830:10015   */\n              swap3\n              swap2\n              pop\n              pop\n              jump\t// out\n                /* \"#utility.yul\":10021:10201   */\n            tag_137:\n                /* \"#utility.yul\":10069:10146   */\n              0x4e487b7100000000000000000000000000000000000000000000000000000000\n                /* \"#utility.yul\":10066:10067   */\n              0x00\n                /* \"#utility.yul\":10059:10147   */\n              mstore\n                /* \"#utility.yul\":10166:10170   */\n              0x22\n                /* \"#utility.yul\":10163:10164   */\n              0x04\n                /* \"#utility.yul\":10156:10171   */\n              mstore\n                /* \"#utility.yul\":10190:10194   */\n              0x24\n                /* \"#utility.yul\":10187:10188   */\n              0x00\n                /* \"#utility.yul\":10180:10195   */\n              revert\n                /* \"#utility.yul\":10207:10527   */\n            tag_72:\n                /* \"#utility.yul\":10251:10257   */\n              0x00\n                /* \"#utility.yul\":10288:10289   */\n              0x02\n                /* \"#utility.yul\":10282:10286   */\n              dup3\n                /* \"#utility.yul\":10278:10290   */\n              div\n                /* \"#utility.yul\":10268:10290   */\n              swap1\n              pop\n                /* \"#utility.yul\":10335:10336   */\n              0x01\n                /* \"#utility.yul\":10329:10333   */\n              dup3\n                /* \"#utility.yul\":10325:10337   */\n              and\n                /* \"#utility.yul\":10356:10374   */\n              dup1\n                /* \"#utility.yul\":10346:10427   */\n              tag_274\n              jumpi\n                /* \"#utility.yul\":10412:10416   */\n              0x7f\n                /* \"#utility.yul\":10404:10410   */\n              dup3\n                /* \"#utility.yul\":10400:10417   */\n              and\n                /* \"#utility.yul\":10390:10417   */\n              swap2\n              pop\n                /* \"#utility.yul\":10346:10427   */\n            tag_274:\n                /* \"#utility.yul\":10474:10476   */\n              0x20\n                /* \"#utility.yul\":10466:10472   */\n              dup3\n                /* \"#utility.yul\":10463:10477   */\n              lt\n                /* \"#utility.yul\":10443:10461   */\n              dup2\n                /* \"#utility.yul\":10440:10478   */\n              sub\n                /* \"#utility.yul\":10437:10521   */\n              tag_275\n              jumpi\n                /* \"#utility.yul\":10493:10511   */\n              tag_276\n              tag_137\n              jump\t// in\n            tag_276:\n                /* \"#utility.yul\":10437:10521   */\n            tag_275:\n                /* \"#utility.yul\":10258:10527   */\n              pop\n                /* \"#utility.yul\":10207:10527   */\n              swap2\n              swap1\n              pop\n              jump\t// out\n                /* \"#utility.yul\":10533:10674   */\n            tag_138:\n                /* \"#utility.yul\":10582:10586   */\n              0x00\n                /* \"#utility.yul\":10605:10608   */\n              dup2\n                /* \"#utility.yul\":10597:10608   */\n              swap1\n              pop\n                /* \"#utility.yul\":10628:10631   */\n              dup2\n                /* \"#utility.yul\":10625:10626   */\n              0x00\n                /* \"#utility.yul\":10618:10632   */\n              mstore\n                /* \"#utility.yul\":10662:10666   */\n              0x20\n                /* \"#utility.yul\":10659:10660   */\n              0x00\n                /* \"#utility.yul\":10649:10667   */\n              keccak256\n                /* \"#utility.yul\":10641:10667   */\n              swap1\n              pop\n                /* \"#utility.yul\":10533:10674   */\n              swap2\n              swap1\n              pop\n              jump\t// out\n                /* \"#utility.yul\":10680:10773   */\n            tag_139:\n                /* \"#utility.yul\":10717:10723   */\n              0x00\n                /* \"#utility.yul\":10764:10766   */\n              0x20\n                /* \"#utility.yul\":10759:10761   */\n              0x1f\n                /* \"#utility.yul\":10752:10757   */\n              dup4\n                /* \"#utility.yul\":10748:10762   */\n              add\n                /* \"#utility.yul\":10744:10767   */\n              div\n                /* \"#utility.yul\":10734:10767   */\n              swap1\n              pop\n                /* \"#utility.yul\":10680:10773   */\n              swap2\n              swap1\n              pop\n              jump\t// out\n                /* \"#utility.yul\":10779:10886   */\n            tag_140:\n                /* \"#utility.yul\":10823:10831   */\n              0x00\n                /* \"#utility.yul\":10873:10878   */\n              dup3\n                /* \"#utility.yul\":10867:10871   */\n              dup3\n                /* \"#utility.yul\":10863:10879   */\n              shl\n                /* \"#utility.yul\":10842:10879   */\n              swap1\n              pop\n                /* \"#utility.yul\":10779:10886   */\n              swap3\n              swap2\n              pop\n              pop\n              jump\t// out\n                /* \"#utility.yul\":10892:11285   */\n            tag_141:\n                /* \"#utility.yul\":10961:10967   */\n              0x00\n                /* \"#utility.yul\":11011:11012   */\n              0x08\n                /* \"#utility.yul\":10999:11009   */\n              dup4\n                /* \"#utility.yul\":10995:11013   */\n              mul\n                /* \"#utility.yul\":11034:11131   */\n              tag_281\n                /* \"#utility.yul\":11064:11130   */\n              0xffffffffffffffffffffffffffffffffffffffffffffffffffffffffffffffff\n                /* \"#utility.yul\":11053:11062   */\n              dup3\n                /* \"#utility.yul\":11034:11131   */\n              tag_140\n              jump\t// in\n            tag_281:\n                /* \"#utility.yul\":11152:11191   */\n              tag_282\n                /* \"#utility.yul\":11182:11190   */\n              dup7\n                /* \"#utility.yul\":11171:11180   */\n              dup4\n                /* \"#utility.yul\":11152:11191   */\n              tag_140\n              jump\t// in\n            tag_282:\n                /* \"#utility.yul\":11140:11191   */\n              swap6\n              pop\n                /* \"#utility.yul\":11224:11228   */\n              dup1\n                /* \"#utility.yul\":11220:11229   */\n              not\n                /* \"#utility.yul\":11213:11218   */\n              dup5\n                /* \"#utility.yul\":11209:11230   */\n              and\n                /* \"#utility.yul\":11200:11230   */\n              swap4\n              pop\n                /* \"#utility.yul\":11273:11277   */\n              dup1\n                /* \"#utility.yul\":11263:11271   */\n              dup7\n                /* \"#utility.yul\":11259:11278   */\n              and\n                /* \"#utility.yul\":11252:11257   */\n              dup5\n                /* \"#utility.yul\":11249:11279   */\n              or\n                /* \"#utility.yul\":11239:11279   */\n              swap3\n              pop\n                /* \"#utility.yul\":10968:11285   */\n              pop\n              pop\n                /* \"#utility.yul\":10892:11285   */\n              swap4\n              swap3\n              pop\n              pop\n              pop\n              jump\t// out\n                /* \"#utility.yul\":11291:11351   */\n            tag_142:\n                /* \"#utility.yul\":11319:11322   */\n              0x00\n                /* \"#utility.yul\":11340:11345   */\n              dup2\n                /* \"#utility.yul\":11333:11345   */\n              swap1\n              pop\n                /* \"#utility.yul\":11291:11351   */\n              swap2\n              swap1\n              pop\n              jump\t// out\n                /* \"#utility.yul\":11357:11499   */\n            tag_143:\n                /* \"#utility.yul\":11407:11416   */\n              0x00\n                /* \"#utility.yul\":11440:11493   */\n              tag_285\n                /* \"#utility.yul\":11458:11492   */\n              tag_286\n                /* \"#utility.yul\":11467:11491   */\n              tag_287\n                /* \"#utility.yul\":11485:11490   */\n              dup5\n                /* \"#utility.yul\":11467:11491   */\n              tag_104\n              jump\t// in\n            tag_287:\n                /* \"#utility.yul\":11458:11492   */\n              tag_142\n              jump\t// in\n            tag_286:\n                /* \"#utility.yul\":11440:11493   */\n              tag_104\n              jump\t// in\n            tag_285:\n                /* \"#utility.yul\":11427:11493   */\n              swap1\n              pop\n                /* \"#utility.yul\":11357:11499   */\n              swap2\n              swap1\n              pop\n              jump\t// out\n                /* \"#utility.yul\":11505:11580   */\n            tag_144:\n                /* \"#utility.yul\":11548:11551   */\n              0x00\n                /* \"#utility.yul\":11569:11574   */\n              dup2\n                /* \"#utility.yul\":11562:11574   */\n              swap1\n              pop\n                /* \"#utility.yul\":11505:11580   */\n              swap2\n              swap1\n              pop\n              jump\t// out\n                /* \"#utility.yul\":11586:11855   */\n            tag_145:\n                /* \"#utility.yul\":11696:11735   */\n              tag_290\n                /* \"#utility.yul\":11727:11734   */\n              dup4\n                /* \"#utility.yul\":11696:11735   */\n              tag_143\n              jump\t// in\n            tag_290:\n                /* \"#utility.yul\":11757:11848   */\n              tag_291\n                /* \"#utility.yul\":11806:11847   */\n              tag_292\n                /* \"#utility.yul\":11830:11846   */\n              dup3\n                /* \"#utility.yul\":11806:11847   */\n              tag_144\n              jump\t// in\n            tag_292:\n                /* \"#utility.yul\":11798:11804   */\n              dup5\n                /* \"#utility.yul\":11791:11795   */\n              dup5\n                /* \"#utility.yul\":11785:11796   */\n              sload\n                /* \"#utility.yul\":11757:11848   */\n              tag_141\n              jump\t// in\n            tag_291:\n                /* \"#utility.yul\":11751:11755   */\n              dup3\n                /* \"#utility.yul\":11744:11849   */\n              sstore\n                /* \"#utility.yul\":11662:11855   */\n              pop\n                /* \"#utility.yul\":11586:11855   */\n              pop\n              pop\n              pop\n              jump\t// out\n                /* \"#utility.yul\":11861:11934   */\n            tag_146:\n                /* \"#utility.yul\":11906:11909   */\n              0x00\n                /* \"#utility.yul\":11861:11934   */\n              swap1\n              jump\t// out\n                /* \"#utility.yul\":11940:12129   */\n            tag_147:\n                /* \"#utility.yul\":12017:12049   */\n              tag_295\n              tag_146\n              jump\t// in\n            tag_295:\n                /* \"#utility.yul\":12058:12123   */\n              tag_296\n                /* \"#utility.yul\":12116:12122   */\n              dup2\n                /* \"#utility.yul\":12108:12114   */\n              dup5\n                /* \"#utility.yul\":12102:12106   */\n              dup5\n                /* \"#utility.yul\":12058:12123   */\n              tag_145\n              jump\t// in\n            tag_296:\n                /* \"#utility.yul\":11993:12129   */\n              pop\n                /* \"#utility.yul\":11940:12129   */\n              pop\n              pop\n              jump\t// out\n                /* \"#utility.yul\":12135:12321   */\n            tag_148:\n                /* \"#utility.yul\":12195:12315   */\n            tag_298:\n                /* \"#utility.yul\":12212:12215   */\n              dup2\n                /* \"#utility.yul\":12205:12210   */\n              dup2\n                /* \"#utility.yul\":12202:12216   */\n              lt\n                /* \"#utility.yul\":12195:12315   */\n              iszero\n              tag_300\n              jumpi\n                /* \"#utility.yul\":12266:12305   */\n              tag_301\n                /* \"#utility.yul\":12303:12304   */\n              0x00\n                /* \"#utility.yul\":12296:12301   */\n              dup3\n                /* \"#utility.yul\":12266:12305   */\n              tag_147\n              jump\t// in\n            tag_301:\n                /* \"#utility.yul\":12239:12240   */\n              0x01\n                /* \"#utility.yul\":12232:12237   */\n              dup2\n                /* \"#utility.yul\":12228:12241   */\n              add\n                /* \"#utility.yul\":12219:12241   */\n              swap1\n              pop\n                /* \"#utility.yul\":12195:12315   */\n              jump(tag_298)\n            tag_300:\n                /* \"#utility.yul\":12135:12321   */\n              pop\n              pop\n              jump\t// out\n                /* \"#utility.yul\":12327:12870   */\n            tag_149:\n                /* \"#utility.yul\":12428:12430   */\n              0x1f\n                /* \"#utility.yul\":12423:12426   */\n              dup3\n                /* \"#utility.yul\":12420:12431   */\n              gt\n                /* \"#utility.yul\":12417:12863   */\n              iszero\n              tag_303\n              jumpi\n                /* \"#utility.yul\":12462:12500   */\n              tag_304\n                /* \"#utility.yul\":12494:12499   */\n              dup2\n                /* \"#utility.yul\":12462:12500   */\n              tag_138\n              jump\t// in\n            tag_304:\n                /* \"#utility.yul\":12546:12575   */\n              tag_305\n                /* \"#utility.yul\":12564:12574   */\n              dup5\n                /* \"#utility.yul\":12546:12575   */\n              tag_139\n              jump\t// in\n            tag_305:\n                /* \"#utility.yul\":12536:12544   */\n              dup2\n                /* \"#utility.yul\":12532:12576   */\n              add\n                /* \"#utility.yul\":12729:12731   */\n              0x20\n                /* \"#utility.yul\":12717:12727   */\n              dup6\n                /* \"#utility.yul\":12714:12732   */\n              lt\n                /* \"#utility.yul\":12711:12760   */\n              iszero\n              tag_306\n              jumpi\n                /* \"#utility.yul\":12750:12758   */\n              dup2\n                /* \"#utility.yul\":12735:12758   */\n              swap1\n              pop\n                /* \"#utility.yul\":12711:12760   */\n            tag_306:\n                /* \"#utility.yul\":12773:12853   */\n              tag_307\n                /* \"#utility.yul\":12829:12851   */\n              tag_308\n                /* \"#utility.yul\":12847:12850   */\n              dup6\n                /* \"#utility.yul\":12829:12851   */\n              tag_139\n              jump\t// in\n            tag_308:\n                /* \"#utility.yul\":12819:12827   */\n              dup4\n                /* \"#utility.yul\":12815:12852   */\n              add\n                /* \"#utility.yul\":12802:12813   */\n              dup3\n                /* \"#utility.yul\":12773:12853   */\n              tag_148\n              jump\t// in\n            tag_307:\n                /* \"#utility.yul\":12432:12863   */\n              pop\n              pop\n                /* \"#utility.yul\":12417:12863   */\n            tag_303:\n                /* \"#utility.yul\":12327:12870   */\n              pop\n              pop\n              pop\n              jump\t// out\n                /* \"#utility.yul\":12876:12993   */\n            tag_150:\n                /* \"#utility.yul\":12930:12938   */\n              0x00\n                /* \"#utility.yul\":12980:12985   */\n              dup3\n                /* \"#utility.yul\":12974:12978   */\n              dup3\n                /* \"#utility.yul\":12970:12986   */\n              shr\n                /* \"#utility.yul\":12949:12986   */\n              swap1\n              pop\n                /* \"#utility.yul\":12876:12993   */\n              swap3\n              swap2\n              pop\n              pop\n              jump\t// out\n                /* \"#utility.yul\":12999:13168   */\n            tag_151:\n                /* \"#utility.yul\":13043:13049   */\n              0x00\n                /* \"#utility.yul\":13076:13127   */\n              tag_311\n                /* \"#utility.yul\":13124:13125   */\n              0x00\n                /* \"#utility.yul\":13120:13126   */\n              not\n                /* \"#utility.yul\":13112:13117   */\n              dup5\n                /* \"#utility.yul\":13109:13110   */\n              0x08\n                /* \"#utility.yul\":13105:13118   */\n              mul\n                /* \"#utility.yul\":13076:13127   */\n              tag_150\n              jump\t// in\n            tag_311:\n                /* \"#utility.yul\":13072:13128   */\n              not\n                /* \"#utility.yul\":13157:13161   */\n              dup1\n                /* \"#utility.yul\":13151:13155   */\n              dup4\n                /* \"#utility.yul\":13147:13162   */\n              and\n                /* \"#utility.yul\":13137:13162   */\n              swap2\n              pop\n                /* \"#utility.yul\":13050:13168   */\n              pop\n                /* \"#utility.yul\":12999:13168   */\n              swap3\n              swap2\n              pop\n              pop\n              jump\t// out\n                /* \"#utility.yul\":13173:13468   */\n            tag_152:\n                /* \"#utility.yul\":13249:13253   */\n              0x00\n                /* \"#utility.yul\":13395:13424   */\n              tag_313\n                /* \"#utility.yul\":13420:13423   */\n              dup4\n                /* \"#utility.yul\":13414:13418   */\n              dup4\n                /* \"#utility.yul\":13395:13424   */\n              tag_151\n              jump\t// in\n            tag_313:\n                /* \"#utility.yul\":13387:13424   */\n              swap2\n              pop\n                /* \"#utility.yul\":13457:13460   */\n              dup3\n                /* \"#utility.yul\":13454:13455   */\n              0x02\n                /* \"#utility.yul\":13450:13461   */\n              mul\n                /* \"#utility.yul\":13444:13448   */\n              dup3\n                /* \"#utility.yul\":13441:13462   */\n              or\n                /* \"#utility.yul\":13433:13462   */\n              swap1\n              pop\n                /* \"#utility.yul\":13173:13468   */\n              swap3\n              swap2\n              pop\n              pop\n              jump\t// out\n                /* \"#utility.yul\":13473:14868   */\n            tag_83:\n                /* \"#utility.yul\":13590:13627   */\n              tag_315\n                /* \"#utility.yul\":13623:13626   */\n              dup3\n                /* \"#utility.yul\":13590:13627   */\n              tag_114\n              jump\t// in\n            tag_315:\n                /* \"#utility.yul\":13692:13710   */\n              0xffffffffffffffff\n                /* \"#utility.yul\":13684:13690   */\n              dup2\n                /* \"#utility.yul\":13681:13711   */\n              gt\n                /* \"#utility.yul\":13678:13734   */\n              iszero\n              tag_316\n              jumpi\n                /* \"#utility.yul\":13714:13732   */\n              tag_317\n              tag_124\n              jump\t// in\n            tag_317:\n                /* \"#utility.yul\":13678:13734   */\n            tag_316:\n                /* \"#utility.yul\":13758:13796   */\n              tag_318\n                /* \"#utility.yul\":13790:13794   */\n              dup3\n                /* \"#utility.yul\":13784:13795   */\n              sload\n                /* \"#utility.yul\":13758:13796   */\n              tag_72\n              jump\t// in\n            tag_318:\n                /* \"#utility.yul\":13843:13910   */\n              tag_319\n                /* \"#utility.yul\":13903:13909   */\n              dup3\n                /* \"#utility.yul\":13895:13901   */\n              dup3\n                /* \"#utility.yul\":13889:13893   */\n              dup6\n                /* \"#utility.yul\":13843:13910   */\n              tag_149\n              jump\t// in\n            tag_319:\n                /* \"#utility.yul\":13937:13938   */\n              0x00\n                /* \"#utility.yul\":13961:13965   */\n              0x20\n                /* \"#utility.yul\":13948:13965   */\n              swap1\n              pop\n                /* \"#utility.yul\":13993:13995   */\n              0x1f\n                /* \"#utility.yul\":13985:13991   */\n              dup4\n                /* \"#utility.yul\":13982:13996   */\n              gt\n                /* \"#utility.yul\":14010:14011   */\n              0x01\n                /* \"#utility.yul\":14005:14623   */\n              dup2\n              eq\n              tag_321\n              jumpi\n                /* \"#utility.yul\":14667:14668   */\n              0x00\n                /* \"#utility.yul\":14684:14690   */\n              dup5\n                /* \"#utility.yul\":14681:14758   */\n              iszero\n              tag_322\n              jumpi\n                /* \"#utility.yul\":14733:14742   */\n              dup3\n                /* \"#utility.yul\":14728:14731   */\n              dup8\n                /* \"#utility.yul\":14724:14743   */\n              add\n                /* \"#utility.yul\":14718:14744   */\n              mload\n                /* \"#utility.yul\":14709:14744   */\n              swap1\n              pop\n                /* \"#utility.yul\":14681:14758   */\n            tag_322:\n                /* \"#utility.yul\":14784:14851   */\n              tag_323\n                /* \"#utility.yul\":14844:14850   */\n              dup6\n                /* \"#utility.yul\":14837:14842   */\n              dup3\n                /* \"#utility.yul\":14784:14851   */\n              tag_152\n              jump\t// in\n            tag_323:\n                /* \"#utility.yul\":14778:14782   */\n              dup7\n                /* \"#utility.yul\":14771:14852   */\n              sstore\n                /* \"#utility.yul\":14640:14862   */\n              pop\n                /* \"#utility.yul\":13975:14862   */\n              jump(tag_320)\n                /* \"#utility.yul\":14005:14623   */\n            tag_321:\n                /* \"#utility.yul\":14057:14061   */\n              0x1f\n                /* \"#utility.yul\":14053:14062   */\n              not\n                /* \"#utility.yul\":14045:14051   */\n              dup5\n                /* \"#utility.yul\":14041:14063   */\n              and\n                /* \"#utility.yul\":14091:14128   */\n              tag_324\n                /* \"#utility.yul\":14123:14127   */\n              dup7\n                /* \"#utility.yul\":14091:14128   */\n              tag_138\n              jump\t// in\n            tag_324:\n                /* \"#utility.yul\":14150:14151   */\n              0x00\n                /* \"#utility.yul\":14164:14372   */\n            tag_325:\n                /* \"#utility.yul\":14178:14185   */\n              dup3\n                /* \"#utility.yul\":14175:14176   */\n              dup2\n                /* \"#utility.yul\":14172:14186   */\n              lt\n                /* \"#utility.yul\":14164:14372   */\n              iszero\n              tag_327\n              jumpi\n                /* \"#utility.yul\":14257:14266   */\n              dup5\n                /* \"#utility.yul\":14252:14255   */\n              dup10\n                /* \"#utility.yul\":14248:14267   */\n              add\n                /* \"#utility.yul\":14242:14268   */\n              mload\n                /* \"#utility.yul\":14234:14240   */\n              dup3\n                /* \"#utility.yul\":14227:14269   */\n              sstore\n                /* \"#utility.yul\":14308:14309   */\n              0x01\n                /* \"#utility.yul\":14300:14306   */\n              dup3\n                /* \"#utility.yul\":14296:14310   */\n              add\n                /* \"#utility.yul\":14286:14310   */\n              swap2\n              pop\n                /* \"#utility.yul\":14355:14357   */\n              0x20\n                /* \"#utility.yul\":14344:14353   */\n              dup6\n                /* \"#utility.yul\":14340:14358   */\n              add\n                /* \"#utility.yul\":14327:14358   */\n              swap5\n              pop\n                /* \"#utility.yul\":14201:14205   */\n              0x20\n                /* \"#utility.yul\":14198:14199   */\n              dup2\n                /* \"#utility.yul\":14194:14206   */\n              add\n                /* \"#utility.yul\":14189:14206   */\n              swap1\n              pop\n                /* \"#utility.yul\":14164:14372   */\n              jump(tag_325)\n            tag_327:\n                /* \"#utility.yul\":14400:14406   */\n              dup7\n                /* \"#utility.yul\":14391:14398   */\n              dup4\n                /* \"#utility.yul\":14388:14407   */\n              lt\n                /* \"#utility.yul\":14385:14564   */\n              iszero\n              tag_328\n              jumpi\n                /* \"#utility.yul\":14458:14467   */\n              dup5\n                /* \"#utility.yul\":14453:14456   */\n              dup10\n                /* \"#utility.yul\":14449:14468   */\n              add\n                /* \"#utility.yul\":14443:14469   */\n              mload\n                /* \"#utility.yul\":14501:14549   */\n              tag_329\n                /* \"#utility.yul\":14543:14547   */\n              0x1f\n                /* \"#utility.yul\":14535:14541   */\n              dup10\n                /* \"#utility.yul\":14531:14548   */\n              and\n                /* \"#utility.yul\":14520:14529   */\n              dup3\n                /* \"#utility.yul\":14501:14549   */\n              tag_151\n              jump\t// in\n            tag_329:\n                /* \"#utility.yul\":14493:14499   */\n              dup4\n                /* \"#utility.yul\":14486:14550   */\n              sstore\n                /* \"#utility.yul\":14408:14564   */\n              pop\n                /* \"#utility.yul\":14385:14564   */\n            tag_328:\n                /* \"#utility.yul\":14610:14611   */\n              0x01\n                /* \"#utility.yul\":14606:14607   */\n              0x02\n                /* \"#utility.yul\":14598:14604   */\n              dup9\n                /* \"#utility.yul\":14594:14608   */\n              mul\n                /* \"#utility.yul\":14590:14612   */\n              add\n                /* \"#utility.yul\":14584:14588   */\n              dup9\n                /* \"#utility.yul\":14577:14613   */\n              sstore\n                /* \"#utility.yul\":14012:14623   */\n              pop\n              pop\n              pop\n                /* \"#utility.yul\":13975:14862   */\n            tag_320:\n              pop\n                /* \"#utility.yul\":13565:14868   */\n              pop\n              pop\n              pop\n                /* \"#utility.yul\":13473:14868   */\n              pop\n              pop\n              jump\t// out\n                /* \"#utility.yul\":14874:15046   */\n            tag_153:\n                /* \"#utility.yul\":15014:15038   */\n              0x536f7272792c20706c6561736520707574206d6f726500000000000000000000\n                /* \"#utility.yul\":15010:15011   */\n              0x00\n                /* \"#utility.yul\":15002:15008   */\n              dup3\n                /* \"#utility.yul\":14998:15012   */\n              add\n                /* \"#utility.yul\":14991:15039   */\n              mstore\n                /* \"#utility.yul\":14874:15046   */\n              pop\n              jump\t// out\n                /* \"#utility.yul\":15052:15418   */\n            tag_154:\n                /* \"#utility.yul\":15194:15197   */\n              0x00\n                /* \"#utility.yul\":15215:15282   */\n              tag_332\n                /* \"#utility.yul\":15279:15281   */\n              0x16\n                /* \"#utility.yul\":15274:15277   */\n              dup4\n                /* \"#utility.yul\":15215:15282   */\n              tag_115\n              jump\t// in\n            tag_332:\n                /* \"#utility.yul\":15208:15282   */\n              swap2\n              pop\n                /* \"#utility.yul\":15291:15384   */\n              tag_333\n                /* \"#utility.yul\":15380:15383   */\n              dup3\n                /* \"#utility.yul\":15291:15384   */\n              tag_153\n              jump\t// in\n            tag_333:\n                /* \"#utility.yul\":15409:15411   */\n              0x20\n                /* \"#utility.yul\":15404:15407   */\n              dup3\n                /* \"#utility.yul\":15400:15412   */\n              add\n                /* \"#utility.yul\":15393:15412   */\n              swap1\n              pop\n                /* \"#utility.yul\":15052:15418   */\n              swap2\n              swap1\n              pop\n              jump\t// out\n                /* \"#utility.yul\":15424:15843   */\n            tag_87:\n                /* \"#utility.yul\":15590:15594   */\n              0x00\n                /* \"#utility.yul\":15628:15630   */\n              0x20\n                /* \"#utility.yul\":15617:15626   */\n              dup3\n                /* \"#utility.yul\":15613:15631   */\n              add\n                /* \"#utility.yul\":15605:15631   */\n              swap1\n              pop\n                /* \"#utility.yul\":15677:15686   */\n              dup2\n                /* \"#utility.yul\":15671:15675   */\n              dup2\n                /* \"#utility.yul\":15667:15687   */\n              sub\n                /* \"#utility.yul\":15663:15664   */\n              0x00\n                /* \"#utility.yul\":15652:15661   */\n              dup4\n                /* \"#utility.yul\":15648:15665   */\n              add\n                /* \"#utility.yul\":15641:15688   */\n              mstore\n                /* \"#utility.yul\":15705:15836   */\n              tag_335\n                /* \"#utility.yul\":15831:15835   */\n              dup2\n                /* \"#utility.yul\":15705:15836   */\n              tag_154\n              jump\t// in\n            tag_335:\n                /* \"#utility.yul\":15697:15836   */\n              swap1\n              pop\n                /* \"#utility.yul\":15424:15843   */\n              swap2\n              swap1\n              pop\n              jump\t// out\n                /* \"#utility.yul\":15849:16082   */\n            tag_89:\n                /* \"#utility.yul\":15888:15891   */\n              0x00\n                /* \"#utility.yul\":15911:15935   */\n              tag_337\n                /* \"#utility.yul\":15929:15934   */\n              dup3\n                /* \"#utility.yul\":15911:15935   */\n              tag_104\n              jump\t// in\n            tag_337:\n                /* \"#utility.yul\":15902:15935   */\n              swap2\n              pop\n                /* \"#utility.yul\":15957:16023   */\n              0xffffffffffffffffffffffffffffffffffffffffffffffffffffffffffffffff\n                /* \"#utility.yul\":15950:15955   */\n              dup3\n                /* \"#utility.yul\":15947:16024   */\n              sub\n                /* \"#utility.yul\":15944:16047   */\n              tag_338\n              jumpi\n                /* \"#utility.yul\":16027:16045   */\n              tag_339\n              tag_136\n              jump\t// in\n            tag_339:\n                /* \"#utility.yul\":15944:16047   */\n            tag_338:\n                /* \"#utility.yul\":16074:16075   */\n              0x01\n                /* \"#utility.yul\":16067:16072   */\n              dup3\n                /* \"#utility.yul\":16063:16076   */\n              add\n                /* \"#utility.yul\":16056:16076   */\n              swap1\n              pop\n                /* \"#utility.yul\":15849:16082   */\n              swap2\n              swap1\n              pop\n              jump\t// out\n                /* \"#utility.yul\":16088:16270   */\n            tag_155:\n                /* \"#utility.yul\":16228:16262   */\n              0x536f7272792c20796f7520617265206e6f74206120636f6e7472696275746f72\n                /* \"#utility.yul\":16224:16225   */\n              0x00\n                /* \"#utility.yul\":16216:16222   */\n              dup3\n                /* \"#utility.yul\":16212:16226   */\n              add\n                /* \"#utility.yul\":16205:16263   */\n              mstore\n                /* \"#utility.yul\":16088:16270   */\n              pop\n              jump\t// out\n                /* \"#utility.yul\":16276:16642   */\n            tag_156:\n                /* \"#utility.yul\":16418:16421   */\n              0x00\n                /* \"#utility.yul\":16439:16506   */\n              tag_342\n                /* \"#utility.yul\":16503:16505   */\n              0x20\n                /* \"#utility.yul\":16498:16501   */\n              dup4\n                /* \"#utility.yul\":16439:16506   */\n              tag_115\n              jump\t// in\n            tag_342:\n                /* \"#utility.yul\":16432:16506   */\n              swap2\n              pop\n                /* \"#utility.yul\":16515:16608   */\n              tag_343\n                /* \"#utility.yul\":16604:16607   */\n              dup3\n                /* \"#utility.yul\":16515:16608   */\n              tag_155\n              jump\t// in\n            tag_343:\n                /* \"#utility.yul\":16633:16635   */\n              0x20\n                /* \"#utility.yul\":16628:16631   */\n              dup3\n                /* \"#utility.yul\":16624:16636   */\n              add\n                /* \"#utility.yul\":16617:16636   */\n              swap1\n              pop\n                /* \"#utility.yul\":16276:16642   */\n              swap2\n              swap1\n              pop\n              jump\t// out\n                /* \"#utility.yul\":16648:17067   */\n            tag_96:\n                /* \"#utility.yul\":16814:16818   */\n              0x00\n                /* \"#utility.yul\":16852:16854   */\n              0x20\n                /* \"#utility.yul\":16841:16850   */\n              dup3\n                /* \"#utility.yul\":16837:16855   */\n              add\n                /* \"#utility.yul\":16829:16855   */\n              swap1\n              pop\n                /* \"#utility.yul\":16901:16910   */\n              dup2\n                /* \"#utility.yul\":16895:16899   */\n              dup2\n                /* \"#utility.yul\":16891:16911   */\n              sub\n                /* \"#utility.yul\":16887:16888   */\n              0x00\n                /* \"#utility.yul\":16876:16885   */\n              dup4\n                /* \"#utility.yul\":16872:16889   */\n              add\n                /* \"#utility.yul\":16865:16912   */\n              mstore\n                /* \"#utility.yul\":16929:17060   */\n              tag_345\n                /* \"#utility.yul\":17055:17059   */\n              dup2\n                /* \"#utility.yul\":16929:17060   */\n              tag_156\n              jump\t// in\n            tag_345:\n                /* \"#utility.yul\":16921:17060   */\n              swap1\n              pop\n                /* \"#utility.yul\":16648:17067   */\n              swap2\n              swap1\n              pop\n              jump\t// out\n                /* \"#utility.yul\":17073:17253   */\n            tag_157:\n                /* \"#utility.yul\":17213:17245   */\n              0x536f7272792c20796f752063616e206f6e6c7920766f7465206f6e63652e0000\n                /* \"#utility.yul\":17209:17210   */\n              0x00\n                /* \"#utility.yul\":17201:17207   */\n              dup3\n                /* \"#utility.yul\":17197:17211   */\n              add\n                /* \"#utility.yul\":17190:17246   */\n              mstore\n                /* \"#utility.yul\":17073:17253   */\n              pop\n              jump\t// out\n                /* \"#utility.yul\":17259:17625   */\n            tag_158:\n                /* \"#utility.yul\":17401:17404   */\n              0x00\n                /* \"#utility.yul\":17422:17489   */\n              tag_348\n                /* \"#utility.yul\":17486:17488   */\n              0x1e\n                /* \"#utility.yul\":17481:17484   */\n              dup4\n                /* \"#utility.yul\":17422:17489   */\n              tag_115\n              jump\t// in\n            tag_348:\n                /* \"#utility.yul\":17415:17489   */\n              swap2\n              pop\n                /* \"#utility.yul\":17498:17591   */\n              tag_349\n                /* \"#utility.yul\":17587:17590   */\n              dup3\n                /* \"#utility.yul\":17498:17591   */\n              tag_157\n              jump\t// in\n            tag_349:\n                /* \"#utility.yul\":17616:17618   */\n              0x20\n                /* \"#utility.yul\":17611:17614   */\n              dup3\n                /* \"#utility.yul\":17607:17619   */\n              add\n                /* \"#utility.yul\":17600:17619   */\n              swap1\n              pop\n                /* \"#utility.yul\":17259:17625   */\n              swap2\n              swap1\n              pop\n              jump\t// out\n                /* \"#utility.yul\":17631:18050   */\n            tag_99:\n                /* \"#utility.yul\":17797:17801   */\n              0x00\n                /* \"#utility.yul\":17835:17837   */\n              0x20\n                /* \"#utility.yul\":17824:17833   */\n              dup3\n                /* \"#utility.yul\":17820:17838   */\n              add\n                /* \"#utility.yul\":17812:17838   */\n              swap1\n              pop\n                /* \"#utility.yul\":17884:17893   */\n              dup2\n                /* \"#utility.yul\":17878:17882   */\n              dup2\n                /* \"#utility.yul\":17874:17894   */\n              sub\n                /* \"#utility.yul\":17870:17871   */\n              0x00\n                /* \"#utility.yul\":17859:17868   */\n              dup4\n                /* \"#utility.yul\":17855:17872   */\n              add\n                /* \"#utility.yul\":17848:17895   */\n              mstore\n                /* \"#utility.yul\":17912:18043   */\n              tag_351\n                /* \"#utility.yul\":18038:18042   */\n              dup2\n                /* \"#utility.yul\":17912:18043   */\n              tag_158\n              jump\t// in\n            tag_351:\n                /* \"#utility.yul\":17904:18043   */\n              swap1\n              pop\n                /* \"#utility.yul\":17631:18050   */\n              swap2\n              swap1\n              pop\n              jump\t// out\n\n            auxdata: 0xa2646970667358221220c3788b43772040eff046a9c3c2cde5b5e01b8e05684e70dc2bfaad576e104f2664736f6c63430008130033\n        }\n    }\n\n    auxdata: 0xa2646970667358221220a40de954214d21b81bd6d15d23afb811b9b28812bc65237f98f3a4c38605bbff64736f6c63430008130033\n}\n","bytecode":{"linkReferences":{},"object":"608060405234801561001057600080fd5b5061186c806100206000396000f3fe608060405234801561001057600080fd5b50600436106100415760003560e01c8063339d50a51461004657806337ec992a146100765780634acb9d4f14610092575b600080fd5b610060600480360381019061005b9190610266565b6100b0565b60405161006d91906102d4565b60405180910390f35b610090600480360381019061008b9190610266565b6100ef565b005b61009a610190565b6040516100a791906103ad565b60405180910390f35b600081815481106100c057600080fd5b906000526020600020016000915054906101000a900473ffffffffffffffffffffffffffffffffffffffff1681565b600081336040516100ff9061021e565b61010a9291906103de565b604051809103906000f080158015610126573d6000803e3d6000fd5b5090506000819080600181540180825580915050600190039060005260206000200160009091909190916101000a81548173ffffffffffffffffffffffffffffffffffffffff021916908373ffffffffffffffffffffffffffffffffffffffff1602179055505050565b6060600080548060200260200160405190810160405280929190818152602001828054801561021457602002820191906000526020600020905b8160009054906101000a900473ffffffffffffffffffffffffffffffffffffffff1673ffffffffffffffffffffffffffffffffffffffff16815260200190600101908083116101ca575b5050505050905090565b61142f8061040883390190565b600080fd5b6000819050919050565b61024381610230565b811461024e57600080fd5b50565b6000813590506102608161023a565b92915050565b60006020828403121561027c5761027b61022b565b5b600061028a84828501610251565b91505092915050565b600073ffffffffffffffffffffffffffffffffffffffff82169050919050565b60006102be82610293565b9050919050565b6102ce816102b3565b82525050565b60006020820190506102e960008301846102c5565b92915050565b600081519050919050565b600082825260208201905092915050565b6000819050602082019050919050565b610324816102b3565b82525050565b6000610336838361031b565b60208301905092915050565b6000602082019050919050565b600061035a826102ef565b61036481856102fa565b935061036f8361030b565b8060005b838110156103a0578151610387888261032a565b975061039283610342565b925050600181019050610373565b5085935050505092915050565b600060208201905081810360008301526103c7818461034f565b905092915050565b6103d881610230565b82525050565b60006040820190506103f360008301856103cf565b61040060208301846102c5565b939250505056fe60806040523480156200001157600080fd5b506040516200142f3803806200142f83398181016040528101906200003791906200012c565b80600160006101000a81548173ffffffffffffffffffffffffffffffffffffffff021916908373ffffffffffffffffffffffffffffffffffffffff16021790555081600281905550505062000173565b600080fd5b6000819050919050565b620000a1816200008c565b8114620000ad57600080fd5b50565b600081519050620000c18162000096565b92915050565b600073ffffffffffffffffffffffffffffffffffffffff82169050919050565b6000620000f482620000c7565b9050919050565b6200010681620000e7565b81146200011257600080fd5b50565b6000815190506200012681620000fb565b92915050565b6000806040838503121562000146576200014562000087565b5b60006200015685828601620000b0565b9250506020620001698582860162000115565b9150509250929050565b6112ac80620001836000396000f3fe6080604052600436106100865760003560e01c806382fde0931161005957806382fde093146101505780638a9cfd551461017b578063937e09b1146101a4578063d7bb99ba146101cf578063d7d1bbdb146101d957610086565b8063034410061461008b5780630a144391146100a7578063481c6a75146100e457806381d12c581461010f575b600080fd5b6100a560048036038101906100a091906108c5565b610202565b005b3480156100b357600080fd5b506100ce60048036038101906100c99190610950565b610381565b6040516100db9190610998565b60405180910390f35b3480156100f057600080fd5b506100f96103a1565b60405161010691906109c2565b60405180910390f35b34801561011b57600080fd5b50610136600480360381019061013191906108c5565b6103c7565b604051610147959493929190610a9d565b60405180910390f35b34801561015c57600080fd5b506101656104c2565b6040516101729190610af7565b60405180910390f35b34801561018757600080fd5b506101a2600480360381019061019d9190610c73565b6104c8565b005b3480156101b057600080fd5b506101b9610606565b6040516101c69190610af7565b60405180910390f35b6101d761060c565b005b3480156101e557600080fd5b5061020060048036038101906101fb91906108c5565b6106c3565b005b600160009054906101000a900473ffffffffffffffffffffffffffffffffffffffff1673ffffffffffffffffffffffffffffffffffffffff163373ffffffffffffffffffffffffffffffffffffffff1614610292576040517f08c379a000000000000000000000000000000000000000000000000000000000815260040161028990610d2e565b60405180910390fd5b60008082815481106102a7576102a6610d4e565b5b906000526020600020906005020190508060020160149054906101000a900460ff16156102d357600080fd5b60026004546102e29190610ddb565b8160030154116102f157600080fd5b8060020160009054906101000a900473ffffffffffffffffffffffffffffffffffffffff1673ffffffffffffffffffffffffffffffffffffffff166108fc82600101549081150290604051600060405180830381858888f1935050505015801561035f573d6000803e3d6000fd5b5060018160020160146101000a81548160ff0219169083151502179055505050565b60036020528060005260406000206000915054906101000a900460ff1681565b600160009054906101000a900473ffffffffffffffffffffffffffffffffffffffff1681565b600081815481106103d757600080fd5b90600052602060002090600502016000915090508060000180546103fa90610e3b565b80601f016020809104026020016040519081016040528092919081815260200182805461042690610e3b565b80156104735780601f1061044857610100808354040283529160200191610473565b820191906000526020600020905b81548152906001019060200180831161045657829003601f168201915b5050505050908060010154908060020160009054906101000a900473ffffffffffffffffffffffffffffffffffffffff16908060020160149054906101000a900460ff16908060030154905085565b60045481565b600160009054906101000a900473ffffffffffffffffffffffffffffffffffffffff1673ffffffffffffffffffffffffffffffffffffffff163373ffffffffffffffffffffffffffffffffffffffff1614610558576040517f08c379a000000000000000000000000000000000000000000000000000000000815260040161054f90610d2e565b60405180910390fd5b60008060018160018154018082558091505003906000526020600020906005020190508381600001908161058c9190611018565b50828160010181905550818160020160006101000a81548173ffffffffffffffffffffffffffffffffffffffff021916908373ffffffffffffffffffffffffffffffffffffffff16021790555060008160020160146101000a81548160ff0219169083151502179055506000816003018190555050505050565b60025481565b600254341015610651576040517f08c379a000000000000000000000000000000000000000000000000000000000815260040161064890611136565b60405180910390fd5b6001600360003373ffffffffffffffffffffffffffffffffffffffff1673ffffffffffffffffffffffffffffffffffffffff16815260200190815260200160002060006101000a81548160ff021916908315150217905550600460008154809291906106bc90611156565b9190505550565b60008082815481106106d8576106d7610d4e565b5b90600052602060002090600502019050600360003373ffffffffffffffffffffffffffffffffffffffff1673ffffffffffffffffffffffffffffffffffffffff16815260200190815260200160002060009054906101000a900460ff16610774576040517f08c379a000000000000000000000000000000000000000000000000000000000815260040161076b906111ea565b60405180910390fd5b8060040160003373ffffffffffffffffffffffffffffffffffffffff1673ffffffffffffffffffffffffffffffffffffffff16815260200190815260200160002060009054906101000a900460ff1615610803576040517f08c379a00000000000000000000000000000000000000000000000000000000081526004016107fa90611256565b60405180910390fd5b60018160040160003373ffffffffffffffffffffffffffffffffffffffff1673ffffffffffffffffffffffffffffffffffffffff16815260200190815260200160002060006101000a81548160ff02191690831515021790555080600301600081548092919061087290611156565b91905055505050565b6000604051905090565b600080fd5b600080fd5b6000819050919050565b6108a28161088f565b81146108ad57600080fd5b50565b6000813590506108bf81610899565b92915050565b6000602082840312156108db576108da610885565b5b60006108e9848285016108b0565b91505092915050565b600073ffffffffffffffffffffffffffffffffffffffff82169050919050565b600061091d826108f2565b9050919050565b61092d81610912565b811461093857600080fd5b50565b60008135905061094a81610924565b92915050565b60006020828403121561096657610965610885565b5b60006109748482850161093b565b91505092915050565b60008115159050919050565b6109928161097d565b82525050565b60006020820190506109ad6000830184610989565b92915050565b6109bc81610912565b82525050565b60006020820190506109d760008301846109b3565b92915050565b600081519050919050565b600082825260208201905092915050565b60005b83811015610a175780820151818401526020810190506109fc565b60008484015250505050565b6000601f19601f8301169050919050565b6000610a3f826109dd565b610a4981856109e8565b9350610a598185602086016109f9565b610a6281610a23565b840191505092915050565b610a768161088f565b82525050565b6000610a87826108f2565b9050919050565b610a9781610a7c565b82525050565b600060a0820190508181036000830152610ab78188610a34565b9050610ac66020830187610a6d565b610ad36040830186610a8e565b610ae06060830185610989565b610aed6080830184610a6d565b9695505050505050565b6000602082019050610b0c6000830184610a6d565b92915050565b600080fd5b600080fd5b7f4e487b7100000000000000000000000000000000000000000000000000000000600052604160045260246000fd5b610b5482610a23565b810181811067ffffffffffffffff82111715610b7357610b72610b1c565b5b80604052505050565b6000610b8661087b565b9050610b928282610b4b565b919050565b600067ffffffffffffffff821115610bb257610bb1610b1c565b5b610bbb82610a23565b9050602081019050919050565b82818337600083830152505050565b6000610bea610be584610b97565b610b7c565b905082815260208101848484011115610c0657610c05610b17565b5b610c11848285610bc8565b509392505050565b600082601f830112610c2e57610c2d610b12565b5b8135610c3e848260208601610bd7565b91505092915050565b610c5081610a7c565b8114610c5b57600080fd5b50565b600081359050610c6d81610c47565b92915050565b600080600060608486031215610c8c57610c8b610885565b5b600084013567ffffffffffffffff811115610caa57610ca961088a565b5b610cb686828701610c19565b9350506020610cc7868287016108b0565b9250506040610cd886828701610c5e565b9150509250925092565b7f596f7520617265206e6f7420617574686f72697a656400000000000000000000600082015250565b6000610d186016836109e8565b9150610d2382610ce2565b602082019050919050565b60006020820190508181036000830152610d4781610d0b565b9050919050565b7f4e487b7100000000000000000000000000000000000000000000000000000000600052603260045260246000fd5b7f4e487b7100000000000000000000000000000000000000000000000000000000600052601260045260246000fd5b7f4e487b7100000000000000000000000000000000000000000000000000000000600052601160045260246000fd5b6000610de68261088f565b9150610df18361088f565b925082610e0157610e00610d7d565b5b828204905092915050565b7f4e487b7100000000000000000000000000000000000000000000000000000000600052602260045260246000fd5b60006002820490506001821680610e5357607f821691505b602082108103610e6657610e65610e0c565b5b50919050565b60008190508160005260206000209050919050565b60006020601f8301049050919050565b600082821b905092915050565b600060088302610ece7fffffffffffffffffffffffffffffffffffffffffffffffffffffffffffffffff82610e91565b610ed88683610e91565b95508019841693508086168417925050509392505050565b6000819050919050565b6000610f15610f10610f0b8461088f565b610ef0565b61088f565b9050919050565b6000819050919050565b610f2f83610efa565b610f43610f3b82610f1c565b848454610e9e565b825550505050565b600090565b610f58610f4b565b610f63818484610f26565b505050565b5b81811015610f8757610f7c600082610f50565b600181019050610f69565b5050565b601f821115610fcc57610f9d81610e6c565b610fa684610e81565b81016020851015610fb5578190505b610fc9610fc185610e81565b830182610f68565b50505b505050565b600082821c905092915050565b6000610fef60001984600802610fd1565b1980831691505092915050565b60006110088383610fde565b9150826002028217905092915050565b611021826109dd565b67ffffffffffffffff81111561103a57611039610b1c565b5b6110448254610e3b565b61104f828285610f8b565b600060209050601f8311600181146110825760008415611070578287015190505b61107a8582610ffc565b8655506110e2565b601f19841661109086610e6c565b60005b828110156110b857848901518255600182019150602085019450602081019050611093565b868310156110d557848901516110d1601f891682610fde565b8355505b6001600288020188555050505b505050505050565b7f536f7272792c20706c6561736520707574206d6f726500000000000000000000600082015250565b60006111206016836109e8565b915061112b826110ea565b602082019050919050565b6000602082019050818103600083015261114f81611113565b9050919050565b60006111618261088f565b91507fffffffffffffffffffffffffffffffffffffffffffffffffffffffffffffffff820361119357611192610dac565b5b600182019050919050565b7f536f7272792c20796f7520617265206e6f74206120636f6e7472696275746f72600082015250565b60006111d46020836109e8565b91506111df8261119e565b602082019050919050565b60006020820190508181036000830152611203816111c7565b9050919050565b7f536f7272792c20796f752063616e206f6e6c7920766f7465206f6e63652e0000600082015250565b6000611240601e836109e8565b915061124b8261120a565b602082019050919050565b6000602082019050818103600083015261126f81611233565b905091905056fea2646970667358221220c3788b43772040eff046a9c3c2cde5b5e01b8e05684e70dc2bfaad576e104f2664736f6c63430008130033a2646970667358221220a40de954214d21b81bd6d15d23afb811b9b28812bc65237f98f3a4c38605bbff64736f6c63430008130033","opcodes":"PUSH1 0x80 PUSH1 0x40 MSTORE CALLVALUE DUP1 ISZERO PUSH2 0x10 JUMPI PUSH1 0x0 DUP1 REVERT JUMPDEST POP PUSH2 0x186C DUP1 PUSH2 0x20 PUSH1 0x0 CODECOPY PUSH1 0x0 RETURN INVALID PUSH1 0x80 PUSH1 0x40 MSTORE CALLVALUE DUP1 ISZERO PUSH2 0x10 JUMPI PUSH1 0x0 DUP1 REVERT JUMPDEST POP PUSH1 0x4 CALLDATASIZE LT PUSH2 0x41 JUMPI PUSH1 0x0 CALLDATALOAD PUSH1 0xE0 SHR DUP1 PUSH4 0x339D50A5 EQ PUSH2 0x46 JUMPI DUP1 PUSH4 0x37EC992A EQ PUSH2 0x76 JUMPI DUP1 PUSH4 0x4ACB9D4F EQ PUSH2 0x92 JUMPI JUMPDEST PUSH1 0x0 DUP1 REVERT JUMPDEST PUSH2 0x60 PUSH1 0x4 DUP1 CALLDATASIZE SUB DUP2 ADD SWAP1 PUSH2 0x5B SWAP2 SWAP1 PUSH2 0x266 JUMP JUMPDEST PUSH2 0xB0 JUMP JUMPDEST PUSH1 0x40 MLOAD PUSH2 0x6D SWAP2 SWAP1 PUSH2 0x2D4 JUMP JUMPDEST PUSH1 0x40 MLOAD DUP1 SWAP2 SUB SWAP1 RETURN JUMPDEST PUSH2 0x90 PUSH1 0x4 DUP1 CALLDATASIZE SUB DUP2 ADD SWAP1 PUSH2 0x8B SWAP2 SWAP1 PUSH2 0x266 JUMP JUMPDEST PUSH2 0xEF JUMP JUMPDEST STOP JUMPDEST PUSH2 0x9A PUSH2 0x190 JUMP JUMPDEST PUSH1 0x40 MLOAD PUSH2 0xA7 SWAP2 SWAP1 PUSH2 0x3AD JUMP JUMPDEST PUSH1 0x40 MLOAD DUP1 SWAP2 SUB SWAP1 RETURN JUMPDEST PUSH1 0x0 DUP2 DUP2 SLOAD DUP2 LT PUSH2 0xC0 JUMPI PUSH1 0x0 DUP1 REVERT JUMPDEST SWAP1 PUSH1 0x0 MSTORE PUSH1 0x20 PUSH1 0x0 KECCAK256 ADD PUSH1 0x0 SWAP2 POP SLOAD SWAP1 PUSH2 0x100 EXP SWAP1 DIV PUSH20 0xFFFFFFFFFFFFFFFFFFFFFFFFFFFFFFFFFFFFFFFF AND DUP2 JUMP JUMPDEST PUSH1 0x0 DUP2 CALLER PUSH1 0x40 MLOAD PUSH2 0xFF SWAP1 PUSH2 0x21E JUMP JUMPDEST PUSH2 0x10A SWAP3 SWAP2 SWAP1 PUSH2 0x3DE JUMP JUMPDEST PUSH1 0x40 MLOAD DUP1 SWAP2 SUB SWAP1 PUSH1 0x0 CREATE DUP1 ISZERO DUP1 ISZERO PUSH2 0x126 JUMPI RETURNDATASIZE PUSH1 0x0 DUP1 RETURNDATACOPY RETURNDATASIZE PUSH1 0x0 REVERT JUMPDEST POP SWAP1 POP PUSH1 0x0 DUP2 SWAP1 DUP1 PUSH1 0x1 DUP2 SLOAD ADD DUP1 DUP3 SSTORE DUP1 SWAP2 POP POP PUSH1 0x1 SWAP1 SUB SWAP1 PUSH1 0x0 MSTORE PUSH1 0x20 PUSH1 0x0 KECCAK256 ADD PUSH1 0x0 SWAP1 SWAP2 SWAP1 SWAP2 SWAP1 SWAP2 PUSH2 0x100 EXP DUP2 SLOAD DUP2 PUSH20 0xFFFFFFFFFFFFFFFFFFFFFFFFFFFFFFFFFFFFFFFF MUL NOT AND SWAP1 DUP4 PUSH20 0xFFFFFFFFFFFFFFFFFFFFFFFFFFFFFFFFFFFFFFFF AND MUL OR SWAP1 SSTORE POP POP POP JUMP JUMPDEST PUSH1 0x60 PUSH1 0x0 DUP1 SLOAD DUP1 PUSH1 0x20 MUL PUSH1 0x20 ADD PUSH1 0x40 MLOAD SWAP1 DUP2 ADD PUSH1 0x40 MSTORE DUP1 SWAP3 SWAP2 SWAP1 DUP2 DUP2 MSTORE PUSH1 0x20 ADD DUP3 DUP1 SLOAD DUP1 ISZERO PUSH2 0x214 JUMPI PUSH1 0x20 MUL DUP3 ADD SWAP2 SWAP1 PUSH1 0x0 MSTORE PUSH1 0x20 PUSH1 0x0 KECCAK256 SWAP1 JUMPDEST DUP2 PUSH1 0x0 SWAP1 SLOAD SWAP1 PUSH2 0x100 EXP SWAP1 DIV PUSH20 0xFFFFFFFFFFFFFFFFFFFFFFFFFFFFFFFFFFFFFFFF AND PUSH20 0xFFFFFFFFFFFFFFFFFFFFFFFFFFFFFFFFFFFFFFFF AND DUP2 MSTORE PUSH1 0x20 ADD SWAP1 PUSH1 0x1 ADD SWAP1 DUP1 DUP4 GT PUSH2 0x1CA JUMPI JUMPDEST POP POP POP POP POP SWAP1 POP SWAP1 JUMP JUMPDEST PUSH2 0x142F DUP1 PUSH2 0x408 DUP4 CODECOPY ADD SWAP1 JUMP JUMPDEST PUSH1 0x0 DUP1 REVERT JUMPDEST PUSH1 0x0 DUP2 SWAP1 POP SWAP2 SWAP1 POP JUMP JUMPDEST PUSH2 0x243 DUP2 PUSH2 0x230 JUMP JUMPDEST DUP2 EQ PUSH2 0x24E JUMPI PUSH1 0x0 DUP1 REVERT JUMPDEST POP JUMP JUMPDEST PUSH1 0x0 DUP2 CALLDATALOAD SWAP1 POP PUSH2 0x260 DUP2 PUSH2 0x23A JUMP JUMPDEST SWAP3 SWAP2 POP POP JUMP JUMPDEST PUSH1 0x0 PUSH1 0x20 DUP3 DUP5 SUB SLT ISZERO PUSH2 0x27C JUMPI PUSH2 0x27B PUSH2 0x22B JUMP JUMPDEST JUMPDEST PUSH1 0x0 PUSH2 0x28A DUP5 DUP3 DUP6 ADD PUSH2 0x251 JUMP JUMPDEST SWAP2 POP POP SWAP3 SWAP2 POP POP JUMP JUMPDEST PUSH1 0x0 PUSH20 0xFFFFFFFFFFFFFFFFFFFFFFFFFFFFFFFFFFFFFFFF DUP3 AND SWAP1 POP SWAP2 SWAP1 POP JUMP JUMPDEST PUSH1 0x0 PUSH2 0x2BE DUP3 PUSH2 0x293 JUMP JUMPDEST SWAP1 POP SWAP2 SWAP1 POP JUMP JUMPDEST PUSH2 0x2CE DUP2 PUSH2 0x2B3 JUMP JUMPDEST DUP3 MSTORE POP POP JUMP JUMPDEST PUSH1 0x0 PUSH1 0x20 DUP3 ADD SWAP1 POP PUSH2 0x2E9 PUSH1 0x0 DUP4 ADD DUP5 PUSH2 0x2C5 JUMP JUMPDEST SWAP3 SWAP2 POP POP JUMP JUMPDEST PUSH1 0x0 DUP2 MLOAD SWAP1 POP SWAP2 SWAP1 POP JUMP JUMPDEST PUSH1 0x0 DUP3 DUP3 MSTORE PUSH1 0x20 DUP3 ADD SWAP1 POP SWAP3 SWAP2 POP POP JUMP JUMPDEST PUSH1 0x0 DUP2 SWAP1 POP PUSH1 0x20 DUP3 ADD SWAP1 POP SWAP2 SWAP1 POP JUMP JUMPDEST PUSH2 0x324 DUP2 PUSH2 0x2B3 JUMP JUMPDEST DUP3 MSTORE POP POP JUMP JUMPDEST PUSH1 0x0 PUSH2 0x336 DUP4 DUP4 PUSH2 0x31B JUMP JUMPDEST PUSH1 0x20 DUP4 ADD SWAP1 POP SWAP3 SWAP2 POP POP JUMP JUMPDEST PUSH1 0x0 PUSH1 0x20 DUP3 ADD SWAP1 POP SWAP2 SWAP1 POP JUMP JUMPDEST PUSH1 0x0 PUSH2 0x35A DUP3 PUSH2 0x2EF JUMP JUMPDEST PUSH2 0x364 DUP2 DUP6 PUSH2 0x2FA JUMP JUMPDEST SWAP4 POP PUSH2 0x36F DUP4 PUSH2 0x30B JUMP JUMPDEST DUP1 PUSH1 0x0 JUMPDEST DUP4 DUP2 LT ISZERO PUSH2 0x3A0 JUMPI DUP2 MLOAD PUSH2 0x387 DUP9 DUP3 PUSH2 0x32A JUMP JUMPDEST SWAP8 POP PUSH2 0x392 DUP4 PUSH2 0x342 JUMP JUMPDEST SWAP3 POP POP PUSH1 0x1 DUP2 ADD SWAP1 POP PUSH2 0x373 JUMP JUMPDEST POP DUP6 SWAP4 POP POP POP POP SWAP3 SWAP2 POP POP JUMP JUMPDEST PUSH1 0x0 PUSH1 0x20 DUP3 ADD SWAP1 POP DUP2 DUP2 SUB PUSH1 0x0 DUP4 ADD MSTORE PUSH2 0x3C7 DUP2 DUP5 PUSH2 0x34F JUMP JUMPDEST SWAP1 POP SWAP3 SWAP2 POP POP JUMP JUMPDEST PUSH2 0x3D8 DUP2 PUSH2 0x230 JUMP JUMPDEST DUP3 MSTORE POP POP JUMP JUMPDEST PUSH1 0x0 PUSH1 0x40 DUP3 ADD SWAP1 POP PUSH2 0x3F3 PUSH1 0x0 DUP4 ADD DUP6 PUSH2 0x3CF JUMP JUMPDEST PUSH2 0x400 PUSH1 0x20 DUP4 ADD DUP5 PUSH2 0x2C5 JUMP JUMPDEST SWAP4 SWAP3 POP POP POP JUMP INVALID PUSH1 0x80 PUSH1 0x40 MSTORE CALLVALUE DUP1 ISZERO PUSH3 0x11 JUMPI PUSH1 0x0 DUP1 REVERT JUMPDEST POP PUSH1 0x40 MLOAD PUSH3 0x142F CODESIZE SUB DUP1 PUSH3 0x142F DUP4 CODECOPY DUP2 DUP2 ADD PUSH1 0x40 MSTORE DUP2 ADD SWAP1 PUSH3 0x37 SWAP2 SWAP1 PUSH3 0x12C JUMP JUMPDEST DUP1 PUSH1 0x1 PUSH1 0x0 PUSH2 0x100 EXP DUP2 SLOAD DUP2 PUSH20 0xFFFFFFFFFFFFFFFFFFFFFFFFFFFFFFFFFFFFFFFF MUL NOT AND SWAP1 DUP4 PUSH20 0xFFFFFFFFFFFFFFFFFFFFFFFFFFFFFFFFFFFFFFFF AND MUL OR SWAP1 SSTORE POP DUP2 PUSH1 0x2 DUP2 SWAP1 SSTORE POP POP POP PUSH3 0x173 JUMP JUMPDEST PUSH1 0x0 DUP1 REVERT JUMPDEST PUSH1 0x0 DUP2 SWAP1 POP SWAP2 SWAP1 POP JUMP JUMPDEST PUSH3 0xA1 DUP2 PUSH3 0x8C JUMP JUMPDEST DUP2 EQ PUSH3 0xAD JUMPI PUSH1 0x0 DUP1 REVERT JUMPDEST POP JUMP JUMPDEST PUSH1 0x0 DUP2 MLOAD SWAP1 POP PUSH3 0xC1 DUP2 PUSH3 0x96 JUMP JUMPDEST SWAP3 SWAP2 POP POP JUMP JUMPDEST PUSH1 0x0 PUSH20 0xFFFFFFFFFFFFFFFFFFFFFFFFFFFFFFFFFFFFFFFF DUP3 AND SWAP1 POP SWAP2 SWAP1 POP JUMP JUMPDEST PUSH1 0x0 PUSH3 0xF4 DUP3 PUSH3 0xC7 JUMP JUMPDEST SWAP1 POP SWAP2 SWAP1 POP JUMP JUMPDEST PUSH3 0x106 DUP2 PUSH3 0xE7 JUMP JUMPDEST DUP2 EQ PUSH3 0x112 JUMPI PUSH1 0x0 DUP1 REVERT JUMPDEST POP JUMP JUMPDEST PUSH1 0x0 DUP2 MLOAD SWAP1 POP PUSH3 0x126 DUP2 PUSH3 0xFB JUMP JUMPDEST SWAP3 SWAP2 POP POP JUMP JUMPDEST PUSH1 0x0 DUP1 PUSH1 0x40 DUP4 DUP6 SUB SLT ISZERO PUSH3 0x146 JUMPI PUSH3 0x145 PUSH3 0x87 JUMP JUMPDEST JUMPDEST PUSH1 0x0 PUSH3 0x156 DUP6 DUP3 DUP7 ADD PUSH3 0xB0 JUMP JUMPDEST SWAP3 POP POP PUSH1 0x20 PUSH3 0x169 DUP6 DUP3 DUP7 ADD PUSH3 0x115 JUMP JUMPDEST SWAP2 POP POP SWAP3 POP SWAP3 SWAP1 POP JUMP JUMPDEST PUSH2 0x12AC DUP1 PUSH3 0x183 PUSH1 0x0 CODECOPY PUSH1 0x0 RETURN INVALID PUSH1 0x80 PUSH1 0x40 MSTORE PUSH1 0x4 CALLDATASIZE LT PUSH2 0x86 JUMPI PUSH1 0x0 CALLDATALOAD PUSH1 0xE0 SHR DUP1 PUSH4 0x82FDE093 GT PUSH2 0x59 JUMPI DUP1 PUSH4 0x82FDE093 EQ PUSH2 0x150 JUMPI DUP1 PUSH4 0x8A9CFD55 EQ PUSH2 0x17B JUMPI DUP1 PUSH4 0x937E09B1 EQ PUSH2 0x1A4 JUMPI DUP1 PUSH4 0xD7BB99BA EQ PUSH2 0x1CF JUMPI DUP1 PUSH4 0xD7D1BBDB EQ PUSH2 0x1D9 JUMPI PUSH2 0x86 JUMP JUMPDEST DUP1 PUSH4 0x3441006 EQ PUSH2 0x8B JUMPI DUP1 PUSH4 0xA144391 EQ PUSH2 0xA7 JUMPI DUP1 PUSH4 0x481C6A75 EQ PUSH2 0xE4 JUMPI DUP1 PUSH4 0x81D12C58 EQ PUSH2 0x10F JUMPI JUMPDEST PUSH1 0x0 DUP1 REVERT JUMPDEST PUSH2 0xA5 PUSH1 0x4 DUP1 CALLDATASIZE SUB DUP2 ADD SWAP1 PUSH2 0xA0 SWAP2 SWAP1 PUSH2 0x8C5 JUMP JUMPDEST PUSH2 0x202 JUMP JUMPDEST STOP JUMPDEST CALLVALUE DUP1 ISZERO PUSH2 0xB3 JUMPI PUSH1 0x0 DUP1 REVERT JUMPDEST POP PUSH2 0xCE PUSH1 0x4 DUP1 CALLDATASIZE SUB DUP2 ADD SWAP1 PUSH2 0xC9 SWAP2 SWAP1 PUSH2 0x950 JUMP JUMPDEST PUSH2 0x381 JUMP JUMPDEST PUSH1 0x40 MLOAD PUSH2 0xDB SWAP2 SWAP1 PUSH2 0x998 JUMP JUMPDEST PUSH1 0x40 MLOAD DUP1 SWAP2 SUB SWAP1 RETURN JUMPDEST CALLVALUE DUP1 ISZERO PUSH2 0xF0 JUMPI PUSH1 0x0 DUP1 REVERT JUMPDEST POP PUSH2 0xF9 PUSH2 0x3A1 JUMP JUMPDEST PUSH1 0x40 MLOAD PUSH2 0x106 SWAP2 SWAP1 PUSH2 0x9C2 JUMP JUMPDEST PUSH1 0x40 MLOAD DUP1 SWAP2 SUB SWAP1 RETURN JUMPDEST CALLVALUE DUP1 ISZERO PUSH2 0x11B JUMPI PUSH1 0x0 DUP1 REVERT JUMPDEST POP PUSH2 0x136 PUSH1 0x4 DUP1 CALLDATASIZE SUB DUP2 ADD SWAP1 PUSH2 0x131 SWAP2 SWAP1 PUSH2 0x8C5 JUMP JUMPDEST PUSH2 0x3C7 JUMP JUMPDEST PUSH1 0x40 MLOAD PUSH2 0x147 SWAP6 SWAP5 SWAP4 SWAP3 SWAP2 SWAP1 PUSH2 0xA9D JUMP JUMPDEST PUSH1 0x40 MLOAD DUP1 SWAP2 SUB SWAP1 RETURN JUMPDEST CALLVALUE DUP1 ISZERO PUSH2 0x15C JUMPI PUSH1 0x0 DUP1 REVERT JUMPDEST POP PUSH2 0x165 PUSH2 0x4C2 JUMP JUMPDEST PUSH1 0x40 MLOAD PUSH2 0x172 SWAP2 SWAP1 PUSH2 0xAF7 JUMP JUMPDEST PUSH1 0x40 MLOAD DUP1 SWAP2 SUB SWAP1 RETURN JUMPDEST CALLVALUE DUP1 ISZERO PUSH2 0x187 JUMPI PUSH1 0x0 DUP1 REVERT JUMPDEST POP PUSH2 0x1A2 PUSH1 0x4 DUP1 CALLDATASIZE SUB DUP2 ADD SWAP1 PUSH2 0x19D SWAP2 SWAP1 PUSH2 0xC73 JUMP JUMPDEST PUSH2 0x4C8 JUMP JUMPDEST STOP JUMPDEST CALLVALUE DUP1 ISZERO PUSH2 0x1B0 JUMPI PUSH1 0x0 DUP1 REVERT JUMPDEST POP PUSH2 0x1B9 PUSH2 0x606 JUMP JUMPDEST PUSH1 0x40 MLOAD PUSH2 0x1C6 SWAP2 SWAP1 PUSH2 0xAF7 JUMP JUMPDEST PUSH1 0x40 MLOAD DUP1 SWAP2 SUB SWAP1 RETURN JUMPDEST PUSH2 0x1D7 PUSH2 0x60C JUMP JUMPDEST STOP JUMPDEST CALLVALUE DUP1 ISZERO PUSH2 0x1E5 JUMPI PUSH1 0x0 DUP1 REVERT JUMPDEST POP PUSH2 0x200 PUSH1 0x4 DUP1 CALLDATASIZE SUB DUP2 ADD SWAP1 PUSH2 0x1FB SWAP2 SWAP1 PUSH2 0x8C5 JUMP JUMPDEST PUSH2 0x6C3 JUMP JUMPDEST STOP JUMPDEST PUSH1 0x1 PUSH1 0x0 SWAP1 SLOAD SWAP1 PUSH2 0x100 EXP SWAP1 DIV PUSH20 0xFFFFFFFFFFFFFFFFFFFFFFFFFFFFFFFFFFFFFFFF AND PUSH20 0xFFFFFFFFFFFFFFFFFFFFFFFFFFFFFFFFFFFFFFFF AND CALLER PUSH20 0xFFFFFFFFFFFFFFFFFFFFFFFFFFFFFFFFFFFFFFFF AND EQ PUSH2 0x292 JUMPI PUSH1 0x40 MLOAD PUSH32 0x8C379A000000000000000000000000000000000000000000000000000000000 DUP2 MSTORE PUSH1 0x4 ADD PUSH2 0x289 SWAP1 PUSH2 0xD2E JUMP JUMPDEST PUSH1 0x40 MLOAD DUP1 SWAP2 SUB SWAP1 REVERT JUMPDEST PUSH1 0x0 DUP1 DUP3 DUP2 SLOAD DUP2 LT PUSH2 0x2A7 JUMPI PUSH2 0x2A6 PUSH2 0xD4E JUMP JUMPDEST JUMPDEST SWAP1 PUSH1 0x0 MSTORE PUSH1 0x20 PUSH1 0x0 KECCAK256 SWAP1 PUSH1 0x5 MUL ADD SWAP1 POP DUP1 PUSH1 0x2 ADD PUSH1 0x14 SWAP1 SLOAD SWAP1 PUSH2 0x100 EXP SWAP1 DIV PUSH1 0xFF AND ISZERO PUSH2 0x2D3 JUMPI PUSH1 0x0 DUP1 REVERT JUMPDEST PUSH1 0x2 PUSH1 0x4 SLOAD PUSH2 0x2E2 SWAP2 SWAP1 PUSH2 0xDDB JUMP JUMPDEST DUP2 PUSH1 0x3 ADD SLOAD GT PUSH2 0x2F1 JUMPI PUSH1 0x0 DUP1 REVERT JUMPDEST DUP1 PUSH1 0x2 ADD PUSH1 0x0 SWAP1 SLOAD SWAP1 PUSH2 0x100 EXP SWAP1 DIV PUSH20 0xFFFFFFFFFFFFFFFFFFFFFFFFFFFFFFFFFFFFFFFF AND PUSH20 0xFFFFFFFFFFFFFFFFFFFFFFFFFFFFFFFFFFFFFFFF AND PUSH2 0x8FC DUP3 PUSH1 0x1 ADD SLOAD SWAP1 DUP2 ISZERO MUL SWAP1 PUSH1 0x40 MLOAD PUSH1 0x0 PUSH1 0x40 MLOAD DUP1 DUP4 SUB DUP2 DUP6 DUP9 DUP9 CALL SWAP4 POP POP POP POP ISZERO DUP1 ISZERO PUSH2 0x35F JUMPI RETURNDATASIZE PUSH1 0x0 DUP1 RETURNDATACOPY RETURNDATASIZE PUSH1 0x0 REVERT JUMPDEST POP PUSH1 0x1 DUP2 PUSH1 0x2 ADD PUSH1 0x14 PUSH2 0x100 EXP DUP2 SLOAD DUP2 PUSH1 0xFF MUL NOT AND SWAP1 DUP4 ISZERO ISZERO MUL OR SWAP1 SSTORE POP POP POP JUMP JUMPDEST PUSH1 0x3 PUSH1 0x20 MSTORE DUP1 PUSH1 0x0 MSTORE PUSH1 0x40 PUSH1 0x0 KECCAK256 PUSH1 0x0 SWAP2 POP SLOAD SWAP1 PUSH2 0x100 EXP SWAP1 DIV PUSH1 0xFF AND DUP2 JUMP JUMPDEST PUSH1 0x1 PUSH1 0x0 SWAP1 SLOAD SWAP1 PUSH2 0x100 EXP SWAP1 DIV PUSH20 0xFFFFFFFFFFFFFFFFFFFFFFFFFFFFFFFFFFFFFFFF AND DUP2 JUMP JUMPDEST PUSH1 0x0 DUP2 DUP2 SLOAD DUP2 LT PUSH2 0x3D7 JUMPI PUSH1 0x0 DUP1 REVERT JUMPDEST SWAP1 PUSH1 0x0 MSTORE PUSH1 0x20 PUSH1 0x0 KECCAK256 SWAP1 PUSH1 0x5 MUL ADD PUSH1 0x0 SWAP2 POP SWAP1 POP DUP1 PUSH1 0x0 ADD DUP1 SLOAD PUSH2 0x3FA SWAP1 PUSH2 0xE3B JUMP JUMPDEST DUP1 PUSH1 0x1F ADD PUSH1 0x20 DUP1 SWAP2 DIV MUL PUSH1 0x20 ADD PUSH1 0x40 MLOAD SWAP1 DUP2 ADD PUSH1 0x40 MSTORE DUP1 SWAP3 SWAP2 SWAP1 DUP2 DUP2 MSTORE PUSH1 0x20 ADD DUP3 DUP1 SLOAD PUSH2 0x426 SWAP1 PUSH2 0xE3B JUMP JUMPDEST DUP1 ISZERO PUSH2 0x473 JUMPI DUP1 PUSH1 0x1F LT PUSH2 0x448 JUMPI PUSH2 0x100 DUP1 DUP4 SLOAD DIV MUL DUP4 MSTORE SWAP2 PUSH1 0x20 ADD SWAP2 PUSH2 0x473 JUMP JUMPDEST DUP3 ADD SWAP2 SWAP1 PUSH1 0x0 MSTORE PUSH1 0x20 PUSH1 0x0 KECCAK256 SWAP1 JUMPDEST DUP2 SLOAD DUP2 MSTORE SWAP1 PUSH1 0x1 ADD SWAP1 PUSH1 0x20 ADD DUP1 DUP4 GT PUSH2 0x456 JUMPI DUP3 SWAP1 SUB PUSH1 0x1F AND DUP3 ADD SWAP2 JUMPDEST POP POP POP POP POP SWAP1 DUP1 PUSH1 0x1 ADD SLOAD SWAP1 DUP1 PUSH1 0x2 ADD PUSH1 0x0 SWAP1 SLOAD SWAP1 PUSH2 0x100 EXP SWAP1 DIV PUSH20 0xFFFFFFFFFFFFFFFFFFFFFFFFFFFFFFFFFFFFFFFF AND SWAP1 DUP1 PUSH1 0x2 ADD PUSH1 0x14 SWAP1 SLOAD SWAP1 PUSH2 0x100 EXP SWAP1 DIV PUSH1 0xFF AND SWAP1 DUP1 PUSH1 0x3 ADD SLOAD SWAP1 POP DUP6 JUMP JUMPDEST PUSH1 0x4 SLOAD DUP2 JUMP JUMPDEST PUSH1 0x1 PUSH1 0x0 SWAP1 SLOAD SWAP1 PUSH2 0x100 EXP SWAP1 DIV PUSH20 0xFFFFFFFFFFFFFFFFFFFFFFFFFFFFFFFFFFFFFFFF AND PUSH20 0xFFFFFFFFFFFFFFFFFFFFFFFFFFFFFFFFFFFFFFFF AND CALLER PUSH20 0xFFFFFFFFFFFFFFFFFFFFFFFFFFFFFFFFFFFFFFFF AND EQ PUSH2 0x558 JUMPI PUSH1 0x40 MLOAD PUSH32 0x8C379A000000000000000000000000000000000000000000000000000000000 DUP2 MSTORE PUSH1 0x4 ADD PUSH2 0x54F SWAP1 PUSH2 0xD2E JUMP JUMPDEST PUSH1 0x40 MLOAD DUP1 SWAP2 SUB SWAP1 REVERT JUMPDEST PUSH1 0x0 DUP1 PUSH1 0x1 DUP2 PUSH1 0x1 DUP2 SLOAD ADD DUP1 DUP3 SSTORE DUP1 SWAP2 POP POP SUB SWAP1 PUSH1 0x0 MSTORE PUSH1 0x20 PUSH1 0x0 KECCAK256 SWAP1 PUSH1 0x5 MUL ADD SWAP1 POP DUP4 DUP2 PUSH1 0x0 ADD SWAP1 DUP2 PUSH2 0x58C SWAP2 SWAP1 PUSH2 0x1018 JUMP JUMPDEST POP DUP3 DUP2 PUSH1 0x1 ADD DUP2 SWAP1 SSTORE POP DUP2 DUP2 PUSH1 0x2 ADD PUSH1 0x0 PUSH2 0x100 EXP DUP2 SLOAD DUP2 PUSH20 0xFFFFFFFFFFFFFFFFFFFFFFFFFFFFFFFFFFFFFFFF MUL NOT AND SWAP1 DUP4 PUSH20 0xFFFFFFFFFFFFFFFFFFFFFFFFFFFFFFFFFFFFFFFF AND MUL OR SWAP1 SSTORE POP PUSH1 0x0 DUP2 PUSH1 0x2 ADD PUSH1 0x14 PUSH2 0x100 EXP DUP2 SLOAD DUP2 PUSH1 0xFF MUL NOT AND SWAP1 DUP4 ISZERO ISZERO MUL OR SWAP1 SSTORE POP PUSH1 0x0 DUP2 PUSH1 0x3 ADD DUP2 SWAP1 SSTORE POP POP POP POP POP JUMP JUMPDEST PUSH1 0x2 SLOAD DUP2 JUMP JUMPDEST PUSH1 0x2 SLOAD CALLVALUE LT ISZERO PUSH2 0x651 JUMPI PUSH1 0x40 MLOAD PUSH32 0x8C379A000000000000000000000000000000000000000000000000000000000 DUP2 MSTORE PUSH1 0x4 ADD PUSH2 0x648 SWAP1 PUSH2 0x1136 JUMP JUMPDEST PUSH1 0x40 MLOAD DUP1 SWAP2 SUB SWAP1 REVERT JUMPDEST PUSH1 0x1 PUSH1 0x3 PUSH1 0x0 CALLER PUSH20 0xFFFFFFFFFFFFFFFFFFFFFFFFFFFFFFFFFFFFFFFF AND PUSH20 0xFFFFFFFFFFFFFFFFFFFFFFFFFFFFFFFFFFFFFFFF AND DUP2 MSTORE PUSH1 0x20 ADD SWAP1 DUP2 MSTORE PUSH1 0x20 ADD PUSH1 0x0 KECCAK256 PUSH1 0x0 PUSH2 0x100 EXP DUP2 SLOAD DUP2 PUSH1 0xFF MUL NOT AND SWAP1 DUP4 ISZERO ISZERO MUL OR SWAP1 SSTORE POP PUSH1 0x4 PUSH1 0x0 DUP2 SLOAD DUP1 SWAP3 SWAP2 SWAP1 PUSH2 0x6BC SWAP1 PUSH2 0x1156 JUMP JUMPDEST SWAP2 SWAP1 POP SSTORE POP JUMP JUMPDEST PUSH1 0x0 DUP1 DUP3 DUP2 SLOAD DUP2 LT PUSH2 0x6D8 JUMPI PUSH2 0x6D7 PUSH2 0xD4E JUMP JUMPDEST JUMPDEST SWAP1 PUSH1 0x0 MSTORE PUSH1 0x20 PUSH1 0x0 KECCAK256 SWAP1 PUSH1 0x5 MUL ADD SWAP1 POP PUSH1 0x3 PUSH1 0x0 CALLER PUSH20 0xFFFFFFFFFFFFFFFFFFFFFFFFFFFFFFFFFFFFFFFF AND PUSH20 0xFFFFFFFFFFFFFFFFFFFFFFFFFFFFFFFFFFFFFFFF AND DUP2 MSTORE PUSH1 0x20 ADD SWAP1 DUP2 MSTORE PUSH1 0x20 ADD PUSH1 0x0 KECCAK256 PUSH1 0x0 SWAP1 SLOAD SWAP1 PUSH2 0x100 EXP SWAP1 DIV PUSH1 0xFF AND PUSH2 0x774 JUMPI PUSH1 0x40 MLOAD PUSH32 0x8C379A000000000000000000000000000000000000000000000000000000000 DUP2 MSTORE PUSH1 0x4 ADD PUSH2 0x76B SWAP1 PUSH2 0x11EA JUMP JUMPDEST PUSH1 0x40 MLOAD DUP1 SWAP2 SUB SWAP1 REVERT JUMPDEST DUP1 PUSH1 0x4 ADD PUSH1 0x0 CALLER PUSH20 0xFFFFFFFFFFFFFFFFFFFFFFFFFFFFFFFFFFFFFFFF AND PUSH20 0xFFFFFFFFFFFFFFFFFFFFFFFFFFFFFFFFFFFFFFFF AND DUP2 MSTORE PUSH1 0x20 ADD SWAP1 DUP2 MSTORE PUSH1 0x20 ADD PUSH1 0x0 KECCAK256 PUSH1 0x0 SWAP1 SLOAD SWAP1 PUSH2 0x100 EXP SWAP1 DIV PUSH1 0xFF AND ISZERO PUSH2 0x803 JUMPI PUSH1 0x40 MLOAD PUSH32 0x8C379A000000000000000000000000000000000000000000000000000000000 DUP2 MSTORE PUSH1 0x4 ADD PUSH2 0x7FA SWAP1 PUSH2 0x1256 JUMP JUMPDEST PUSH1 0x40 MLOAD DUP1 SWAP2 SUB SWAP1 REVERT JUMPDEST PUSH1 0x1 DUP2 PUSH1 0x4 ADD PUSH1 0x0 CALLER PUSH20 0xFFFFFFFFFFFFFFFFFFFFFFFFFFFFFFFFFFFFFFFF AND PUSH20 0xFFFFFFFFFFFFFFFFFFFFFFFFFFFFFFFFFFFFFFFF AND DUP2 MSTORE PUSH1 0x20 ADD SWAP1 DUP2 MSTORE PUSH1 0x20 ADD PUSH1 0x0 KECCAK256 PUSH1 0x0 PUSH2 0x100 EXP DUP2 SLOAD DUP2 PUSH1 0xFF MUL NOT AND SWAP1 DUP4 ISZERO ISZERO MUL OR SWAP1 SSTORE POP DUP1 PUSH1 0x3 ADD PUSH1 0x0 DUP2 SLOAD DUP1 SWAP3 SWAP2 SWAP1 PUSH2 0x872 SWAP1 PUSH2 0x1156 JUMP JUMPDEST SWAP2 SWAP1 POP SSTORE POP POP POP JUMP JUMPDEST PUSH1 0x0 PUSH1 0x40 MLOAD SWAP1 POP SWAP1 JUMP JUMPDEST PUSH1 0x0 DUP1 REVERT JUMPDEST PUSH1 0x0 DUP1 REVERT JUMPDEST PUSH1 0x0 DUP2 SWAP1 POP SWAP2 SWAP1 POP JUMP JUMPDEST PUSH2 0x8A2 DUP2 PUSH2 0x88F JUMP JUMPDEST DUP2 EQ PUSH2 0x8AD JUMPI PUSH1 0x0 DUP1 REVERT JUMPDEST POP JUMP JUMPDEST PUSH1 0x0 DUP2 CALLDATALOAD SWAP1 POP PUSH2 0x8BF DUP2 PUSH2 0x899 JUMP JUMPDEST SWAP3 SWAP2 POP POP JUMP JUMPDEST PUSH1 0x0 PUSH1 0x20 DUP3 DUP5 SUB SLT ISZERO PUSH2 0x8DB JUMPI PUSH2 0x8DA PUSH2 0x885 JUMP JUMPDEST JUMPDEST PUSH1 0x0 PUSH2 0x8E9 DUP5 DUP3 DUP6 ADD PUSH2 0x8B0 JUMP JUMPDEST SWAP2 POP POP SWAP3 SWAP2 POP POP JUMP JUMPDEST PUSH1 0x0 PUSH20 0xFFFFFFFFFFFFFFFFFFFFFFFFFFFFFFFFFFFFFFFF DUP3 AND SWAP1 POP SWAP2 SWAP1 POP JUMP JUMPDEST PUSH1 0x0 PUSH2 0x91D DUP3 PUSH2 0x8F2 JUMP JUMPDEST SWAP1 POP SWAP2 SWAP1 POP JUMP JUMPDEST PUSH2 0x92D DUP2 PUSH2 0x912 JUMP JUMPDEST DUP2 EQ PUSH2 0x938 JUMPI PUSH1 0x0 DUP1 REVERT JUMPDEST POP JUMP JUMPDEST PUSH1 0x0 DUP2 CALLDATALOAD SWAP1 POP PUSH2 0x94A DUP2 PUSH2 0x924 JUMP JUMPDEST SWAP3 SWAP2 POP POP JUMP JUMPDEST PUSH1 0x0 PUSH1 0x20 DUP3 DUP5 SUB SLT ISZERO PUSH2 0x966 JUMPI PUSH2 0x965 PUSH2 0x885 JUMP JUMPDEST JUMPDEST PUSH1 0x0 PUSH2 0x974 DUP5 DUP3 DUP6 ADD PUSH2 0x93B JUMP JUMPDEST SWAP2 POP POP SWAP3 SWAP2 POP POP JUMP JUMPDEST PUSH1 0x0 DUP2 ISZERO ISZERO SWAP1 POP SWAP2 SWAP1 POP JUMP JUMPDEST PUSH2 0x992 DUP2 PUSH2 0x97D JUMP JUMPDEST DUP3 MSTORE POP POP JUMP JUMPDEST PUSH1 0x0 PUSH1 0x20 DUP3 ADD SWAP1 POP PUSH2 0x9AD PUSH1 0x0 DUP4 ADD DUP5 PUSH2 0x989 JUMP JUMPDEST SWAP3 SWAP2 POP POP JUMP JUMPDEST PUSH2 0x9BC DUP2 PUSH2 0x912 JUMP JUMPDEST DUP3 MSTORE POP POP JUMP JUMPDEST PUSH1 0x0 PUSH1 0x20 DUP3 ADD SWAP1 POP PUSH2 0x9D7 PUSH1 0x0 DUP4 ADD DUP5 PUSH2 0x9B3 JUMP JUMPDEST SWAP3 SWAP2 POP POP JUMP JUMPDEST PUSH1 0x0 DUP2 MLOAD SWAP1 POP SWAP2 SWAP1 POP JUMP JUMPDEST PUSH1 0x0 DUP3 DUP3 MSTORE PUSH1 0x20 DUP3 ADD SWAP1 POP SWAP3 SWAP2 POP POP JUMP JUMPDEST PUSH1 0x0 JUMPDEST DUP4 DUP2 LT ISZERO PUSH2 0xA17 JUMPI DUP1 DUP3 ADD MLOAD DUP2 DUP5 ADD MSTORE PUSH1 0x20 DUP2 ADD SWAP1 POP PUSH2 0x9FC JUMP JUMPDEST PUSH1 0x0 DUP5 DUP5 ADD MSTORE POP POP POP POP JUMP JUMPDEST PUSH1 0x0 PUSH1 0x1F NOT PUSH1 0x1F DUP4 ADD AND SWAP1 POP SWAP2 SWAP1 POP JUMP JUMPDEST PUSH1 0x0 PUSH2 0xA3F DUP3 PUSH2 0x9DD JUMP JUMPDEST PUSH2 0xA49 DUP2 DUP6 PUSH2 0x9E8 JUMP JUMPDEST SWAP4 POP PUSH2 0xA59 DUP2 DUP6 PUSH1 0x20 DUP7 ADD PUSH2 0x9F9 JUMP JUMPDEST PUSH2 0xA62 DUP2 PUSH2 0xA23 JUMP JUMPDEST DUP5 ADD SWAP2 POP POP SWAP3 SWAP2 POP POP JUMP JUMPDEST PUSH2 0xA76 DUP2 PUSH2 0x88F JUMP JUMPDEST DUP3 MSTORE POP POP JUMP JUMPDEST PUSH1 0x0 PUSH2 0xA87 DUP3 PUSH2 0x8F2 JUMP JUMPDEST SWAP1 POP SWAP2 SWAP1 POP JUMP JUMPDEST PUSH2 0xA97 DUP2 PUSH2 0xA7C JUMP JUMPDEST DUP3 MSTORE POP POP JUMP JUMPDEST PUSH1 0x0 PUSH1 0xA0 DUP3 ADD SWAP1 POP DUP2 DUP2 SUB PUSH1 0x0 DUP4 ADD MSTORE PUSH2 0xAB7 DUP2 DUP9 PUSH2 0xA34 JUMP JUMPDEST SWAP1 POP PUSH2 0xAC6 PUSH1 0x20 DUP4 ADD DUP8 PUSH2 0xA6D JUMP JUMPDEST PUSH2 0xAD3 PUSH1 0x40 DUP4 ADD DUP7 PUSH2 0xA8E JUMP JUMPDEST PUSH2 0xAE0 PUSH1 0x60 DUP4 ADD DUP6 PUSH2 0x989 JUMP JUMPDEST PUSH2 0xAED PUSH1 0x80 DUP4 ADD DUP5 PUSH2 0xA6D JUMP JUMPDEST SWAP7 SWAP6 POP POP POP POP POP POP JUMP JUMPDEST PUSH1 0x0 PUSH1 0x20 DUP3 ADD SWAP1 POP PUSH2 0xB0C PUSH1 0x0 DUP4 ADD DUP5 PUSH2 0xA6D JUMP JUMPDEST SWAP3 SWAP2 POP POP JUMP JUMPDEST PUSH1 0x0 DUP1 REVERT JUMPDEST PUSH1 0x0 DUP1 REVERT JUMPDEST PUSH32 0x4E487B7100000000000000000000000000000000000000000000000000000000 PUSH1 0x0 MSTORE PUSH1 0x41 PUSH1 0x4 MSTORE PUSH1 0x24 PUSH1 0x0 REVERT JUMPDEST PUSH2 0xB54 DUP3 PUSH2 0xA23 JUMP JUMPDEST DUP2 ADD DUP2 DUP2 LT PUSH8 0xFFFFFFFFFFFFFFFF DUP3 GT OR ISZERO PUSH2 0xB73 JUMPI PUSH2 0xB72 PUSH2 0xB1C JUMP JUMPDEST JUMPDEST DUP1 PUSH1 0x40 MSTORE POP POP POP JUMP JUMPDEST PUSH1 0x0 PUSH2 0xB86 PUSH2 0x87B JUMP JUMPDEST SWAP1 POP PUSH2 0xB92 DUP3 DUP3 PUSH2 0xB4B JUMP JUMPDEST SWAP2 SWAP1 POP JUMP JUMPDEST PUSH1 0x0 PUSH8 0xFFFFFFFFFFFFFFFF DUP3 GT ISZERO PUSH2 0xBB2 JUMPI PUSH2 0xBB1 PUSH2 0xB1C JUMP JUMPDEST JUMPDEST PUSH2 0xBBB DUP3 PUSH2 0xA23 JUMP JUMPDEST SWAP1 POP PUSH1 0x20 DUP2 ADD SWAP1 POP SWAP2 SWAP1 POP JUMP JUMPDEST DUP3 DUP2 DUP4 CALLDATACOPY PUSH1 0x0 DUP4 DUP4 ADD MSTORE POP POP POP JUMP JUMPDEST PUSH1 0x0 PUSH2 0xBEA PUSH2 0xBE5 DUP5 PUSH2 0xB97 JUMP JUMPDEST PUSH2 0xB7C JUMP JUMPDEST SWAP1 POP DUP3 DUP2 MSTORE PUSH1 0x20 DUP2 ADD DUP5 DUP5 DUP5 ADD GT ISZERO PUSH2 0xC06 JUMPI PUSH2 0xC05 PUSH2 0xB17 JUMP JUMPDEST JUMPDEST PUSH2 0xC11 DUP5 DUP3 DUP6 PUSH2 0xBC8 JUMP JUMPDEST POP SWAP4 SWAP3 POP POP POP JUMP JUMPDEST PUSH1 0x0 DUP3 PUSH1 0x1F DUP4 ADD SLT PUSH2 0xC2E JUMPI PUSH2 0xC2D PUSH2 0xB12 JUMP JUMPDEST JUMPDEST DUP2 CALLDATALOAD PUSH2 0xC3E DUP5 DUP3 PUSH1 0x20 DUP7 ADD PUSH2 0xBD7 JUMP JUMPDEST SWAP2 POP POP SWAP3 SWAP2 POP POP JUMP JUMPDEST PUSH2 0xC50 DUP2 PUSH2 0xA7C JUMP JUMPDEST DUP2 EQ PUSH2 0xC5B JUMPI PUSH1 0x0 DUP1 REVERT JUMPDEST POP JUMP JUMPDEST PUSH1 0x0 DUP2 CALLDATALOAD SWAP1 POP PUSH2 0xC6D DUP2 PUSH2 0xC47 JUMP JUMPDEST SWAP3 SWAP2 POP POP JUMP JUMPDEST PUSH1 0x0 DUP1 PUSH1 0x0 PUSH1 0x60 DUP5 DUP7 SUB SLT ISZERO PUSH2 0xC8C JUMPI PUSH2 0xC8B PUSH2 0x885 JUMP JUMPDEST JUMPDEST PUSH1 0x0 DUP5 ADD CALLDATALOAD PUSH8 0xFFFFFFFFFFFFFFFF DUP2 GT ISZERO PUSH2 0xCAA JUMPI PUSH2 0xCA9 PUSH2 0x88A JUMP JUMPDEST JUMPDEST PUSH2 0xCB6 DUP7 DUP3 DUP8 ADD PUSH2 0xC19 JUMP JUMPDEST SWAP4 POP POP PUSH1 0x20 PUSH2 0xCC7 DUP7 DUP3 DUP8 ADD PUSH2 0x8B0 JUMP JUMPDEST SWAP3 POP POP PUSH1 0x40 PUSH2 0xCD8 DUP7 DUP3 DUP8 ADD PUSH2 0xC5E JUMP JUMPDEST SWAP2 POP POP SWAP3 POP SWAP3 POP SWAP3 JUMP JUMPDEST PUSH32 0x596F7520617265206E6F7420617574686F72697A656400000000000000000000 PUSH1 0x0 DUP3 ADD MSTORE POP JUMP JUMPDEST PUSH1 0x0 PUSH2 0xD18 PUSH1 0x16 DUP4 PUSH2 0x9E8 JUMP JUMPDEST SWAP2 POP PUSH2 0xD23 DUP3 PUSH2 0xCE2 JUMP JUMPDEST PUSH1 0x20 DUP3 ADD SWAP1 POP SWAP2 SWAP1 POP JUMP JUMPDEST PUSH1 0x0 PUSH1 0x20 DUP3 ADD SWAP1 POP DUP2 DUP2 SUB PUSH1 0x0 DUP4 ADD MSTORE PUSH2 0xD47 DUP2 PUSH2 0xD0B JUMP JUMPDEST SWAP1 POP SWAP2 SWAP1 POP JUMP JUMPDEST PUSH32 0x4E487B7100000000000000000000000000000000000000000000000000000000 PUSH1 0x0 MSTORE PUSH1 0x32 PUSH1 0x4 MSTORE PUSH1 0x24 PUSH1 0x0 REVERT JUMPDEST PUSH32 0x4E487B7100000000000000000000000000000000000000000000000000000000 PUSH1 0x0 MSTORE PUSH1 0x12 PUSH1 0x4 MSTORE PUSH1 0x24 PUSH1 0x0 REVERT JUMPDEST PUSH32 0x4E487B7100000000000000000000000000000000000000000000000000000000 PUSH1 0x0 MSTORE PUSH1 0x11 PUSH1 0x4 MSTORE PUSH1 0x24 PUSH1 0x0 REVERT JUMPDEST PUSH1 0x0 PUSH2 0xDE6 DUP3 PUSH2 0x88F JUMP JUMPDEST SWAP2 POP PUSH2 0xDF1 DUP4 PUSH2 0x88F JUMP JUMPDEST SWAP3 POP DUP3 PUSH2 0xE01 JUMPI PUSH2 0xE00 PUSH2 0xD7D JUMP JUMPDEST JUMPDEST DUP3 DUP3 DIV SWAP1 POP SWAP3 SWAP2 POP POP JUMP JUMPDEST PUSH32 0x4E487B7100000000000000000000000000000000000000000000000000000000 PUSH1 0x0 MSTORE PUSH1 0x22 PUSH1 0x4 MSTORE PUSH1 0x24 PUSH1 0x0 REVERT JUMPDEST PUSH1 0x0 PUSH1 0x2 DUP3 DIV SWAP1 POP PUSH1 0x1 DUP3 AND DUP1 PUSH2 0xE53 JUMPI PUSH1 0x7F DUP3 AND SWAP2 POP JUMPDEST PUSH1 0x20 DUP3 LT DUP2 SUB PUSH2 0xE66 JUMPI PUSH2 0xE65 PUSH2 0xE0C JUMP JUMPDEST JUMPDEST POP SWAP2 SWAP1 POP JUMP JUMPDEST PUSH1 0x0 DUP2 SWAP1 POP DUP2 PUSH1 0x0 MSTORE PUSH1 0x20 PUSH1 0x0 KECCAK256 SWAP1 POP SWAP2 SWAP1 POP JUMP JUMPDEST PUSH1 0x0 PUSH1 0x20 PUSH1 0x1F DUP4 ADD DIV SWAP1 POP SWAP2 SWAP1 POP JUMP JUMPDEST PUSH1 0x0 DUP3 DUP3 SHL SWAP1 POP SWAP3 SWAP2 POP POP JUMP JUMPDEST PUSH1 0x0 PUSH1 0x8 DUP4 MUL PUSH2 0xECE PUSH32 0xFFFFFFFFFFFFFFFFFFFFFFFFFFFFFFFFFFFFFFFFFFFFFFFFFFFFFFFFFFFFFFFF DUP3 PUSH2 0xE91 JUMP JUMPDEST PUSH2 0xED8 DUP7 DUP4 PUSH2 0xE91 JUMP JUMPDEST SWAP6 POP DUP1 NOT DUP5 AND SWAP4 POP DUP1 DUP7 AND DUP5 OR SWAP3 POP POP POP SWAP4 SWAP3 POP POP POP JUMP JUMPDEST PUSH1 0x0 DUP2 SWAP1 POP SWAP2 SWAP1 POP JUMP JUMPDEST PUSH1 0x0 PUSH2 0xF15 PUSH2 0xF10 PUSH2 0xF0B DUP5 PUSH2 0x88F JUMP JUMPDEST PUSH2 0xEF0 JUMP JUMPDEST PUSH2 0x88F JUMP JUMPDEST SWAP1 POP SWAP2 SWAP1 POP JUMP JUMPDEST PUSH1 0x0 DUP2 SWAP1 POP SWAP2 SWAP1 POP JUMP JUMPDEST PUSH2 0xF2F DUP4 PUSH2 0xEFA JUMP JUMPDEST PUSH2 0xF43 PUSH2 0xF3B DUP3 PUSH2 0xF1C JUMP JUMPDEST DUP5 DUP5 SLOAD PUSH2 0xE9E JUMP JUMPDEST DUP3 SSTORE POP POP POP POP JUMP JUMPDEST PUSH1 0x0 SWAP1 JUMP JUMPDEST PUSH2 0xF58 PUSH2 0xF4B JUMP JUMPDEST PUSH2 0xF63 DUP2 DUP5 DUP5 PUSH2 0xF26 JUMP JUMPDEST POP POP POP JUMP JUMPDEST JUMPDEST DUP2 DUP2 LT ISZERO PUSH2 0xF87 JUMPI PUSH2 0xF7C PUSH1 0x0 DUP3 PUSH2 0xF50 JUMP JUMPDEST PUSH1 0x1 DUP2 ADD SWAP1 POP PUSH2 0xF69 JUMP JUMPDEST POP POP JUMP JUMPDEST PUSH1 0x1F DUP3 GT ISZERO PUSH2 0xFCC JUMPI PUSH2 0xF9D DUP2 PUSH2 0xE6C JUMP JUMPDEST PUSH2 0xFA6 DUP5 PUSH2 0xE81 JUMP JUMPDEST DUP2 ADD PUSH1 0x20 DUP6 LT ISZERO PUSH2 0xFB5 JUMPI DUP2 SWAP1 POP JUMPDEST PUSH2 0xFC9 PUSH2 0xFC1 DUP6 PUSH2 0xE81 JUMP JUMPDEST DUP4 ADD DUP3 PUSH2 0xF68 JUMP JUMPDEST POP POP JUMPDEST POP POP POP JUMP JUMPDEST PUSH1 0x0 DUP3 DUP3 SHR SWAP1 POP SWAP3 SWAP2 POP POP JUMP JUMPDEST PUSH1 0x0 PUSH2 0xFEF PUSH1 0x0 NOT DUP5 PUSH1 0x8 MUL PUSH2 0xFD1 JUMP JUMPDEST NOT DUP1 DUP4 AND SWAP2 POP POP SWAP3 SWAP2 POP POP JUMP JUMPDEST PUSH1 0x0 PUSH2 0x1008 DUP4 DUP4 PUSH2 0xFDE JUMP JUMPDEST SWAP2 POP DUP3 PUSH1 0x2 MUL DUP3 OR SWAP1 POP SWAP3 SWAP2 POP POP JUMP JUMPDEST PUSH2 0x1021 DUP3 PUSH2 0x9DD JUMP JUMPDEST PUSH8 0xFFFFFFFFFFFFFFFF DUP2 GT ISZERO PUSH2 0x103A JUMPI PUSH2 0x1039 PUSH2 0xB1C JUMP JUMPDEST JUMPDEST PUSH2 0x1044 DUP3 SLOAD PUSH2 0xE3B JUMP JUMPDEST PUSH2 0x104F DUP3 DUP3 DUP6 PUSH2 0xF8B JUMP JUMPDEST PUSH1 0x0 PUSH1 0x20 SWAP1 POP PUSH1 0x1F DUP4 GT PUSH1 0x1 DUP2 EQ PUSH2 0x1082 JUMPI PUSH1 0x0 DUP5 ISZERO PUSH2 0x1070 JUMPI DUP3 DUP8 ADD MLOAD SWAP1 POP JUMPDEST PUSH2 0x107A DUP6 DUP3 PUSH2 0xFFC JUMP JUMPDEST DUP7 SSTORE POP PUSH2 0x10E2 JUMP JUMPDEST PUSH1 0x1F NOT DUP5 AND PUSH2 0x1090 DUP7 PUSH2 0xE6C JUMP JUMPDEST PUSH1 0x0 JUMPDEST DUP3 DUP2 LT ISZERO PUSH2 0x10B8 JUMPI DUP5 DUP10 ADD MLOAD DUP3 SSTORE PUSH1 0x1 DUP3 ADD SWAP2 POP PUSH1 0x20 DUP6 ADD SWAP5 POP PUSH1 0x20 DUP2 ADD SWAP1 POP PUSH2 0x1093 JUMP JUMPDEST DUP7 DUP4 LT ISZERO PUSH2 0x10D5 JUMPI DUP5 DUP10 ADD MLOAD PUSH2 0x10D1 PUSH1 0x1F DUP10 AND DUP3 PUSH2 0xFDE JUMP JUMPDEST DUP4 SSTORE POP JUMPDEST PUSH1 0x1 PUSH1 0x2 DUP9 MUL ADD DUP9 SSTORE POP POP POP JUMPDEST POP POP POP POP POP POP JUMP JUMPDEST PUSH32 0x536F7272792C20706C6561736520707574206D6F726500000000000000000000 PUSH1 0x0 DUP3 ADD MSTORE POP JUMP JUMPDEST PUSH1 0x0 PUSH2 0x1120 PUSH1 0x16 DUP4 PUSH2 0x9E8 JUMP JUMPDEST SWAP2 POP PUSH2 0x112B DUP3 PUSH2 0x10EA JUMP JUMPDEST PUSH1 0x20 DUP3 ADD SWAP1 POP SWAP2 SWAP1 POP JUMP JUMPDEST PUSH1 0x0 PUSH1 0x20 DUP3 ADD SWAP1 POP DUP2 DUP2 SUB PUSH1 0x0 DUP4 ADD MSTORE PUSH2 0x114F DUP2 PUSH2 0x1113 JUMP JUMPDEST SWAP1 POP SWAP2 SWAP1 POP JUMP JUMPDEST PUSH1 0x0 PUSH2 0x1161 DUP3 PUSH2 0x88F JUMP JUMPDEST SWAP2 POP PUSH32 0xFFFFFFFFFFFFFFFFFFFFFFFFFFFFFFFFFFFFFFFFFFFFFFFFFFFFFFFFFFFFFFFF DUP3 SUB PUSH2 0x1193 JUMPI PUSH2 0x1192 PUSH2 0xDAC JUMP JUMPDEST JUMPDEST PUSH1 0x1 DUP3 ADD SWAP1 POP SWAP2 SWAP1 POP JUMP JUMPDEST PUSH32 0x536F7272792C20796F7520617265206E6F74206120636F6E7472696275746F72 PUSH1 0x0 DUP3 ADD MSTORE POP JUMP JUMPDEST PUSH1 0x0 PUSH2 0x11D4 PUSH1 0x20 DUP4 PUSH2 0x9E8 JUMP JUMPDEST SWAP2 POP PUSH2 0x11DF DUP3 PUSH2 0x119E JUMP JUMPDEST PUSH1 0x20 DUP3 ADD SWAP1 POP SWAP2 SWAP1 POP JUMP JUMPDEST PUSH1 0x0 PUSH1 0x20 DUP3 ADD SWAP1 POP DUP2 DUP2 SUB PUSH1 0x0 DUP4 ADD MSTORE PUSH2 0x1203 DUP2 PUSH2 0x11C7 JUMP JUMPDEST SWAP1 POP SWAP2 SWAP1 POP JUMP JUMPDEST PUSH32 0x536F7272792C20796F752063616E206F6E6C7920766F7465206F6E63652E0000 PUSH1 0x0 DUP3 ADD MSTORE POP JUMP JUMPDEST PUSH1 0x0 PUSH2 0x1240 PUSH1 0x1E DUP4 PUSH2 0x9E8 JUMP JUMPDEST SWAP2 POP PUSH2 0x124B DUP3 PUSH2 0x120A JUMP JUMPDEST PUSH1 0x20 DUP3 ADD SWAP1 POP SWAP2 SWAP1 POP JUMP JUMPDEST PUSH1 0x0 PUSH1 0x20 DUP3 ADD SWAP1 POP DUP2 DUP2 SUB PUSH1 0x0 DUP4 ADD MSTORE PUSH2 0x126F DUP2 PUSH2 0x1233 JUMP JUMPDEST SWAP1 POP SWAP2 SWAP1 POP JUMP INVALID LOG2 PUSH5 0x6970667358 0x22 SLT KECCAK256 0xC3 PUSH25 0x8B43772040EFF046A9C3C2CDE5B5E01B8E05684E70DC2BFAAD JUMPI PUSH15 0x104F2664736F6C63430008130033A2 PUSH5 0x6970667358 0x22 SLT KECCAK256 LOG4 0xD 0xE9 SLOAD 0x21 0x4D 0x21 0xB8 SHL 0xD6 0xD1 0x5D 0x23 0xAF 0xB8 GT 0xB9 0xB2 DUP9 SLT 0xBC PUSH6 0x237F98F3A4C3 DUP7 SDIV 0xBB SELFDESTRUCT PUSH5 0x736F6C6343 STOP ADDMOD SGT STOP CALLER "},"gasEstimates":{"creation":{"codeDepositCost":"1250400","executionCost":"1302","totalCost":"1251702"},"external":{"deployCampaign(uint256)":"infinite","deployedCampaigns(uint256)":"4934","getDeployedCampaigns()":"infinite"}},"methodIdentifiers":{"deployCampaign(uint256)":"37ec992a","deployedCampaigns(uint256)":"339d50a5","getDeployedCampaigns()":"4acb9d4f"}},"storageLayout":{"storage":[{"astId":4,"contract":"DecenAngels.sol:ContractFactory","label":"deployedCampaigns","offset":0,"slot":"0","type":"t_array(t_address)dyn_storage"}],"types":{"t_address":{"encoding":"inplace","label":"address","numberOfBytes":"20"},"t_array(t_address)dyn_storage":{"base":"t_address","encoding":"dynamic_array","label":"address[]","numberOfBytes":"32"}}},"userdoc":{"kind":"user","methods":{},"version":1}}