{"abi":[{"inputs":[{"internalType":"uint256","name":"_minimumContribution","type":"uint256"},{"internalType":"address","name":"_creator","type":"address"}],"stateMutability":"nonpayable","type":"constructor"},{"inputs":[{"internalType":"uint256","name":"_index","type":"uint256"}],"name":"approveRequest","outputs":[],"stateMutability":"nonpayable","type":"function"},{"inputs":[{"internalType":"address","name":"","type":"address"}],"name":"approvers","outputs":[{"internalType":"bool","name":"","type":"bool"}],"stateMutability":"view","type":"function"},{"inputs":[],"name":"approversCount","outputs":[{"internalType":"uint256","name":"","type":"uint256"}],"stateMutability":"view","type":"function"},{"inputs":[{"internalType":"string","name":"_description","type":"string"},{"internalType":"uint256","name":"_value","type":"uint256"},{"internalType":"address payable","name":"_recipient","type":"address"}],"name":"createRequest","outputs":[],"stateMutability":"nonpayable","type":"function"},{"inputs":[{"internalType":"uint256","name":"_index","type":"uint256"}],"name":"finalizeRequest","outputs":[],"stateMutability":"payable","type":"function"},{"inputs":[],"name":"manager","outputs":[{"internalType":"address","name":"","type":"address"}],"stateMutability":"view","type":"function"},{"inputs":[],"name":"minimumContribution","outputs":[{"internalType":"uint256","name":"","type":"uint256"}],"stateMutability":"view","type":"function"},{"inputs":[{"internalType":"uint256","name":"","type":"uint256"}],"name":"requests","outputs":[{"internalType":"string","name":"description","type":"string"},{"internalType":"uint256","name":"value","type":"uint256"},{"internalType":"address payable","name":"recipient","type":"address"},{"internalType":"bool","name":"complete","type":"bool"},{"internalType":"uint256","name":"approvalCount","type":"uint256"}],"stateMutability":"view","type":"function"}],"devdoc":{"kind":"dev","methods":{},"version":1},"evm":{"assembly":"    /* \"DecenAngels.sol\":479:2218  contract DecenAngels {... */\n  mstore(0x40, 0x80)\n    /* \"DecenAngels.sol\":1058:1205  constructor(uint _minimumContribution, address _creator) {... */\n  callvalue\n  dup1\n  iszero\n  tag_1\n  jumpi\n  0x00\n  dup1\n  revert\ntag_1:\n  pop\n  mload(0x40)\n  sub(codesize, bytecodeSize)\n  dup1\n  bytecodeSize\n  dup4\n  codecopy\n  dup2\n  dup2\n  add\n  0x40\n  mstore\n  dup2\n  add\n  swap1\n  tag_2\n  swap2\n  swap1\n  tag_3\n  jump\t// in\ntag_2:\n    /* \"DecenAngels.sol\":1136:1144  _creator */\n  dup1\n    /* \"DecenAngels.sol\":1126:1133  manager */\n  0x02\n  0x00\n    /* \"DecenAngels.sol\":1126:1144  manager = _creator */\n  0x0100\n  exp\n  dup2\n  sload\n  dup2\n  0xffffffffffffffffffffffffffffffffffffffff\n  mul\n  not\n  and\n  swap1\n  dup4\n  0xffffffffffffffffffffffffffffffffffffffff\n  and\n  mul\n  or\n  swap1\n  sstore\n  pop\n    /* \"DecenAngels.sol\":1177:1197  _minimumContribution */\n  dup2\n    /* \"DecenAngels.sol\":1155:1174  minimumContribution */\n  0x03\n    /* \"DecenAngels.sol\":1155:1197  minimumContribution = _minimumContribution */\n  dup2\n  swap1\n  sstore\n  pop\n    /* \"DecenAngels.sol\":1058:1205  constructor(uint _minimumContribution, address _creator) {... */\n  pop\n  pop\n    /* \"DecenAngels.sol\":479:2218  contract DecenAngels {... */\n  jump(tag_6)\n    /* \"#utility.yul\":88:205   */\ntag_8:\n    /* \"#utility.yul\":197:198   */\n  0x00\n    /* \"#utility.yul\":194:195   */\n  dup1\n    /* \"#utility.yul\":187:199   */\n  revert\n    /* \"#utility.yul\":334:411   */\ntag_10:\n    /* \"#utility.yul\":371:378   */\n  0x00\n    /* \"#utility.yul\":400:405   */\n  dup2\n    /* \"#utility.yul\":389:405   */\n  swap1\n  pop\n    /* \"#utility.yul\":334:411   */\n  swap2\n  swap1\n  pop\n  jump\t// out\n    /* \"#utility.yul\":417:539   */\ntag_11:\n    /* \"#utility.yul\":490:514   */\n  tag_23\n    /* \"#utility.yul\":508:513   */\n  dup2\n    /* \"#utility.yul\":490:514   */\n  tag_10\n  jump\t// in\ntag_23:\n    /* \"#utility.yul\":483:488   */\n  dup2\n    /* \"#utility.yul\":480:515   */\n  eq\n    /* \"#utility.yul\":470:533   */\n  tag_24\n  jumpi\n    /* \"#utility.yul\":529:530   */\n  0x00\n    /* \"#utility.yul\":526:527   */\n  dup1\n    /* \"#utility.yul\":519:531   */\n  revert\n    /* \"#utility.yul\":470:533   */\ntag_24:\n    /* \"#utility.yul\":417:539   */\n  pop\n  jump\t// out\n    /* \"#utility.yul\":545:688   */\ntag_12:\n    /* \"#utility.yul\":602:607   */\n  0x00\n    /* \"#utility.yul\":633:639   */\n  dup2\n    /* \"#utility.yul\":627:640   */\n  mload\n    /* \"#utility.yul\":618:640   */\n  swap1\n  pop\n    /* \"#utility.yul\":649:682   */\n  tag_26\n    /* \"#utility.yul\":676:681   */\n  dup2\n    /* \"#utility.yul\":649:682   */\n  tag_11\n  jump\t// in\ntag_26:\n    /* \"#utility.yul\":545:688   */\n  swap3\n  swap2\n  pop\n  pop\n  jump\t// out\n    /* \"#utility.yul\":694:820   */\ntag_13:\n    /* \"#utility.yul\":731:738   */\n  0x00\n    /* \"#utility.yul\":771:813   */\n  0xffffffffffffffffffffffffffffffffffffffff\n    /* \"#utility.yul\":764:769   */\n  dup3\n    /* \"#utility.yul\":760:814   */\n  and\n    /* \"#utility.yul\":749:814   */\n  swap1\n  pop\n    /* \"#utility.yul\":694:820   */\n  swap2\n  swap1\n  pop\n  jump\t// out\n    /* \"#utility.yul\":826:922   */\ntag_14:\n    /* \"#utility.yul\":863:870   */\n  0x00\n    /* \"#utility.yul\":892:916   */\n  tag_29\n    /* \"#utility.yul\":910:915   */\n  dup3\n    /* \"#utility.yul\":892:916   */\n  tag_13\n  jump\t// in\ntag_29:\n    /* \"#utility.yul\":881:916   */\n  swap1\n  pop\n    /* \"#utility.yul\":826:922   */\n  swap2\n  swap1\n  pop\n  jump\t// out\n    /* \"#utility.yul\":928:1050   */\ntag_15:\n    /* \"#utility.yul\":1001:1025   */\n  tag_31\n    /* \"#utility.yul\":1019:1024   */\n  dup2\n    /* \"#utility.yul\":1001:1025   */\n  tag_14\n  jump\t// in\ntag_31:\n    /* \"#utility.yul\":994:999   */\n  dup2\n    /* \"#utility.yul\":991:1026   */\n  eq\n    /* \"#utility.yul\":981:1044   */\n  tag_32\n  jumpi\n    /* \"#utility.yul\":1040:1041   */\n  0x00\n    /* \"#utility.yul\":1037:1038   */\n  dup1\n    /* \"#utility.yul\":1030:1042   */\n  revert\n    /* \"#utility.yul\":981:1044   */\ntag_32:\n    /* \"#utility.yul\":928:1050   */\n  pop\n  jump\t// out\n    /* \"#utility.yul\":1056:1199   */\ntag_16:\n    /* \"#utility.yul\":1113:1118   */\n  0x00\n    /* \"#utility.yul\":1144:1150   */\n  dup2\n    /* \"#utility.yul\":1138:1151   */\n  mload\n    /* \"#utility.yul\":1129:1151   */\n  swap1\n  pop\n    /* \"#utility.yul\":1160:1193   */\n  tag_34\n    /* \"#utility.yul\":1187:1192   */\n  dup2\n    /* \"#utility.yul\":1160:1193   */\n  tag_15\n  jump\t// in\ntag_34:\n    /* \"#utility.yul\":1056:1199   */\n  swap3\n  swap2\n  pop\n  pop\n  jump\t// out\n    /* \"#utility.yul\":1205:1712   */\ntag_3:\n    /* \"#utility.yul\":1284:1290   */\n  0x00\n    /* \"#utility.yul\":1292:1298   */\n  dup1\n    /* \"#utility.yul\":1341:1343   */\n  0x40\n    /* \"#utility.yul\":1329:1338   */\n  dup4\n    /* \"#utility.yul\":1320:1327   */\n  dup6\n    /* \"#utility.yul\":1316:1339   */\n  sub\n    /* \"#utility.yul\":1312:1344   */\n  slt\n    /* \"#utility.yul\":1309:1428   */\n  iszero\n  tag_36\n  jumpi\n    /* \"#utility.yul\":1347:1426   */\n  tag_37\n  tag_8\n  jump\t// in\ntag_37:\n    /* \"#utility.yul\":1309:1428   */\ntag_36:\n    /* \"#utility.yul\":1467:1468   */\n  0x00\n    /* \"#utility.yul\":1492:1556   */\n  tag_38\n    /* \"#utility.yul\":1548:1555   */\n  dup6\n    /* \"#utility.yul\":1539:1545   */\n  dup3\n    /* \"#utility.yul\":1528:1537   */\n  dup7\n    /* \"#utility.yul\":1524:1546   */\n  add\n    /* \"#utility.yul\":1492:1556   */\n  tag_12\n  jump\t// in\ntag_38:\n    /* \"#utility.yul\":1482:1556   */\n  swap3\n  pop\n    /* \"#utility.yul\":1438:1566   */\n  pop\n    /* \"#utility.yul\":1605:1607   */\n  0x20\n    /* \"#utility.yul\":1631:1695   */\n  tag_39\n    /* \"#utility.yul\":1687:1694   */\n  dup6\n    /* \"#utility.yul\":1678:1684   */\n  dup3\n    /* \"#utility.yul\":1667:1676   */\n  dup7\n    /* \"#utility.yul\":1663:1685   */\n  add\n    /* \"#utility.yul\":1631:1695   */\n  tag_16\n  jump\t// in\ntag_39:\n    /* \"#utility.yul\":1621:1695   */\n  swap2\n  pop\n    /* \"#utility.yul\":1576:1705   */\n  pop\n    /* \"#utility.yul\":1205:1712   */\n  swap3\n  pop\n  swap3\n  swap1\n  pop\n  jump\t// out\n    /* \"DecenAngels.sol\":479:2218  contract DecenAngels {... */\ntag_6:\n  dataSize(sub_0)\n  dup1\n  dataOffset(sub_0)\n  0x00\n  codecopy\n  0x00\n  return\nstop\n\nsub_0: assembly {\n        /* \"DecenAngels.sol\":479:2218  contract DecenAngels {... */\n      mstore(0x40, 0x80)\n      jumpi(tag_1, lt(calldatasize, 0x04))\n      shr(0xe0, calldataload(0x00))\n      dup1\n      0x82fde093\n      gt\n      tag_10\n      jumpi\n      dup1\n      0x82fde093\n      eq\n      tag_6\n      jumpi\n      dup1\n      0x8a9cfd55\n      eq\n      tag_7\n      jumpi\n      dup1\n      0x937e09b1\n      eq\n      tag_8\n      jumpi\n      dup1\n      0xd7d1bbdb\n      eq\n      tag_9\n      jumpi\n      jump(tag_1)\n    tag_10:\n      dup1\n      0x03441006\n      eq\n      tag_2\n      jumpi\n      dup1\n      0x0a144391\n      eq\n      tag_3\n      jumpi\n      dup1\n      0x481c6a75\n      eq\n      tag_4\n      jumpi\n      dup1\n      0x81d12c58\n      eq\n      tag_5\n      jumpi\n    tag_1:\n      0x00\n      dup1\n      revert\n        /* \"DecenAngels.sol\":1930:2209  function finalizeRequest(uint _index) public payable managerOnly {... */\n    tag_2:\n      tag_11\n      0x04\n      dup1\n      calldatasize\n      sub\n      dup2\n      add\n      swap1\n      tag_12\n      swap2\n      swap1\n      tag_13\n      jump\t// in\n    tag_12:\n      tag_14\n      jump\t// in\n    tag_11:\n      stop\n        /* \"DecenAngels.sol\":859:900  mapping(address => bool) public approvers */\n    tag_3:\n      callvalue\n      dup1\n      iszero\n      tag_15\n      jumpi\n      0x00\n      dup1\n      revert\n    tag_15:\n      pop\n      tag_16\n      0x04\n      dup1\n      calldatasize\n      sub\n      dup2\n      add\n      swap1\n      tag_17\n      swap2\n      swap1\n      tag_18\n      jump\t// in\n    tag_17:\n      tag_19\n      jump\t// in\n    tag_16:\n      mload(0x40)\n      tag_20\n      swap2\n      swap1\n      tag_21\n      jump\t// in\n    tag_20:\n      mload(0x40)\n      dup1\n      swap2\n      sub\n      swap1\n      return\n        /* \"DecenAngels.sol\":792:814  address public manager */\n    tag_4:\n      callvalue\n      dup1\n      iszero\n      tag_22\n      jumpi\n      0x00\n      dup1\n      revert\n    tag_22:\n      pop\n      tag_23\n      tag_24\n      jump\t// in\n    tag_23:\n      mload(0x40)\n      tag_25\n      swap2\n      swap1\n      tag_26\n      jump\t// in\n    tag_25:\n      mload(0x40)\n      dup1\n      swap2\n      sub\n      swap1\n      return\n        /* \"DecenAngels.sol\":745:785  mapping(uint => Request) public requests */\n    tag_5:\n      callvalue\n      dup1\n      iszero\n      tag_27\n      jumpi\n      0x00\n      dup1\n      revert\n    tag_27:\n      pop\n      tag_28\n      0x04\n      dup1\n      calldatasize\n      sub\n      dup2\n      add\n      swap1\n      tag_29\n      swap2\n      swap1\n      tag_13\n      jump\t// in\n    tag_29:\n      tag_30\n      jump\t// in\n    tag_28:\n      mload(0x40)\n      tag_31\n      swap6\n      swap5\n      swap4\n      swap3\n      swap2\n      swap1\n      tag_32\n      jump\t// in\n    tag_31:\n      mload(0x40)\n      dup1\n      swap2\n      sub\n      swap1\n      return\n        /* \"DecenAngels.sol\":907:933  uint public approversCount */\n    tag_6:\n      callvalue\n      dup1\n      iszero\n      tag_33\n      jumpi\n      0x00\n      dup1\n      revert\n    tag_33:\n      pop\n      tag_34\n      tag_35\n      jump\t// in\n    tag_34:\n      mload(0x40)\n      tag_36\n      swap2\n      swap1\n      tag_37\n      jump\t// in\n    tag_36:\n      mload(0x40)\n      dup1\n      swap2\n      sub\n      swap1\n      return\n        /* \"DecenAngels.sol\":1213:1587  function createRequest(string memory _description, uint _value, address payable _recipient) public managerOnly {... */\n    tag_7:\n      callvalue\n      dup1\n      iszero\n      tag_38\n      jumpi\n      0x00\n      dup1\n      revert\n    tag_38:\n      pop\n      tag_39\n      0x04\n      dup1\n      calldatasize\n      sub\n      dup2\n      add\n      swap1\n      tag_40\n      swap2\n      swap1\n      tag_41\n      jump\t// in\n    tag_40:\n      tag_42\n      jump\t// in\n    tag_39:\n      stop\n        /* \"DecenAngels.sol\":821:852  uint public minimumContribution */\n    tag_8:\n      callvalue\n      dup1\n      iszero\n      tag_43\n      jumpi\n      0x00\n      dup1\n      revert\n    tag_43:\n      pop\n      tag_44\n      tag_45\n      jump\t// in\n    tag_44:\n      mload(0x40)\n      tag_46\n      swap2\n      swap1\n      tag_37\n      jump\t// in\n    tag_46:\n      mload(0x40)\n      dup1\n      swap2\n      sub\n      swap1\n      return\n        /* \"DecenAngels.sol\":1595:1922  function approveRequest(uint _index) public {... */\n    tag_9:\n      callvalue\n      dup1\n      iszero\n      tag_47\n      jumpi\n      0x00\n      dup1\n      revert\n    tag_47:\n      pop\n      tag_48\n      0x04\n      dup1\n      calldatasize\n      sub\n      dup2\n      add\n      swap1\n      tag_49\n      swap2\n      swap1\n      tag_13\n      jump\t// in\n    tag_49:\n      tag_50\n      jump\t// in\n    tag_48:\n      stop\n        /* \"DecenAngels.sol\":1930:2209  function finalizeRequest(uint _index) public payable managerOnly {... */\n    tag_14:\n        /* \"DecenAngels.sol\":996:1003  manager */\n      0x02\n      0x00\n      swap1\n      sload\n      swap1\n      0x0100\n      exp\n      swap1\n      div\n      0xffffffffffffffffffffffffffffffffffffffff\n      and\n        /* \"DecenAngels.sol\":982:1003  msg.sender == manager */\n      0xffffffffffffffffffffffffffffffffffffffff\n      and\n        /* \"DecenAngels.sol\":982:992  msg.sender */\n      caller\n        /* \"DecenAngels.sol\":982:1003  msg.sender == manager */\n      0xffffffffffffffffffffffffffffffffffffffff\n      and\n      eq\n        /* \"DecenAngels.sol\":974:1030  require(msg.sender == manager, \"You are not authorized\") */\n      tag_52\n      jumpi\n      mload(0x40)\n      0x08c379a000000000000000000000000000000000000000000000000000000000\n      dup2\n      mstore\n      0x04\n      add\n      tag_53\n      swap1\n      tag_54\n      jump\t// in\n    tag_53:\n      mload(0x40)\n      dup1\n      swap2\n      sub\n      swap1\n      revert\n    tag_52:\n        /* \"DecenAngels.sol\":2006:2023  Request storage r */\n      0x00\n        /* \"DecenAngels.sol\":2026:2034  requests */\n      0x01\n        /* \"DecenAngels.sol\":2026:2042  requests[_index] */\n      0x00\n        /* \"DecenAngels.sol\":2035:2041  _index */\n      dup4\n        /* \"DecenAngels.sol\":2026:2042  requests[_index] */\n      dup2\n      mstore\n      0x20\n      add\n      swap1\n      dup2\n      mstore\n      0x20\n      add\n      0x00\n      keccak256\n        /* \"DecenAngels.sol\":2006:2042  Request storage r = requests[_index] */\n      swap1\n      pop\n        /* \"DecenAngels.sol\":2062:2063  r */\n      dup1\n        /* \"DecenAngels.sol\":2062:2072  r.complete */\n      0x02\n      add\n      0x14\n      swap1\n      sload\n      swap1\n      0x0100\n      exp\n      swap1\n      div\n      0xff\n      and\n        /* \"DecenAngels.sol\":2061:2072  !r.complete */\n      iszero\n        /* \"DecenAngels.sol\":2053:2073  require(!r.complete) */\n      tag_56\n      jumpi\n      0x00\n      dup1\n      revert\n    tag_56:\n        /* \"DecenAngels.sol\":2128:2129  2 */\n      0x02\n        /* \"DecenAngels.sol\":2111:2125  approversCount */\n      sload(0x05)\n        /* \"DecenAngels.sol\":2111:2129  approversCount / 2 */\n      tag_57\n      swap2\n      swap1\n      tag_58\n      jump\t// in\n    tag_57:\n        /* \"DecenAngels.sol\":2092:2093  r */\n      dup2\n        /* \"DecenAngels.sol\":2092:2107  r.approvalCount */\n      0x03\n      add\n      sload\n        /* \"DecenAngels.sol\":2092:2130  r.approvalCount > (approversCount / 2) */\n      gt\n        /* \"DecenAngels.sol\":2084:2131  require(r.approvalCount > (approversCount / 2)) */\n      tag_59\n      jumpi\n      0x00\n      dup1\n      revert\n    tag_59:\n        /* \"DecenAngels.sol\":2144:2145  r */\n      dup1\n        /* \"DecenAngels.sol\":2144:2155  r.recipient */\n      0x02\n      add\n      0x00\n      swap1\n      sload\n      swap1\n      0x0100\n      exp\n      swap1\n      div\n      0xffffffffffffffffffffffffffffffffffffffff\n      and\n        /* \"DecenAngels.sol\":2144:2164  r.recipient.transfer */\n      0xffffffffffffffffffffffffffffffffffffffff\n      and\n        /* \"DecenAngels.sol\":2144:2173  r.recipient.transfer(r.value) */\n      0x08fc\n        /* \"DecenAngels.sol\":2165:2166  r */\n      dup3\n        /* \"DecenAngels.sol\":2165:2172  r.value */\n      0x01\n      add\n      sload\n        /* \"DecenAngels.sol\":2144:2173  r.recipient.transfer(r.value) */\n      swap1\n      dup2\n      iszero\n      mul\n      swap1\n      mload(0x40)\n      0x00\n      mload(0x40)\n      dup1\n      dup4\n      sub\n      dup2\n      dup6\n      dup9\n      dup9\n      call\n      swap4\n      pop\n      pop\n      pop\n      pop\n      iszero\n      dup1\n      iszero\n      tag_61\n      jumpi\n      returndatasize\n      0x00\n      dup1\n      returndatacopy\n      revert(0x00, returndatasize)\n    tag_61:\n      pop\n        /* \"DecenAngels.sol\":2197:2201  true */\n      0x01\n        /* \"DecenAngels.sol\":2184:2185  r */\n      dup2\n        /* \"DecenAngels.sol\":2184:2194  r.complete */\n      0x02\n      add\n      0x14\n        /* \"DecenAngels.sol\":2184:2201  r.complete = true */\n      0x0100\n      exp\n      dup2\n      sload\n      dup2\n      0xff\n      mul\n      not\n      and\n      swap1\n      dup4\n      iszero\n      iszero\n      mul\n      or\n      swap1\n      sstore\n      pop\n        /* \"DecenAngels.sol\":1995:2209  {... */\n      pop\n        /* \"DecenAngels.sol\":1930:2209  function finalizeRequest(uint _index) public payable managerOnly {... */\n      pop\n      jump\t// out\n        /* \"DecenAngels.sol\":859:900  mapping(address => bool) public approvers */\n    tag_19:\n      mstore(0x20, 0x04)\n      dup1\n      0x00\n      mstore\n      keccak256(0x00, 0x40)\n      0x00\n      swap2\n      pop\n      sload\n      swap1\n      0x0100\n      exp\n      swap1\n      div\n      0xff\n      and\n      dup2\n      jump\t// out\n        /* \"DecenAngels.sol\":792:814  address public manager */\n    tag_24:\n      0x02\n      0x00\n      swap1\n      sload\n      swap1\n      0x0100\n      exp\n      swap1\n      div\n      0xffffffffffffffffffffffffffffffffffffffff\n      and\n      dup2\n      jump\t// out\n        /* \"DecenAngels.sol\":745:785  mapping(uint => Request) public requests */\n    tag_30:\n      mstore(0x20, 0x01)\n      dup1\n      0x00\n      mstore\n      keccak256(0x00, 0x40)\n      0x00\n      swap2\n      pop\n      swap1\n      pop\n      dup1\n      0x00\n      add\n      dup1\n      sload\n      tag_62\n      swap1\n      tag_63\n      jump\t// in\n    tag_62:\n      dup1\n      0x1f\n      add\n      0x20\n      dup1\n      swap2\n      div\n      mul\n      0x20\n      add\n      mload(0x40)\n      swap1\n      dup2\n      add\n      0x40\n      mstore\n      dup1\n      swap3\n      swap2\n      swap1\n      dup2\n      dup2\n      mstore\n      0x20\n      add\n      dup3\n      dup1\n      sload\n      tag_64\n      swap1\n      tag_63\n      jump\t// in\n    tag_64:\n      dup1\n      iszero\n      tag_65\n      jumpi\n      dup1\n      0x1f\n      lt\n      tag_66\n      jumpi\n      0x0100\n      dup1\n      dup4\n      sload\n      div\n      mul\n      dup4\n      mstore\n      swap2\n      0x20\n      add\n      swap2\n      jump(tag_65)\n    tag_66:\n      dup3\n      add\n      swap2\n      swap1\n      0x00\n      mstore\n      keccak256(0x00, 0x20)\n      swap1\n    tag_67:\n      dup2\n      sload\n      dup2\n      mstore\n      swap1\n      0x01\n      add\n      swap1\n      0x20\n      add\n      dup1\n      dup4\n      gt\n      tag_67\n      jumpi\n      dup3\n      swap1\n      sub\n      0x1f\n      and\n      dup3\n      add\n      swap2\n    tag_65:\n      pop\n      pop\n      pop\n      pop\n      pop\n      swap1\n      dup1\n      0x01\n      add\n      sload\n      swap1\n      dup1\n      0x02\n      add\n      0x00\n      swap1\n      sload\n      swap1\n      0x0100\n      exp\n      swap1\n      div\n      0xffffffffffffffffffffffffffffffffffffffff\n      and\n      swap1\n      dup1\n      0x02\n      add\n      0x14\n      swap1\n      sload\n      swap1\n      0x0100\n      exp\n      swap1\n      div\n      0xff\n      and\n      swap1\n      dup1\n      0x03\n      add\n      sload\n      swap1\n      pop\n      dup6\n      jump\t// out\n        /* \"DecenAngels.sol\":907:933  uint public approversCount */\n    tag_35:\n      sload(0x05)\n      dup2\n      jump\t// out\n        /* \"DecenAngels.sol\":1213:1587  function createRequest(string memory _description, uint _value, address payable _recipient) public managerOnly {... */\n    tag_42:\n        /* \"DecenAngels.sol\":996:1003  manager */\n      0x02\n      0x00\n      swap1\n      sload\n      swap1\n      0x0100\n      exp\n      swap1\n      div\n      0xffffffffffffffffffffffffffffffffffffffff\n      and\n        /* \"DecenAngels.sol\":982:1003  msg.sender == manager */\n      0xffffffffffffffffffffffffffffffffffffffff\n      and\n        /* \"DecenAngels.sol\":982:992  msg.sender */\n      caller\n        /* \"DecenAngels.sol\":982:1003  msg.sender == manager */\n      0xffffffffffffffffffffffffffffffffffffffff\n      and\n      eq\n        /* \"DecenAngels.sol\":974:1030  require(msg.sender == manager, \"You are not authorized\") */\n      tag_69\n      jumpi\n      mload(0x40)\n      0x08c379a000000000000000000000000000000000000000000000000000000000\n      dup2\n      mstore\n      0x04\n      add\n      tag_70\n      swap1\n      tag_54\n      jump\t// in\n    tag_70:\n      mload(0x40)\n      dup1\n      swap2\n      sub\n      swap1\n      revert\n    tag_69:\n        /* \"DecenAngels.sol\":1343:1352  approvers */\n      0x04\n        /* \"DecenAngels.sol\":1343:1364  approvers[msg.sender] */\n      0x00\n        /* \"DecenAngels.sol\":1353:1363  msg.sender */\n      caller\n        /* \"DecenAngels.sol\":1343:1364  approvers[msg.sender] */\n      0xffffffffffffffffffffffffffffffffffffffff\n      and\n      0xffffffffffffffffffffffffffffffffffffffff\n      and\n      dup2\n      mstore\n      0x20\n      add\n      swap1\n      dup2\n      mstore\n      0x20\n      add\n      0x00\n      keccak256\n      0x00\n      swap1\n      sload\n      swap1\n      0x0100\n      exp\n      swap1\n      div\n      0xff\n      and\n        /* \"DecenAngels.sol\":1335:1365  require(approvers[msg.sender]) */\n      tag_72\n      jumpi\n      0x00\n      dup1\n      revert\n    tag_72:\n        /* \"DecenAngels.sol\":1376:1393  Request storage r */\n      0x00\n        /* \"DecenAngels.sol\":1396:1404  requests */\n      0x01\n        /* \"DecenAngels.sol\":1396:1419  requests[numRequests++] */\n      0x00\n        /* \"DecenAngels.sol\":1405:1416  numRequests */\n      dup1\n      0x00\n        /* \"DecenAngels.sol\":1405:1418  numRequests++ */\n      dup2\n      sload\n      dup1\n      swap3\n      swap2\n      swap1\n      tag_73\n      swap1\n      tag_74\n      jump\t// in\n    tag_73:\n      swap2\n      swap1\n      pop\n      sstore\n        /* \"DecenAngels.sol\":1396:1419  requests[numRequests++] */\n      dup2\n      mstore\n      0x20\n      add\n      swap1\n      dup2\n      mstore\n      0x20\n      add\n      0x00\n      keccak256\n        /* \"DecenAngels.sol\":1376:1419  Request storage r = requests[numRequests++] */\n      swap1\n      pop\n        /* \"DecenAngels.sol\":1446:1458  _description */\n      dup4\n        /* \"DecenAngels.sol\":1430:1431  r */\n      dup2\n        /* \"DecenAngels.sol\":1430:1443  r.description */\n      0x00\n      add\n        /* \"DecenAngels.sol\":1430:1458  r.description = _description */\n      swap1\n      dup2\n      tag_75\n      swap2\n      swap1\n      tag_76\n      jump\t// in\n    tag_75:\n      pop\n        /* \"DecenAngels.sol\":1479:1485  _value */\n      dup3\n        /* \"DecenAngels.sol\":1469:1470  r */\n      dup2\n        /* \"DecenAngels.sol\":1469:1476  r.value */\n      0x01\n      add\n        /* \"DecenAngels.sol\":1469:1485  r.value = _value */\n      dup2\n      swap1\n      sstore\n      pop\n        /* \"DecenAngels.sol\":1510:1520  _recipient */\n      dup2\n        /* \"DecenAngels.sol\":1496:1497  r */\n      dup2\n        /* \"DecenAngels.sol\":1496:1507  r.recipient */\n      0x02\n      add\n      0x00\n        /* \"DecenAngels.sol\":1496:1520  r.recipient = _recipient */\n      0x0100\n      exp\n      dup2\n      sload\n      dup2\n      0xffffffffffffffffffffffffffffffffffffffff\n      mul\n      not\n      and\n      swap1\n      dup4\n      0xffffffffffffffffffffffffffffffffffffffff\n      and\n      mul\n      or\n      swap1\n      sstore\n      pop\n        /* \"DecenAngels.sol\":1544:1549  false */\n      0x00\n        /* \"DecenAngels.sol\":1531:1532  r */\n      dup2\n        /* \"DecenAngels.sol\":1531:1541  r.complete */\n      0x02\n      add\n      0x14\n        /* \"DecenAngels.sol\":1531:1549  r.complete = false */\n      0x0100\n      exp\n      dup2\n      sload\n      dup2\n      0xff\n      mul\n      not\n      and\n      swap1\n      dup4\n      iszero\n      iszero\n      mul\n      or\n      swap1\n      sstore\n      pop\n        /* \"DecenAngels.sol\":1578:1579  0 */\n      0x00\n        /* \"DecenAngels.sol\":1560:1561  r */\n      dup2\n        /* \"DecenAngels.sol\":1560:1575  r.approvalCount */\n      0x03\n      add\n        /* \"DecenAngels.sol\":1560:1579  r.approvalCount = 0 */\n      dup2\n      swap1\n      sstore\n      pop\n        /* \"DecenAngels.sol\":1324:1587  {... */\n      pop\n        /* \"DecenAngels.sol\":1213:1587  function createRequest(string memory _description, uint _value, address payable _recipient) public managerOnly {... */\n      pop\n      pop\n      pop\n      jump\t// out\n        /* \"DecenAngels.sol\":821:852  uint public minimumContribution */\n    tag_45:\n      sload(0x03)\n      dup2\n      jump\t// out\n        /* \"DecenAngels.sol\":1595:1922  function approveRequest(uint _index) public {... */\n    tag_50:\n        /* \"DecenAngels.sol\":1650:1667  Request storage r */\n      0x00\n        /* \"DecenAngels.sol\":1670:1678  requests */\n      0x01\n        /* \"DecenAngels.sol\":1670:1686  requests[_index] */\n      0x00\n        /* \"DecenAngels.sol\":1679:1685  _index */\n      dup4\n        /* \"DecenAngels.sol\":1670:1686  requests[_index] */\n      dup2\n      mstore\n      0x20\n      add\n      swap1\n      dup2\n      mstore\n      0x20\n      add\n      0x00\n      keccak256\n        /* \"DecenAngels.sol\":1650:1686  Request storage r = requests[_index] */\n      swap1\n      pop\n        /* \"DecenAngels.sol\":1707:1716  approvers */\n      0x04\n        /* \"DecenAngels.sol\":1707:1728  approvers[msg.sender] */\n      0x00\n        /* \"DecenAngels.sol\":1717:1727  msg.sender */\n      caller\n        /* \"DecenAngels.sol\":1707:1728  approvers[msg.sender] */\n      0xffffffffffffffffffffffffffffffffffffffff\n      and\n      0xffffffffffffffffffffffffffffffffffffffff\n      and\n      dup2\n      mstore\n      0x20\n      add\n      swap1\n      dup2\n      mstore\n      0x20\n      add\n      0x00\n      keccak256\n      0x00\n      swap1\n      sload\n      swap1\n      0x0100\n      exp\n      swap1\n      div\n      0xff\n      and\n        /* \"DecenAngels.sol\":1699:1765  require(approvers[msg.sender], \"Sorry, you are not a contributor\") */\n      tag_78\n      jumpi\n      mload(0x40)\n      0x08c379a000000000000000000000000000000000000000000000000000000000\n      dup2\n      mstore\n      0x04\n      add\n      tag_79\n      swap1\n      tag_80\n      jump\t// in\n    tag_79:\n      mload(0x40)\n      dup1\n      swap2\n      sub\n      swap1\n      revert\n    tag_78:\n        /* \"DecenAngels.sol\":1785:1786  r */\n      dup1\n        /* \"DecenAngels.sol\":1785:1796  r.approvals */\n      0x04\n      add\n        /* \"DecenAngels.sol\":1785:1808  r.approvals[msg.sender] */\n      0x00\n        /* \"DecenAngels.sol\":1797:1807  msg.sender */\n      caller\n        /* \"DecenAngels.sol\":1785:1808  r.approvals[msg.sender] */\n      0xffffffffffffffffffffffffffffffffffffffff\n      and\n      0xffffffffffffffffffffffffffffffffffffffff\n      and\n      dup2\n      mstore\n      0x20\n      add\n      swap1\n      dup2\n      mstore\n      0x20\n      add\n      0x00\n      keccak256\n      0x00\n      swap1\n      sload\n      swap1\n      0x0100\n      exp\n      swap1\n      div\n      0xff\n      and\n        /* \"DecenAngels.sol\":1784:1808  !r.approvals[msg.sender] */\n      iszero\n        /* \"DecenAngels.sol\":1776:1843  require(!r.approvals[msg.sender], \"Sorry, you can only vote once.\") */\n      tag_81\n      jumpi\n      mload(0x40)\n      0x08c379a000000000000000000000000000000000000000000000000000000000\n      dup2\n      mstore\n      0x04\n      add\n      tag_82\n      swap1\n      tag_83\n      jump\t// in\n    tag_82:\n      mload(0x40)\n      dup1\n      swap2\n      sub\n      swap1\n      revert\n    tag_81:\n        /* \"DecenAngels.sol\":1882:1886  true */\n      0x01\n        /* \"DecenAngels.sol\":1856:1857  r */\n      dup2\n        /* \"DecenAngels.sol\":1856:1867  r.approvals */\n      0x04\n      add\n        /* \"DecenAngels.sol\":1856:1879  r.approvals[msg.sender] */\n      0x00\n        /* \"DecenAngels.sol\":1868:1878  msg.sender */\n      caller\n        /* \"DecenAngels.sol\":1856:1879  r.approvals[msg.sender] */\n      0xffffffffffffffffffffffffffffffffffffffff\n      and\n      0xffffffffffffffffffffffffffffffffffffffff\n      and\n      dup2\n      mstore\n      0x20\n      add\n      swap1\n      dup2\n      mstore\n      0x20\n      add\n      0x00\n      keccak256\n      0x00\n        /* \"DecenAngels.sol\":1856:1886  r.approvals[msg.sender] = true */\n      0x0100\n      exp\n      dup2\n      sload\n      dup2\n      0xff\n      mul\n      not\n      and\n      swap1\n      dup4\n      iszero\n      iszero\n      mul\n      or\n      swap1\n      sstore\n      pop\n        /* \"DecenAngels.sol\":1897:1898  r */\n      dup1\n        /* \"DecenAngels.sol\":1897:1912  r.approvalCount */\n      0x03\n      add\n      0x00\n        /* \"DecenAngels.sol\":1897:1914  r.approvalCount++ */\n      dup2\n      sload\n      dup1\n      swap3\n      swap2\n      swap1\n      tag_84\n      swap1\n      tag_74\n      jump\t// in\n    tag_84:\n      swap2\n      swap1\n      pop\n      sstore\n      pop\n        /* \"DecenAngels.sol\":1639:1922  {... */\n      pop\n        /* \"DecenAngels.sol\":1595:1922  function approveRequest(uint _index) public {... */\n      pop\n      jump\t// out\n        /* \"#utility.yul\":7:82   */\n    tag_85:\n        /* \"#utility.yul\":40:46   */\n      0x00\n        /* \"#utility.yul\":73:75   */\n      0x40\n        /* \"#utility.yul\":67:76   */\n      mload\n        /* \"#utility.yul\":57:76   */\n      swap1\n      pop\n        /* \"#utility.yul\":7:82   */\n      swap1\n      jump\t// out\n        /* \"#utility.yul\":88:205   */\n    tag_86:\n        /* \"#utility.yul\":197:198   */\n      0x00\n        /* \"#utility.yul\":194:195   */\n      dup1\n        /* \"#utility.yul\":187:199   */\n      revert\n        /* \"#utility.yul\":211:328   */\n    tag_87:\n        /* \"#utility.yul\":320:321   */\n      0x00\n        /* \"#utility.yul\":317:318   */\n      dup1\n        /* \"#utility.yul\":310:322   */\n      revert\n        /* \"#utility.yul\":334:411   */\n    tag_88:\n        /* \"#utility.yul\":371:378   */\n      0x00\n        /* \"#utility.yul\":400:405   */\n      dup2\n        /* \"#utility.yul\":389:405   */\n      swap1\n      pop\n        /* \"#utility.yul\":334:411   */\n      swap2\n      swap1\n      pop\n      jump\t// out\n        /* \"#utility.yul\":417:539   */\n    tag_89:\n        /* \"#utility.yul\":490:514   */\n      tag_147\n        /* \"#utility.yul\":508:513   */\n      dup2\n        /* \"#utility.yul\":490:514   */\n      tag_88\n      jump\t// in\n    tag_147:\n        /* \"#utility.yul\":483:488   */\n      dup2\n        /* \"#utility.yul\":480:515   */\n      eq\n        /* \"#utility.yul\":470:533   */\n      tag_148\n      jumpi\n        /* \"#utility.yul\":529:530   */\n      0x00\n        /* \"#utility.yul\":526:527   */\n      dup1\n        /* \"#utility.yul\":519:531   */\n      revert\n        /* \"#utility.yul\":470:533   */\n    tag_148:\n        /* \"#utility.yul\":417:539   */\n      pop\n      jump\t// out\n        /* \"#utility.yul\":545:684   */\n    tag_90:\n        /* \"#utility.yul\":591:596   */\n      0x00\n        /* \"#utility.yul\":629:635   */\n      dup2\n        /* \"#utility.yul\":616:636   */\n      calldataload\n        /* \"#utility.yul\":607:636   */\n      swap1\n      pop\n        /* \"#utility.yul\":645:678   */\n      tag_150\n        /* \"#utility.yul\":672:677   */\n      dup2\n        /* \"#utility.yul\":645:678   */\n      tag_89\n      jump\t// in\n    tag_150:\n        /* \"#utility.yul\":545:684   */\n      swap3\n      swap2\n      pop\n      pop\n      jump\t// out\n        /* \"#utility.yul\":690:1019   */\n    tag_13:\n        /* \"#utility.yul\":749:755   */\n      0x00\n        /* \"#utility.yul\":798:800   */\n      0x20\n        /* \"#utility.yul\":786:795   */\n      dup3\n        /* \"#utility.yul\":777:784   */\n      dup5\n        /* \"#utility.yul\":773:796   */\n      sub\n        /* \"#utility.yul\":769:801   */\n      slt\n        /* \"#utility.yul\":766:885   */\n      iszero\n      tag_152\n      jumpi\n        /* \"#utility.yul\":804:883   */\n      tag_153\n      tag_86\n      jump\t// in\n    tag_153:\n        /* \"#utility.yul\":766:885   */\n    tag_152:\n        /* \"#utility.yul\":924:925   */\n      0x00\n        /* \"#utility.yul\":949:1002   */\n      tag_154\n        /* \"#utility.yul\":994:1001   */\n      dup5\n        /* \"#utility.yul\":985:991   */\n      dup3\n        /* \"#utility.yul\":974:983   */\n      dup6\n        /* \"#utility.yul\":970:992   */\n      add\n        /* \"#utility.yul\":949:1002   */\n      tag_90\n      jump\t// in\n    tag_154:\n        /* \"#utility.yul\":939:1002   */\n      swap2\n      pop\n        /* \"#utility.yul\":895:1012   */\n      pop\n        /* \"#utility.yul\":690:1019   */\n      swap3\n      swap2\n      pop\n      pop\n      jump\t// out\n        /* \"#utility.yul\":1025:1151   */\n    tag_91:\n        /* \"#utility.yul\":1062:1069   */\n      0x00\n        /* \"#utility.yul\":1102:1144   */\n      0xffffffffffffffffffffffffffffffffffffffff\n        /* \"#utility.yul\":1095:1100   */\n      dup3\n        /* \"#utility.yul\":1091:1145   */\n      and\n        /* \"#utility.yul\":1080:1145   */\n      swap1\n      pop\n        /* \"#utility.yul\":1025:1151   */\n      swap2\n      swap1\n      pop\n      jump\t// out\n        /* \"#utility.yul\":1157:1253   */\n    tag_92:\n        /* \"#utility.yul\":1194:1201   */\n      0x00\n        /* \"#utility.yul\":1223:1247   */\n      tag_157\n        /* \"#utility.yul\":1241:1246   */\n      dup3\n        /* \"#utility.yul\":1223:1247   */\n      tag_91\n      jump\t// in\n    tag_157:\n        /* \"#utility.yul\":1212:1247   */\n      swap1\n      pop\n        /* \"#utility.yul\":1157:1253   */\n      swap2\n      swap1\n      pop\n      jump\t// out\n        /* \"#utility.yul\":1259:1381   */\n    tag_93:\n        /* \"#utility.yul\":1332:1356   */\n      tag_159\n        /* \"#utility.yul\":1350:1355   */\n      dup2\n        /* \"#utility.yul\":1332:1356   */\n      tag_92\n      jump\t// in\n    tag_159:\n        /* \"#utility.yul\":1325:1330   */\n      dup2\n        /* \"#utility.yul\":1322:1357   */\n      eq\n        /* \"#utility.yul\":1312:1375   */\n      tag_160\n      jumpi\n        /* \"#utility.yul\":1371:1372   */\n      0x00\n        /* \"#utility.yul\":1368:1369   */\n      dup1\n        /* \"#utility.yul\":1361:1373   */\n      revert\n        /* \"#utility.yul\":1312:1375   */\n    tag_160:\n        /* \"#utility.yul\":1259:1381   */\n      pop\n      jump\t// out\n        /* \"#utility.yul\":1387:1526   */\n    tag_94:\n        /* \"#utility.yul\":1433:1438   */\n      0x00\n        /* \"#utility.yul\":1471:1477   */\n      dup2\n        /* \"#utility.yul\":1458:1478   */\n      calldataload\n        /* \"#utility.yul\":1449:1478   */\n      swap1\n      pop\n        /* \"#utility.yul\":1487:1520   */\n      tag_162\n        /* \"#utility.yul\":1514:1519   */\n      dup2\n        /* \"#utility.yul\":1487:1520   */\n      tag_93\n      jump\t// in\n    tag_162:\n        /* \"#utility.yul\":1387:1526   */\n      swap3\n      swap2\n      pop\n      pop\n      jump\t// out\n        /* \"#utility.yul\":1532:1861   */\n    tag_18:\n        /* \"#utility.yul\":1591:1597   */\n      0x00\n        /* \"#utility.yul\":1640:1642   */\n      0x20\n        /* \"#utility.yul\":1628:1637   */\n      dup3\n        /* \"#utility.yul\":1619:1626   */\n      dup5\n        /* \"#utility.yul\":1615:1638   */\n      sub\n        /* \"#utility.yul\":1611:1643   */\n      slt\n        /* \"#utility.yul\":1608:1727   */\n      iszero\n      tag_164\n      jumpi\n        /* \"#utility.yul\":1646:1725   */\n      tag_165\n      tag_86\n      jump\t// in\n    tag_165:\n        /* \"#utility.yul\":1608:1727   */\n    tag_164:\n        /* \"#utility.yul\":1766:1767   */\n      0x00\n        /* \"#utility.yul\":1791:1844   */\n      tag_166\n        /* \"#utility.yul\":1836:1843   */\n      dup5\n        /* \"#utility.yul\":1827:1833   */\n      dup3\n        /* \"#utility.yul\":1816:1825   */\n      dup6\n        /* \"#utility.yul\":1812:1834   */\n      add\n        /* \"#utility.yul\":1791:1844   */\n      tag_94\n      jump\t// in\n    tag_166:\n        /* \"#utility.yul\":1781:1844   */\n      swap2\n      pop\n        /* \"#utility.yul\":1737:1854   */\n      pop\n        /* \"#utility.yul\":1532:1861   */\n      swap3\n      swap2\n      pop\n      pop\n      jump\t// out\n        /* \"#utility.yul\":1867:1957   */\n    tag_95:\n        /* \"#utility.yul\":1901:1908   */\n      0x00\n        /* \"#utility.yul\":1944:1949   */\n      dup2\n        /* \"#utility.yul\":1937:1950   */\n      iszero\n        /* \"#utility.yul\":1930:1951   */\n      iszero\n        /* \"#utility.yul\":1919:1951   */\n      swap1\n      pop\n        /* \"#utility.yul\":1867:1957   */\n      swap2\n      swap1\n      pop\n      jump\t// out\n        /* \"#utility.yul\":1963:2072   */\n    tag_96:\n        /* \"#utility.yul\":2044:2065   */\n      tag_169\n        /* \"#utility.yul\":2059:2064   */\n      dup2\n        /* \"#utility.yul\":2044:2065   */\n      tag_95\n      jump\t// in\n    tag_169:\n        /* \"#utility.yul\":2039:2042   */\n      dup3\n        /* \"#utility.yul\":2032:2066   */\n      mstore\n        /* \"#utility.yul\":1963:2072   */\n      pop\n      pop\n      jump\t// out\n        /* \"#utility.yul\":2078:2288   */\n    tag_21:\n        /* \"#utility.yul\":2165:2169   */\n      0x00\n        /* \"#utility.yul\":2203:2205   */\n      0x20\n        /* \"#utility.yul\":2192:2201   */\n      dup3\n        /* \"#utility.yul\":2188:2206   */\n      add\n        /* \"#utility.yul\":2180:2206   */\n      swap1\n      pop\n        /* \"#utility.yul\":2216:2281   */\n      tag_171\n        /* \"#utility.yul\":2278:2279   */\n      0x00\n        /* \"#utility.yul\":2267:2276   */\n      dup4\n        /* \"#utility.yul\":2263:2280   */\n      add\n        /* \"#utility.yul\":2254:2260   */\n      dup5\n        /* \"#utility.yul\":2216:2281   */\n      tag_96\n      jump\t// in\n    tag_171:\n        /* \"#utility.yul\":2078:2288   */\n      swap3\n      swap2\n      pop\n      pop\n      jump\t// out\n        /* \"#utility.yul\":2294:2412   */\n    tag_97:\n        /* \"#utility.yul\":2381:2405   */\n      tag_173\n        /* \"#utility.yul\":2399:2404   */\n      dup2\n        /* \"#utility.yul\":2381:2405   */\n      tag_92\n      jump\t// in\n    tag_173:\n        /* \"#utility.yul\":2376:2379   */\n      dup3\n        /* \"#utility.yul\":2369:2406   */\n      mstore\n        /* \"#utility.yul\":2294:2412   */\n      pop\n      pop\n      jump\t// out\n        /* \"#utility.yul\":2418:2640   */\n    tag_26:\n        /* \"#utility.yul\":2511:2515   */\n      0x00\n        /* \"#utility.yul\":2549:2551   */\n      0x20\n        /* \"#utility.yul\":2538:2547   */\n      dup3\n        /* \"#utility.yul\":2534:2552   */\n      add\n        /* \"#utility.yul\":2526:2552   */\n      swap1\n      pop\n        /* \"#utility.yul\":2562:2633   */\n      tag_175\n        /* \"#utility.yul\":2630:2631   */\n      0x00\n        /* \"#utility.yul\":2619:2628   */\n      dup4\n        /* \"#utility.yul\":2615:2632   */\n      add\n        /* \"#utility.yul\":2606:2612   */\n      dup5\n        /* \"#utility.yul\":2562:2633   */\n      tag_97\n      jump\t// in\n    tag_175:\n        /* \"#utility.yul\":2418:2640   */\n      swap3\n      swap2\n      pop\n      pop\n      jump\t// out\n        /* \"#utility.yul\":2646:2745   */\n    tag_98:\n        /* \"#utility.yul\":2698:2704   */\n      0x00\n        /* \"#utility.yul\":2732:2737   */\n      dup2\n        /* \"#utility.yul\":2726:2738   */\n      mload\n        /* \"#utility.yul\":2716:2738   */\n      swap1\n      pop\n        /* \"#utility.yul\":2646:2745   */\n      swap2\n      swap1\n      pop\n      jump\t// out\n        /* \"#utility.yul\":2751:2920   */\n    tag_99:\n        /* \"#utility.yul\":2835:2846   */\n      0x00\n        /* \"#utility.yul\":2869:2875   */\n      dup3\n        /* \"#utility.yul\":2864:2867   */\n      dup3\n        /* \"#utility.yul\":2857:2876   */\n      mstore\n        /* \"#utility.yul\":2909:2913   */\n      0x20\n        /* \"#utility.yul\":2904:2907   */\n      dup3\n        /* \"#utility.yul\":2900:2914   */\n      add\n        /* \"#utility.yul\":2885:2914   */\n      swap1\n      pop\n        /* \"#utility.yul\":2751:2920   */\n      swap3\n      swap2\n      pop\n      pop\n      jump\t// out\n        /* \"#utility.yul\":2926:3172   */\n    tag_100:\n        /* \"#utility.yul\":3007:3008   */\n      0x00\n        /* \"#utility.yul\":3017:3130   */\n    tag_179:\n        /* \"#utility.yul\":3031:3037   */\n      dup4\n        /* \"#utility.yul\":3028:3029   */\n      dup2\n        /* \"#utility.yul\":3025:3038   */\n      lt\n        /* \"#utility.yul\":3017:3130   */\n      iszero\n      tag_181\n      jumpi\n        /* \"#utility.yul\":3116:3117   */\n      dup1\n        /* \"#utility.yul\":3111:3114   */\n      dup3\n        /* \"#utility.yul\":3107:3118   */\n      add\n        /* \"#utility.yul\":3101:3119   */\n      mload\n        /* \"#utility.yul\":3097:3098   */\n      dup2\n        /* \"#utility.yul\":3092:3095   */\n      dup5\n        /* \"#utility.yul\":3088:3099   */\n      add\n        /* \"#utility.yul\":3081:3120   */\n      mstore\n        /* \"#utility.yul\":3053:3055   */\n      0x20\n        /* \"#utility.yul\":3050:3051   */\n      dup2\n        /* \"#utility.yul\":3046:3056   */\n      add\n        /* \"#utility.yul\":3041:3056   */\n      swap1\n      pop\n        /* \"#utility.yul\":3017:3130   */\n      jump(tag_179)\n    tag_181:\n        /* \"#utility.yul\":3164:3165   */\n      0x00\n        /* \"#utility.yul\":3155:3161   */\n      dup5\n        /* \"#utility.yul\":3150:3153   */\n      dup5\n        /* \"#utility.yul\":3146:3162   */\n      add\n        /* \"#utility.yul\":3139:3166   */\n      mstore\n        /* \"#utility.yul\":2988:3172   */\n      pop\n        /* \"#utility.yul\":2926:3172   */\n      pop\n      pop\n      pop\n      jump\t// out\n        /* \"#utility.yul\":3178:3280   */\n    tag_101:\n        /* \"#utility.yul\":3219:3225   */\n      0x00\n        /* \"#utility.yul\":3270:3272   */\n      0x1f\n        /* \"#utility.yul\":3266:3273   */\n      not\n        /* \"#utility.yul\":3261:3263   */\n      0x1f\n        /* \"#utility.yul\":3254:3259   */\n      dup4\n        /* \"#utility.yul\":3250:3264   */\n      add\n        /* \"#utility.yul\":3246:3274   */\n      and\n        /* \"#utility.yul\":3236:3274   */\n      swap1\n      pop\n        /* \"#utility.yul\":3178:3280   */\n      swap2\n      swap1\n      pop\n      jump\t// out\n        /* \"#utility.yul\":3286:3663   */\n    tag_102:\n        /* \"#utility.yul\":3374:3377   */\n      0x00\n        /* \"#utility.yul\":3402:3441   */\n      tag_184\n        /* \"#utility.yul\":3435:3440   */\n      dup3\n        /* \"#utility.yul\":3402:3441   */\n      tag_98\n      jump\t// in\n    tag_184:\n        /* \"#utility.yul\":3457:3528   */\n      tag_185\n        /* \"#utility.yul\":3521:3527   */\n      dup2\n        /* \"#utility.yul\":3516:3519   */\n      dup6\n        /* \"#utility.yul\":3457:3528   */\n      tag_99\n      jump\t// in\n    tag_185:\n        /* \"#utility.yul\":3450:3528   */\n      swap4\n      pop\n        /* \"#utility.yul\":3537:3602   */\n      tag_186\n        /* \"#utility.yul\":3595:3601   */\n      dup2\n        /* \"#utility.yul\":3590:3593   */\n      dup6\n        /* \"#utility.yul\":3583:3587   */\n      0x20\n        /* \"#utility.yul\":3576:3581   */\n      dup7\n        /* \"#utility.yul\":3572:3588   */\n      add\n        /* \"#utility.yul\":3537:3602   */\n      tag_100\n      jump\t// in\n    tag_186:\n        /* \"#utility.yul\":3627:3656   */\n      tag_187\n        /* \"#utility.yul\":3649:3655   */\n      dup2\n        /* \"#utility.yul\":3627:3656   */\n      tag_101\n      jump\t// in\n    tag_187:\n        /* \"#utility.yul\":3622:3625   */\n      dup5\n        /* \"#utility.yul\":3618:3657   */\n      add\n        /* \"#utility.yul\":3611:3657   */\n      swap2\n      pop\n        /* \"#utility.yul\":3378:3663   */\n      pop\n        /* \"#utility.yul\":3286:3663   */\n      swap3\n      swap2\n      pop\n      pop\n      jump\t// out\n        /* \"#utility.yul\":3669:3787   */\n    tag_103:\n        /* \"#utility.yul\":3756:3780   */\n      tag_189\n        /* \"#utility.yul\":3774:3779   */\n      dup2\n        /* \"#utility.yul\":3756:3780   */\n      tag_88\n      jump\t// in\n    tag_189:\n        /* \"#utility.yul\":3751:3754   */\n      dup3\n        /* \"#utility.yul\":3744:3781   */\n      mstore\n        /* \"#utility.yul\":3669:3787   */\n      pop\n      pop\n      jump\t// out\n        /* \"#utility.yul\":3793:3897   */\n    tag_104:\n        /* \"#utility.yul\":3838:3845   */\n      0x00\n        /* \"#utility.yul\":3867:3891   */\n      tag_191\n        /* \"#utility.yul\":3885:3890   */\n      dup3\n        /* \"#utility.yul\":3867:3891   */\n      tag_91\n      jump\t// in\n    tag_191:\n        /* \"#utility.yul\":3856:3891   */\n      swap1\n      pop\n        /* \"#utility.yul\":3793:3897   */\n      swap2\n      swap1\n      pop\n      jump\t// out\n        /* \"#utility.yul\":3903:4045   */\n    tag_105:\n        /* \"#utility.yul\":4006:4038   */\n      tag_193\n        /* \"#utility.yul\":4032:4037   */\n      dup2\n        /* \"#utility.yul\":4006:4038   */\n      tag_104\n      jump\t// in\n    tag_193:\n        /* \"#utility.yul\":4001:4004   */\n      dup3\n        /* \"#utility.yul\":3994:4039   */\n      mstore\n        /* \"#utility.yul\":3903:4045   */\n      pop\n      pop\n      jump\t// out\n        /* \"#utility.yul\":4051:4826   */\n    tag_32:\n        /* \"#utility.yul\":4286:4290   */\n      0x00\n        /* \"#utility.yul\":4324:4327   */\n      0xa0\n        /* \"#utility.yul\":4313:4322   */\n      dup3\n        /* \"#utility.yul\":4309:4328   */\n      add\n        /* \"#utility.yul\":4301:4328   */\n      swap1\n      pop\n        /* \"#utility.yul\":4374:4383   */\n      dup2\n        /* \"#utility.yul\":4368:4372   */\n      dup2\n        /* \"#utility.yul\":4364:4384   */\n      sub\n        /* \"#utility.yul\":4360:4361   */\n      0x00\n        /* \"#utility.yul\":4349:4358   */\n      dup4\n        /* \"#utility.yul\":4345:4362   */\n      add\n        /* \"#utility.yul\":4338:4385   */\n      mstore\n        /* \"#utility.yul\":4402:4480   */\n      tag_195\n        /* \"#utility.yul\":4475:4479   */\n      dup2\n        /* \"#utility.yul\":4466:4472   */\n      dup9\n        /* \"#utility.yul\":4402:4480   */\n      tag_102\n      jump\t// in\n    tag_195:\n        /* \"#utility.yul\":4394:4480   */\n      swap1\n      pop\n        /* \"#utility.yul\":4490:4562   */\n      tag_196\n        /* \"#utility.yul\":4558:4560   */\n      0x20\n        /* \"#utility.yul\":4547:4556   */\n      dup4\n        /* \"#utility.yul\":4543:4561   */\n      add\n        /* \"#utility.yul\":4534:4540   */\n      dup8\n        /* \"#utility.yul\":4490:4562   */\n      tag_103\n      jump\t// in\n    tag_196:\n        /* \"#utility.yul\":4572:4660   */\n      tag_197\n        /* \"#utility.yul\":4656:4658   */\n      0x40\n        /* \"#utility.yul\":4645:4654   */\n      dup4\n        /* \"#utility.yul\":4641:4659   */\n      add\n        /* \"#utility.yul\":4632:4638   */\n      dup7\n        /* \"#utility.yul\":4572:4660   */\n      tag_105\n      jump\t// in\n    tag_197:\n        /* \"#utility.yul\":4670:4736   */\n      tag_198\n        /* \"#utility.yul\":4732:4734   */\n      0x60\n        /* \"#utility.yul\":4721:4730   */\n      dup4\n        /* \"#utility.yul\":4717:4735   */\n      add\n        /* \"#utility.yul\":4708:4714   */\n      dup6\n        /* \"#utility.yul\":4670:4736   */\n      tag_96\n      jump\t// in\n    tag_198:\n        /* \"#utility.yul\":4746:4819   */\n      tag_199\n        /* \"#utility.yul\":4814:4817   */\n      0x80\n        /* \"#utility.yul\":4803:4812   */\n      dup4\n        /* \"#utility.yul\":4799:4818   */\n      add\n        /* \"#utility.yul\":4790:4796   */\n      dup5\n        /* \"#utility.yul\":4746:4819   */\n      tag_103\n      jump\t// in\n    tag_199:\n        /* \"#utility.yul\":4051:4826   */\n      swap7\n      swap6\n      pop\n      pop\n      pop\n      pop\n      pop\n      pop\n      jump\t// out\n        /* \"#utility.yul\":4832:5054   */\n    tag_37:\n        /* \"#utility.yul\":4925:4929   */\n      0x00\n        /* \"#utility.yul\":4963:4965   */\n      0x20\n        /* \"#utility.yul\":4952:4961   */\n      dup3\n        /* \"#utility.yul\":4948:4966   */\n      add\n        /* \"#utility.yul\":4940:4966   */\n      swap1\n      pop\n        /* \"#utility.yul\":4976:5047   */\n      tag_201\n        /* \"#utility.yul\":5044:5045   */\n      0x00\n        /* \"#utility.yul\":5033:5042   */\n      dup4\n        /* \"#utility.yul\":5029:5046   */\n      add\n        /* \"#utility.yul\":5020:5026   */\n      dup5\n        /* \"#utility.yul\":4976:5047   */\n      tag_103\n      jump\t// in\n    tag_201:\n        /* \"#utility.yul\":4832:5054   */\n      swap3\n      swap2\n      pop\n      pop\n      jump\t// out\n        /* \"#utility.yul\":5060:5177   */\n    tag_106:\n        /* \"#utility.yul\":5169:5170   */\n      0x00\n        /* \"#utility.yul\":5166:5167   */\n      dup1\n        /* \"#utility.yul\":5159:5171   */\n      revert\n        /* \"#utility.yul\":5183:5300   */\n    tag_107:\n        /* \"#utility.yul\":5292:5293   */\n      0x00\n        /* \"#utility.yul\":5289:5290   */\n      dup1\n        /* \"#utility.yul\":5282:5294   */\n      revert\n        /* \"#utility.yul\":5306:5486   */\n    tag_108:\n        /* \"#utility.yul\":5354:5431   */\n      0x4e487b7100000000000000000000000000000000000000000000000000000000\n        /* \"#utility.yul\":5351:5352   */\n      0x00\n        /* \"#utility.yul\":5344:5432   */\n      mstore\n        /* \"#utility.yul\":5451:5455   */\n      0x41\n        /* \"#utility.yul\":5448:5449   */\n      0x04\n        /* \"#utility.yul\":5441:5456   */\n      mstore\n        /* \"#utility.yul\":5475:5479   */\n      0x24\n        /* \"#utility.yul\":5472:5473   */\n      0x00\n        /* \"#utility.yul\":5465:5480   */\n      revert\n        /* \"#utility.yul\":5492:5773   */\n    tag_109:\n        /* \"#utility.yul\":5575:5602   */\n      tag_206\n        /* \"#utility.yul\":5597:5601   */\n      dup3\n        /* \"#utility.yul\":5575:5602   */\n      tag_101\n      jump\t// in\n    tag_206:\n        /* \"#utility.yul\":5567:5573   */\n      dup2\n        /* \"#utility.yul\":5563:5603   */\n      add\n        /* \"#utility.yul\":5705:5711   */\n      dup2\n        /* \"#utility.yul\":5693:5703   */\n      dup2\n        /* \"#utility.yul\":5690:5712   */\n      lt\n        /* \"#utility.yul\":5669:5687   */\n      0xffffffffffffffff\n        /* \"#utility.yul\":5657:5667   */\n      dup3\n        /* \"#utility.yul\":5654:5688   */\n      gt\n        /* \"#utility.yul\":5651:5713   */\n      or\n        /* \"#utility.yul\":5648:5736   */\n      iszero\n      tag_207\n      jumpi\n        /* \"#utility.yul\":5716:5734   */\n      tag_208\n      tag_108\n      jump\t// in\n    tag_208:\n        /* \"#utility.yul\":5648:5736   */\n    tag_207:\n        /* \"#utility.yul\":5756:5766   */\n      dup1\n        /* \"#utility.yul\":5752:5754   */\n      0x40\n        /* \"#utility.yul\":5745:5767   */\n      mstore\n        /* \"#utility.yul\":5535:5773   */\n      pop\n        /* \"#utility.yul\":5492:5773   */\n      pop\n      pop\n      jump\t// out\n        /* \"#utility.yul\":5779:5908   */\n    tag_110:\n        /* \"#utility.yul\":5813:5819   */\n      0x00\n        /* \"#utility.yul\":5840:5860   */\n      tag_210\n      tag_85\n      jump\t// in\n    tag_210:\n        /* \"#utility.yul\":5830:5860   */\n      swap1\n      pop\n        /* \"#utility.yul\":5869:5902   */\n      tag_211\n        /* \"#utility.yul\":5897:5901   */\n      dup3\n        /* \"#utility.yul\":5889:5895   */\n      dup3\n        /* \"#utility.yul\":5869:5902   */\n      tag_109\n      jump\t// in\n    tag_211:\n        /* \"#utility.yul\":5779:5908   */\n      swap2\n      swap1\n      pop\n      jump\t// out\n        /* \"#utility.yul\":5914:6222   */\n    tag_111:\n        /* \"#utility.yul\":5976:5980   */\n      0x00\n        /* \"#utility.yul\":6066:6084   */\n      0xffffffffffffffff\n        /* \"#utility.yul\":6058:6064   */\n      dup3\n        /* \"#utility.yul\":6055:6085   */\n      gt\n        /* \"#utility.yul\":6052:6108   */\n      iszero\n      tag_213\n      jumpi\n        /* \"#utility.yul\":6088:6106   */\n      tag_214\n      tag_108\n      jump\t// in\n    tag_214:\n        /* \"#utility.yul\":6052:6108   */\n    tag_213:\n        /* \"#utility.yul\":6126:6155   */\n      tag_215\n        /* \"#utility.yul\":6148:6154   */\n      dup3\n        /* \"#utility.yul\":6126:6155   */\n      tag_101\n      jump\t// in\n    tag_215:\n        /* \"#utility.yul\":6118:6155   */\n      swap1\n      pop\n        /* \"#utility.yul\":6210:6214   */\n      0x20\n        /* \"#utility.yul\":6204:6208   */\n      dup2\n        /* \"#utility.yul\":6200:6215   */\n      add\n        /* \"#utility.yul\":6192:6215   */\n      swap1\n      pop\n        /* \"#utility.yul\":5914:6222   */\n      swap2\n      swap1\n      pop\n      jump\t// out\n        /* \"#utility.yul\":6228:6374   */\n    tag_112:\n        /* \"#utility.yul\":6325:6331   */\n      dup3\n        /* \"#utility.yul\":6320:6323   */\n      dup2\n        /* \"#utility.yul\":6315:6318   */\n      dup4\n        /* \"#utility.yul\":6302:6332   */\n      calldatacopy\n        /* \"#utility.yul\":6366:6367   */\n      0x00\n        /* \"#utility.yul\":6357:6363   */\n      dup4\n        /* \"#utility.yul\":6352:6355   */\n      dup4\n        /* \"#utility.yul\":6348:6364   */\n      add\n        /* \"#utility.yul\":6341:6368   */\n      mstore\n        /* \"#utility.yul\":6228:6374   */\n      pop\n      pop\n      pop\n      jump\t// out\n        /* \"#utility.yul\":6380:6805   */\n    tag_113:\n        /* \"#utility.yul\":6458:6463   */\n      0x00\n        /* \"#utility.yul\":6483:6549   */\n      tag_218\n        /* \"#utility.yul\":6499:6548   */\n      tag_219\n        /* \"#utility.yul\":6541:6547   */\n      dup5\n        /* \"#utility.yul\":6499:6548   */\n      tag_111\n      jump\t// in\n    tag_219:\n        /* \"#utility.yul\":6483:6549   */\n      tag_110\n      jump\t// in\n    tag_218:\n        /* \"#utility.yul\":6474:6549   */\n      swap1\n      pop\n        /* \"#utility.yul\":6572:6578   */\n      dup3\n        /* \"#utility.yul\":6565:6570   */\n      dup2\n        /* \"#utility.yul\":6558:6579   */\n      mstore\n        /* \"#utility.yul\":6610:6614   */\n      0x20\n        /* \"#utility.yul\":6603:6608   */\n      dup2\n        /* \"#utility.yul\":6599:6615   */\n      add\n        /* \"#utility.yul\":6648:6651   */\n      dup5\n        /* \"#utility.yul\":6639:6645   */\n      dup5\n        /* \"#utility.yul\":6634:6637   */\n      dup5\n        /* \"#utility.yul\":6630:6646   */\n      add\n        /* \"#utility.yul\":6627:6652   */\n      gt\n        /* \"#utility.yul\":6624:6736   */\n      iszero\n      tag_220\n      jumpi\n        /* \"#utility.yul\":6655:6734   */\n      tag_221\n      tag_107\n      jump\t// in\n    tag_221:\n        /* \"#utility.yul\":6624:6736   */\n    tag_220:\n        /* \"#utility.yul\":6745:6799   */\n      tag_222\n        /* \"#utility.yul\":6792:6798   */\n      dup5\n        /* \"#utility.yul\":6787:6790   */\n      dup3\n        /* \"#utility.yul\":6782:6785   */\n      dup6\n        /* \"#utility.yul\":6745:6799   */\n      tag_112\n      jump\t// in\n    tag_222:\n        /* \"#utility.yul\":6464:6805   */\n      pop\n        /* \"#utility.yul\":6380:6805   */\n      swap4\n      swap3\n      pop\n      pop\n      pop\n      jump\t// out\n        /* \"#utility.yul\":6825:7165   */\n    tag_114:\n        /* \"#utility.yul\":6881:6886   */\n      0x00\n        /* \"#utility.yul\":6930:6933   */\n      dup3\n        /* \"#utility.yul\":6923:6927   */\n      0x1f\n        /* \"#utility.yul\":6915:6921   */\n      dup4\n        /* \"#utility.yul\":6911:6928   */\n      add\n        /* \"#utility.yul\":6907:6934   */\n      slt\n        /* \"#utility.yul\":6897:7019   */\n      tag_224\n      jumpi\n        /* \"#utility.yul\":6938:7017   */\n      tag_225\n      tag_106\n      jump\t// in\n    tag_225:\n        /* \"#utility.yul\":6897:7019   */\n    tag_224:\n        /* \"#utility.yul\":7055:7061   */\n      dup2\n        /* \"#utility.yul\":7042:7062   */\n      calldataload\n        /* \"#utility.yul\":7080:7159   */\n      tag_226\n        /* \"#utility.yul\":7155:7158   */\n      dup5\n        /* \"#utility.yul\":7147:7153   */\n      dup3\n        /* \"#utility.yul\":7140:7144   */\n      0x20\n        /* \"#utility.yul\":7132:7138   */\n      dup7\n        /* \"#utility.yul\":7128:7145   */\n      add\n        /* \"#utility.yul\":7080:7159   */\n      tag_113\n      jump\t// in\n    tag_226:\n        /* \"#utility.yul\":7071:7159   */\n      swap2\n      pop\n        /* \"#utility.yul\":6887:7165   */\n      pop\n        /* \"#utility.yul\":6825:7165   */\n      swap3\n      swap2\n      pop\n      pop\n      jump\t// out\n        /* \"#utility.yul\":7171:7309   */\n    tag_115:\n        /* \"#utility.yul\":7252:7284   */\n      tag_228\n        /* \"#utility.yul\":7278:7283   */\n      dup2\n        /* \"#utility.yul\":7252:7284   */\n      tag_104\n      jump\t// in\n    tag_228:\n        /* \"#utility.yul\":7245:7250   */\n      dup2\n        /* \"#utility.yul\":7242:7285   */\n      eq\n        /* \"#utility.yul\":7232:7303   */\n      tag_229\n      jumpi\n        /* \"#utility.yul\":7299:7300   */\n      0x00\n        /* \"#utility.yul\":7296:7297   */\n      dup1\n        /* \"#utility.yul\":7289:7301   */\n      revert\n        /* \"#utility.yul\":7232:7303   */\n    tag_229:\n        /* \"#utility.yul\":7171:7309   */\n      pop\n      jump\t// out\n        /* \"#utility.yul\":7315:7470   */\n    tag_116:\n        /* \"#utility.yul\":7369:7374   */\n      0x00\n        /* \"#utility.yul\":7407:7413   */\n      dup2\n        /* \"#utility.yul\":7394:7414   */\n      calldataload\n        /* \"#utility.yul\":7385:7414   */\n      swap1\n      pop\n        /* \"#utility.yul\":7423:7464   */\n      tag_231\n        /* \"#utility.yul\":7458:7463   */\n      dup2\n        /* \"#utility.yul\":7423:7464   */\n      tag_115\n      jump\t// in\n    tag_231:\n        /* \"#utility.yul\":7315:7470   */\n      swap3\n      swap2\n      pop\n      pop\n      jump\t// out\n        /* \"#utility.yul\":7476:8291   */\n    tag_41:\n        /* \"#utility.yul\":7571:7577   */\n      0x00\n        /* \"#utility.yul\":7579:7585   */\n      dup1\n        /* \"#utility.yul\":7587:7593   */\n      0x00\n        /* \"#utility.yul\":7636:7638   */\n      0x60\n        /* \"#utility.yul\":7624:7633   */\n      dup5\n        /* \"#utility.yul\":7615:7622   */\n      dup7\n        /* \"#utility.yul\":7611:7634   */\n      sub\n        /* \"#utility.yul\":7607:7639   */\n      slt\n        /* \"#utility.yul\":7604:7723   */\n      iszero\n      tag_233\n      jumpi\n        /* \"#utility.yul\":7642:7721   */\n      tag_234\n      tag_86\n      jump\t// in\n    tag_234:\n        /* \"#utility.yul\":7604:7723   */\n    tag_233:\n        /* \"#utility.yul\":7790:7791   */\n      0x00\n        /* \"#utility.yul\":7779:7788   */\n      dup5\n        /* \"#utility.yul\":7775:7792   */\n      add\n        /* \"#utility.yul\":7762:7793   */\n      calldataload\n        /* \"#utility.yul\":7820:7838   */\n      0xffffffffffffffff\n        /* \"#utility.yul\":7812:7818   */\n      dup2\n        /* \"#utility.yul\":7809:7839   */\n      gt\n        /* \"#utility.yul\":7806:7923   */\n      iszero\n      tag_235\n      jumpi\n        /* \"#utility.yul\":7842:7921   */\n      tag_236\n      tag_87\n      jump\t// in\n    tag_236:\n        /* \"#utility.yul\":7806:7923   */\n    tag_235:\n        /* \"#utility.yul\":7947:8010   */\n      tag_237\n        /* \"#utility.yul\":8002:8009   */\n      dup7\n        /* \"#utility.yul\":7993:7999   */\n      dup3\n        /* \"#utility.yul\":7982:7991   */\n      dup8\n        /* \"#utility.yul\":7978:8000   */\n      add\n        /* \"#utility.yul\":7947:8010   */\n      tag_114\n      jump\t// in\n    tag_237:\n        /* \"#utility.yul\":7937:8010   */\n      swap4\n      pop\n        /* \"#utility.yul\":7733:8020   */\n      pop\n        /* \"#utility.yul\":8059:8061   */\n      0x20\n        /* \"#utility.yul\":8085:8138   */\n      tag_238\n        /* \"#utility.yul\":8130:8137   */\n      dup7\n        /* \"#utility.yul\":8121:8127   */\n      dup3\n        /* \"#utility.yul\":8110:8119   */\n      dup8\n        /* \"#utility.yul\":8106:8128   */\n      add\n        /* \"#utility.yul\":8085:8138   */\n      tag_90\n      jump\t// in\n    tag_238:\n        /* \"#utility.yul\":8075:8138   */\n      swap3\n      pop\n        /* \"#utility.yul\":8030:8148   */\n      pop\n        /* \"#utility.yul\":8187:8189   */\n      0x40\n        /* \"#utility.yul\":8213:8274   */\n      tag_239\n        /* \"#utility.yul\":8266:8273   */\n      dup7\n        /* \"#utility.yul\":8257:8263   */\n      dup3\n        /* \"#utility.yul\":8246:8255   */\n      dup8\n        /* \"#utility.yul\":8242:8264   */\n      add\n        /* \"#utility.yul\":8213:8274   */\n      tag_116\n      jump\t// in\n    tag_239:\n        /* \"#utility.yul\":8203:8274   */\n      swap2\n      pop\n        /* \"#utility.yul\":8158:8284   */\n      pop\n        /* \"#utility.yul\":7476:8291   */\n      swap3\n      pop\n      swap3\n      pop\n      swap3\n      jump\t// out\n        /* \"#utility.yul\":8297:8469   */\n    tag_117:\n        /* \"#utility.yul\":8437:8461   */\n      0x596f7520617265206e6f7420617574686f72697a656400000000000000000000\n        /* \"#utility.yul\":8433:8434   */\n      0x00\n        /* \"#utility.yul\":8425:8431   */\n      dup3\n        /* \"#utility.yul\":8421:8435   */\n      add\n        /* \"#utility.yul\":8414:8462   */\n      mstore\n        /* \"#utility.yul\":8297:8469   */\n      pop\n      jump\t// out\n        /* \"#utility.yul\":8475:8841   */\n    tag_118:\n        /* \"#utility.yul\":8617:8620   */\n      0x00\n        /* \"#utility.yul\":8638:8705   */\n      tag_242\n        /* \"#utility.yul\":8702:8704   */\n      0x16\n        /* \"#utility.yul\":8697:8700   */\n      dup4\n        /* \"#utility.yul\":8638:8705   */\n      tag_99\n      jump\t// in\n    tag_242:\n        /* \"#utility.yul\":8631:8705   */\n      swap2\n      pop\n        /* \"#utility.yul\":8714:8807   */\n      tag_243\n        /* \"#utility.yul\":8803:8806   */\n      dup3\n        /* \"#utility.yul\":8714:8807   */\n      tag_117\n      jump\t// in\n    tag_243:\n        /* \"#utility.yul\":8832:8834   */\n      0x20\n        /* \"#utility.yul\":8827:8830   */\n      dup3\n        /* \"#utility.yul\":8823:8835   */\n      add\n        /* \"#utility.yul\":8816:8835   */\n      swap1\n      pop\n        /* \"#utility.yul\":8475:8841   */\n      swap2\n      swap1\n      pop\n      jump\t// out\n        /* \"#utility.yul\":8847:9266   */\n    tag_54:\n        /* \"#utility.yul\":9013:9017   */\n      0x00\n        /* \"#utility.yul\":9051:9053   */\n      0x20\n        /* \"#utility.yul\":9040:9049   */\n      dup3\n        /* \"#utility.yul\":9036:9054   */\n      add\n        /* \"#utility.yul\":9028:9054   */\n      swap1\n      pop\n        /* \"#utility.yul\":9100:9109   */\n      dup2\n        /* \"#utility.yul\":9094:9098   */\n      dup2\n        /* \"#utility.yul\":9090:9110   */\n      sub\n        /* \"#utility.yul\":9086:9087   */\n      0x00\n        /* \"#utility.yul\":9075:9084   */\n      dup4\n        /* \"#utility.yul\":9071:9088   */\n      add\n        /* \"#utility.yul\":9064:9111   */\n      mstore\n        /* \"#utility.yul\":9128:9259   */\n      tag_245\n        /* \"#utility.yul\":9254:9258   */\n      dup2\n        /* \"#utility.yul\":9128:9259   */\n      tag_118\n      jump\t// in\n    tag_245:\n        /* \"#utility.yul\":9120:9259   */\n      swap1\n      pop\n        /* \"#utility.yul\":8847:9266   */\n      swap2\n      swap1\n      pop\n      jump\t// out\n        /* \"#utility.yul\":9272:9452   */\n    tag_119:\n        /* \"#utility.yul\":9320:9397   */\n      0x4e487b7100000000000000000000000000000000000000000000000000000000\n        /* \"#utility.yul\":9317:9318   */\n      0x00\n        /* \"#utility.yul\":9310:9398   */\n      mstore\n        /* \"#utility.yul\":9417:9421   */\n      0x12\n        /* \"#utility.yul\":9414:9415   */\n      0x04\n        /* \"#utility.yul\":9407:9422   */\n      mstore\n        /* \"#utility.yul\":9441:9445   */\n      0x24\n        /* \"#utility.yul\":9438:9439   */\n      0x00\n        /* \"#utility.yul\":9431:9446   */\n      revert\n        /* \"#utility.yul\":9458:9638   */\n    tag_120:\n        /* \"#utility.yul\":9506:9583   */\n      0x4e487b7100000000000000000000000000000000000000000000000000000000\n        /* \"#utility.yul\":9503:9504   */\n      0x00\n        /* \"#utility.yul\":9496:9584   */\n      mstore\n        /* \"#utility.yul\":9603:9607   */\n      0x11\n        /* \"#utility.yul\":9600:9601   */\n      0x04\n        /* \"#utility.yul\":9593:9608   */\n      mstore\n        /* \"#utility.yul\":9627:9631   */\n      0x24\n        /* \"#utility.yul\":9624:9625   */\n      0x00\n        /* \"#utility.yul\":9617:9632   */\n      revert\n        /* \"#utility.yul\":9644:9829   */\n    tag_58:\n        /* \"#utility.yul\":9684:9685   */\n      0x00\n        /* \"#utility.yul\":9701:9721   */\n      tag_249\n        /* \"#utility.yul\":9719:9720   */\n      dup3\n        /* \"#utility.yul\":9701:9721   */\n      tag_88\n      jump\t// in\n    tag_249:\n        /* \"#utility.yul\":9696:9721   */\n      swap2\n      pop\n        /* \"#utility.yul\":9735:9755   */\n      tag_250\n        /* \"#utility.yul\":9753:9754   */\n      dup4\n        /* \"#utility.yul\":9735:9755   */\n      tag_88\n      jump\t// in\n    tag_250:\n        /* \"#utility.yul\":9730:9755   */\n      swap3\n      pop\n        /* \"#utility.yul\":9774:9775   */\n      dup3\n        /* \"#utility.yul\":9764:9799   */\n      tag_251\n      jumpi\n        /* \"#utility.yul\":9779:9797   */\n      tag_252\n      tag_119\n      jump\t// in\n    tag_252:\n        /* \"#utility.yul\":9764:9799   */\n    tag_251:\n        /* \"#utility.yul\":9821:9822   */\n      dup3\n        /* \"#utility.yul\":9818:9819   */\n      dup3\n        /* \"#utility.yul\":9814:9823   */\n      div\n        /* \"#utility.yul\":9809:9823   */\n      swap1\n      pop\n        /* \"#utility.yul\":9644:9829   */\n      swap3\n      swap2\n      pop\n      pop\n      jump\t// out\n        /* \"#utility.yul\":9835:10015   */\n    tag_121:\n        /* \"#utility.yul\":9883:9960   */\n      0x4e487b7100000000000000000000000000000000000000000000000000000000\n        /* \"#utility.yul\":9880:9881   */\n      0x00\n        /* \"#utility.yul\":9873:9961   */\n      mstore\n        /* \"#utility.yul\":9980:9984   */\n      0x22\n        /* \"#utility.yul\":9977:9978   */\n      0x04\n        /* \"#utility.yul\":9970:9985   */\n      mstore\n        /* \"#utility.yul\":10004:10008   */\n      0x24\n        /* \"#utility.yul\":10001:10002   */\n      0x00\n        /* \"#utility.yul\":9994:10009   */\n      revert\n        /* \"#utility.yul\":10021:10341   */\n    tag_63:\n        /* \"#utility.yul\":10065:10071   */\n      0x00\n        /* \"#utility.yul\":10102:10103   */\n      0x02\n        /* \"#utility.yul\":10096:10100   */\n      dup3\n        /* \"#utility.yul\":10092:10104   */\n      div\n        /* \"#utility.yul\":10082:10104   */\n      swap1\n      pop\n        /* \"#utility.yul\":10149:10150   */\n      0x01\n        /* \"#utility.yul\":10143:10147   */\n      dup3\n        /* \"#utility.yul\":10139:10151   */\n      and\n        /* \"#utility.yul\":10170:10188   */\n      dup1\n        /* \"#utility.yul\":10160:10241   */\n      tag_255\n      jumpi\n        /* \"#utility.yul\":10226:10230   */\n      0x7f\n        /* \"#utility.yul\":10218:10224   */\n      dup3\n        /* \"#utility.yul\":10214:10231   */\n      and\n        /* \"#utility.yul\":10204:10231   */\n      swap2\n      pop\n        /* \"#utility.yul\":10160:10241   */\n    tag_255:\n        /* \"#utility.yul\":10288:10290   */\n      0x20\n        /* \"#utility.yul\":10280:10286   */\n      dup3\n        /* \"#utility.yul\":10277:10291   */\n      lt\n        /* \"#utility.yul\":10257:10275   */\n      dup2\n        /* \"#utility.yul\":10254:10292   */\n      sub\n        /* \"#utility.yul\":10251:10335   */\n      tag_256\n      jumpi\n        /* \"#utility.yul\":10307:10325   */\n      tag_257\n      tag_121\n      jump\t// in\n    tag_257:\n        /* \"#utility.yul\":10251:10335   */\n    tag_256:\n        /* \"#utility.yul\":10072:10341   */\n      pop\n        /* \"#utility.yul\":10021:10341   */\n      swap2\n      swap1\n      pop\n      jump\t// out\n        /* \"#utility.yul\":10347:10580   */\n    tag_74:\n        /* \"#utility.yul\":10386:10389   */\n      0x00\n        /* \"#utility.yul\":10409:10433   */\n      tag_259\n        /* \"#utility.yul\":10427:10432   */\n      dup3\n        /* \"#utility.yul\":10409:10433   */\n      tag_88\n      jump\t// in\n    tag_259:\n        /* \"#utility.yul\":10400:10433   */\n      swap2\n      pop\n        /* \"#utility.yul\":10455:10521   */\n      0xffffffffffffffffffffffffffffffffffffffffffffffffffffffffffffffff\n        /* \"#utility.yul\":10448:10453   */\n      dup3\n        /* \"#utility.yul\":10445:10522   */\n      sub\n        /* \"#utility.yul\":10442:10545   */\n      tag_260\n      jumpi\n        /* \"#utility.yul\":10525:10543   */\n      tag_261\n      tag_120\n      jump\t// in\n    tag_261:\n        /* \"#utility.yul\":10442:10545   */\n    tag_260:\n        /* \"#utility.yul\":10572:10573   */\n      0x01\n        /* \"#utility.yul\":10565:10570   */\n      dup3\n        /* \"#utility.yul\":10561:10574   */\n      add\n        /* \"#utility.yul\":10554:10574   */\n      swap1\n      pop\n        /* \"#utility.yul\":10347:10580   */\n      swap2\n      swap1\n      pop\n      jump\t// out\n        /* \"#utility.yul\":10586:10727   */\n    tag_122:\n        /* \"#utility.yul\":10635:10639   */\n      0x00\n        /* \"#utility.yul\":10658:10661   */\n      dup2\n        /* \"#utility.yul\":10650:10661   */\n      swap1\n      pop\n        /* \"#utility.yul\":10681:10684   */\n      dup2\n        /* \"#utility.yul\":10678:10679   */\n      0x00\n        /* \"#utility.yul\":10671:10685   */\n      mstore\n        /* \"#utility.yul\":10715:10719   */\n      0x20\n        /* \"#utility.yul\":10712:10713   */\n      0x00\n        /* \"#utility.yul\":10702:10720   */\n      keccak256\n        /* \"#utility.yul\":10694:10720   */\n      swap1\n      pop\n        /* \"#utility.yul\":10586:10727   */\n      swap2\n      swap1\n      pop\n      jump\t// out\n        /* \"#utility.yul\":10733:10826   */\n    tag_123:\n        /* \"#utility.yul\":10770:10776   */\n      0x00\n        /* \"#utility.yul\":10817:10819   */\n      0x20\n        /* \"#utility.yul\":10812:10814   */\n      0x1f\n        /* \"#utility.yul\":10805:10810   */\n      dup4\n        /* \"#utility.yul\":10801:10815   */\n      add\n        /* \"#utility.yul\":10797:10820   */\n      div\n        /* \"#utility.yul\":10787:10820   */\n      swap1\n      pop\n        /* \"#utility.yul\":10733:10826   */\n      swap2\n      swap1\n      pop\n      jump\t// out\n        /* \"#utility.yul\":10832:10939   */\n    tag_124:\n        /* \"#utility.yul\":10876:10884   */\n      0x00\n        /* \"#utility.yul\":10926:10931   */\n      dup3\n        /* \"#utility.yul\":10920:10924   */\n      dup3\n        /* \"#utility.yul\":10916:10932   */\n      shl\n        /* \"#utility.yul\":10895:10932   */\n      swap1\n      pop\n        /* \"#utility.yul\":10832:10939   */\n      swap3\n      swap2\n      pop\n      pop\n      jump\t// out\n        /* \"#utility.yul\":10945:11338   */\n    tag_125:\n        /* \"#utility.yul\":11014:11020   */\n      0x00\n        /* \"#utility.yul\":11064:11065   */\n      0x08\n        /* \"#utility.yul\":11052:11062   */\n      dup4\n        /* \"#utility.yul\":11048:11066   */\n      mul\n        /* \"#utility.yul\":11087:11184   */\n      tag_266\n        /* \"#utility.yul\":11117:11183   */\n      0xffffffffffffffffffffffffffffffffffffffffffffffffffffffffffffffff\n        /* \"#utility.yul\":11106:11115   */\n      dup3\n        /* \"#utility.yul\":11087:11184   */\n      tag_124\n      jump\t// in\n    tag_266:\n        /* \"#utility.yul\":11205:11244   */\n      tag_267\n        /* \"#utility.yul\":11235:11243   */\n      dup7\n        /* \"#utility.yul\":11224:11233   */\n      dup4\n        /* \"#utility.yul\":11205:11244   */\n      tag_124\n      jump\t// in\n    tag_267:\n        /* \"#utility.yul\":11193:11244   */\n      swap6\n      pop\n        /* \"#utility.yul\":11277:11281   */\n      dup1\n        /* \"#utility.yul\":11273:11282   */\n      not\n        /* \"#utility.yul\":11266:11271   */\n      dup5\n        /* \"#utility.yul\":11262:11283   */\n      and\n        /* \"#utility.yul\":11253:11283   */\n      swap4\n      pop\n        /* \"#utility.yul\":11326:11330   */\n      dup1\n        /* \"#utility.yul\":11316:11324   */\n      dup7\n        /* \"#utility.yul\":11312:11331   */\n      and\n        /* \"#utility.yul\":11305:11310   */\n      dup5\n        /* \"#utility.yul\":11302:11332   */\n      or\n        /* \"#utility.yul\":11292:11332   */\n      swap3\n      pop\n        /* \"#utility.yul\":11021:11338   */\n      pop\n      pop\n        /* \"#utility.yul\":10945:11338   */\n      swap4\n      swap3\n      pop\n      pop\n      pop\n      jump\t// out\n        /* \"#utility.yul\":11344:11404   */\n    tag_126:\n        /* \"#utility.yul\":11372:11375   */\n      0x00\n        /* \"#utility.yul\":11393:11398   */\n      dup2\n        /* \"#utility.yul\":11386:11398   */\n      swap1\n      pop\n        /* \"#utility.yul\":11344:11404   */\n      swap2\n      swap1\n      pop\n      jump\t// out\n        /* \"#utility.yul\":11410:11552   */\n    tag_127:\n        /* \"#utility.yul\":11460:11469   */\n      0x00\n        /* \"#utility.yul\":11493:11546   */\n      tag_270\n        /* \"#utility.yul\":11511:11545   */\n      tag_271\n        /* \"#utility.yul\":11520:11544   */\n      tag_272\n        /* \"#utility.yul\":11538:11543   */\n      dup5\n        /* \"#utility.yul\":11520:11544   */\n      tag_88\n      jump\t// in\n    tag_272:\n        /* \"#utility.yul\":11511:11545   */\n      tag_126\n      jump\t// in\n    tag_271:\n        /* \"#utility.yul\":11493:11546   */\n      tag_88\n      jump\t// in\n    tag_270:\n        /* \"#utility.yul\":11480:11546   */\n      swap1\n      pop\n        /* \"#utility.yul\":11410:11552   */\n      swap2\n      swap1\n      pop\n      jump\t// out\n        /* \"#utility.yul\":11558:11633   */\n    tag_128:\n        /* \"#utility.yul\":11601:11604   */\n      0x00\n        /* \"#utility.yul\":11622:11627   */\n      dup2\n        /* \"#utility.yul\":11615:11627   */\n      swap1\n      pop\n        /* \"#utility.yul\":11558:11633   */\n      swap2\n      swap1\n      pop\n      jump\t// out\n        /* \"#utility.yul\":11639:11908   */\n    tag_129:\n        /* \"#utility.yul\":11749:11788   */\n      tag_275\n        /* \"#utility.yul\":11780:11787   */\n      dup4\n        /* \"#utility.yul\":11749:11788   */\n      tag_127\n      jump\t// in\n    tag_275:\n        /* \"#utility.yul\":11810:11901   */\n      tag_276\n        /* \"#utility.yul\":11859:11900   */\n      tag_277\n        /* \"#utility.yul\":11883:11899   */\n      dup3\n        /* \"#utility.yul\":11859:11900   */\n      tag_128\n      jump\t// in\n    tag_277:\n        /* \"#utility.yul\":11851:11857   */\n      dup5\n        /* \"#utility.yul\":11844:11848   */\n      dup5\n        /* \"#utility.yul\":11838:11849   */\n      sload\n        /* \"#utility.yul\":11810:11901   */\n      tag_125\n      jump\t// in\n    tag_276:\n        /* \"#utility.yul\":11804:11808   */\n      dup3\n        /* \"#utility.yul\":11797:11902   */\n      sstore\n        /* \"#utility.yul\":11715:11908   */\n      pop\n        /* \"#utility.yul\":11639:11908   */\n      pop\n      pop\n      pop\n      jump\t// out\n        /* \"#utility.yul\":11914:11987   */\n    tag_130:\n        /* \"#utility.yul\":11959:11962   */\n      0x00\n        /* \"#utility.yul\":11914:11987   */\n      swap1\n      jump\t// out\n        /* \"#utility.yul\":11993:12182   */\n    tag_131:\n        /* \"#utility.yul\":12070:12102   */\n      tag_280\n      tag_130\n      jump\t// in\n    tag_280:\n        /* \"#utility.yul\":12111:12176   */\n      tag_281\n        /* \"#utility.yul\":12169:12175   */\n      dup2\n        /* \"#utility.yul\":12161:12167   */\n      dup5\n        /* \"#utility.yul\":12155:12159   */\n      dup5\n        /* \"#utility.yul\":12111:12176   */\n      tag_129\n      jump\t// in\n    tag_281:\n        /* \"#utility.yul\":12046:12182   */\n      pop\n        /* \"#utility.yul\":11993:12182   */\n      pop\n      pop\n      jump\t// out\n        /* \"#utility.yul\":12188:12374   */\n    tag_132:\n        /* \"#utility.yul\":12248:12368   */\n    tag_283:\n        /* \"#utility.yul\":12265:12268   */\n      dup2\n        /* \"#utility.yul\":12258:12263   */\n      dup2\n        /* \"#utility.yul\":12255:12269   */\n      lt\n        /* \"#utility.yul\":12248:12368   */\n      iszero\n      tag_285\n      jumpi\n        /* \"#utility.yul\":12319:12358   */\n      tag_286\n        /* \"#utility.yul\":12356:12357   */\n      0x00\n        /* \"#utility.yul\":12349:12354   */\n      dup3\n        /* \"#utility.yul\":12319:12358   */\n      tag_131\n      jump\t// in\n    tag_286:\n        /* \"#utility.yul\":12292:12293   */\n      0x01\n        /* \"#utility.yul\":12285:12290   */\n      dup2\n        /* \"#utility.yul\":12281:12294   */\n      add\n        /* \"#utility.yul\":12272:12294   */\n      swap1\n      pop\n        /* \"#utility.yul\":12248:12368   */\n      jump(tag_283)\n    tag_285:\n        /* \"#utility.yul\":12188:12374   */\n      pop\n      pop\n      jump\t// out\n        /* \"#utility.yul\":12380:12923   */\n    tag_133:\n        /* \"#utility.yul\":12481:12483   */\n      0x1f\n        /* \"#utility.yul\":12476:12479   */\n      dup3\n        /* \"#utility.yul\":12473:12484   */\n      gt\n        /* \"#utility.yul\":12470:12916   */\n      iszero\n      tag_288\n      jumpi\n        /* \"#utility.yul\":12515:12553   */\n      tag_289\n        /* \"#utility.yul\":12547:12552   */\n      dup2\n        /* \"#utility.yul\":12515:12553   */\n      tag_122\n      jump\t// in\n    tag_289:\n        /* \"#utility.yul\":12599:12628   */\n      tag_290\n        /* \"#utility.yul\":12617:12627   */\n      dup5\n        /* \"#utility.yul\":12599:12628   */\n      tag_123\n      jump\t// in\n    tag_290:\n        /* \"#utility.yul\":12589:12597   */\n      dup2\n        /* \"#utility.yul\":12585:12629   */\n      add\n        /* \"#utility.yul\":12782:12784   */\n      0x20\n        /* \"#utility.yul\":12770:12780   */\n      dup6\n        /* \"#utility.yul\":12767:12785   */\n      lt\n        /* \"#utility.yul\":12764:12813   */\n      iszero\n      tag_291\n      jumpi\n        /* \"#utility.yul\":12803:12811   */\n      dup2\n        /* \"#utility.yul\":12788:12811   */\n      swap1\n      pop\n        /* \"#utility.yul\":12764:12813   */\n    tag_291:\n        /* \"#utility.yul\":12826:12906   */\n      tag_292\n        /* \"#utility.yul\":12882:12904   */\n      tag_293\n        /* \"#utility.yul\":12900:12903   */\n      dup6\n        /* \"#utility.yul\":12882:12904   */\n      tag_123\n      jump\t// in\n    tag_293:\n        /* \"#utility.yul\":12872:12880   */\n      dup4\n        /* \"#utility.yul\":12868:12905   */\n      add\n        /* \"#utility.yul\":12855:12866   */\n      dup3\n        /* \"#utility.yul\":12826:12906   */\n      tag_132\n      jump\t// in\n    tag_292:\n        /* \"#utility.yul\":12485:12916   */\n      pop\n      pop\n        /* \"#utility.yul\":12470:12916   */\n    tag_288:\n        /* \"#utility.yul\":12380:12923   */\n      pop\n      pop\n      pop\n      jump\t// out\n        /* \"#utility.yul\":12929:13046   */\n    tag_134:\n        /* \"#utility.yul\":12983:12991   */\n      0x00\n        /* \"#utility.yul\":13033:13038   */\n      dup3\n        /* \"#utility.yul\":13027:13031   */\n      dup3\n        /* \"#utility.yul\":13023:13039   */\n      shr\n        /* \"#utility.yul\":13002:13039   */\n      swap1\n      pop\n        /* \"#utility.yul\":12929:13046   */\n      swap3\n      swap2\n      pop\n      pop\n      jump\t// out\n        /* \"#utility.yul\":13052:13221   */\n    tag_135:\n        /* \"#utility.yul\":13096:13102   */\n      0x00\n        /* \"#utility.yul\":13129:13180   */\n      tag_296\n        /* \"#utility.yul\":13177:13178   */\n      0x00\n        /* \"#utility.yul\":13173:13179   */\n      not\n        /* \"#utility.yul\":13165:13170   */\n      dup5\n        /* \"#utility.yul\":13162:13163   */\n      0x08\n        /* \"#utility.yul\":13158:13171   */\n      mul\n        /* \"#utility.yul\":13129:13180   */\n      tag_134\n      jump\t// in\n    tag_296:\n        /* \"#utility.yul\":13125:13181   */\n      not\n        /* \"#utility.yul\":13210:13214   */\n      dup1\n        /* \"#utility.yul\":13204:13208   */\n      dup4\n        /* \"#utility.yul\":13200:13215   */\n      and\n        /* \"#utility.yul\":13190:13215   */\n      swap2\n      pop\n        /* \"#utility.yul\":13103:13221   */\n      pop\n        /* \"#utility.yul\":13052:13221   */\n      swap3\n      swap2\n      pop\n      pop\n      jump\t// out\n        /* \"#utility.yul\":13226:13521   */\n    tag_136:\n        /* \"#utility.yul\":13302:13306   */\n      0x00\n        /* \"#utility.yul\":13448:13477   */\n      tag_298\n        /* \"#utility.yul\":13473:13476   */\n      dup4\n        /* \"#utility.yul\":13467:13471   */\n      dup4\n        /* \"#utility.yul\":13448:13477   */\n      tag_135\n      jump\t// in\n    tag_298:\n        /* \"#utility.yul\":13440:13477   */\n      swap2\n      pop\n        /* \"#utility.yul\":13510:13513   */\n      dup3\n        /* \"#utility.yul\":13507:13508   */\n      0x02\n        /* \"#utility.yul\":13503:13514   */\n      mul\n        /* \"#utility.yul\":13497:13501   */\n      dup3\n        /* \"#utility.yul\":13494:13515   */\n      or\n        /* \"#utility.yul\":13486:13515   */\n      swap1\n      pop\n        /* \"#utility.yul\":13226:13521   */\n      swap3\n      swap2\n      pop\n      pop\n      jump\t// out\n        /* \"#utility.yul\":13526:14921   */\n    tag_76:\n        /* \"#utility.yul\":13643:13680   */\n      tag_300\n        /* \"#utility.yul\":13676:13679   */\n      dup3\n        /* \"#utility.yul\":13643:13680   */\n      tag_98\n      jump\t// in\n    tag_300:\n        /* \"#utility.yul\":13745:13763   */\n      0xffffffffffffffff\n        /* \"#utility.yul\":13737:13743   */\n      dup2\n        /* \"#utility.yul\":13734:13764   */\n      gt\n        /* \"#utility.yul\":13731:13787   */\n      iszero\n      tag_301\n      jumpi\n        /* \"#utility.yul\":13767:13785   */\n      tag_302\n      tag_108\n      jump\t// in\n    tag_302:\n        /* \"#utility.yul\":13731:13787   */\n    tag_301:\n        /* \"#utility.yul\":13811:13849   */\n      tag_303\n        /* \"#utility.yul\":13843:13847   */\n      dup3\n        /* \"#utility.yul\":13837:13848   */\n      sload\n        /* \"#utility.yul\":13811:13849   */\n      tag_63\n      jump\t// in\n    tag_303:\n        /* \"#utility.yul\":13896:13963   */\n      tag_304\n        /* \"#utility.yul\":13956:13962   */\n      dup3\n        /* \"#utility.yul\":13948:13954   */\n      dup3\n        /* \"#utility.yul\":13942:13946   */\n      dup6\n        /* \"#utility.yul\":13896:13963   */\n      tag_133\n      jump\t// in\n    tag_304:\n        /* \"#utility.yul\":13990:13991   */\n      0x00\n        /* \"#utility.yul\":14014:14018   */\n      0x20\n        /* \"#utility.yul\":14001:14018   */\n      swap1\n      pop\n        /* \"#utility.yul\":14046:14048   */\n      0x1f\n        /* \"#utility.yul\":14038:14044   */\n      dup4\n        /* \"#utility.yul\":14035:14049   */\n      gt\n        /* \"#utility.yul\":14063:14064   */\n      0x01\n        /* \"#utility.yul\":14058:14676   */\n      dup2\n      eq\n      tag_306\n      jumpi\n        /* \"#utility.yul\":14720:14721   */\n      0x00\n        /* \"#utility.yul\":14737:14743   */\n      dup5\n        /* \"#utility.yul\":14734:14811   */\n      iszero\n      tag_307\n      jumpi\n        /* \"#utility.yul\":14786:14795   */\n      dup3\n        /* \"#utility.yul\":14781:14784   */\n      dup8\n        /* \"#utility.yul\":14777:14796   */\n      add\n        /* \"#utility.yul\":14771:14797   */\n      mload\n        /* \"#utility.yul\":14762:14797   */\n      swap1\n      pop\n        /* \"#utility.yul\":14734:14811   */\n    tag_307:\n        /* \"#utility.yul\":14837:14904   */\n      tag_308\n        /* \"#utility.yul\":14897:14903   */\n      dup6\n        /* \"#utility.yul\":14890:14895   */\n      dup3\n        /* \"#utility.yul\":14837:14904   */\n      tag_136\n      jump\t// in\n    tag_308:\n        /* \"#utility.yul\":14831:14835   */\n      dup7\n        /* \"#utility.yul\":14824:14905   */\n      sstore\n        /* \"#utility.yul\":14693:14915   */\n      pop\n        /* \"#utility.yul\":14028:14915   */\n      jump(tag_305)\n        /* \"#utility.yul\":14058:14676   */\n    tag_306:\n        /* \"#utility.yul\":14110:14114   */\n      0x1f\n        /* \"#utility.yul\":14106:14115   */\n      not\n        /* \"#utility.yul\":14098:14104   */\n      dup5\n        /* \"#utility.yul\":14094:14116   */\n      and\n        /* \"#utility.yul\":14144:14181   */\n      tag_309\n        /* \"#utility.yul\":14176:14180   */\n      dup7\n        /* \"#utility.yul\":14144:14181   */\n      tag_122\n      jump\t// in\n    tag_309:\n        /* \"#utility.yul\":14203:14204   */\n      0x00\n        /* \"#utility.yul\":14217:14425   */\n    tag_310:\n        /* \"#utility.yul\":14231:14238   */\n      dup3\n        /* \"#utility.yul\":14228:14229   */\n      dup2\n        /* \"#utility.yul\":14225:14239   */\n      lt\n        /* \"#utility.yul\":14217:14425   */\n      iszero\n      tag_312\n      jumpi\n        /* \"#utility.yul\":14310:14319   */\n      dup5\n        /* \"#utility.yul\":14305:14308   */\n      dup10\n        /* \"#utility.yul\":14301:14320   */\n      add\n        /* \"#utility.yul\":14295:14321   */\n      mload\n        /* \"#utility.yul\":14287:14293   */\n      dup3\n        /* \"#utility.yul\":14280:14322   */\n      sstore\n        /* \"#utility.yul\":14361:14362   */\n      0x01\n        /* \"#utility.yul\":14353:14359   */\n      dup3\n        /* \"#utility.yul\":14349:14363   */\n      add\n        /* \"#utility.yul\":14339:14363   */\n      swap2\n      pop\n        /* \"#utility.yul\":14408:14410   */\n      0x20\n        /* \"#utility.yul\":14397:14406   */\n      dup6\n        /* \"#utility.yul\":14393:14411   */\n      add\n        /* \"#utility.yul\":14380:14411   */\n      swap5\n      pop\n        /* \"#utility.yul\":14254:14258   */\n      0x20\n        /* \"#utility.yul\":14251:14252   */\n      dup2\n        /* \"#utility.yul\":14247:14259   */\n      add\n        /* \"#utility.yul\":14242:14259   */\n      swap1\n      pop\n        /* \"#utility.yul\":14217:14425   */\n      jump(tag_310)\n    tag_312:\n        /* \"#utility.yul\":14453:14459   */\n      dup7\n        /* \"#utility.yul\":14444:14451   */\n      dup4\n        /* \"#utility.yul\":14441:14460   */\n      lt\n        /* \"#utility.yul\":14438:14617   */\n      iszero\n      tag_313\n      jumpi\n        /* \"#utility.yul\":14511:14520   */\n      dup5\n        /* \"#utility.yul\":14506:14509   */\n      dup10\n        /* \"#utility.yul\":14502:14521   */\n      add\n        /* \"#utility.yul\":14496:14522   */\n      mload\n        /* \"#utility.yul\":14554:14602   */\n      tag_314\n        /* \"#utility.yul\":14596:14600   */\n      0x1f\n        /* \"#utility.yul\":14588:14594   */\n      dup10\n        /* \"#utility.yul\":14584:14601   */\n      and\n        /* \"#utility.yul\":14573:14582   */\n      dup3\n        /* \"#utility.yul\":14554:14602   */\n      tag_135\n      jump\t// in\n    tag_314:\n        /* \"#utility.yul\":14546:14552   */\n      dup4\n        /* \"#utility.yul\":14539:14603   */\n      sstore\n        /* \"#utility.yul\":14461:14617   */\n      pop\n        /* \"#utility.yul\":14438:14617   */\n    tag_313:\n        /* \"#utility.yul\":14663:14664   */\n      0x01\n        /* \"#utility.yul\":14659:14660   */\n      0x02\n        /* \"#utility.yul\":14651:14657   */\n      dup9\n        /* \"#utility.yul\":14647:14661   */\n      mul\n        /* \"#utility.yul\":14643:14665   */\n      add\n        /* \"#utility.yul\":14637:14641   */\n      dup9\n        /* \"#utility.yul\":14630:14666   */\n      sstore\n        /* \"#utility.yul\":14065:14676   */\n      pop\n      pop\n      pop\n        /* \"#utility.yul\":14028:14915   */\n    tag_305:\n      pop\n        /* \"#utility.yul\":13618:14921   */\n      pop\n      pop\n      pop\n        /* \"#utility.yul\":13526:14921   */\n      pop\n      pop\n      jump\t// out\n        /* \"#utility.yul\":14927:15109   */\n    tag_137:\n        /* \"#utility.yul\":15067:15101   */\n      0x536f7272792c20796f7520617265206e6f74206120636f6e7472696275746f72\n        /* \"#utility.yul\":15063:15064   */\n      0x00\n        /* \"#utility.yul\":15055:15061   */\n      dup3\n        /* \"#utility.yul\":15051:15065   */\n      add\n        /* \"#utility.yul\":15044:15102   */\n      mstore\n        /* \"#utility.yul\":14927:15109   */\n      pop\n      jump\t// out\n        /* \"#utility.yul\":15115:15481   */\n    tag_138:\n        /* \"#utility.yul\":15257:15260   */\n      0x00\n        /* \"#utility.yul\":15278:15345   */\n      tag_317\n        /* \"#utility.yul\":15342:15344   */\n      0x20\n        /* \"#utility.yul\":15337:15340   */\n      dup4\n        /* \"#utility.yul\":15278:15345   */\n      tag_99\n      jump\t// in\n    tag_317:\n        /* \"#utility.yul\":15271:15345   */\n      swap2\n      pop\n        /* \"#utility.yul\":15354:15447   */\n      tag_318\n        /* \"#utility.yul\":15443:15446   */\n      dup3\n        /* \"#utility.yul\":15354:15447   */\n      tag_137\n      jump\t// in\n    tag_318:\n        /* \"#utility.yul\":15472:15474   */\n      0x20\n        /* \"#utility.yul\":15467:15470   */\n      dup3\n        /* \"#utility.yul\":15463:15475   */\n      add\n        /* \"#utility.yul\":15456:15475   */\n      swap1\n      pop\n        /* \"#utility.yul\":15115:15481   */\n      swap2\n      swap1\n      pop\n      jump\t// out\n        /* \"#utility.yul\":15487:15906   */\n    tag_80:\n        /* \"#utility.yul\":15653:15657   */\n      0x00\n        /* \"#utility.yul\":15691:15693   */\n      0x20\n        /* \"#utility.yul\":15680:15689   */\n      dup3\n        /* \"#utility.yul\":15676:15694   */\n      add\n        /* \"#utility.yul\":15668:15694   */\n      swap1\n      pop\n        /* \"#utility.yul\":15740:15749   */\n      dup2\n        /* \"#utility.yul\":15734:15738   */\n      dup2\n        /* \"#utility.yul\":15730:15750   */\n      sub\n        /* \"#utility.yul\":15726:15727   */\n      0x00\n        /* \"#utility.yul\":15715:15724   */\n      dup4\n        /* \"#utility.yul\":15711:15728   */\n      add\n        /* \"#utility.yul\":15704:15751   */\n      mstore\n        /* \"#utility.yul\":15768:15899   */\n      tag_320\n        /* \"#utility.yul\":15894:15898   */\n      dup2\n        /* \"#utility.yul\":15768:15899   */\n      tag_138\n      jump\t// in\n    tag_320:\n        /* \"#utility.yul\":15760:15899   */\n      swap1\n      pop\n        /* \"#utility.yul\":15487:15906   */\n      swap2\n      swap1\n      pop\n      jump\t// out\n        /* \"#utility.yul\":15912:16092   */\n    tag_139:\n        /* \"#utility.yul\":16052:16084   */\n      0x536f7272792c20796f752063616e206f6e6c7920766f7465206f6e63652e0000\n        /* \"#utility.yul\":16048:16049   */\n      0x00\n        /* \"#utility.yul\":16040:16046   */\n      dup3\n        /* \"#utility.yul\":16036:16050   */\n      add\n        /* \"#utility.yul\":16029:16085   */\n      mstore\n        /* \"#utility.yul\":15912:16092   */\n      pop\n      jump\t// out\n        /* \"#utility.yul\":16098:16464   */\n    tag_140:\n        /* \"#utility.yul\":16240:16243   */\n      0x00\n        /* \"#utility.yul\":16261:16328   */\n      tag_323\n        /* \"#utility.yul\":16325:16327   */\n      0x1e\n        /* \"#utility.yul\":16320:16323   */\n      dup4\n        /* \"#utility.yul\":16261:16328   */\n      tag_99\n      jump\t// in\n    tag_323:\n        /* \"#utility.yul\":16254:16328   */\n      swap2\n      pop\n        /* \"#utility.yul\":16337:16430   */\n      tag_324\n        /* \"#utility.yul\":16426:16429   */\n      dup3\n        /* \"#utility.yul\":16337:16430   */\n      tag_139\n      jump\t// in\n    tag_324:\n        /* \"#utility.yul\":16455:16457   */\n      0x20\n        /* \"#utility.yul\":16450:16453   */\n      dup3\n        /* \"#utility.yul\":16446:16458   */\n      add\n        /* \"#utility.yul\":16439:16458   */\n      swap1\n      pop\n        /* \"#utility.yul\":16098:16464   */\n      swap2\n      swap1\n      pop\n      jump\t// out\n        /* \"#utility.yul\":16470:16889   */\n    tag_83:\n        /* \"#utility.yul\":16636:16640   */\n      0x00\n        /* \"#utility.yul\":16674:16676   */\n      0x20\n        /* \"#utility.yul\":16663:16672   */\n      dup3\n        /* \"#utility.yul\":16659:16677   */\n      add\n        /* \"#utility.yul\":16651:16677   */\n      swap1\n      pop\n        /* \"#utility.yul\":16723:16732   */\n      dup2\n        /* \"#utility.yul\":16717:16721   */\n      dup2\n        /* \"#utility.yul\":16713:16733   */\n      sub\n        /* \"#utility.yul\":16709:16710   */\n      0x00\n        /* \"#utility.yul\":16698:16707   */\n      dup4\n        /* \"#utility.yul\":16694:16711   */\n      add\n        /* \"#utility.yul\":16687:16734   */\n      mstore\n        /* \"#utility.yul\":16751:16882   */\n      tag_326\n        /* \"#utility.yul\":16877:16881   */\n      dup2\n        /* \"#utility.yul\":16751:16882   */\n      tag_140\n      jump\t// in\n    tag_326:\n        /* \"#utility.yul\":16743:16882   */\n      swap1\n      pop\n        /* \"#utility.yul\":16470:16889   */\n      swap2\n      swap1\n      pop\n      jump\t// out\n\n    auxdata: 0xa264697066735822122084dc5109aaec9607504bba90d7eb5e893e225d8e2afb874b47936e229f6d135c64736f6c63430008130033\n}\n","bytecode":{"linkReferences":{},"object":"60806040523480156200001157600080fd5b50604051620012fb380380620012fb83398181016040528101906200003791906200012c565b80600260006101000a81548173ffffffffffffffffffffffffffffffffffffffff021916908373ffffffffffffffffffffffffffffffffffffffff16021790555081600381905550505062000173565b600080fd5b6000819050919050565b620000a1816200008c565b8114620000ad57600080fd5b50565b600081519050620000c18162000096565b92915050565b600073ffffffffffffffffffffffffffffffffffffffff82169050919050565b6000620000f482620000c7565b9050919050565b6200010681620000e7565b81146200011257600080fd5b50565b6000815190506200012681620000fb565b92915050565b6000806040838503121562000146576200014562000087565b5b60006200015685828601620000b0565b9250506020620001698582860162000115565b9150509250929050565b61117880620001836000396000f3fe60806040526004361061007b5760003560e01c806382fde0931161004e57806382fde093146101455780638a9cfd5514610170578063937e09b114610199578063d7d1bbdb146101c45761007b565b806303441006146100805780630a1443911461009c578063481c6a75146100d957806381d12c5814610104575b600080fd5b61009a6004803603810190610095919061082c565b6101ed565b005b3480156100a857600080fd5b506100c360048036038101906100be91906108b7565b61035e565b6040516100d091906108ff565b60405180910390f35b3480156100e557600080fd5b506100ee61037e565b6040516100fb9190610929565b60405180910390f35b34801561011057600080fd5b5061012b6004803603810190610126919061082c565b6103a4565b60405161013c959493929190610a04565b60405180910390f35b34801561015157600080fd5b5061015a61048f565b6040516101679190610a5e565b60405180910390f35b34801561017c57600080fd5b5061019760048036038101906101929190610bda565b610495565b005b3480156101a557600080fd5b506101ae610632565b6040516101bb9190610a5e565b60405180910390f35b3480156101d057600080fd5b506101eb60048036038101906101e6919061082c565b610638565b005b600260009054906101000a900473ffffffffffffffffffffffffffffffffffffffff1673ffffffffffffffffffffffffffffffffffffffff163373ffffffffffffffffffffffffffffffffffffffff161461027d576040517f08c379a000000000000000000000000000000000000000000000000000000000815260040161027490610c95565b60405180910390fd5b60006001600083815260200190815260200160002090508060020160149054906101000a900460ff16156102b057600080fd5b60026005546102bf9190610d13565b8160030154116102ce57600080fd5b8060020160009054906101000a900473ffffffffffffffffffffffffffffffffffffffff1673ffffffffffffffffffffffffffffffffffffffff166108fc82600101549081150290604051600060405180830381858888f1935050505015801561033c573d6000803e3d6000fd5b5060018160020160146101000a81548160ff0219169083151502179055505050565b60046020528060005260406000206000915054906101000a900460ff1681565b600260009054906101000a900473ffffffffffffffffffffffffffffffffffffffff1681565b60016020528060005260406000206000915090508060000180546103c790610d73565b80601f01602080910402602001604051908101604052809291908181526020018280546103f390610d73565b80156104405780601f1061041557610100808354040283529160200191610440565b820191906000526020600020905b81548152906001019060200180831161042357829003601f168201915b5050505050908060010154908060020160009054906101000a900473ffffffffffffffffffffffffffffffffffffffff16908060020160149054906101000a900460ff16908060030154905085565b60055481565b600260009054906101000a900473ffffffffffffffffffffffffffffffffffffffff1673ffffffffffffffffffffffffffffffffffffffff163373ffffffffffffffffffffffffffffffffffffffff1614610525576040517f08c379a000000000000000000000000000000000000000000000000000000000815260040161051c90610c95565b60405180910390fd5b600460003373ffffffffffffffffffffffffffffffffffffffff1673ffffffffffffffffffffffffffffffffffffffff16815260200190815260200160002060009054906101000a900460ff1661057b57600080fd5b60006001600080600081548092919061059390610da4565b9190505581526020019081526020016000209050838160000190816105b89190610f98565b50828160010181905550818160020160006101000a81548173ffffffffffffffffffffffffffffffffffffffff021916908373ffffffffffffffffffffffffffffffffffffffff16021790555060008160020160146101000a81548160ff0219169083151502179055506000816003018190555050505050565b60035481565b6000600160008381526020019081526020016000209050600460003373ffffffffffffffffffffffffffffffffffffffff1673ffffffffffffffffffffffffffffffffffffffff16815260200190815260200160002060009054906101000a900460ff166106db576040517f08c379a00000000000000000000000000000000000000000000000000000000081526004016106d2906110b6565b60405180910390fd5b8060040160003373ffffffffffffffffffffffffffffffffffffffff1673ffffffffffffffffffffffffffffffffffffffff16815260200190815260200160002060009054906101000a900460ff161561076a576040517f08c379a000000000000000000000000000000000000000000000000000000000815260040161076190611122565b60405180910390fd5b60018160040160003373ffffffffffffffffffffffffffffffffffffffff1673ffffffffffffffffffffffffffffffffffffffff16815260200190815260200160002060006101000a81548160ff0219169083151502179055508060030160008154809291906107d990610da4565b91905055505050565b6000604051905090565b600080fd5b600080fd5b6000819050919050565b610809816107f6565b811461081457600080fd5b50565b60008135905061082681610800565b92915050565b600060208284031215610842576108416107ec565b5b600061085084828501610817565b91505092915050565b600073ffffffffffffffffffffffffffffffffffffffff82169050919050565b600061088482610859565b9050919050565b61089481610879565b811461089f57600080fd5b50565b6000813590506108b18161088b565b92915050565b6000602082840312156108cd576108cc6107ec565b5b60006108db848285016108a2565b91505092915050565b60008115159050919050565b6108f9816108e4565b82525050565b600060208201905061091460008301846108f0565b92915050565b61092381610879565b82525050565b600060208201905061093e600083018461091a565b92915050565b600081519050919050565b600082825260208201905092915050565b60005b8381101561097e578082015181840152602081019050610963565b60008484015250505050565b6000601f19601f8301169050919050565b60006109a682610944565b6109b0818561094f565b93506109c0818560208601610960565b6109c98161098a565b840191505092915050565b6109dd816107f6565b82525050565b60006109ee82610859565b9050919050565b6109fe816109e3565b82525050565b600060a0820190508181036000830152610a1e818861099b565b9050610a2d60208301876109d4565b610a3a60408301866109f5565b610a4760608301856108f0565b610a5460808301846109d4565b9695505050505050565b6000602082019050610a7360008301846109d4565b92915050565b600080fd5b600080fd5b7f4e487b7100000000000000000000000000000000000000000000000000000000600052604160045260246000fd5b610abb8261098a565b810181811067ffffffffffffffff82111715610ada57610ad9610a83565b5b80604052505050565b6000610aed6107e2565b9050610af98282610ab2565b919050565b600067ffffffffffffffff821115610b1957610b18610a83565b5b610b228261098a565b9050602081019050919050565b82818337600083830152505050565b6000610b51610b4c84610afe565b610ae3565b905082815260208101848484011115610b6d57610b6c610a7e565b5b610b78848285610b2f565b509392505050565b600082601f830112610b9557610b94610a79565b5b8135610ba5848260208601610b3e565b91505092915050565b610bb7816109e3565b8114610bc257600080fd5b50565b600081359050610bd481610bae565b92915050565b600080600060608486031215610bf357610bf26107ec565b5b600084013567ffffffffffffffff811115610c1157610c106107f1565b5b610c1d86828701610b80565b9350506020610c2e86828701610817565b9250506040610c3f86828701610bc5565b9150509250925092565b7f596f7520617265206e6f7420617574686f72697a656400000000000000000000600082015250565b6000610c7f60168361094f565b9150610c8a82610c49565b602082019050919050565b60006020820190508181036000830152610cae81610c72565b9050919050565b7f4e487b7100000000000000000000000000000000000000000000000000000000600052601260045260246000fd5b7f4e487b7100000000000000000000000000000000000000000000000000000000600052601160045260246000fd5b6000610d1e826107f6565b9150610d29836107f6565b925082610d3957610d38610cb5565b5b828204905092915050565b7f4e487b7100000000000000000000000000000000000000000000000000000000600052602260045260246000fd5b60006002820490506001821680610d8b57607f821691505b602082108103610d9e57610d9d610d44565b5b50919050565b6000610daf826107f6565b91507fffffffffffffffffffffffffffffffffffffffffffffffffffffffffffffffff8203610de157610de0610ce4565b5b600182019050919050565b60008190508160005260206000209050919050565b60006020601f8301049050919050565b600082821b905092915050565b600060088302610e4e7fffffffffffffffffffffffffffffffffffffffffffffffffffffffffffffffff82610e11565b610e588683610e11565b95508019841693508086168417925050509392505050565b6000819050919050565b6000610e95610e90610e8b846107f6565b610e70565b6107f6565b9050919050565b6000819050919050565b610eaf83610e7a565b610ec3610ebb82610e9c565b848454610e1e565b825550505050565b600090565b610ed8610ecb565b610ee3818484610ea6565b505050565b5b81811015610f0757610efc600082610ed0565b600181019050610ee9565b5050565b601f821115610f4c57610f1d81610dec565b610f2684610e01565b81016020851015610f35578190505b610f49610f4185610e01565b830182610ee8565b50505b505050565b600082821c905092915050565b6000610f6f60001984600802610f51565b1980831691505092915050565b6000610f888383610f5e565b9150826002028217905092915050565b610fa182610944565b67ffffffffffffffff811115610fba57610fb9610a83565b5b610fc48254610d73565b610fcf828285610f0b565b600060209050601f8311600181146110025760008415610ff0578287015190505b610ffa8582610f7c565b865550611062565b601f19841661101086610dec565b60005b8281101561103857848901518255600182019150602085019450602081019050611013565b868310156110555784890151611051601f891682610f5e565b8355505b6001600288020188555050505b505050505050565b7f536f7272792c20796f7520617265206e6f74206120636f6e7472696275746f72600082015250565b60006110a060208361094f565b91506110ab8261106a565b602082019050919050565b600060208201905081810360008301526110cf81611093565b9050919050565b7f536f7272792c20796f752063616e206f6e6c7920766f7465206f6e63652e0000600082015250565b600061110c601e8361094f565b9150611117826110d6565b602082019050919050565b6000602082019050818103600083015261113b816110ff565b905091905056fea264697066735822122084dc5109aaec9607504bba90d7eb5e893e225d8e2afb874b47936e229f6d135c64736f6c63430008130033","opcodes":"PUSH1 0x80 PUSH1 0x40 MSTORE CALLVALUE DUP1 ISZERO PUSH3 0x11 JUMPI PUSH1 0x0 DUP1 REVERT JUMPDEST POP PUSH1 0x40 MLOAD PUSH3 0x12FB CODESIZE SUB DUP1 PUSH3 0x12FB DUP4 CODECOPY DUP2 DUP2 ADD PUSH1 0x40 MSTORE DUP2 ADD SWAP1 PUSH3 0x37 SWAP2 SWAP1 PUSH3 0x12C JUMP JUMPDEST DUP1 PUSH1 0x2 PUSH1 0x0 PUSH2 0x100 EXP DUP2 SLOAD DUP2 PUSH20 0xFFFFFFFFFFFFFFFFFFFFFFFFFFFFFFFFFFFFFFFF MUL NOT AND SWAP1 DUP4 PUSH20 0xFFFFFFFFFFFFFFFFFFFFFFFFFFFFFFFFFFFFFFFF AND MUL OR SWAP1 SSTORE POP DUP2 PUSH1 0x3 DUP2 SWAP1 SSTORE POP POP POP PUSH3 0x173 JUMP JUMPDEST PUSH1 0x0 DUP1 REVERT JUMPDEST PUSH1 0x0 DUP2 SWAP1 POP SWAP2 SWAP1 POP JUMP JUMPDEST PUSH3 0xA1 DUP2 PUSH3 0x8C JUMP JUMPDEST DUP2 EQ PUSH3 0xAD JUMPI PUSH1 0x0 DUP1 REVERT JUMPDEST POP JUMP JUMPDEST PUSH1 0x0 DUP2 MLOAD SWAP1 POP PUSH3 0xC1 DUP2 PUSH3 0x96 JUMP JUMPDEST SWAP3 SWAP2 POP POP JUMP JUMPDEST PUSH1 0x0 PUSH20 0xFFFFFFFFFFFFFFFFFFFFFFFFFFFFFFFFFFFFFFFF DUP3 AND SWAP1 POP SWAP2 SWAP1 POP JUMP JUMPDEST PUSH1 0x0 PUSH3 0xF4 DUP3 PUSH3 0xC7 JUMP JUMPDEST SWAP1 POP SWAP2 SWAP1 POP JUMP JUMPDEST PUSH3 0x106 DUP2 PUSH3 0xE7 JUMP JUMPDEST DUP2 EQ PUSH3 0x112 JUMPI PUSH1 0x0 DUP1 REVERT JUMPDEST POP JUMP JUMPDEST PUSH1 0x0 DUP2 MLOAD SWAP1 POP PUSH3 0x126 DUP2 PUSH3 0xFB JUMP JUMPDEST SWAP3 SWAP2 POP POP JUMP JUMPDEST PUSH1 0x0 DUP1 PUSH1 0x40 DUP4 DUP6 SUB SLT ISZERO PUSH3 0x146 JUMPI PUSH3 0x145 PUSH3 0x87 JUMP JUMPDEST JUMPDEST PUSH1 0x0 PUSH3 0x156 DUP6 DUP3 DUP7 ADD PUSH3 0xB0 JUMP JUMPDEST SWAP3 POP POP PUSH1 0x20 PUSH3 0x169 DUP6 DUP3 DUP7 ADD PUSH3 0x115 JUMP JUMPDEST SWAP2 POP POP SWAP3 POP SWAP3 SWAP1 POP JUMP JUMPDEST PUSH2 0x1178 DUP1 PUSH3 0x183 PUSH1 0x0 CODECOPY PUSH1 0x0 RETURN INVALID PUSH1 0x80 PUSH1 0x40 MSTORE PUSH1 0x4 CALLDATASIZE LT PUSH2 0x7B JUMPI PUSH1 0x0 CALLDATALOAD PUSH1 0xE0 SHR DUP1 PUSH4 0x82FDE093 GT PUSH2 0x4E JUMPI DUP1 PUSH4 0x82FDE093 EQ PUSH2 0x145 JUMPI DUP1 PUSH4 0x8A9CFD55 EQ PUSH2 0x170 JUMPI DUP1 PUSH4 0x937E09B1 EQ PUSH2 0x199 JUMPI DUP1 PUSH4 0xD7D1BBDB EQ PUSH2 0x1C4 JUMPI PUSH2 0x7B JUMP JUMPDEST DUP1 PUSH4 0x3441006 EQ PUSH2 0x80 JUMPI DUP1 PUSH4 0xA144391 EQ PUSH2 0x9C JUMPI DUP1 PUSH4 0x481C6A75 EQ PUSH2 0xD9 JUMPI DUP1 PUSH4 0x81D12C58 EQ PUSH2 0x104 JUMPI JUMPDEST PUSH1 0x0 DUP1 REVERT JUMPDEST PUSH2 0x9A PUSH1 0x4 DUP1 CALLDATASIZE SUB DUP2 ADD SWAP1 PUSH2 0x95 SWAP2 SWAP1 PUSH2 0x82C JUMP JUMPDEST PUSH2 0x1ED JUMP JUMPDEST STOP JUMPDEST CALLVALUE DUP1 ISZERO PUSH2 0xA8 JUMPI PUSH1 0x0 DUP1 REVERT JUMPDEST POP PUSH2 0xC3 PUSH1 0x4 DUP1 CALLDATASIZE SUB DUP2 ADD SWAP1 PUSH2 0xBE SWAP2 SWAP1 PUSH2 0x8B7 JUMP JUMPDEST PUSH2 0x35E JUMP JUMPDEST PUSH1 0x40 MLOAD PUSH2 0xD0 SWAP2 SWAP1 PUSH2 0x8FF JUMP JUMPDEST PUSH1 0x40 MLOAD DUP1 SWAP2 SUB SWAP1 RETURN JUMPDEST CALLVALUE DUP1 ISZERO PUSH2 0xE5 JUMPI PUSH1 0x0 DUP1 REVERT JUMPDEST POP PUSH2 0xEE PUSH2 0x37E JUMP JUMPDEST PUSH1 0x40 MLOAD PUSH2 0xFB SWAP2 SWAP1 PUSH2 0x929 JUMP JUMPDEST PUSH1 0x40 MLOAD DUP1 SWAP2 SUB SWAP1 RETURN JUMPDEST CALLVALUE DUP1 ISZERO PUSH2 0x110 JUMPI PUSH1 0x0 DUP1 REVERT JUMPDEST POP PUSH2 0x12B PUSH1 0x4 DUP1 CALLDATASIZE SUB DUP2 ADD SWAP1 PUSH2 0x126 SWAP2 SWAP1 PUSH2 0x82C JUMP JUMPDEST PUSH2 0x3A4 JUMP JUMPDEST PUSH1 0x40 MLOAD PUSH2 0x13C SWAP6 SWAP5 SWAP4 SWAP3 SWAP2 SWAP1 PUSH2 0xA04 JUMP JUMPDEST PUSH1 0x40 MLOAD DUP1 SWAP2 SUB SWAP1 RETURN JUMPDEST CALLVALUE DUP1 ISZERO PUSH2 0x151 JUMPI PUSH1 0x0 DUP1 REVERT JUMPDEST POP PUSH2 0x15A PUSH2 0x48F JUMP JUMPDEST PUSH1 0x40 MLOAD PUSH2 0x167 SWAP2 SWAP1 PUSH2 0xA5E JUMP JUMPDEST PUSH1 0x40 MLOAD DUP1 SWAP2 SUB SWAP1 RETURN JUMPDEST CALLVALUE DUP1 ISZERO PUSH2 0x17C JUMPI PUSH1 0x0 DUP1 REVERT JUMPDEST POP PUSH2 0x197 PUSH1 0x4 DUP1 CALLDATASIZE SUB DUP2 ADD SWAP1 PUSH2 0x192 SWAP2 SWAP1 PUSH2 0xBDA JUMP JUMPDEST PUSH2 0x495 JUMP JUMPDEST STOP JUMPDEST CALLVALUE DUP1 ISZERO PUSH2 0x1A5 JUMPI PUSH1 0x0 DUP1 REVERT JUMPDEST POP PUSH2 0x1AE PUSH2 0x632 JUMP JUMPDEST PUSH1 0x40 MLOAD PUSH2 0x1BB SWAP2 SWAP1 PUSH2 0xA5E JUMP JUMPDEST PUSH1 0x40 MLOAD DUP1 SWAP2 SUB SWAP1 RETURN JUMPDEST CALLVALUE DUP1 ISZERO PUSH2 0x1D0 JUMPI PUSH1 0x0 DUP1 REVERT JUMPDEST POP PUSH2 0x1EB PUSH1 0x4 DUP1 CALLDATASIZE SUB DUP2 ADD SWAP1 PUSH2 0x1E6 SWAP2 SWAP1 PUSH2 0x82C JUMP JUMPDEST PUSH2 0x638 JUMP JUMPDEST STOP JUMPDEST PUSH1 0x2 PUSH1 0x0 SWAP1 SLOAD SWAP1 PUSH2 0x100 EXP SWAP1 DIV PUSH20 0xFFFFFFFFFFFFFFFFFFFFFFFFFFFFFFFFFFFFFFFF AND PUSH20 0xFFFFFFFFFFFFFFFFFFFFFFFFFFFFFFFFFFFFFFFF AND CALLER PUSH20 0xFFFFFFFFFFFFFFFFFFFFFFFFFFFFFFFFFFFFFFFF AND EQ PUSH2 0x27D JUMPI PUSH1 0x40 MLOAD PUSH32 0x8C379A000000000000000000000000000000000000000000000000000000000 DUP2 MSTORE PUSH1 0x4 ADD PUSH2 0x274 SWAP1 PUSH2 0xC95 JUMP JUMPDEST PUSH1 0x40 MLOAD DUP1 SWAP2 SUB SWAP1 REVERT JUMPDEST PUSH1 0x0 PUSH1 0x1 PUSH1 0x0 DUP4 DUP2 MSTORE PUSH1 0x20 ADD SWAP1 DUP2 MSTORE PUSH1 0x20 ADD PUSH1 0x0 KECCAK256 SWAP1 POP DUP1 PUSH1 0x2 ADD PUSH1 0x14 SWAP1 SLOAD SWAP1 PUSH2 0x100 EXP SWAP1 DIV PUSH1 0xFF AND ISZERO PUSH2 0x2B0 JUMPI PUSH1 0x0 DUP1 REVERT JUMPDEST PUSH1 0x2 PUSH1 0x5 SLOAD PUSH2 0x2BF SWAP2 SWAP1 PUSH2 0xD13 JUMP JUMPDEST DUP2 PUSH1 0x3 ADD SLOAD GT PUSH2 0x2CE JUMPI PUSH1 0x0 DUP1 REVERT JUMPDEST DUP1 PUSH1 0x2 ADD PUSH1 0x0 SWAP1 SLOAD SWAP1 PUSH2 0x100 EXP SWAP1 DIV PUSH20 0xFFFFFFFFFFFFFFFFFFFFFFFFFFFFFFFFFFFFFFFF AND PUSH20 0xFFFFFFFFFFFFFFFFFFFFFFFFFFFFFFFFFFFFFFFF AND PUSH2 0x8FC DUP3 PUSH1 0x1 ADD SLOAD SWAP1 DUP2 ISZERO MUL SWAP1 PUSH1 0x40 MLOAD PUSH1 0x0 PUSH1 0x40 MLOAD DUP1 DUP4 SUB DUP2 DUP6 DUP9 DUP9 CALL SWAP4 POP POP POP POP ISZERO DUP1 ISZERO PUSH2 0x33C JUMPI RETURNDATASIZE PUSH1 0x0 DUP1 RETURNDATACOPY RETURNDATASIZE PUSH1 0x0 REVERT JUMPDEST POP PUSH1 0x1 DUP2 PUSH1 0x2 ADD PUSH1 0x14 PUSH2 0x100 EXP DUP2 SLOAD DUP2 PUSH1 0xFF MUL NOT AND SWAP1 DUP4 ISZERO ISZERO MUL OR SWAP1 SSTORE POP POP POP JUMP JUMPDEST PUSH1 0x4 PUSH1 0x20 MSTORE DUP1 PUSH1 0x0 MSTORE PUSH1 0x40 PUSH1 0x0 KECCAK256 PUSH1 0x0 SWAP2 POP SLOAD SWAP1 PUSH2 0x100 EXP SWAP1 DIV PUSH1 0xFF AND DUP2 JUMP JUMPDEST PUSH1 0x2 PUSH1 0x0 SWAP1 SLOAD SWAP1 PUSH2 0x100 EXP SWAP1 DIV PUSH20 0xFFFFFFFFFFFFFFFFFFFFFFFFFFFFFFFFFFFFFFFF AND DUP2 JUMP JUMPDEST PUSH1 0x1 PUSH1 0x20 MSTORE DUP1 PUSH1 0x0 MSTORE PUSH1 0x40 PUSH1 0x0 KECCAK256 PUSH1 0x0 SWAP2 POP SWAP1 POP DUP1 PUSH1 0x0 ADD DUP1 SLOAD PUSH2 0x3C7 SWAP1 PUSH2 0xD73 JUMP JUMPDEST DUP1 PUSH1 0x1F ADD PUSH1 0x20 DUP1 SWAP2 DIV MUL PUSH1 0x20 ADD PUSH1 0x40 MLOAD SWAP1 DUP2 ADD PUSH1 0x40 MSTORE DUP1 SWAP3 SWAP2 SWAP1 DUP2 DUP2 MSTORE PUSH1 0x20 ADD DUP3 DUP1 SLOAD PUSH2 0x3F3 SWAP1 PUSH2 0xD73 JUMP JUMPDEST DUP1 ISZERO PUSH2 0x440 JUMPI DUP1 PUSH1 0x1F LT PUSH2 0x415 JUMPI PUSH2 0x100 DUP1 DUP4 SLOAD DIV MUL DUP4 MSTORE SWAP2 PUSH1 0x20 ADD SWAP2 PUSH2 0x440 JUMP JUMPDEST DUP3 ADD SWAP2 SWAP1 PUSH1 0x0 MSTORE PUSH1 0x20 PUSH1 0x0 KECCAK256 SWAP1 JUMPDEST DUP2 SLOAD DUP2 MSTORE SWAP1 PUSH1 0x1 ADD SWAP1 PUSH1 0x20 ADD DUP1 DUP4 GT PUSH2 0x423 JUMPI DUP3 SWAP1 SUB PUSH1 0x1F AND DUP3 ADD SWAP2 JUMPDEST POP POP POP POP POP SWAP1 DUP1 PUSH1 0x1 ADD SLOAD SWAP1 DUP1 PUSH1 0x2 ADD PUSH1 0x0 SWAP1 SLOAD SWAP1 PUSH2 0x100 EXP SWAP1 DIV PUSH20 0xFFFFFFFFFFFFFFFFFFFFFFFFFFFFFFFFFFFFFFFF AND SWAP1 DUP1 PUSH1 0x2 ADD PUSH1 0x14 SWAP1 SLOAD SWAP1 PUSH2 0x100 EXP SWAP1 DIV PUSH1 0xFF AND SWAP1 DUP1 PUSH1 0x3 ADD SLOAD SWAP1 POP DUP6 JUMP JUMPDEST PUSH1 0x5 SLOAD DUP2 JUMP JUMPDEST PUSH1 0x2 PUSH1 0x0 SWAP1 SLOAD SWAP1 PUSH2 0x100 EXP SWAP1 DIV PUSH20 0xFFFFFFFFFFFFFFFFFFFFFFFFFFFFFFFFFFFFFFFF AND PUSH20 0xFFFFFFFFFFFFFFFFFFFFFFFFFFFFFFFFFFFFFFFF AND CALLER PUSH20 0xFFFFFFFFFFFFFFFFFFFFFFFFFFFFFFFFFFFFFFFF AND EQ PUSH2 0x525 JUMPI PUSH1 0x40 MLOAD PUSH32 0x8C379A000000000000000000000000000000000000000000000000000000000 DUP2 MSTORE PUSH1 0x4 ADD PUSH2 0x51C SWAP1 PUSH2 0xC95 JUMP JUMPDEST PUSH1 0x40 MLOAD DUP1 SWAP2 SUB SWAP1 REVERT JUMPDEST PUSH1 0x4 PUSH1 0x0 CALLER PUSH20 0xFFFFFFFFFFFFFFFFFFFFFFFFFFFFFFFFFFFFFFFF AND PUSH20 0xFFFFFFFFFFFFFFFFFFFFFFFFFFFFFFFFFFFFFFFF AND DUP2 MSTORE PUSH1 0x20 ADD SWAP1 DUP2 MSTORE PUSH1 0x20 ADD PUSH1 0x0 KECCAK256 PUSH1 0x0 SWAP1 SLOAD SWAP1 PUSH2 0x100 EXP SWAP1 DIV PUSH1 0xFF AND PUSH2 0x57B JUMPI PUSH1 0x0 DUP1 REVERT JUMPDEST PUSH1 0x0 PUSH1 0x1 PUSH1 0x0 DUP1 PUSH1 0x0 DUP2 SLOAD DUP1 SWAP3 SWAP2 SWAP1 PUSH2 0x593 SWAP1 PUSH2 0xDA4 JUMP JUMPDEST SWAP2 SWAP1 POP SSTORE DUP2 MSTORE PUSH1 0x20 ADD SWAP1 DUP2 MSTORE PUSH1 0x20 ADD PUSH1 0x0 KECCAK256 SWAP1 POP DUP4 DUP2 PUSH1 0x0 ADD SWAP1 DUP2 PUSH2 0x5B8 SWAP2 SWAP1 PUSH2 0xF98 JUMP JUMPDEST POP DUP3 DUP2 PUSH1 0x1 ADD DUP2 SWAP1 SSTORE POP DUP2 DUP2 PUSH1 0x2 ADD PUSH1 0x0 PUSH2 0x100 EXP DUP2 SLOAD DUP2 PUSH20 0xFFFFFFFFFFFFFFFFFFFFFFFFFFFFFFFFFFFFFFFF MUL NOT AND SWAP1 DUP4 PUSH20 0xFFFFFFFFFFFFFFFFFFFFFFFFFFFFFFFFFFFFFFFF AND MUL OR SWAP1 SSTORE POP PUSH1 0x0 DUP2 PUSH1 0x2 ADD PUSH1 0x14 PUSH2 0x100 EXP DUP2 SLOAD DUP2 PUSH1 0xFF MUL NOT AND SWAP1 DUP4 ISZERO ISZERO MUL OR SWAP1 SSTORE POP PUSH1 0x0 DUP2 PUSH1 0x3 ADD DUP2 SWAP1 SSTORE POP POP POP POP POP JUMP JUMPDEST PUSH1 0x3 SLOAD DUP2 JUMP JUMPDEST PUSH1 0x0 PUSH1 0x1 PUSH1 0x0 DUP4 DUP2 MSTORE PUSH1 0x20 ADD SWAP1 DUP2 MSTORE PUSH1 0x20 ADD PUSH1 0x0 KECCAK256 SWAP1 POP PUSH1 0x4 PUSH1 0x0 CALLER PUSH20 0xFFFFFFFFFFFFFFFFFFFFFFFFFFFFFFFFFFFFFFFF AND PUSH20 0xFFFFFFFFFFFFFFFFFFFFFFFFFFFFFFFFFFFFFFFF AND DUP2 MSTORE PUSH1 0x20 ADD SWAP1 DUP2 MSTORE PUSH1 0x20 ADD PUSH1 0x0 KECCAK256 PUSH1 0x0 SWAP1 SLOAD SWAP1 PUSH2 0x100 EXP SWAP1 DIV PUSH1 0xFF AND PUSH2 0x6DB JUMPI PUSH1 0x40 MLOAD PUSH32 0x8C379A000000000000000000000000000000000000000000000000000000000 DUP2 MSTORE PUSH1 0x4 ADD PUSH2 0x6D2 SWAP1 PUSH2 0x10B6 JUMP JUMPDEST PUSH1 0x40 MLOAD DUP1 SWAP2 SUB SWAP1 REVERT JUMPDEST DUP1 PUSH1 0x4 ADD PUSH1 0x0 CALLER PUSH20 0xFFFFFFFFFFFFFFFFFFFFFFFFFFFFFFFFFFFFFFFF AND PUSH20 0xFFFFFFFFFFFFFFFFFFFFFFFFFFFFFFFFFFFFFFFF AND DUP2 MSTORE PUSH1 0x20 ADD SWAP1 DUP2 MSTORE PUSH1 0x20 ADD PUSH1 0x0 KECCAK256 PUSH1 0x0 SWAP1 SLOAD SWAP1 PUSH2 0x100 EXP SWAP1 DIV PUSH1 0xFF AND ISZERO PUSH2 0x76A JUMPI PUSH1 0x40 MLOAD PUSH32 0x8C379A000000000000000000000000000000000000000000000000000000000 DUP2 MSTORE PUSH1 0x4 ADD PUSH2 0x761 SWAP1 PUSH2 0x1122 JUMP JUMPDEST PUSH1 0x40 MLOAD DUP1 SWAP2 SUB SWAP1 REVERT JUMPDEST PUSH1 0x1 DUP2 PUSH1 0x4 ADD PUSH1 0x0 CALLER PUSH20 0xFFFFFFFFFFFFFFFFFFFFFFFFFFFFFFFFFFFFFFFF AND PUSH20 0xFFFFFFFFFFFFFFFFFFFFFFFFFFFFFFFFFFFFFFFF AND DUP2 MSTORE PUSH1 0x20 ADD SWAP1 DUP2 MSTORE PUSH1 0x20 ADD PUSH1 0x0 KECCAK256 PUSH1 0x0 PUSH2 0x100 EXP DUP2 SLOAD DUP2 PUSH1 0xFF MUL NOT AND SWAP1 DUP4 ISZERO ISZERO MUL OR SWAP1 SSTORE POP DUP1 PUSH1 0x3 ADD PUSH1 0x0 DUP2 SLOAD DUP1 SWAP3 SWAP2 SWAP1 PUSH2 0x7D9 SWAP1 PUSH2 0xDA4 JUMP JUMPDEST SWAP2 SWAP1 POP SSTORE POP POP POP JUMP JUMPDEST PUSH1 0x0 PUSH1 0x40 MLOAD SWAP1 POP SWAP1 JUMP JUMPDEST PUSH1 0x0 DUP1 REVERT JUMPDEST PUSH1 0x0 DUP1 REVERT JUMPDEST PUSH1 0x0 DUP2 SWAP1 POP SWAP2 SWAP1 POP JUMP JUMPDEST PUSH2 0x809 DUP2 PUSH2 0x7F6 JUMP JUMPDEST DUP2 EQ PUSH2 0x814 JUMPI PUSH1 0x0 DUP1 REVERT JUMPDEST POP JUMP JUMPDEST PUSH1 0x0 DUP2 CALLDATALOAD SWAP1 POP PUSH2 0x826 DUP2 PUSH2 0x800 JUMP JUMPDEST SWAP3 SWAP2 POP POP JUMP JUMPDEST PUSH1 0x0 PUSH1 0x20 DUP3 DUP5 SUB SLT ISZERO PUSH2 0x842 JUMPI PUSH2 0x841 PUSH2 0x7EC JUMP JUMPDEST JUMPDEST PUSH1 0x0 PUSH2 0x850 DUP5 DUP3 DUP6 ADD PUSH2 0x817 JUMP JUMPDEST SWAP2 POP POP SWAP3 SWAP2 POP POP JUMP JUMPDEST PUSH1 0x0 PUSH20 0xFFFFFFFFFFFFFFFFFFFFFFFFFFFFFFFFFFFFFFFF DUP3 AND SWAP1 POP SWAP2 SWAP1 POP JUMP JUMPDEST PUSH1 0x0 PUSH2 0x884 DUP3 PUSH2 0x859 JUMP JUMPDEST SWAP1 POP SWAP2 SWAP1 POP JUMP JUMPDEST PUSH2 0x894 DUP2 PUSH2 0x879 JUMP JUMPDEST DUP2 EQ PUSH2 0x89F JUMPI PUSH1 0x0 DUP1 REVERT JUMPDEST POP JUMP JUMPDEST PUSH1 0x0 DUP2 CALLDATALOAD SWAP1 POP PUSH2 0x8B1 DUP2 PUSH2 0x88B JUMP JUMPDEST SWAP3 SWAP2 POP POP JUMP JUMPDEST PUSH1 0x0 PUSH1 0x20 DUP3 DUP5 SUB SLT ISZERO PUSH2 0x8CD JUMPI PUSH2 0x8CC PUSH2 0x7EC JUMP JUMPDEST JUMPDEST PUSH1 0x0 PUSH2 0x8DB DUP5 DUP3 DUP6 ADD PUSH2 0x8A2 JUMP JUMPDEST SWAP2 POP POP SWAP3 SWAP2 POP POP JUMP JUMPDEST PUSH1 0x0 DUP2 ISZERO ISZERO SWAP1 POP SWAP2 SWAP1 POP JUMP JUMPDEST PUSH2 0x8F9 DUP2 PUSH2 0x8E4 JUMP JUMPDEST DUP3 MSTORE POP POP JUMP JUMPDEST PUSH1 0x0 PUSH1 0x20 DUP3 ADD SWAP1 POP PUSH2 0x914 PUSH1 0x0 DUP4 ADD DUP5 PUSH2 0x8F0 JUMP JUMPDEST SWAP3 SWAP2 POP POP JUMP JUMPDEST PUSH2 0x923 DUP2 PUSH2 0x879 JUMP JUMPDEST DUP3 MSTORE POP POP JUMP JUMPDEST PUSH1 0x0 PUSH1 0x20 DUP3 ADD SWAP1 POP PUSH2 0x93E PUSH1 0x0 DUP4 ADD DUP5 PUSH2 0x91A JUMP JUMPDEST SWAP3 SWAP2 POP POP JUMP JUMPDEST PUSH1 0x0 DUP2 MLOAD SWAP1 POP SWAP2 SWAP1 POP JUMP JUMPDEST PUSH1 0x0 DUP3 DUP3 MSTORE PUSH1 0x20 DUP3 ADD SWAP1 POP SWAP3 SWAP2 POP POP JUMP JUMPDEST PUSH1 0x0 JUMPDEST DUP4 DUP2 LT ISZERO PUSH2 0x97E JUMPI DUP1 DUP3 ADD MLOAD DUP2 DUP5 ADD MSTORE PUSH1 0x20 DUP2 ADD SWAP1 POP PUSH2 0x963 JUMP JUMPDEST PUSH1 0x0 DUP5 DUP5 ADD MSTORE POP POP POP POP JUMP JUMPDEST PUSH1 0x0 PUSH1 0x1F NOT PUSH1 0x1F DUP4 ADD AND SWAP1 POP SWAP2 SWAP1 POP JUMP JUMPDEST PUSH1 0x0 PUSH2 0x9A6 DUP3 PUSH2 0x944 JUMP JUMPDEST PUSH2 0x9B0 DUP2 DUP6 PUSH2 0x94F JUMP JUMPDEST SWAP4 POP PUSH2 0x9C0 DUP2 DUP6 PUSH1 0x20 DUP7 ADD PUSH2 0x960 JUMP JUMPDEST PUSH2 0x9C9 DUP2 PUSH2 0x98A JUMP JUMPDEST DUP5 ADD SWAP2 POP POP SWAP3 SWAP2 POP POP JUMP JUMPDEST PUSH2 0x9DD DUP2 PUSH2 0x7F6 JUMP JUMPDEST DUP3 MSTORE POP POP JUMP JUMPDEST PUSH1 0x0 PUSH2 0x9EE DUP3 PUSH2 0x859 JUMP JUMPDEST SWAP1 POP SWAP2 SWAP1 POP JUMP JUMPDEST PUSH2 0x9FE DUP2 PUSH2 0x9E3 JUMP JUMPDEST DUP3 MSTORE POP POP JUMP JUMPDEST PUSH1 0x0 PUSH1 0xA0 DUP3 ADD SWAP1 POP DUP2 DUP2 SUB PUSH1 0x0 DUP4 ADD MSTORE PUSH2 0xA1E DUP2 DUP9 PUSH2 0x99B JUMP JUMPDEST SWAP1 POP PUSH2 0xA2D PUSH1 0x20 DUP4 ADD DUP8 PUSH2 0x9D4 JUMP JUMPDEST PUSH2 0xA3A PUSH1 0x40 DUP4 ADD DUP7 PUSH2 0x9F5 JUMP JUMPDEST PUSH2 0xA47 PUSH1 0x60 DUP4 ADD DUP6 PUSH2 0x8F0 JUMP JUMPDEST PUSH2 0xA54 PUSH1 0x80 DUP4 ADD DUP5 PUSH2 0x9D4 JUMP JUMPDEST SWAP7 SWAP6 POP POP POP POP POP POP JUMP JUMPDEST PUSH1 0x0 PUSH1 0x20 DUP3 ADD SWAP1 POP PUSH2 0xA73 PUSH1 0x0 DUP4 ADD DUP5 PUSH2 0x9D4 JUMP JUMPDEST SWAP3 SWAP2 POP POP JUMP JUMPDEST PUSH1 0x0 DUP1 REVERT JUMPDEST PUSH1 0x0 DUP1 REVERT JUMPDEST PUSH32 0x4E487B7100000000000000000000000000000000000000000000000000000000 PUSH1 0x0 MSTORE PUSH1 0x41 PUSH1 0x4 MSTORE PUSH1 0x24 PUSH1 0x0 REVERT JUMPDEST PUSH2 0xABB DUP3 PUSH2 0x98A JUMP JUMPDEST DUP2 ADD DUP2 DUP2 LT PUSH8 0xFFFFFFFFFFFFFFFF DUP3 GT OR ISZERO PUSH2 0xADA JUMPI PUSH2 0xAD9 PUSH2 0xA83 JUMP JUMPDEST JUMPDEST DUP1 PUSH1 0x40 MSTORE POP POP POP JUMP JUMPDEST PUSH1 0x0 PUSH2 0xAED PUSH2 0x7E2 JUMP JUMPDEST SWAP1 POP PUSH2 0xAF9 DUP3 DUP3 PUSH2 0xAB2 JUMP JUMPDEST SWAP2 SWAP1 POP JUMP JUMPDEST PUSH1 0x0 PUSH8 0xFFFFFFFFFFFFFFFF DUP3 GT ISZERO PUSH2 0xB19 JUMPI PUSH2 0xB18 PUSH2 0xA83 JUMP JUMPDEST JUMPDEST PUSH2 0xB22 DUP3 PUSH2 0x98A JUMP JUMPDEST SWAP1 POP PUSH1 0x20 DUP2 ADD SWAP1 POP SWAP2 SWAP1 POP JUMP JUMPDEST DUP3 DUP2 DUP4 CALLDATACOPY PUSH1 0x0 DUP4 DUP4 ADD MSTORE POP POP POP JUMP JUMPDEST PUSH1 0x0 PUSH2 0xB51 PUSH2 0xB4C DUP5 PUSH2 0xAFE JUMP JUMPDEST PUSH2 0xAE3 JUMP JUMPDEST SWAP1 POP DUP3 DUP2 MSTORE PUSH1 0x20 DUP2 ADD DUP5 DUP5 DUP5 ADD GT ISZERO PUSH2 0xB6D JUMPI PUSH2 0xB6C PUSH2 0xA7E JUMP JUMPDEST JUMPDEST PUSH2 0xB78 DUP5 DUP3 DUP6 PUSH2 0xB2F JUMP JUMPDEST POP SWAP4 SWAP3 POP POP POP JUMP JUMPDEST PUSH1 0x0 DUP3 PUSH1 0x1F DUP4 ADD SLT PUSH2 0xB95 JUMPI PUSH2 0xB94 PUSH2 0xA79 JUMP JUMPDEST JUMPDEST DUP2 CALLDATALOAD PUSH2 0xBA5 DUP5 DUP3 PUSH1 0x20 DUP7 ADD PUSH2 0xB3E JUMP JUMPDEST SWAP2 POP POP SWAP3 SWAP2 POP POP JUMP JUMPDEST PUSH2 0xBB7 DUP2 PUSH2 0x9E3 JUMP JUMPDEST DUP2 EQ PUSH2 0xBC2 JUMPI PUSH1 0x0 DUP1 REVERT JUMPDEST POP JUMP JUMPDEST PUSH1 0x0 DUP2 CALLDATALOAD SWAP1 POP PUSH2 0xBD4 DUP2 PUSH2 0xBAE JUMP JUMPDEST SWAP3 SWAP2 POP POP JUMP JUMPDEST PUSH1 0x0 DUP1 PUSH1 0x0 PUSH1 0x60 DUP5 DUP7 SUB SLT ISZERO PUSH2 0xBF3 JUMPI PUSH2 0xBF2 PUSH2 0x7EC JUMP JUMPDEST JUMPDEST PUSH1 0x0 DUP5 ADD CALLDATALOAD PUSH8 0xFFFFFFFFFFFFFFFF DUP2 GT ISZERO PUSH2 0xC11 JUMPI PUSH2 0xC10 PUSH2 0x7F1 JUMP JUMPDEST JUMPDEST PUSH2 0xC1D DUP7 DUP3 DUP8 ADD PUSH2 0xB80 JUMP JUMPDEST SWAP4 POP POP PUSH1 0x20 PUSH2 0xC2E DUP7 DUP3 DUP8 ADD PUSH2 0x817 JUMP JUMPDEST SWAP3 POP POP PUSH1 0x40 PUSH2 0xC3F DUP7 DUP3 DUP8 ADD PUSH2 0xBC5 JUMP JUMPDEST SWAP2 POP POP SWAP3 POP SWAP3 POP SWAP3 JUMP JUMPDEST PUSH32 0x596F7520617265206E6F7420617574686F72697A656400000000000000000000 PUSH1 0x0 DUP3 ADD MSTORE POP JUMP JUMPDEST PUSH1 0x0 PUSH2 0xC7F PUSH1 0x16 DUP4 PUSH2 0x94F JUMP JUMPDEST SWAP2 POP PUSH2 0xC8A DUP3 PUSH2 0xC49 JUMP JUMPDEST PUSH1 0x20 DUP3 ADD SWAP1 POP SWAP2 SWAP1 POP JUMP JUMPDEST PUSH1 0x0 PUSH1 0x20 DUP3 ADD SWAP1 POP DUP2 DUP2 SUB PUSH1 0x0 DUP4 ADD MSTORE PUSH2 0xCAE DUP2 PUSH2 0xC72 JUMP JUMPDEST SWAP1 POP SWAP2 SWAP1 POP JUMP JUMPDEST PUSH32 0x4E487B7100000000000000000000000000000000000000000000000000000000 PUSH1 0x0 MSTORE PUSH1 0x12 PUSH1 0x4 MSTORE PUSH1 0x24 PUSH1 0x0 REVERT JUMPDEST PUSH32 0x4E487B7100000000000000000000000000000000000000000000000000000000 PUSH1 0x0 MSTORE PUSH1 0x11 PUSH1 0x4 MSTORE PUSH1 0x24 PUSH1 0x0 REVERT JUMPDEST PUSH1 0x0 PUSH2 0xD1E DUP3 PUSH2 0x7F6 JUMP JUMPDEST SWAP2 POP PUSH2 0xD29 DUP4 PUSH2 0x7F6 JUMP JUMPDEST SWAP3 POP DUP3 PUSH2 0xD39 JUMPI PUSH2 0xD38 PUSH2 0xCB5 JUMP JUMPDEST JUMPDEST DUP3 DUP3 DIV SWAP1 POP SWAP3 SWAP2 POP POP JUMP JUMPDEST PUSH32 0x4E487B7100000000000000000000000000000000000000000000000000000000 PUSH1 0x0 MSTORE PUSH1 0x22 PUSH1 0x4 MSTORE PUSH1 0x24 PUSH1 0x0 REVERT JUMPDEST PUSH1 0x0 PUSH1 0x2 DUP3 DIV SWAP1 POP PUSH1 0x1 DUP3 AND DUP1 PUSH2 0xD8B JUMPI PUSH1 0x7F DUP3 AND SWAP2 POP JUMPDEST PUSH1 0x20 DUP3 LT DUP2 SUB PUSH2 0xD9E JUMPI PUSH2 0xD9D PUSH2 0xD44 JUMP JUMPDEST JUMPDEST POP SWAP2 SWAP1 POP JUMP JUMPDEST PUSH1 0x0 PUSH2 0xDAF DUP3 PUSH2 0x7F6 JUMP JUMPDEST SWAP2 POP PUSH32 0xFFFFFFFFFFFFFFFFFFFFFFFFFFFFFFFFFFFFFFFFFFFFFFFFFFFFFFFFFFFFFFFF DUP3 SUB PUSH2 0xDE1 JUMPI PUSH2 0xDE0 PUSH2 0xCE4 JUMP JUMPDEST JUMPDEST PUSH1 0x1 DUP3 ADD SWAP1 POP SWAP2 SWAP1 POP JUMP JUMPDEST PUSH1 0x0 DUP2 SWAP1 POP DUP2 PUSH1 0x0 MSTORE PUSH1 0x20 PUSH1 0x0 KECCAK256 SWAP1 POP SWAP2 SWAP1 POP JUMP JUMPDEST PUSH1 0x0 PUSH1 0x20 PUSH1 0x1F DUP4 ADD DIV SWAP1 POP SWAP2 SWAP1 POP JUMP JUMPDEST PUSH1 0x0 DUP3 DUP3 SHL SWAP1 POP SWAP3 SWAP2 POP POP JUMP JUMPDEST PUSH1 0x0 PUSH1 0x8 DUP4 MUL PUSH2 0xE4E PUSH32 0xFFFFFFFFFFFFFFFFFFFFFFFFFFFFFFFFFFFFFFFFFFFFFFFFFFFFFFFFFFFFFFFF DUP3 PUSH2 0xE11 JUMP JUMPDEST PUSH2 0xE58 DUP7 DUP4 PUSH2 0xE11 JUMP JUMPDEST SWAP6 POP DUP1 NOT DUP5 AND SWAP4 POP DUP1 DUP7 AND DUP5 OR SWAP3 POP POP POP SWAP4 SWAP3 POP POP POP JUMP JUMPDEST PUSH1 0x0 DUP2 SWAP1 POP SWAP2 SWAP1 POP JUMP JUMPDEST PUSH1 0x0 PUSH2 0xE95 PUSH2 0xE90 PUSH2 0xE8B DUP5 PUSH2 0x7F6 JUMP JUMPDEST PUSH2 0xE70 JUMP JUMPDEST PUSH2 0x7F6 JUMP JUMPDEST SWAP1 POP SWAP2 SWAP1 POP JUMP JUMPDEST PUSH1 0x0 DUP2 SWAP1 POP SWAP2 SWAP1 POP JUMP JUMPDEST PUSH2 0xEAF DUP4 PUSH2 0xE7A JUMP JUMPDEST PUSH2 0xEC3 PUSH2 0xEBB DUP3 PUSH2 0xE9C JUMP JUMPDEST DUP5 DUP5 SLOAD PUSH2 0xE1E JUMP JUMPDEST DUP3 SSTORE POP POP POP POP JUMP JUMPDEST PUSH1 0x0 SWAP1 JUMP JUMPDEST PUSH2 0xED8 PUSH2 0xECB JUMP JUMPDEST PUSH2 0xEE3 DUP2 DUP5 DUP5 PUSH2 0xEA6 JUMP JUMPDEST POP POP POP JUMP JUMPDEST JUMPDEST DUP2 DUP2 LT ISZERO PUSH2 0xF07 JUMPI PUSH2 0xEFC PUSH1 0x0 DUP3 PUSH2 0xED0 JUMP JUMPDEST PUSH1 0x1 DUP2 ADD SWAP1 POP PUSH2 0xEE9 JUMP JUMPDEST POP POP JUMP JUMPDEST PUSH1 0x1F DUP3 GT ISZERO PUSH2 0xF4C JUMPI PUSH2 0xF1D DUP2 PUSH2 0xDEC JUMP JUMPDEST PUSH2 0xF26 DUP5 PUSH2 0xE01 JUMP JUMPDEST DUP2 ADD PUSH1 0x20 DUP6 LT ISZERO PUSH2 0xF35 JUMPI DUP2 SWAP1 POP JUMPDEST PUSH2 0xF49 PUSH2 0xF41 DUP6 PUSH2 0xE01 JUMP JUMPDEST DUP4 ADD DUP3 PUSH2 0xEE8 JUMP JUMPDEST POP POP JUMPDEST POP POP POP JUMP JUMPDEST PUSH1 0x0 DUP3 DUP3 SHR SWAP1 POP SWAP3 SWAP2 POP POP JUMP JUMPDEST PUSH1 0x0 PUSH2 0xF6F PUSH1 0x0 NOT DUP5 PUSH1 0x8 MUL PUSH2 0xF51 JUMP JUMPDEST NOT DUP1 DUP4 AND SWAP2 POP POP SWAP3 SWAP2 POP POP JUMP JUMPDEST PUSH1 0x0 PUSH2 0xF88 DUP4 DUP4 PUSH2 0xF5E JUMP JUMPDEST SWAP2 POP DUP3 PUSH1 0x2 MUL DUP3 OR SWAP1 POP SWAP3 SWAP2 POP POP JUMP JUMPDEST PUSH2 0xFA1 DUP3 PUSH2 0x944 JUMP JUMPDEST PUSH8 0xFFFFFFFFFFFFFFFF DUP2 GT ISZERO PUSH2 0xFBA JUMPI PUSH2 0xFB9 PUSH2 0xA83 JUMP JUMPDEST JUMPDEST PUSH2 0xFC4 DUP3 SLOAD PUSH2 0xD73 JUMP JUMPDEST PUSH2 0xFCF DUP3 DUP3 DUP6 PUSH2 0xF0B JUMP JUMPDEST PUSH1 0x0 PUSH1 0x20 SWAP1 POP PUSH1 0x1F DUP4 GT PUSH1 0x1 DUP2 EQ PUSH2 0x1002 JUMPI PUSH1 0x0 DUP5 ISZERO PUSH2 0xFF0 JUMPI DUP3 DUP8 ADD MLOAD SWAP1 POP JUMPDEST PUSH2 0xFFA DUP6 DUP3 PUSH2 0xF7C JUMP JUMPDEST DUP7 SSTORE POP PUSH2 0x1062 JUMP JUMPDEST PUSH1 0x1F NOT DUP5 AND PUSH2 0x1010 DUP7 PUSH2 0xDEC JUMP JUMPDEST PUSH1 0x0 JUMPDEST DUP3 DUP2 LT ISZERO PUSH2 0x1038 JUMPI DUP5 DUP10 ADD MLOAD DUP3 SSTORE PUSH1 0x1 DUP3 ADD SWAP2 POP PUSH1 0x20 DUP6 ADD SWAP5 POP PUSH1 0x20 DUP2 ADD SWAP1 POP PUSH2 0x1013 JUMP JUMPDEST DUP7 DUP4 LT ISZERO PUSH2 0x1055 JUMPI DUP5 DUP10 ADD MLOAD PUSH2 0x1051 PUSH1 0x1F DUP10 AND DUP3 PUSH2 0xF5E JUMP JUMPDEST DUP4 SSTORE POP JUMPDEST PUSH1 0x1 PUSH1 0x2 DUP9 MUL ADD DUP9 SSTORE POP POP POP JUMPDEST POP POP POP POP POP POP JUMP JUMPDEST PUSH32 0x536F7272792C20796F7520617265206E6F74206120636F6E7472696275746F72 PUSH1 0x0 DUP3 ADD MSTORE POP JUMP JUMPDEST PUSH1 0x0 PUSH2 0x10A0 PUSH1 0x20 DUP4 PUSH2 0x94F JUMP JUMPDEST SWAP2 POP PUSH2 0x10AB DUP3 PUSH2 0x106A JUMP JUMPDEST PUSH1 0x20 DUP3 ADD SWAP1 POP SWAP2 SWAP1 POP JUMP JUMPDEST PUSH1 0x0 PUSH1 0x20 DUP3 ADD SWAP1 POP DUP2 DUP2 SUB PUSH1 0x0 DUP4 ADD MSTORE PUSH2 0x10CF DUP2 PUSH2 0x1093 JUMP JUMPDEST SWAP1 POP SWAP2 SWAP1 POP JUMP JUMPDEST PUSH32 0x536F7272792C20796F752063616E206F6E6C7920766F7465206F6E63652E0000 PUSH1 0x0 DUP3 ADD MSTORE POP JUMP JUMPDEST PUSH1 0x0 PUSH2 0x110C PUSH1 0x1E DUP4 PUSH2 0x94F JUMP JUMPDEST SWAP2 POP PUSH2 0x1117 DUP3 PUSH2 0x10D6 JUMP JUMPDEST PUSH1 0x20 DUP3 ADD SWAP1 POP SWAP2 SWAP1 POP JUMP JUMPDEST PUSH1 0x0 PUSH1 0x20 DUP3 ADD SWAP1 POP DUP2 DUP2 SUB PUSH1 0x0 DUP4 ADD MSTORE PUSH2 0x113B DUP2 PUSH2 0x10FF JUMP JUMPDEST SWAP1 POP SWAP2 SWAP1 POP JUMP INVALID LOG2 PUSH5 0x6970667358 0x22 SLT KECCAK256 DUP5 0xDC MLOAD MULMOD 0xAA 0xEC SWAP7 SMOD POP 0x4B 0xBA SWAP1 0xD7 0xEB 0x5E DUP10 RETURNDATACOPY 0x22 0x5D DUP15 0x2A 0xFB DUP8 0x4B SELFBALANCE SWAP4 PUSH15 0x229F6D135C64736F6C634300081300 CALLER "},"gasEstimates":{"creation":{"codeDepositCost":"894400","executionCost":"infinite","totalCost":"infinite"},"external":{"approveRequest(uint256)":"infinite","approvers(address)":"2868","approversCount()":"2429","createRequest(string,uint256,address)":"infinite","finalizeRequest(uint256)":"infinite","manager()":"2559","minimumContribution()":"2473","requests(uint256)":"infinite"}},"methodIdentifiers":{"approveRequest(uint256)":"d7d1bbdb","approvers(address)":"0a144391","approversCount()":"82fde093","createRequest(string,uint256,address)":"8a9cfd55","finalizeRequest(uint256)":"03441006","manager()":"481c6a75","minimumContribution()":"937e09b1","requests(uint256)":"81d12c58"}},"storageLayout":{"storage":[{"astId":56,"contract":"DecenAngels.sol:DecenAngels","label":"numRequests","offset":0,"slot":"0","type":"t_uint256"},{"astId":61,"contract":"DecenAngels.sol:DecenAngels","label":"requests","offset":0,"slot":"1","type":"t_mapping(t_uint256,t_struct(Request)54_storage)"},{"astId":63,"contract":"DecenAngels.sol:DecenAngels","label":"manager","offset":0,"slot":"2","type":"t_address"},{"astId":65,"contract":"DecenAngels.sol:DecenAngels","label":"minimumContribution","offset":0,"slot":"3","type":"t_uint256"},{"astId":69,"contract":"DecenAngels.sol:DecenAngels","label":"approvers","offset":0,"slot":"4","type":"t_mapping(t_address,t_bool)"},{"astId":71,"contract":"DecenAngels.sol:DecenAngels","label":"approversCount","offset":0,"slot":"5","type":"t_uint256"}],"types":{"t_address":{"encoding":"inplace","label":"address","numberOfBytes":"20"},"t_address_payable":{"encoding":"inplace","label":"address payable","numberOfBytes":"20"},"t_bool":{"encoding":"inplace","label":"bool","numberOfBytes":"1"},"t_mapping(t_address,t_bool)":{"encoding":"mapping","key":"t_address","label":"mapping(address => bool)","numberOfBytes":"32","value":"t_bool"},"t_mapping(t_uint256,t_struct(Request)54_storage)":{"encoding":"mapping","key":"t_uint256","label":"mapping(uint256 => struct DecenAngels.Request)","numberOfBytes":"32","value":"t_struct(Request)54_storage"},"t_string_storage":{"encoding":"bytes","label":"string","numberOfBytes":"32"},"t_struct(Request)54_storage":{"encoding":"inplace","label":"struct DecenAngels.Request","members":[{"astId":41,"contract":"DecenAngels.sol:DecenAngels","label":"description","offset":0,"slot":"0","type":"t_string_storage"},{"astId":43,"contract":"DecenAngels.sol:DecenAngels","label":"value","offset":0,"slot":"1","type":"t_uint256"},{"astId":45,"contract":"DecenAngels.sol:DecenAngels","label":"recipient","offset":0,"slot":"2","type":"t_address_payable"},{"astId":47,"contract":"DecenAngels.sol:DecenAngels","label":"complete","offset":20,"slot":"2","type":"t_bool"},{"astId":49,"contract":"DecenAngels.sol:DecenAngels","label":"approvalCount","offset":0,"slot":"3","type":"t_uint256"},{"astId":53,"contract":"DecenAngels.sol:DecenAngels","label":"approvals","offset":0,"slot":"4","type":"t_mapping(t_address,t_bool)"}],"numberOfBytes":"160"},"t_uint256":{"encoding":"inplace","label":"uint256","numberOfBytes":"32"}}},"userdoc":{"kind":"user","methods":{},"version":1}}